:10080000001000201D1D00004F1D0000511D0000A4
:100810004D1D00004D1D00004D1D00004D1D000030
:100820004D1D00004D1D00004D1D0000531D00001A
:100830004D1D00004D1D0000551D0000571D0000FE
:10084000051600005B1D00005D1D00005F1D00001F
:10085000611D0000A50C0000651D0000671D000063
:10086000310E0000E90D00006D1D00006F1D00003D
:10087000350F0000731D0000751D0000771D00007E
:10088000791D0000000000000000000000000000D2
:100890000000000000000000000000000000000058
:1008A0000000000000000000000000000000000048
:1008B0000000000000000000000000000000000038
:1008C0000000000000000000000000000000000028
:1008D0000000000000000000000000000000000018
:1008E0000000000000000000000000000000000008
:1008F00000000000000000000000000000000000F8
:1009000010B5064C2378002B07D10548002802D0EB
:10091000044800E000BF0121217010BD78000020D4
:1009200000000000B432000008B5084B002B03D0D3
:100930000748084900E000BF07480168002903D0C4
:10094000064A002A00D0904708BDC04600000000BB
:10095000B43200007C00002078000020000000007D
:10096000164B002B00D1144B9D46402292029A1A3E
:10097000924600218B460F461348144A121A01F082
:10098000B4FF0F4B002B00D098470E4B002B00D02C
:1009900098470020002104460D4600200C49002203
:1009A000002301F039FF01F071FF2046294600F0D5
:1009B00085FB01F03DFFC04600000800001000204C
:1009C000000000000000000078000020F802002075
:1009D0006128000084B0F0B5474680B488B00E901E
:1009E0000F91314801211193109200F02BFC2F49F7
:1009F0000B2201A801F070FF002407AB2C4D1C70E6
:100A00002C4B012204AE049405943270727006944B
:100A10009046EB61284A294B294F1A60294BFA224C
:100A200092001A60281C6C6200216C6301AAEC63BE
:100A30003C6001F03FF96C64281CEC64012101AAC0
:100A40007C6001F037F96C6501AAEC65281C022175
:100A5000BC6001F02FF90EAB5A7E1204AA621B7A19
:100A6000002B03D0AB6A42461343AB620EAB1B7C38
:100A7000002B04D00E4B0222996A0A439A620EABF5
:100A80001B7E002B04D00A4B0422996A0A439A6207
:100A90000748311C01F0D0F808B004BC9046F0BC07
:100AA00008BC04B01847C046000202002031000014
:100AB000000001401027000080969800A000002050
:100AC00094000020A40000200F4B10B51A68041CED
:100AD0000023081C002101F077FA0A4B084A01F0B4
:100AE00053FA0A4A23019B1800225A60084A23013C
:100AF0009B185860074BA400E05010BDC046C0468C
:100B00001027000000000000A40000203000014079
:100B1000380001409400002010B5012282B001206D
:100B2000012100F041FD0E48032100F095FC0D4825
:100B3000012100F087FB01AC0B48012100F082FB92
:100B40000A490322201C01F0C7FE01232370A37071
:100B5000201C0023637001F05DF802B010BDC04698
:100B60000200060030040800002304002C310000BD
:100B7000FA2108B58900C00301F0B6F9411E002032
:100B800001F03AF808BDC046044B0222D9690A4375
:100B9000DA61034B802252011A607047000008405E
:100BA00000E100E0014B02229A617047000008401A
:100BB00084B0F0B55F4656464D464446F0B485B025
:100BC0000D1C0F91111CC4B20E90C9B22F4889465A
:100BD000012110929A468346119300F033FB2C4971
:100BE00000232C4F0B606B46884607CF07C33F6836
:100BF00029481F60012100F025FB5846012100F023
:100C000021FB201C291C0A22012300F051FD48462B
:100C100051460A22012300F04BFDE2000123141982
:100C20001E4A181CA400A418A8402061051C4846B0
:100C30005146C2008B404A441949920052185360F1
:100C400025615360256153602561536025615360C0
:100C500025615360256153602561536025615360B0
:100C60000EAB1B7C03221B02134342469363404698
:100C7000694600F07BFD05B03CBC90469946A24613
:100C8000AB46F0BC08BC04B01847C04600B2020036
:100C900000A00040303100001081020000600040E0
:100CA00010600040044808B5836A036300F0A0FDAB
:100CB000024B187008BDC04600A00040C0000020D4
:100CC000F0B55F4656464D46E0B400238CB09946D9
:100CD0000027042304AD01AE9B46BA464B462B8049
:100CE0005B466B8053463370737001232B8102ABDC
:100CF000EB6014480823291C6E602B8200F0F6FE7E
:100D0000012809D1104C02E0013C002C0FD00D4805
:100D100000F06EFD0128F7D0002808D1281C0B49EF
:100D20004A463B1C01F0EAFD281C00F047F802236C
:100D300001379944802FD1D10CB01CBC91469A4602
:100D4000A346F0BD00A00040B80B000054310000E5
:100D500084B030B585B0C4B208900991144801211F
:100D60000A920B9300F06EFA201C099904220123C9
:100D700000F09EFC201C0A990122002300F098FC40
:100D80000C4B6A4631CB31C21B68694613600C9824
:100D900008AB02901B7B022207481B0213434365EA
:100DA00000F0DAFE05B030BC08BC04B01847C046FD
:100DB00040051400743100000040084038B5051C9F
:100DC000002405E00748013400F008FF962C02D00B
:100DD000295D0029F6D1034910228B681A42FCD004
:100DE00038BDC046004008400D4B10B51A69510689
:100DF0000FD50C48016800290FD00B4A1468095D13
:100E00005963136801331360084B12681B689A42D8
:100E100000D010BD00230360FBE75963F9E7C0462B
:100E200000C4004044010020480100203C01002093
:100E3000164838B503691A0600D438BD00F066FFBD
:100E4000134CCA235B00E35C002B19D1114D635D89
:100E5000002B15D1C8235B00E258A054E2580132A0
:100E6000E2500D4B1B68984701280DD0C8235B004A
:100E7000E2580A4B9A4203D9CA2301225B00E2548A
:100E8000024B04229A64D8E76055EFE700C40040A3
:100E90004C01002095010000E40200208F010000B9
:100EA00008B50848062100F0D7FA0748012100F0EC
:100EB000C9F90648012100F0C5F90548012100F0F3
:100EC000C1F908BD030012000023040010810200D4
:100ED0000072020030B5154B8DB01B78580712D444
:100EE00001231348C821042202E00133792B04D0E6
:100EF0003D2BFAD142503E23FAE70D4A0421C42388
:100F0000D1500DB030BD05AB052201211A701A7306
:100F100009910A911A76694609AA31CA31C102219A
:100F200005980222089B00F0DFF8D9E7A80000200E
:100F30000060004010B53D4C0020217800F06EF9B3
:100F400023781433DBB2502B00D9002323703848A8
:100F50000123C821042202E00133792B04D03D2B68
:100F6000FAD142503E23FAE7314AC4230421D1503A
:100F7000C820012302E00133792B04D03D2BFAD1A4
:100F800011503E23FAE72A4AC4230421D150C82035
:100F9000012302E00133792B04D03D2BFAD111500B
:100FA0003E23FAE7224AC4230421D150C82001235A
:100FB00002E00133792B04D03D2BFAD111503E23AE
:100FC000FAE71B4AC4230421D150C820012302E0C0
:100FD0000133792B04D03D2BFAD111503E23FAE78F
:100FE000134AC4230421D150C820012302E0013355
:100FF000792B04D03D2BFAD111503E23FAE70C4A4D
:10100000C4230421D150C820012302E00133792BED
:1010100004D03D2BFAD111503E23FAE7044A0421B3
:10102000C423D150FFF7BEFD10BDC046A90000206B
:101030000060004010B5094C0023237000F0ECF86C
:10104000012803D00648FFF7B9FE10BD0548FFF799
:10105000B5FE2278042313432370F6E7A80000208E
:10106000983100008431000010B58CB002AB05222D
:101070001A700324E1221C735202059B009202980D
:1010800000210122FFF764FE0A48FFF797FE07AB35
:1010900001221A740B9A1C701C7207980092072187
:1010A000099A0623FFF784FD0348FFF709FE0CB0F9
:1010B00010BDC046B831000000A0004008B5FFF7E1
:1010C000EFFEFFF7D1FFFFF7B5FF0648FFF776FE0B
:1010D000FFF700FFFFF720FD3220FFF749FDFFF784
:1010E00053FDFEE7C431000084B0F0B557464E46CC
:1010F0004546E0B48CB0C4B214901898169281465C
:10110000151CDAB2101C0F1C1591179349460123C8
:101110009246199E042200F0CBFA201C391C0422AE
:101120000123A04600F0C4FA04AC002E46D0002DE6
:1011300001D000232372012E40D1022D01D00023C3
:1011400023760123002E56D151464A4623746172FC
:10115000E260012351464A462376617462610123AD
:10116000002D3DD04046237220706760012D3CD198
:1011700001234246237662746761254F14AB1B7EC0
:101180003E60244E6376356008AB6A4623CB23C2AB
:1011900004340ECC0498FFF71DFC38780021FFF7CB
:1011A00093FC30780021FFF78FFC0CB01CBC9046FC
:1011B0009946A246F0BC08BC04B01847012D01D0E6
:1011C00000232374022EB8D10123524648462372CD
:1011D0002374227060606272E0600123002DC1D12F
:1011E000237443466372E760C2E723746072E7606A
:1011F000022DC2D0BCE751464A462372217062607C
:10120000012EA6D023746172E260022EA1D1A6E75E
:10121000EC020020E80200200120704708B50028F9
:1012200007D1064B1878FA239B005943FFF74CFC73
:1012300008BD0128FCD1024BF4E7C046EC020020B7
:10124000E8020020030570B51B0F062B0ED8124ACA
:101250009B00D3589F46114AC003C00E1368012457
:101260008440A3438140181C0843106070BD0C4AA1
:10127000F2E70C4AF0E70C4AEEE70C4A01240C4D69
:10128000C0036B6DC00EDE07E8D42B6D2342FCD18A
:10129000E4E71024074AF2E7D031000078800C40E0
:1012A00008800C4044800C4040800C4058800C402A
:1012B00000800C4060800C4008B5F8239B03184068
:1012C000C023DB02984200D173E00ED990235B0368
:1012D000984249D017D9A0235B03984253D0D0231A
:1012E0005B0398422ED000200CE080239B029842A2
:1012F00000D16FE08023DB02984220D00028F2D199
:1013000000F094FD08BD80231B039842EBD14C4AAA
:101310000321936A0B40022B00D183E0032B00D101
:101320007CE0012B6AD0936A00201B0C01D000F0F6
:10133000D1FD434B0F229B6E1340D840E2E700F0F3
:101340001DFDDFE73E4BE0215B69C90080220B40B9
:10135000920093426FD045D9C0229200934268D048
:101360008B42C0D13748CDE7354A936A1B079B0FA4
:10137000022B4DD0032B47D0012B3CD0936A002089
:101380001B0DBFD023E02E4A936A1B079B0F022B35
:1013900041D0032B49D0012B33D0936A00201B0D81
:1013A00001D000F097FD264B03221B6F1340D8405D
:1013B000A8E7234A0321936A0B40022B28D0032B72
:1013C00022D0012B17D0936A00201B0C9AD000F07A
:1013D00081FD97E700F02AFD194B0F229B6813400F
:1013E000D8408FE7002B28D080225200934200D0B3
:1013F00079E7154886E700F069FD83E700F066FDB0
:1014000097E700F063FDCEE700F0B8FC400879E70D
:1014100000F064FD76E700F061FDC4E700F0AEFC8B
:10142000400886E700F05AFD83E700F0A7FC40087B
:10143000B9E7064866E7064864E7064862E7C0463B
:1014400000800C40406F4001C0D8A70040420F0010
:10145000C0CF6A00809FD50038B50F240440012C0E
:101460000AD0002C00D138BD032CFCD80929FAD8A9
:10147000434B89005B589F460929F4D8414B8900AA
:101480005B589F468022802352035B020021022C7E
:101490006ED03D4B3D49986A01400A439A62E2E7AB
:1014A0003B4B042219680A431A6003210C220023D3
:1014B000EDE7354940230B628022CB6A1A42FCD00B
:1014C00000F0ECF8042200230121E0E72E498023FC
:1014D0005B0080220B629200CB6A1342FCD000F0CA
:1014E000DDF8082200230221D1E700220023002199
:1014F000CDE703250123022223490B62CB6A134265
:10150000FCD000F0CBF8234B07225B68111C19407C
:10151000012902D89343012213431E4C63601A4BE6
:101520005D6200F0BBF800F029FC1B4A636881187B
:101530001A4A914216D80722934301221343154AAF
:10154000536090E70125D5E7032540238022D3E7A8
:101550008023802204255B009200CDE7022504232E
:101560000822C9E70E4A9042E9D807229343E6E7EA
:10157000054A0B43906A0B4908400343936272E7A4
:10158000EC3100001432000000800C40F3FFEFFF4C
:1015900040800C4000000C40FFDB0BFFFF23F400F9
:1015A0000024F400FCFFFEFF08B5042807D8134B05
:1015B00080001B589F46124B186200F06FF808BD60
:1015C000012302200029F6D00D490B62002AF4D035
:1015D0000A1CD36A0342FCD000F060F8EFE7102346
:1015E0002020EFE7802380205B008000EAE7402393
:1015F0008020E7E704230820E4E7C0463C320000EF
:1016000000800C40F0B557464E464546E0B4802376
:101610001F4F5B01FA581F4BFB58134034D4BA6B71
:101620000221141C1C4093439A468846012600253B
:10163000002C1ED0184A9146264216D0331CBA6898
:10164000AB4049467B502B01D318DB68002B0CD0F4
:10165000197A01224A401A721A689446002A04D064
:101660004A1E9141281C5A68E04764080135002C45
:10167000E2D101235B4298444146002905D11CBCBC
:1016800090469946A246F0BDFEE75446CFE7C046D5
:1016900000200C400C10000008100000024BDA6A19
:1016A000024B1A807047C04600800C40AA00002000
:1016B000F0B54F464646C0B4C400002A09D0C40065
:1016C000012625188E40AD00002B3DD0244FED198A
:1016D0002E612518AD00072920D8214EAD196F685D
:1016E0008E00B9460F27B740B0464E46BE43B446BB
:1016F000171C4646B74066463E436E60002A09D135
:10170000002B25D101238B40191C2018154B80007C
:10171000C01841600CBC90469946F0BD104FED19C1
:10172000AE68B146104E8F19BF00B8460F273E1C59
:101730004746BE404F46B743BC464646171CB740D7
:1017400066463E43AE60D9E7064FED196E60C0E7CE
:101750002018034F012380008B40C0190361D9E793
:101760000060004010600040F8FFFF3FF8B5002324
:1017700043631B4B0D1C03630368022249789343A8
:1017800001224A40520013430360AE68041C2F7BC1
:101790006868002E14D02268124B1340236023681F
:1017A0003A0213432360002815D0B300C01A0E4B31
:1017B000D95D714300F098FB23689A0707D4206134
:1017C0002368012293432A7813432360F8BD00283D
:1017D000F5D10120F3E70548FFF76EFDE5E7C046C8
:1017E000CFFF0100FFFCFFFF7432000010810200F8
:1017F000F0B55F4656464D464446F0B4B84B83B00C
:10180000984200D0FDE0B74BB74C5A88A1469446A9
:101810008026402204249F6819781D79B24690469C
:10182000A346826AC024E400144000D00CE10829D9
:1018300011D9FB225A706146092259801D711A7014
:10184000A74B05205C63404203B03CBC90469946E0
:10185000A246AB46F0BD8C004E463659B74607212E
:10186000644619705C801D71960619D5ED007F19CC
:101870009B483A895988C4698A4200D8DBE07D6870
:101880006C54013189B259808A4200D8D3E00423D4
:101890004360012A04D0013A914201D108234360F8
:1018A0000120D1E708211970802160464900588045
:1018B0001D710A42F4D08A4A1163587809221A70BD
:1018C0008749002240B24A630128BDD15A700020E6
:1018D000BAE766465E801D7179883A88C80600D4EA
:1018E0009AE00620120A0240F02002434C0701D57C
:1018F00001210A4304211970794B0121596001200B
:101900005A62A1E75646164200D0B0E04146114265
:1019100000D1D1E001637A885E4616426FD06046FE
:10192000072258801D711A7001208DE7EA00BA184D
:101930001489644500D9ABE07A8801355C46EDB284
:1019400014406CD10126324000D0C5E0012D78D979
:101950005A801D7108221A70614B02225A600120C0
:1019600072E75646164200D081E04146114200D14E
:101970009BE0424602637A885949D40600D5A2E02A
:1019800094073CD51D7166460722ED005E801A70F3
:101990007F193B89012B00D082E708234B6001208F
:1019A00052E7604658801D717A88D1062CD5398857
:1019B0000622090A1140F022114301221A70484BF5
:1019C000012059625A603FE7514611425DD14446B9
:1019D000144228D1022266461A705E801D710120D1
:1019E00032E75146114250D14446144206D10622F4
:1019F00066461A705E801D71012025E7046305218B
:101A00000FE7042040421FE73988FE200140940779
:101A1000D3D501221143D0E7FE20024066E700261D
:101A2000B4460321FDE604637A880321940700D5B8
:101A3000F7E60521F5E6012A8CD1294A08215160F3
:101A400088E700229446ECE664465C801D719605AA
:101A500005D5FD225A70FD2009221A7030E7500585
:101A600001D45878F8E7FE225A70FE20F4E7604669
:101A700058801B4A80211D711163FF215970082174
:101A80001970022353600120DEE662465A80F0E7B7
:101A900052686046115C124A1D7151626246013201
:101AA0005A8006221A700120CEE601221A70624680
:101AB0005A801D710120C7E604221A7062465A80BE
:101AC0001D710120C0E6664602225E801D711A70FB
:101AD0003B7801204B62B7E65C801D713AE7C04657
:101AE00000A00040AC0000205032000008B5174BA9
:101AF000984229D18368DA0701D5202343604B88B7
:101B00009A0702D50A89002A1ED05A0702D50B8AE5
:101B1000002B19D00E4B002201201A711A705A8026
:101B200058709960094BC0225A609A6A910609D48C
:101B30000648084B0363FC23DB004363FFF758FEB2
:101B400040B208BDDB69F3E7FC20F9E700A00040E4
:101B5000AC000020CFFF0100036C70B5041C0D1C0D
:101B6000DA0703D40222636C1A42FCD10A236360B1
:101B7000636C002BFCD10123236423682A7B1C2186
:101B80008B4313436A7B68681343AA7BAE68134395
:101B9000236000280AD10E4B9C4204D02B7863604E
:101BA0000023236470BD0B48FFF786FB311C400106
:101BB00000F09AF9011C084B2039C9001940236C28
:101BC000DA0703D40422636C1A42FCD1E160E5E732
:101BD0000040084040051400F87F000000B51022C6
:101BE00083681A42FCD0036CDA0703D44022436CAA
:101BF0001A42FCD1816200BD00B5002802D1034B1E
:101C0000196000BD0128FCD1014BF9E7080008402C
:101C10000C000840427800B50378002A01D0022267
:101C200013438278002A01D004221343014A13602F
:101C300000BDC0460000084030B50B78002B01D134
:101C400002224260002242628C78CA782406120482
:101C500022430C7A22438C79A4022243CC792402B9
:101C600022434C78651EAC41A40122434C7A651E88
:101C7000AC41E40122438C7A651EAC4164012243ED
:101C8000CC7A651EAC41240122430C79651EAC411F
:101C9000640322434C79097B651EAC41240722432F
:101CA0004C1EA141C9000A430260002B01D0012350
:101CB000436030BD30B514785378A4061B06234327
:101CC0009479033123439478090124042343D4787D
:101CD000240323431479A402234354792402234385
:101CE000D479651EAC4164052343147A651EAC416A
:101CF00024052343547A927A651EAC412401234380
:101D0000541EA241920013430B5030BD00B58022F7
:101D100003691A42FCD0C069C0B200BD06488047C2
:101D20000649074A074B9B1A03DD043BC858D050AD
:101D3000FBDC054800470000C91E0000C03200005F
:101D4000000000207800002061090000FEE7FEE7A7
:101D5000FEE7FEE7FEE7FEE7FEE7FEE7FEE7FEE75B
:101D6000FEE7FEE7FEE7FEE7FEE7FEE7FEE7FEE74B
:101D7000FEE7FEE7FEE7FEE7FEE7C046224AF02365
:101D8000D16A9B010B40802100B549018B4226D0CE
:101D9000802189018B421FD0802109018B4210D004
:101DA000D268E023DB00134080229200934223D0CC
:101DB00018D8002B22D08022520093421AD1134A05
:101DC00001E0134B1A68104B0F205B681840114B51
:101DD000C240101C1A6000BD0F4B1A68F3E7802246
:101DE0001202F0E7C022920093420BD08022D20070
:101DF000934205D00022E6E7084AE4E7084AE2E712
:101E0000084AE0E7084ADEE700800C4040B564007D
:101E100004000020F002002000000020C0D8A7002D
:101E2000804F1200406F4001809FD5001E4AF02372
:101E3000D16A9B010B40802100B549018B421ED025
:101E4000802189018B4217D0802109018B4210D05B
:101E5000D268E023DB0013408022920093421BD023
:101E600010D8002B1AD080225200934212D10F4872
:101E700001E00F4B186800BD0E4B1868FBE780208F
:101E80000002F8E7C022920093420BD08022D200D9
:101E9000934205D00020EEE70748ECE70748EAE761
:101EA0000748E8E70748E6E700800C4040B56400D3
:101EB0000400002000000020C0D8A700804F1200BE
:101EC000406F4001809FD5007047C04680200002CF
:101ED0007047C046FA2080007047C046014B186822
:101EE0007047C04600000020002934D001230022A2
:101EF00010B488422CD301242407A14204D2814289
:101F000002D209011B01F8E7E400A14204D2814298
:101F100002D249005B00F8E7884201D3401A1A4315
:101F20004C08A04202D3001B5C0822438C08A0424C
:101F300002D3001B9C082243CC08A04202D3001B02
:101F4000DC082243002803D01B0901D00909E3E77C
:101F5000101C10BC7047002801D00020C04307B4FB
:101F6000024802A14018029003BDC04619000000BB
:101F70000029F0D003B5FFF7B9FF0EBC4243891A20
:101F80001847C0467047C046002B11D1002A0FD118
:101F9000002900D1002802D00021C943081C07B441
:101FA000024802A14018029003BDC046D9FFFFFFBE
:101FB00003B4684601B5029800F046F8019B9E46BE
:101FC00002B00CBC7047C0469C460304F0B51B0C25
:101FD00017043F0C150C1E1C041C000C7E436B43A5
:101FE00047434543FB18300C1818874202D9802715
:101FF0007B02ED18070CED1967467C434A43360413
:10200000330CA11800044919C018F0BDF8B54F46AB
:102010004646C0B41D1C141C061C0F1C00F030F8F2
:10202000814688464346291C4A46201CFFF7CCFFC0
:10203000089B361A8F411E605F60484641460CBCC3
:1020400090469946F8BDC046F8B54F464646C0B4DE
:102050001D1C141C061C0F1C00F0FAF92B1C221C62
:1020600081468846FFF7B0FF089B361A8F411E60F5
:102070005F60484641460CBC90469946F8BDC04654
:10208000F0B54D4644465F465646F0B41C1C85B03C
:102090000025002900DAE2E0002C00DAD8E08346CF
:1020A0000F1C92461E1C141C80468946002B5AD1D8
:1020B0008A426DD9101C00F091FB00280CD020231F
:1020C000191A5A463E1CCA408640171C37435E46C2
:1020D00086408440B946B046260C2004030C311CCF
:1020E00048469B46FFF700FF59464143071C8A4676
:1020F0004846311CFFF73CFF42460804130C1843C6
:10210000824509D90019791E844200D97EE18245B1
:1021100000D87BE1023F00195246831A181C311C7B
:102120009A46FFF7E1FE5946414381468B465046A9
:10213000311CFFF71DFF464632040804130C1843F8
:1021400083450BD94E460119013E8C4200D95FE10F
:102150008B4500D85CE102246042814438044F463C
:102160003843002603E08B4265D900260020021C7C
:10217000331C002D03D0311C002342428B41101C24
:10218000191C05B03CBC90469946A246AB46F0BD32
:10219000002A04D101200021FFF7A6FE041C201C08
:1021A00000F01CFB002862D14F4623043E1B180C94
:1021B000B146270C00900126391C4846FFF794FED3
:1021C000009A82464243391C48469346FFF7D0FEA8
:1021D00043460904180C01438B4508D95246091996
:1021E000013A8C4202D88B4500D928E192465A46E2
:1021F000881A391C8346FFF777FE009981464143D0
:1022000058460091391CFFF7B3FE47463B04009F38
:1022100008041A0C1043874208D94B460119013BA8
:102220008C4202D88F4200D90EE1994652461004E2
:102230004F4638439BE7181C00F0D0FA041E6ED1BD
:10224000BE4202D3DA4500D98FE7002601208EE78F
:10225000161C1F1CED4300237242BB411FE7051CE7
:102260000E1C00216842B14101256D4214E7202176
:102270000B1A4746DF404E464A46DE4082408440C5
:10228000391C434683401143270C2004020C019162
:10229000301C391C98460092FFF726FE00998246B2
:1022A0004143301C8946391CFFF762FE019E090438
:1022B000330C194389450CD95046091901388C4211
:1022C00000D9BAE0894500D8B7E002225642B244AC
:1022D00009194B46C81A391C8146FFF705FE0099BB
:1022E000061C414348468B46391CFFF741FE019AC4
:1022F00009041304180C01438B4509D90919721EEE
:102300008C4200D995E08B4500D892E0023E091935
:102310005B465246C81A110481460E434CE72023FF
:102320001B1A5246DA408640164350465A46DA4057
:10233000A040391CD9400090131CA74030043B43F7
:102340008946370C010C02914846391C0193FFF76E
:10235000CBFD029A82464243391C48469346FFF71A
:1023600007FE019B0904180C01438B450AD952460C
:102370008919013A8E425ED88B455CD902235842B6
:10238000824489195A46891A0391081C391CFFF79F
:10239000ABFD029B391C4343814603989B46FFF7E4
:1023A000E7FD019F09043804020C11438B450AD94B
:1023B0004B468919013B8E4239D88B4537D90227C4
:1023C0007842814489195E4653468A1B180449465F
:1023D0000843009993460A040704120C3B0C060CB0
:1023E0000F0C111C594372437B437E43D3180F0CCF
:1023F0008C46D9198A4202D980225302F6180F0C52
:10240000F219934510D305D00026B0E60F1C83E6E1
:10241000B146A3E6664643463704A34009043A0C96
:102420001C1C8B189C42EFD2013800269FE699466F
:10243000C9E7161C6CE79246A4E7824649E70223E7
:10244000584282440919D2E6022460428144EDE6F2
:10245000F0B55F464D4644465646F0B4914683B0CB
:10246000041C0F1C9846151C061C8B46002B55D1CE
:102470008A426BD9101C00F0B1F900280AD0202242
:102480003B1C211C171AF94083400C1C1C4385403F
:10249000A34686402C0C2804030C211C5846994660
:1024A000FFF722FD4F4680464743211C5846FFF761
:1024B0005FFD300C090401438F420CD94346491992
:1024C000013B8D4200D95FE18F4200D85CE10222DE
:1024D000504280444919CF1B381C211CFFF704FDD2
:1024E0004B464343BA46211C071C50469B46FFF708
:1024F0003FFD36040C04310C21438B4508D94819A3
:102500007A1E854200D93DE1023F834500D839E17A
:10251000454628040023384398460FE08B420AD8EA
:10252000181C00F05BF9051E60D1B84500D225E10A
:10253000A14500D822E10025A8460020414603B06D
:102540003CBC90469946A246AB46F0BD002A04D159
:1025500001200021FFF7C8FC051C281C00F03EF9F3
:10256000002800D0B3E07C1B01212F04A2463F0CC1
:102570002C0C8846211C5046FFF7B6FC8346784356
:10258000211C81465046FFF7F3FC330C0804184326
:10259000814508D95A464019013A854202D88145F9
:1025A00000D915E193464A46801A211C8146FFF75F
:1025B0009BFC211C824647434846FFF7D9FC360462
:1025C0000C04320C224397420BD953465019013B5D
:1025D000854200D9DAE0874200D8D7E002256F4271
:1025E000BA445946080454462043A7E746462023E8
:1025F00086404A46181AC2401643221CC240494629
:102600003B1CC340A940101CAF409B46384300917F
:10261000370C31040B0C0190391C58469A46FFF7D1
:1026200063FC524642438146391C58469046FFF7A8
:102630009FFC019B09041A0C1143884506D94846A2
:10264000891901388E4200D8B6E081464046091A01
:102650008B46081C391CFFF747FC53464343391C83
:10266000804658469A46FFF783FC019F09043804C8
:10267000030C19438A4506D942468919013A8E420C
:1026800000D891E0904656464A468B1B10044146BE
:102690000843009907040E04360C020C9B463B0CC1
:1026A0000F0C311C594356437B437A43F3180F0CEC
:1026B0008C46D9198E4202D980267302D2180F0C8B
:1026C000D619B3456CD363D00024A04636E7202149
:1026D0000B1A261CDE4085403A1C311C8740DA402C
:1026E0003943261C2C0C00918640211C101C93465B
:1026F000FFF7FAFB2F043F0C81467843211C8246EA
:102700005846FFF735FC009B09041A0C11438A4513
:102710000AD94846491901388D4257D88A4555D9B2
:1027200002235A42914449195046091A8B46081C03
:10273000211CFFF7D9FB031C7B438046211C584614
:102740009A46FFF715FC009A09041004030C19437C
:102750008A450AD942464919013A8D4234D88A45F8
:1027600032D9022043429844491952464846891AB0
:10277000030442461A438A469046FBE60020804600
:102780000120DBE6171CC3E69846A4E69A4628E734
:10279000AC400D0461460B041A0CAF18BC4293D236
:1027A00000260138B046C9E68A4500D86AE7022704
:1027B00078428044891966E7884500D845E70223B6
:1027C0005A429144891941E79046CEE78146ABE7EA
:1027D00002214B429B444019E5E6C0461C210123DF
:1027E0001B04984201D3000C10391B0A984201D3F4
:1027F000000A08391B09984201D30009043902A2D2
:10280000105C40187047C046040302020101010138
:10281000000000000000000010B5044C002C02D0A5
:1028200000E000BF00E0201C10BDC046000000001A
:10283000094B10B5041C002B03D0002100E000BFA1
:1028400001E000F00DF805480068816A002900D019
:102850008847201C00F056FC000000007C3200007D
:1028600038B5084B084C1D1CE01A8410002C06D00B
:10287000A1006A18043A13689847013CF6E700F093
:1028800049FC38BD740000207800002070B50E4B64
:102890000E4D0024E81A85101E1CAC4204D0A10085
:1028A000725890470134F8E700F02EFC0849094AB5
:1028B0000E1C541AA5100024AC4204D0A300F058FA
:1028C00080470134F8E770BD7000002070000020E0
:1028D000700000207400002010B50023934203D044
:1028E000CC5CC4540133F9E710BD00B58218031C59
:1028F000934202D019700133FAE700BD0EB400B55F
:102900009CB01DAB02A904CB822202900861920008
:1029100009488A810122886048615042074AC8817B
:1029200010681D9A019300F063F8029900230B7060
:102930001CB008BC03B01847FFFFFF7F6C000020ED
:10294000F7B501919168071C141C002940D1902310
:102950009289D80002423BD02568216963696E1ACA
:1029600058000096C6180098F50FAB1901305D109D
:10297000A84201DB009D0235381C53050FD5291CE8
:1029800000F004FB061E13D02169009AFFF7A4FF94
:10299000A7891649802239401143A18111E02A1CE0
:1029A00000F04AFB061E0CD1381C216900F0A6FA83
:1029B0000C203860A58940263543A581012460425A
:1029C00013E0009B6561F018ED1A26612060A56098
:1029D000A668002E08DD694627680A793A70A36860
:1029E0000137013B2760A3600020FEBD7FFBFFFF96
:1029F000F0B5A1B0049007938B890E1C171C190623
:102A00000FD53269002A0CD1402100F0BFFA3060A6
:102A10003061002803D1049C0C262660D6E04020BB
:102A2000706108AD00212024302369616C76AB769B
:102A30003C1C2278002A04D1E01B069019D0039791
:102A40000FE0252AF8D00134F3E70399321C097806
:102A50000498FFF775FF039A01320392013000D109
:102A6000AFE003990698CB1B8342EEDB0D9F3A182B
:102A70000D922178002900D1A3E001206A460023AD
:102A80004742633201342B60EB606F60AB601370C0
:102A9000AB65504F2178381C052200F0C1FA0028A0
:102AA00007D0C71B2B680120B840184328600134A9
:102AB000EFE72B68D90603D5684620216330017003
:102AC0001A0703D56A462B276332177021782A2903
:102AD00001D00B9B0EE0079A1068111D079100288A
:102AE00001DB0B9004E0022247421343EF602B60AE
:102AF000013409E020783038092804D80A277B43BC
:102B000001341B18F6E70B9323782E2B18D161782C
:102B10002A2909D1079B02341A68191D0791002A36
:102B20000DDA012042420AE00134002220783038D8
:102B3000092804D80A277A4301341218F6E70992C3
:102B4000254F2178381C032200F06AFA002806D0AD
:102B50002B68C21B40219140194329600134217820
:102B60001E4806222976671C00F05AFA002817D062
:102B70001B4800280BD12868079C0723C10501D5F5
:102B8000E41800E007349C430834079414E007AAD3
:102B900000920498291C321C124B00E000BF07E091
:102BA00007AC00940498291C321C0E4B00F08CF8E2
:102BB000059005994A1C04D00D99059A8C180D941E
:102BC00036E7B589690601D40D9801E001277842FE
:102BD00021B0F0BD80320000863200008A32000051
:102BE0000000000041290000F7B5151C01930A6997
:102BF0008B6800900C1C934200DA131C201C2B6085
:102C000043300178002901D001332B602668B006DB
:102C100002D52F6802372F602268062616401CD086
:102C2000261C4336377822683E1C731E9E4192064E
:102C30001CD5A319181C40303021271CC170453702
:102C40003A784133DA70023610E0617E0098019ADA
:102C5000089FB847013006D00136E3682868191A82
:102C60008E42F2DBDCE7012040422CE00027B74235
:102C70000ADAE119433109780098019A089B9847CC
:102C80000130F0D00137F2E72B6825680621294092
:102C9000E6680025042903D1F01AC743FD17054053
:102CA000A2682669B24201DD931BED180027AF42EE
:102CB00008DAA17E0098019A089EB0470130D2D070
:102CC0000137F4E70020FEBDF0B50D1C8BB0433595
:102CD00007930590069204950A7E0C1C109B6E2AA1
:102CE00000D1A8E012D8632A24D009D8002A00D144
:102CF000B1E0582A00D0C1E045310A707D4D51E065
:102D0000642A1FD0692A00D0B8E01BE0732A00D1E2
:102D1000A5E009D86F2A2BD0702A00D0AEE00A684F
:102D2000202616430E6038E0752A21D0782A00D07C
:102D3000A4E032E018680E1C051D1D6003684236D1
:102D400033709EE026681F68300606D4750604D5E9
:102D5000381D186000203D5E02E03D1D1D603D688D
:102D6000644B002D3BDA04992D226D420A7036E047
:102D700027681E683D0605D4780603D5351D1D60FD
:102D8000358802E0311D196035685A4B207E039367
:102D900008276F281ED00A271CE0271C45377820FB
:102DA000554D38701A682668111D03951960300654
:102DB00003D4750601D5158800E01568F00702D523
:102DC00020231E4326601027002D03D126682020D3
:102DD00086432660261C43360022327001E00393AE
:102DE0000A276168A160002903DB20680423984357
:102DF0002060002D02D1049E00290ED0049E281CC4
:102E0000391CFFF7B5F8039A013E515C281C31705C
:102E1000391CFFF769F8051EF1D1049B9A1B22614A
:102E2000082F33D12768F80730D5606890422DDC31
:102E3000013262602AE008681E684969050606D406
:102E4000450604D5351D1D603368198003E0321D29
:102E50001A603768396000202061049E16E01E6801
:102E6000311D19603668301C00F01EF9656820615C
:102E7000A84200D925612369636004E0261C42361C
:102E8000327001212161049F00223A700799059850
:102E9000009109AA211C069BFFF7A6FE01300CD069
:102EA000351C2269AB1B93420ADA29780598069AE9
:102EB000079FB84701350130F3D10122504217E096
:102EC0002668B10705D4099BE068984210DA181CFF
:102ED0000EE00025E7680998391A8D42F3DA617E21
:102EE0000598069A079EB0470130E6D00135F1E714
:102EF0000BB0F0BD91320000A232000030B50029C5
:102F000040D004390B68002B00DAC9181E4A136838
:102F1000141C002B02D14B60116033E099420FD298
:102F20000D684A199A4205D110682B1855680B6034
:102F30004D6000E04B60216024E08A4203D8131CFE
:102F40005A68002AF9D11D685C198C420BD10C68B3
:102F50002D1958191D60904214D1116852686C18CF
:102F60001C605A600EE08C4202D90C21016009E01D
:102F700008680D18954203D114685268001908605A
:102F80004A60596030BDC046B800002070B50323C8
:102F9000CD1C9D430835061C0C2D01D20C2501E0EB
:102FA000002D2DDB8D422BD31C4A1368111C1C1CD9
:102FB000002C12D02068421B0CD40B2A02D92260AC
:102FC000A41815E0A34202D166680E601CE0656893
:102FD0005D6019E0231C6468EAE7301C291C00F0DE
:102FE00051F8421C0CD0C41C03218C43844201D1F3
:102FF000256009E0211A301C00F044F80130F7D1B7
:103000000C243460002008E0201C0B300722211D16
:103010009043431A01D05D42E55070BDB8000020D6
:1030200000B5C9B28218904204D003788B4202D016
:103030000130F8E7002000BDF8B5061C0C1C151C7B
:10304000002904D1111CFFF7A1FF041C18E0002A7D
:1030500003D1FFF753FF2C1C12E000F02CF8A8421C
:103060000ED2301C291CFFF791FF071E07D0211C30
:103070002A1CFFF731FC301C211CFFF73FFF3C1CD2
:10308000201CF8BD38B5074C0023051C081C236024
:1030900000F01CF8431C03D12168002900D02960EE
:1030A00038BDC046F40200200023C25C0133002A70
:1030B000FBD1581E704704390B6800B5181F002B50
:1030C00002DAC8581918081F00BD00000A4A00B5E6
:1030D0001368002B0CD018186946884202D810607B
:1030E000181C00BD054B0C2201201A604342F7E773
:1030F000034B1360EFE7C046BC000020F402002041
:10310000F802002000B5FEE7F8B5C046F8BC08BCE0
:103110009E467047F8B5C046F8BC08BC9E4670474E
:103120000003000003020300000000000100010092
:10313000010100000000000034FD05000200000055
:103140004932435F7365745F74696D656F75740AA6
:10315000000000004465746563746564204932436F
:10316000206465766963653A2025642030782530CF
:1031700032780A00050000000000000080250000F1
:103180000000000009094244363231302064657481
:1031900065637465640A0000092D2D2D09424436CB
:1031A000323130204E4F5420444554454354454419
:1031B000092D2D2D090A0000537461727475700A6F
:1031C000000000000A535441525455500A000000B8
:1031D0006C1200006E1200007212000076120000E5
:1031E0007A120000921200005612000066140000CD
:1031F000EA140000CC140000B214000066140000B1
:1032000066140000A014000066140000661400009C
:1032100084140000661400006614000050150000BD
:10322000481500005C1500004415000066140000FD
:103230006614000066140000F2140000E41500009B
:10324000EE150000F4150000C0150000DE150000AA
:10325000A219000062190000C8190000D21800006D
:10326000041900002C190000E21900005E1800008B
:10327000A4180000080911084300000008000020FD
:10328000232D302B2000686C4C006566674546474F
:1032900000303132333435363738394142434445D2
:1032A0004600303132333435363738396162636441
:0832B00065660000000000004B
:0832B800A8D6FF7F0100000011
:1032C0000080000000366E010000000000000000D9
:1032D00000000000000000000000000000000000EE
:1032E0000000000000000000783200000000000034
:1032F00000000000000000000000000000000000CE
:1033000000000000000000000000000000000000BD
:1033100000000000000000000000000000000000AD
:103320000000000000000000000000000800002075
:08333000290900000109000059
:0400000300001D1DBF
:00000001FF
