:1008000000100020292300005B2300005D2300006E
:1008100059230000592300005923000059230000E8
:100820005923000059230000592300005F230000D2
:1008300059230000592300006123000063230000B6
:10084000B51B000067230000692300006B23000034
:100850006D230000810B00007123000025160000AD
:10086000390E00008D0D0000792300007B2300006D
:10087000450F00007F230000812300008323000038
:1008800085230000000000000000000000000000C0
:100890000000000000000000000000000000000058
:1008A0000000000000000000000000000000000048
:1008B0000000000000000000000000000000000038
:1008C0000000000000000000000000000000000028
:1008D0000000000000000000000000000000000018
:1008E0000000000000000000000000000000000008
:1008F00000000000000000000000000000000000F8
:1009000010B5064C2378002B07D10548002802D0EB
:10091000044800E000BF0121217010BD90000020BC
:10092000000000004830000008B5084B002B03D041
:100930000748084900E000BF07480168002903D0C4
:10094000064A002A00D0904708BDC04600000000BB
:1009500048300000940000209000002000000000BB
:10096000164B002B00D1144B9D46402292029A1A3E
:10097000924600218B460F461348144A121A01F082
:1009800072FE0F4B002B00D098470E4B002B00D06F
:1009900098470020002104460D4600200C49002203
:1009A000002301F0F7FD01F02FFE2046294600F05C
:1009B000F9FA01F0FBFDC04600000800001000201D
:1009C0000000000000000000900000204C03002008
:1009D000DD25000010B5012282B00120012101F0C7
:1009E000BBF80E48032101F00FF80D48012100F07B
:1009F00001FF01AC0B48012100F0FCFE0A49032273
:100A0000201C01F027FE01232370A370201C00236B
:100A1000637001F031FC02B010BDC0460200060058
:100A200030040800002304009C2E0000FA2108B5C1
:100A30008900C00301F05EFD411E002001F00EFCA4
:100A400008BDC046054B0221DA698A43DA6180217C
:100A5000034A49018023D1507047C0460000084036
:100A600000E100E0044B0222D9690A43DA61034B3A
:100A7000802252011A6070470000084000E100E047
:100A8000014B02229A6170470000084084B0F0B523
:100A90005F4656464D464446F0B485B00D1C0F9156
:100AA000111CC4B20E90C9B22F4889460121109280
:100AB0009A468346119300F09DFE2C4900232C4F4B
:100AC0000B606B46884607CF07C33F6829481F6005
:100AD000012100F08FFE5846012100F08BFE201C02
:100AE000291C0A22012301F015F9484651460A2221
:100AF000012301F00FF9E200012314191E4A181C0A
:100B0000A400A418A8402061051C48465146C20014
:100B10008B404A4419499200521853602561536032
:100B200025615360256153602561536025615360E1
:100B30002561536025615360256153600EAB1B7CBA
:100B400003221B021343424693634046694601F069
:100B50003FF905B03CBC90469946A246AB46F0BC76
:100B600008BC04B01847C04600B2020000A0004014
:100B7000A02E0000108102000060004010600040C4
:100B8000044808B5836A036301F064F9024B1870E6
:100B900008BDC04600A00040EC00002030B587B082
:100BA00001AC21800421618069460A7000AA02928A
:100BB000012222812282211C049301F0C9FA0C4DEA
:100BC00028702B78012B0BD10A4C02E0013C002C41
:100BD00006D0094801F03EF928702B78012BF5D09A
:100BE0002B780120002B01D0287840B207B030BD0F
:100BF000EC000020B80B000000A0004030B587B02A
:100C000001AC21800121618069464B7002230A708A
:100C1000238100AA211C029201F09AFA0A4D287041
:100C20002B78012B0BD1094C02E0013C002C06D0A3
:100C3000074801F00FF928702B78012BF5D02878A0
:100C400040B207B030BDC046EC000020B80B000039
:100C500000A00040F0B55F4656464D46E0B4002384
:100C60008CB099460027042304AD01AE9B46BA46DA
:100C70004B462B805B466B80534633707370012369
:100C80002B8102ABEB6014480823291C6E602B8279
:100C900001F05EFA012809D1104C02E0013C002C61
:100CA0000FD00D4801F0D6F80128F7D0002808D160
:100CB000281C0B494A463B1C01F0DEFC281C00F0B6
:100CC0004FF8022301379944802FD1D10CB01CBCBE
:100CD00091469A46A346F0BD00A00040B80B000024
:100CE000C42E000084B030B585B0C4B2089009911C
:100CF000144801210A920B9300F07CFD201C0999F5
:100D00000422012301F006F8201C0A990122002385
:100D100001F000F80C4B6A4631CB31C21B686946C2
:100D200013600C9808AB02901B7B022207481B0241
:100D30001343436501F042FA05B030BC08BC04B06F
:100D40001847C04640051400E42E0000004008404B
:100D500008B5011C014801F073FA08BD00400840C5
:100D600038B5051C002405E00748013401F068FA95
:100D7000962C02D0295D0029F6D1034910228B68F8
:100D80001A42FCD038BDC046004008400D4B10B59B
:100D90001A6951060FD50C48016800290FD00B4A7B
:100DA0001468095D5963136801331360084B1268B6
:100DB0001B689A4200D010BD00230360FBE7596313
:100DC000F9E7C04600C40040700100207401002013
:100DD0006801002000B50D4885B0012100F00AFD32
:100DE000002303AA13700A480122694600930A707F
:100DF000642101930293C16143628261C3686946C1
:100E00001A43C26001F04AFA05B000BD00120200A8
:100E100000040140014B80221A60704700E100E0AD
:100E2000014A8023D350704700E100E0014B0122CA
:100E30009A61704700040140164838B503691A06E4
:100E400000D438BD01F068FA134CCA235B00E35CA0
:100E5000002B19D1114D635D002B15D1C8235B0008
:100E6000E258A054E2580132E2500D4B1B689847FB
:100E700001280DD0C8235B00E2580A4B9A4203D9DF
:100E8000CA2301225B00E254024B04229A64D8E791
:100E90006055EFE700C40040780100209501000094
:100EA000100300208F01000008B50848062100F05B
:100EB000ABFD0748012100F09DFC0648012100F030
:100EC00099FC0548012100F095FC08BD03001200C3
:100ED00000230400108102000072020000B589B0F6
:100EE00003AB05221A7003221A73E1225202002179
:100EF000069B009203980122FFF7F4FE0348FFF7D8
:100F00002FFF0348FFF72CFF09B000BDF42E0000AF
:100F1000002F000000B589B003AB03221A701A72CB
:100F200001221A74079A039800920721059A062352
:100F3000FFF7ACFD0248FFF78DFE09B000BDC046CB
:100F400000A00040F8B500F009FB7220FFF700FF99
:100F50000E4D00F07FF80E480E4A0A21C8270824DB
:100F6000C4260123834200D1EC5101339342F9D1CD
:100F70000139AC510029F4D1074B084918780922EE
:100F8000074B00F0D7FBFFF77BFDF8BD006000408A
:100F900071170000E12E00000C000020000000206E
:100FA00010000020F0B593B0FFF77EFFFFF796FF2B
:100FB000FFF7B0FF0E220C920F220BAB012402258B
:100FC0000E9205221C721D705D721C741C765A7480
:100FD00010950FAA6946C1CAC1C10F230B980E21F3
:100FE0000D9A00F0E3F800F07FFA002205AB0692BC
:100FF00007221D701D721C7408940A92694609AA82
:1010000011CA11C101230021079A059800F0CEFAF8
:101010000E48FFF7A5FEFFF7DDFCFA204000FFF7C2
:1010200005FDFFF71FFD0A4C042500F0F5FA002826
:1010300007D02369AB43236130BF00F0EDFA0028ED
:10104000F7D1002000F002FEEFE7C0461C2F0000A1
:1010500000ED00E030B5524C524D89B0231C281CE5
:1010600060210022FFF79AFD631C281C60210122E9
:10107000FFF794FDA31C281C60210222FFF78EFDC0
:10108000E31C281C60210322FFF788FD231D281C78
:1010900060210422FFF782FD631D281C60210522C8
:1010A000FFF77CFDA31D281C60210622FFF776FDBB
:1010B000E31D281C60210722FFF770FD231C083365
:1010C000281C60210822FFF769FD231C0933281C16
:1010D00060210922FFF762FD334D2378291C00228D
:1010E000684601F0C9FA6846FFF73AFE6378291CA2
:1010F0000122684601F0C0FA6846FFF731FEA37886
:10110000291C0222684601F0B7FA6846FFF728FE5C
:10111000E378291C0322684601F0AEFA6846FFF71F
:101120001FFE2379291C0422684601F0A5FA6846AF
:10113000FFF716FE6379291C0522684601F09CFA28
:101140006846FFF70DFEA379291C0622684601F0C8
:1011500093FA6846FFF704FEE379291C07226846E4
:1011600001F08AFA6846FFF7FBFD237A291C082262
:10117000684601F081FA6846FFF7F2FD637A291CA0
:101180000922684601F078FA6846FFF7E9FD0A206F
:10119000FFF7DEFD0A20FFF7DBFD09B030BDC046DA
:1011A000C800002000A00040342F000084B0F0B53B
:1011B0005F4656464D464446F0B4051C89B0129031
:1011C00013911492159312ACEDB20295257C081C74
:1011D0000195657C247E111C090AA246BE4CC9B249
:1011E0000695179D161C0390049105936021231CFE
:1011F0000022BA480795FFF7D1FC631C6021012249
:10120000B648FFF7CBFCA31C60210222B348FFF7CE
:10121000C5FCE31C60210322B048FFF7BFFC231D7F
:1012200060210422AD48FFF7B9FC631D602105224F
:10123000AA48FFF7B3FCA31D60210622A748FFF7C9
:10124000ADFCE31D60210722A448FFF7A7FC231C87
:10125000083360210822A148FFF7A0FC231CF6B246
:101260000933602109229D48FFF798FCB346A67810
:101270003020371C102587432F43FFB280463B1C8C
:10128000602102229548FFF7B9FC0F231E402E4330
:10129000F6B2331C602102229048A770FFF7AEFC23
:1012A000602102221F238D48A670FFF7A7FC1F2391
:1012B000A370E378072213401D43EDB22B1C60217D
:1012C00003228648FFF79AFC6021032210238348FB
:1012D000E570FFF793FC1023E37023793F251D4051
:1012E000EEB22B1C602104227C48FFF787FC2027EC
:1012F000331C2571BB4320252B43DBB26021042224
:1013000076489946FFF77AFC4046331C83434A46A9
:101310002B432271DBB26021042270489846FFF70C
:101320006DFC3823321C9A43131C2B434146DBB21D
:1013300021719846602104226848FFF75FFC43460C
:1013400023713C239E4324231E43331C602104222B
:101350006248FFF753FC6021042224235F48267172
:10136000FFF74CFC24232371E3797F221A40904637
:10137000D6B24346602107225848FFF73FFC40237E
:10138000311C994340468846E0714346602107225C
:101390005248FFF733FC6023301C9843031C42463D
:1013A0002B43E271DBB2602107224C489846FFF7DD
:1013B00025FC7823321C9A43131C2B434146DBB295
:1013C000E1719846602107224448FFF717FC434625
:1013D000E3717E239E433543EDB2602107222B1C2F
:1013E0003E48FFF70BFC3D48602107222023E571B2
:1013F000FFF704FCE7715C46002C1FD0012C47D09E
:10140000374C019D002D23D0012D53D05246002A88
:1014100027D05346012A2BD0231C12AA23CA23C348
:1014200032CA32C312681A6009B03CBC9046994671
:10143000A246AB46F0BC08BC04B01847029803991A
:101440000122012300F066FC019D254C002DDBD11B
:10145000012204980599012300F05CFC5246002A01
:10146000D7D1069807990122012300F053FCD3E756
:1014700006980799042200F04DFC637C6569D90049
:10148000CB18184852469B00AA401B185A60C3E765
:10149000029803990422012300F03CFC104C5A46A8
:1014A00023786068D900CB180E499B0082405B18F6
:1014B0005A60A6E7049805990422012300F02AFC4B
:1014C000637AE068D900CB1806492A1C9B00824049
:1014D0005B185A609AE7C046C800002000A0004090
:1014E000AC00002010600040F0B5474680B4164CB8
:1014F000257A012D05D01548FFF732FC04BC904633
:10150000F0BD134E0323377960213A1C9A4390466D
:10151000434604220F48FFF771FB434633710B2308
:101520009F4308231F4304223B1C0A486021FFF706
:1015300065FB3771237862689540DA00D318064A54
:101540009B009B181D61D9E7AC000020482F0000CC
:10155000C800002000A000400060004038B50E4BDD
:101560001A7A012A03D00D48FFF7FAFB38BD197823
:101570005B680B4C9A40CB0059180A4B8900C9187C
:101580004A60257908239D430748602104222B1CCB
:10159000FFF734FB2571E9E7AC000020482F00007D
:1015A000C80000201060004000A0004084B038B5A2
:1015B0000591164904900692079304AA0B1C31CAA0
:1015C00031C313CA13C3124B00229A74114B012268
:1015D0009A65D96C0F2081430A43DA6402229A6526
:1015E000DA6CF0218A4310210A43DA6480225A63BC
:1015F000996A5205090109090A439A62FFF710FC2A
:10160000FFF7E8FB38BC08BC04B018472C030020E7
:101610001403002000600040014B987C7047C046D6
:101620001403002070B53D4C2378002B15D03C4BA3
:101630001A7C012A24D0032A64D03A490A783A480D
:101640000125C565002A27D0013AD2B20A70187C5C
:10165000151C01282AD1072A59D0344A0121137AAE
:10166000D26891400A1CD900CB182F499B005B1807
:101670009A612278012353402370FFF7D7FB70BD96
:101680005D78284901200A78061C96402E42D6D063
:10169000254DA865002AD7D1254A10780130107051
:1016A00007220A70187C151C0128D4D00328D4D135
:1016B0001F4A187A15788542CFD301200025587427
:1016C0009D7407230B70184B15709865DA6C0F2109
:1016D0008A4310430222D8649A65DA6CF0218A4367
:1016E00010210A43DA6480225A63996A520509017B
:1016F00009090A439A62FFF793FBFFF791FBFFF793
:10170000B1F9AAE70A4A596812788D5CB9E7032251
:101710001A74074B00220D701A709EE728030020F0
:101720001403002014000020006000402C0300205F
:10173000D4000020F8B52C4C4F464646C0B40226D3
:1017400026700125607061602272E36000232574B9
:101750006374A574254C0F22A565E36C91469343F1
:101760002B43E364A665E36CF0229343904610227A
:1017700013438027E3646763A26A8023120112097E
:101780005B051343A362FFF74BFB236CDB091D4092
:10179000012D03D00CBC90469946F8BD636E5B08E2
:1017A0001D40012DF6D1636E1D40012DF2D1E5657E
:1017B000E36C4A46934304221343E364A665E36C57
:1017C0004246934340221343E364A763A26A802303
:1017D00012011209DB051343A362054B1D70FFF7CD
:1017E00019FBFFF72FF9D5E7140300200060004034
:1017F00028030020030570B51B0F062B0ED8124AD4
:101800009B00D3589F46114AC003C00E13680124A1
:101810008440A3438140181C0843106070BD0C4AEB
:10182000F2E70C4AF0E70C4AEEE70C4A01240C4DB3
:10183000C0036B6DC00EDE07E8D42B6D2342FCD1D4
:10184000E4E71024074AF2E7642F000078800C4098
:1018500008800C4044800C4040800C4058800C4074
:1018600000800C4060800C4008B5F8239B031840B2
:10187000C023DB02984200D173E00ED990235B03B2
:10188000984249D017D9A0235B03984253D0D02364
:101890005B0398422ED000200CE080239B029842EC
:1018A00000D16FE08023DB02984220D00028F2D1E3
:1018B00000F0C2FD08BD80231B039842EBD14C4AC7
:1018C0000321936A0B40022B00D183E0032B00D14C
:1018D0007CE0012B6AD0936A00201B0C01D000F041
:1018E000FFFD434B0F229B6E1340D840E2E700F010
:1018F0004BFDDFE73E4BE0215B69C90080220B40D6
:10190000920093426FD045D9C0229200934268D092
:101910008B42C0D13748CDE7354A936A1B079B0FEE
:10192000022B4DD0032B47D0012B3CD0936A0020D3
:101930001B0DBFD023E02E4A936A1B079B0F022B7F
:1019400041D0032B49D0012B33D0936A00201B0DCB
:1019500001D000F0C5FD264B03221B6F1340D84079
:10196000A8E7234A0321936A0B40022B28D0032BBC
:1019700022D0012B17D0936A00201B0C9AD000F0C4
:10198000AFFD97E700F058FD194B0F229B681340FD
:10199000D8408FE7002B28D080225200934200D0FD
:1019A00079E7154886E700F097FD83E700F094FD9E
:1019B00097E700F091FDCEE700F0E6FC400879E7FC
:1019C00000F092FD76E700F08FFDC4E700F0DCFC4C
:1019D000400886E700F088FD83E700F0D5FC40086A
:1019E000B9E7064866E7064864E7064862E7C04686
:1019F00000800C40406F4001C0D8A70040420F005B
:101A0000C0CF6A00809FD50038B50F240440012C58
:101A10000AD0002C00D138BD032CFCD80929FAD8F3
:101A2000434B89005B589F460929F4D8414B8900F4
:101A30005B589F468022802352035B020021022CC8
:101A40006ED03D4B3D49986A01400A439A62E2E7F5
:101A50003B4B042219680A431A6003210C2200231D
:101A6000EDE7354940230B628022CB6A1A42FCD055
:101A700000F046F9042200230121E0E72E498023EB
:101A80005B0080220B629200CB6A1342FCD000F014
:101A900037F9082200230221D1E700220023002188
:101AA000CDE703250123022223490B62CB6A1342AF
:101AB000FCD000F025F9234B07225B68111C19406C
:101AC000012902D89343012213431E4C63601A4B31
:101AD0005D6200F015F900F057FC1B4A636881183D
:101AE0001A4A914216D80722934301221343154AFA
:101AF000536090E70125D5E7032540238022D3E7F3
:101B00008023802204255B009200CDE70225042378
:101B10000822C9E70E4A9042E9D807229343E6E734
:101B2000054A0B43906A0B4908400343936272E7EE
:101B3000802F0000A82F000000800C40F3FFEFFF73
:101B400040800C4000000C40FFDB0BFFFF23F40043
:101B50000024F400FCFFFEFF08B5042807D8134B4F
:101B600080001B589F46124B186200F0C9F808BD50
:101B7000012302200029F6D00D490B62002AF4D07F
:101B80000A1CD36A0342FCD000F0BAF8EFE7102336
:101B90002020EFE7802380205B008000EAE74023DD
:101BA0008020E7E704230820E4E7C046D02F0000A8
:101BB00000800C40F0B557464E464546E0B48023C1
:101BC0001F4F5B01FA581F4BFB58134034D4BA6BBC
:101BD0000221141C1C4093439A4688460126002586
:101BE000002C1ED0184A9146264216D0331CBA68E3
:101BF000AB4049467B502B01D318DB68002B0CD03F
:101C0000197A01224A401A721A689446002A04D0AE
:101C10004A1E9141281C5A68E04764080135002C8F
:101C2000E2D101235B4298444146002905D11CBC06
:101C300090469946A246F0BDFEE75446CFE7C0461F
:101C400000200C400C10000008100000284938B596
:101C5000284ACB6A04241380274A15692C4314614F
:101C600030BF002805D15A0500D538BD00F08CFBE7
:101C7000FBE7842288580124044020488850AA2287
:101C800052001A400A62F022920180201A4040015C
:101C9000824213D08020800182421FD08020000128
:101CA000824213D0DA0702D4114B02221A62002CAE
:101CB000DBD00F4A00218423D150D6E78020CA6AA6
:101CC0001042FCD00A4A03215162EBE70820CA6A9D
:101CD0001042FCD0064A02215162E3E780208000D6
:101CE000CA6A0242FCD0024A04215162DAE7C046C5
:101CF00000800C40D600002000ED00E00E580000EF
:101D0000024BDA6A024B1A807047C04600800C40D2
:101D1000D6000020F0B54F464646C0B4C400002AA5
:101D200009D0C400012625188E40AD00002B3DD0FF
:101D3000244FED192E612518AD00072920D8214E1A
:101D4000AD196F688E00B9460F27B740B0464E46B2
:101D5000BE43B446171C4646B74066463E436E60D7
:101D6000002A09D1002B25D101238B40191C2018F2
:101D7000154B8000C01841600CBC90469946F0BDE0
:101D8000104FED19AE68B146104E8F19BF00B8461E
:101D90000F273E1C4746BE404F46B743BC4646460B
:101DA000171CB74066463E43AE60D9E7064FED19B3
:101DB0006E60C0E72018034F012380008B40C019DC
:101DC0000361D9E70060004010600040F8FFFF3F6A
:101DD000F8B5002343631B4B0D1C03630368022209
:101DE0004978934301224A40520013430360AE688E
:101DF000041C2F7B6868002E14D02268124B1340FD
:101E0000236023683A0213432360002815D0B300EF
:101E1000C01A0E4BD95D714300F06CFB23689A0722
:101E200007D420612368012293432A781343236057
:101E3000F8BD0028F5D10120F3E70548FFF714FDB0
:101E4000E5E7C046CFFF0100FFFCFFFF08300000C0
:101E500010810200F0B55F4656464D464446F0B448
:101E6000B84B83B0984200D0FDE0B74BB74C5A88CE
:101E7000A14694468026402204249F6819781D7943
:101E8000B2469046A346826AC024E400144000D0C3
:101E90000CE1082911D9FB225A70614609225980A8
:101EA0001D711A70A74B05205C63404203B03CBC17
:101EB00090469946A246AB46F0BD8C004E46365938
:101EC000B7460721644619705C801D71960619D5C6
:101ED000ED007F199B483A895988C4698A4200D825
:101EE000DBE07D686C54013189B259808A4200D8A8
:101EF000D3E004234360012A04D0013A914201D186
:101F0000082343600120D1E7082119708021604631
:101F1000490058801D710A42F4D08A4A11635878EA
:101F200009221A708749002240B24A630128BDD1B4
:101F30005A700020BAE766465E801D7179883A883B
:101F4000C80600D49AE00620120A0240F02002439C
:101F50004C0701D501210A4304211970794B012155
:101F6000596001205A62A1E75646164200D0B0E0FF
:101F70004146114200D1D1E001637A885E461642A3
:101F80006FD06046072258801D711A7001208DE7BE
:101F9000EA00BA181489644500D9ABE07A880135A3
:101FA0005C46EDB214406CD10126324000D0C5E051
:101FB000012D78D95A801D7108221A70614B0222B6
:101FC0005A60012072E75646164200D081E0414631
:101FD000114200D19BE0424602637A885949D406F7
:101FE00000D5A2E094073CD51D7166460722ED009E
:101FF0005E801A707F193B89012B00D082E708238D
:102000004B60012052E7604658801D717A88D106E6
:102010002CD539880622090A1140F02211430122E9
:102020001A70484B012059625A603FE751461142ED
:102030005DD14446144228D1022266461A705E8061
:102040001D71012032E75146114250D144461442DD
:1020500006D1062266461A705E801D71012025E7B2
:10206000046305210FE7042040421FE73988FE2062
:1020700001409407D3D501221143D0E7FE2002404E
:1020800066E70026B4460321FDE604637A8803214F
:10209000940700D5F7E60521F5E6012A8CD1294AF7
:1020A0000821516088E700229446ECE664465C8093
:1020B0001D71960505D5FD225A70FD2009221A7062
:1020C00030E7500501D45878F8E7FE225A70FE2018
:1020D000F4E7604658801B4A80211D711163FF217F
:1020E000597008211970022353600120DEE6624610
:1020F0005A80F0E752686046115C124A1D715162C5
:10210000624601325A8006221A700120CEE6012270
:102110001A7062465A801D710120C7E604221A70A7
:1021200062465A801D710120C0E6664602225E802A
:102130001D711A703B7801204B62B7E65C801D71FF
:102140003AE7C04600A00040D8000020E42F00007D
:1021500008B5174B984229D18368DA0701D52023A7
:1021600043604B889A0702D50A89002A1ED05A0775
:1021700002D50B8A002B19D00E4B002201201A71B8
:102180001A705A8058709960094BC0225A609A6A36
:10219000910609D40648084B0363FC23DB00436324
:1021A000FFF758FE40B208BDDB69F3E7FC20F9E712
:1021B00000A00040D8000020CFFF0100036C70B5E4
:1021C000041C0D1CDA0703D40222636C1A42FCD1F2
:1021D0000A236360636C002BFCD101232364236812
:1021E0002A7B1C218B4313436A7B68681343AA7BB9
:1021F000AE681343236000280AD10E4B9C4204D0E2
:102200002B7863600023236470BD0B48FFF72CFB21
:10221000311C400100F06EF9011C084B2039C90047
:102220001940236CDA0703D40422636C1A42FCD1F0
:10223000E160E5E70040084040051400F87F000039
:1022400000B5102283681A42FCD0036CDA0703D46D
:102250004022436C1A42FCD1816200BD00B50028C7
:1022600002D1034B196000BD0128FCD1014BF9E7F5
:10227000080008400C000840427800B50378002AA6
:1022800001D0022213438278002A01D00422134392
:10229000014A136000BDC0460000084030B50B780D
:1022A000002B01D102224260002242628C78CA785F
:1022B0002406120422430C7A22438C79A40222437E
:1022C000CC79240222434C78651EAC41A401224300
:1022D0004C7A651EAC41E40122438C7A651EAC4108
:1022E00064012243CC7A651EAC41240122430C795F
:1022F000651EAC41640322434C79097B651EAC41E9
:10230000240722434C1EA141C9000A430260002B4E
:1023100001D00123436030BD00B5802203691A4219
:10232000FCD0C069C0B200BD064880470649074AD4
:10233000074B9B1A03DD043BC858D050FBDC054813
:1023400000470000D52400005430000000000020A9
:102350009000002061090000FEE7FEE7FEE7FEE7CF
:10236000FEE7FEE7FEE7FEE7FEE7FEE7FEE7FEE745
:10237000FEE7FEE7FEE7FEE7FEE7FEE7FEE7FEE735
:10238000FEE7FEE7FEE7C046224AF023D16A9B0142
:102390000B40802100B549018B4226D08021890164
:1023A0008B421FD0802109018B4210D0D268E023DC
:1023B000DB00134080229200934223D018D8002BD8
:1023C00022D08022520093421AD1134A01E0134BCB
:1023D0001A68104B0F205B681840114BC240101C4C
:1023E0001A6000BD0F4B1A68F3E780221202F0E773
:1023F000C022920093420BD08022D200934205D09B
:102400000022E6E7084AE4E7084AE2E7084AE0E78C
:10241000084ADEE700800C4040B564001C00002044
:102420004403002018000020C0D8A700804F1200ED
:10243000406F4001809FD5001E4AF023D16A9B0166
:102440000B40802100B549018B421ED080218901BB
:102450008B4217D0802109018B4210D0D268E02333
:10246000DB0013408022920093421BD010D8002B37
:102470001AD080225200934212D10F4801E00F4B34
:10248000186800BD0E4B1868FBE780200002F8E7D3
:10249000C022920093420BD08022D200934205D0FA
:1024A0000020EEE70748ECE70748EAE70748E8E7D7
:1024B0000748E6E700800C4040B564001C0000209F
:1024C00018000020C0D8A700804F1200406F4001C4
:1024D000809FD5007047C046802000027047C046EC
:1024E000FA2080007047C046014B18687047C0460C
:1024F00018000020002934D00123002210B48842A3
:102500002CD301242407A14204D2814202D2090122
:102510001B01F8E7E400A14204D2814202D2490043
:102520005B00F8E7884201D3401A1A434C08A042E6
:1025300002D3001B5C0822438C08A04202D3001B7C
:102540009C082243CC08A04202D3001BDC08224393
:10255000002803D01B0901D00909E3E7101C10BCB7
:102560007047002801D00020C04307B4024802A1F0
:102570004018029003BDC046190000000029F0D0A9
:1025800003B5FFF7B9FF0EBC4243891A1847C0468E
:102590007047C04610B5044C002C02D000E000BFCC
:1025A00000E0201C10BDC04600000000094B10B523
:1025B000041C002B03D0002100E000BF01E000F06C
:1025C0000DF805480068816A002900D08847201C62
:1025D00000F056FC000000001030000038B5084B39
:1025E000084C1D1CE01A8410002C06D0A1006A18AB
:1025F000043A13689847013CF6E700F049FC38BDFF
:102600008C0000209000002070B50E4B0E4D002471
:10261000E81A85101E1CAC4204D0A10072589047E5
:102620000134F8E700F02EFC0849094A0E1C541A40
:10263000A5100024AC4204D0A300F0588047013418
:10264000F8E770BD88000020880000208800002086
:102650008C00002010B50023934203D0CC5CC454FE
:102660000133F9E710BD00B58218031C934202D074
:1026700019700133FAE700BD0EB400B59CB01DAB74
:1026800002A904CB822202900861920009488A8143
:102690000122886048615042074AC88110681D9A2B
:1026A000019300F063F8029900230B701CB008BC82
:1026B00003B01847FFFFFF7F84000020F7B50191AA
:1026C0009168071C141C002940D190239289D800DE
:1026D00002423BD02568216963696E1A5800009652
:1026E000C6180098F50FAB1901305D10A84201DB48
:1026F000009D0235381C53050FD5291C00F004FB42
:10270000061E13D02169009AFFF7A4FFA789164976
:10271000802239401143A18111E02A1C00F04AFBBC
:10272000061E0CD1381C216900F0A6FA0C20386076
:10273000A58940263543A5810124604213E0009B12
:102740006561F018ED1A26612060A560A668002E6C
:1027500008DD694627680A793A70A3680137013BAA
:102760002760A3600020FEBD7FFBFFFFF0B5A1B096
:10277000049007938B890E1C171C19060FD532691C
:10278000002A0CD1402100F0BFFA306030610028EF
:1027900003D1049C0C262660D6E04020706108AD71
:1027A00000212024302369616C76AB763C1C2278B2
:1027B000002A04D1E01B069019D003970FE0252AC8
:1027C000F8D00134F3E70399321C09780498FFF735
:1027D00075FF039A01320392013000D1AFE00399F3
:1027E0000698CB1B8342EEDB0D9F3A180D922178A1
:1027F000002900D1A3E001206A460023474263324A
:1028000001342B60EB606F60AB601370AB65504FB1
:102810002178381C052200F0C1FA002807D0C71B18
:102820002B680120B840184328600134EFE72B687B
:10283000D90603D568462021633001701A0703D5F5
:102840006A462B276332177021782A2901D00B9B07
:102850000EE0079A1068111D0791002801DB0B900C
:1028600004E0022247421343EF602B60013409E089
:1028700020783038092804D80A277B4301341B18F4
:10288000F6E70B9323782E2B18D161782A2909D1EA
:10289000079B02341A68191D0791002A0DDA0120DE
:1028A00042420AE00134002220783038092804D856
:1028B0000A277A4301341218F6E70992254F217846
:1028C000381C032200F06AFA002806D02B68C21BCD
:1028D0004021914019432960013421781E48062285
:1028E0002976671C00F05AFA002817D01B480028E8
:1028F0000BD12868079C0723C10501D5E41800E027
:1029000007349C430834079414E007AA0092049803
:10291000291C321C124B00E000BF07E007AC0094FA
:102920000498291C321C0E4B00F08CF80590059978
:102930004A1C04D00D99059A8C180D9436E7B58978
:10294000690601D40D9801E00127784221B0F0BD5D
:10295000143000001A3000001E300000000000009B
:10296000BD260000F7B5151C01930A698B6800901D
:102970000C1C934200DA131C201C2B60433001789E
:10298000002901D001332B602668B00602D52F68DC
:1029900002372F602268062616401CD0261C4336BC
:1029A000377822683E1C731E9E4192061CD5A319DF
:1029B000181C40303021271CC17045373A7841330C
:1029C000DA70023610E0617E0098019A089FB847DD
:1029D000013006D00136E3682868191A8E42F2DB0E
:1029E000DCE7012040422CE00027B7420ADAE11977
:1029F000433109780098019A089B98470130F0D03C
:102A00000137F2E72B68256806212940E668002592
:102A1000042903D1F01AC743FD170540A2682669AF
:102A2000B24201DD931BED180027AF4208DAA17E08
:102A30000098019A089EB0470130D2D00137F4E7E0
:102A40000020FEBDF0B50D1C8BB0433507930590FB
:102A5000069204950A7E0C1C109B6E2A00D1A8E0F9
:102A600012D8632A24D009D8002A00D1B1E0582A0C
:102A700000D0C1E045310A707D4D51E0642A1FD07D
:102A8000692A00D0B8E01BE0732A00D1A5E009D87C
:102A90006F2A2BD0702A00D0AEE00A682026164399
:102AA0000E6038E0752A21D0782A00D0A4E032E008
:102AB00018680E1C051D1D600368423633709EE0C9
:102AC00026681F68300606D4750604D5381D1860C0
:102AD00000203D5E02E03D1D1D603D68644B002D01
:102AE0003BDA04992D226D420A7036E027681E6891
:102AF0003D0605D4780603D5351D1D60358802E0F6
:102B0000311D196035685A4B207E039308276F28C2
:102B10001ED00A271CE0271C45377820554D3870F9
:102B20001A682668111D03951960300603D47506CE
:102B300001D5158800E01568F00702D520231E4353
:102B400026601027002D03D12668202086432660AA
:102B5000261C43360022327001E003930A27616885
:102B6000A160002903DB2068042398432060002D26
:102B700002D1049E00290ED0049E281C391CFFF7A8
:102B8000FDFC039A013E515C281C3170391CFFF793
:102B9000B1FC051EF1D1049B9A1B2261082F33D191
:102BA0002768F80730D5606890422DDC01326260FA
:102BB0002AE008681E684969050606D4450604D55A
:102BC000351D1D603368198003E0321D1A603768B7
:102BD000396000202061049E16E01E68311D1960D6
:102BE0003668301C00F01EF965682061A84200D9E3
:102BF00025612369636004E0261C4236327001219E
:102C00002161049F00223A7007990598009109AA52
:102C1000211C069BFFF7A6FE01300CD0351C226953
:102C2000AB1B93420ADA29780598069A079FB847A2
:102C300001350130F3D10122504217E02668B10777
:102C400005D4099BE068984210DA181C0EE00025B4
:102C5000E7680998391A8D42F3DA617E0598069A79
:102C6000079EB0470130E6D00135F1E70BB0F0BD6B
:102C7000253000003630000030B5002940D004393E
:102C80000B68002B00DAC9181E4A1368141C002BAD
:102C900002D14B60116033E099420FD20D684A199E
:102CA0009A4205D110682B1855680B604D6000E002
:102CB0004B60216024E08A4203D8131C5A68002A22
:102CC000F9D11D685C198C420BD10C682D1958196B
:102CD0001D60904214D1116852686C181C605A60D3
:102CE0000EE08C4202D90C21016009E008680D1841
:102CF000954203D114685268001908604A6059600F
:102D000030BDC046E400002070B50323CD1C9D43B8
:102D10000835061C0C2D01D20C2501E0002D2DDB01
:102D20008D422BD31C4A1368111C1C1C002C12D082
:102D30002068421B0CD40B2A02D92260A41815E08B
:102D4000A34202D166680E601CE065685D6019E010
:102D5000231C6468EAE7301C291C00F051F8421C6F
:102D60000CD0C41C03218C43844201D1256009E0AE
:102D7000211A301C00F044F80130F7D10C243460E3
:102D8000002008E0201C0B300722211D9043431A2D
:102D900001D05D42E55070BDE400002000B5C9B22D
:102DA0008218904204D003788B4202D00130F8E7B9
:102DB000002000BDF8B5061C0C1C151C002904D110
:102DC000111CFFF7A1FF041C18E0002A03D1FFF734
:102DD00053FF2C1C12E000F02CF8A8420ED2301C3D
:102DE000291CFFF791FF071E07D0211C2A1CFFF7A3
:102DF00031FC301C211CFFF73FFF3C1C201CF8BDA0
:102E000038B5074C0023051C081C236000F01CF893
:102E1000431C03D12168002900D0296038BDC04679
:102E2000480300200023C25C0133002AFBD1581E56
:102E3000704704390B6800B5181F002B02DAC85818
:102E40001918081F00BD00000A4A00B51368002BBE
:102E50000CD018186946884202D81060181C00BDB2
:102E6000054B0C2201201A604342F7E7034B136025
:102E7000EFE7C046E8000020480300205003002090
:102E800000B5FEE7F8B5C046F8BC08BC9E467047E2
:102E9000F8B5C046F8BC08BC9E467047010001006A
:102EA000010100000000000034FD050002000000E8
:102EB0004932435F7365745F74696D656F75740A39
:102EC0000000000044657465637465642049324302
:102ED000206465766963653A202564203078253062
:102EE00032780A0005000000000000008025000084
:102EF00000000000537461727475700A00000000D5
:102F00004C656420546F726368206D6F64756C65E6
:102F100020737461727475700A0000004D6F644311
:102F20006F6D6D20496E697469616C697A6174694D
:102F30006F6E0A005B3078253032785D3A20307849
:102F400025303278090000004750494F312069731D
:102F5000206E6F7420736574206173206F757470B8
:102F600075740A001C1800001E18000022180000CA
:102F7000261800002A180000421800000618000059
:102F8000161A00009A1A00007C1A0000621A00004B
:102F9000161A0000161A0000501A0000161A000037
:102FA000161A0000341A0000161A0000161A000043
:102FB000001B0000F81A00000C1B0000F41A0000AF
:102FC000161A0000161A0000161A0000A21A0000B5
:102FD000941B00009E1B0000A41B0000701B00003F
:102FE0008E1B000006200000C61F00002C200000E1
:102FF000361F0000681F0000901F000046200000E0
:10300000C21E0000081F000008091108430000004C
:1030100020000020232D302B2000686C4C006566BA
:103020006745464700303132333435363738394119
:10303000424344454600303132333435363738392F
:0C3040006162636465660000000000002F
:08304C0014D9FF7F0100000010
:10305400AAAAAA00FFAA00AAFF000000C300000059
:10306400FF556677070000000080000000366E01FF
:10307400000000000000000000000000000000004C
:10308400000000000000000000000000000000003C
:103094000C300000000000000000000000000000F0
:1030A400000000000000000000000000000000001C
:1030B400000000000000000000000000000000000C
:1030C40000000000000000000000000000000000FC
:1030D4000000000020000020290900000109000070
:0400000300002329AD
:00000001FF
