:1008000000100020C1250000F3250000F5250000A0
:10081000F1250000F1250000F1250000F125000080
:10082000F1250000F1250000F1250000F72500006A
:10083000F1250000F1250000F9250000FB2500004E
:100840009D1D00003D0F0000012600000326000052
:1008500005260000850B0000590F0000A1180000BC
:10086000310E0000910D000011260000132600003B
:10087000290F000017260000192600001B26000083
:100880001D26000000000000000000000000000025
:100890000000000000000000000000000000000058
:1008A0000000000000000000000000000000000048
:1008B0000000000000000000000000000000000038
:1008C0000000000000000000000000000000000028
:1008D0000000000000000000000000000000000018
:1008E0000000000000000000000000000000000008
:1008F00000000000000000000000000000000000F8
:1009000010B5064C2378002B07D10548002802D0EB
:10091000044800E000BF0121217010BD88000020C4
:1009200000000000E432000008B5084B002B03D0A3
:100930000748084900E000BF07480168002903D0C4
:10094000064A002A00D0904708BDC04600000000BB
:10095000E43200008C00002088000020000000002D
:10096000164B002B00D1144B9D46402292029A1A3E
:10097000924600218B460F461348144A121A01F082
:10098000BEFF0F4B002B00D098470E4B002B00D022
:1009900098470020002104460D4600200C49002203
:1009A000002301F043FF01F07BFF2046294600F0C1
:1009B000E1FA01F047FFC0460000080000100020E7
:1009C0000000000000000000880000204C03002010
:1009D0007528000010B5012282B00120012101F02C
:1009E000AFF90E48032101F003F90D48012100F091
:1009F000F5FF01AC0B48012100F0F0FF0A4903228A
:100A0000201C01F073FF01232370A370201C00231E
:100A1000637001F07DFD02B010BDC046020006000B
:100A2000300408000023040034310000FA2108B526
:100A30008900C00301F0AAFE411E002001F05AFD0A
:100A400008BDC046064B10B5D9690222914305483E
:100A50008024D9616401802144509A6110BDC04650
:100A60000000084000E100E0044B0222D9690A437B
:100A7000DA61034B802252011A607047000008407F
:100A800000E100E0014B02229A617047000008403B
:100A900084B0F0B55F4656464D464446F0B485B046
:100AA0000D1C0F91111CC4B20E90C9B22F4889467B
:100AB000012110929A468346119300F08FFF2C4932
:100AC00000232C4F0B606B46884607CF07C33F6857
:100AD00029481F60012100F081FF5846012100F0E4
:100AE0007DFF201C291C0A22012301F05FFA4846E1
:100AF00051460A22012301F059FAE2000123141998
:100B00001E4A181CA400A418A8402061051C4846D1
:100B10005146C2008B404A44194992005218536012
:100B200025615360256153602561536025615360E1
:100B300025615360256153602561536025615360D1
:100B40000EAB1B7C03221B021343424693634046B9
:100B5000694601F089FA05B03CBC90469946A24628
:100B6000AB46F0BC08BC04B01847C04600B2020057
:100B700000A00040383100001081020000600040F9
:100B800010600040044808B5836A036301F0AEFAC0
:100B9000024B187008BDC04600A00040E4000020D1
:100BA00030B587B001AC21800421618069460A70AC
:100BB00000AA0292012222812282211C049301F0C8
:100BC00013FC0C4D28702B78012B0BD10A4C02E042
:100BD000013C002C06D0094801F088FA28702B78D7
:100BE000012BF5D02B780120002B01D0287840B2C2
:100BF00007B030BDE4000020B80B000000A00040AA
:100C000030B587B001AC21800121618069464B700D
:100C100002230A70238100AA211C029201F0E4FB46
:100C20000A4D28702B78012B0BD1094C02E0013CB6
:100C3000002C06D0074801F059FA28702B78012BB8
:100C4000F5D0287840B207B030BDC046E40000209F
:100C5000B80B000000A00040F0B55F4656464D4678
:100C6000E0B400238CB099460027042304AD01AE04
:100C70009B46BA464B462B805B466B80534633708F
:100C8000737001232B8102ABEB6014480823291CED
:100C90006E602B8201F0A8FB012809D1104C02E004
:100CA000013C002C0FD00D4801F020FA0128F7D0AC
:100CB000002808D1281C0B494A463B1C01F028FE9D
:100CC000281C00F04FF8022301379944802FD1D11E
:100CD0000CB01CBC91469A46A346F0BD00A0004053
:100CE000B80B00005C31000084B030B585B0C4B2F0
:100CF00008900991144801210A920B9300F06EFEAE
:100D0000201C09990422012301F050F9201C0A99A2
:100D10000122002301F04AF90C4B6A4631CB31C263
:100D20001B68694613600C9808AB02901B7B02227B
:100D300007481B021343436501F08CFB05B030BC30
:100D400008BC04B01847C046400514007C310000C0
:100D50000040084008B5011C014801F0BDFB08BD7A
:100D60000040084038B5051C002405E00748013460
:100D700001F0B2FB962C02D0295D0029F6D103497F
:100D800010228B681A42FCD038BDC0460040084093
:100D90000D4B10B51A6951060FD50C480168002992
:100DA0000FD00B4A1468095D59631368013313604F
:100DB000084B12681B689A4200D010BD00230360E4
:100DC000FBE75963F9E7C04600C400406801002012
:100DD0006C0100206001002000B50D4885B00121A4
:100DE00000F0FCFD002303AA13700A4801226946A3
:100DF00000930A70642101930293C161436282618E
:100E0000C36869461A43C26001F094FB05B000BD97
:100E10000012020000040140014A8023D3507047B1
:100E200000E100E0014B01229A617047000401409B
:100E3000164838B503691A0600D438BD01F0B8FB6E
:100E4000134CCA235B00E35C002B19D1114D635D89
:100E5000002B15D1C8235B00E258A054E2580132A0
:100E6000E2500D4B1B68984701280DD0C8235B004A
:100E7000E2580A4B9A4203D9CA2301225B00E2548A
:100E8000024B04229A64D8E76055EFE700C40040A3
:100E90007001002095010000080300208F01000070
:100EA00008B50848062100F0A3FE0748012100F01C
:100EB00095FD0648012100F091FD0548012100F053
:100EC0008DFD08BD03001200002304001081020004
:100ED0000072020010B58CB002AB05221A70032418
:100EE000E1221C735202059B00920298002101220C
:100EF000FFF7FAFE0A48FFF735FF07AB01221A7425
:100F00000B9A1C701C72079800920721099A0623FD
:100F1000FFF7BEFD0348FFF79FFE0CB010BDC046B3
:100F20008C31000000A0004008B5034B01221A706C
:100F3000FFF7A8FD08BDC0460D03002008B500F06E
:100F4000F9FB03498E23034A5B00D15008BDC0461C
:100F5000FFFF00000060004008B500F0EBFB034914
:100F60008E23034A5B00D15008BDC046FFFF00003E
:100F700000600040F0B55F4656464D464446F0B42A
:100F80009BB0FFF78DFFFFF7A5FF0E220C920F22FB
:100F900001240BAB02250E9205221C721C741C76D8
:100FA0001D705D725A7410950FAA6946C1CAC1C1FD
:100FB0000F230B980E210D9A00F050F900F026FB3C
:100FC000464B1E221A70002705AB07211D701D72AB
:100FD0001C7408940A9102920394069709AA694620
:100FE00011CA11C10123079A0021059800F036FBB0
:100FF0003B48FFF7B7FEFFF7EDFCFA204000FFF794
:1010000015FDFFF731FD374E374A384B0424B24601
:10101000377090469B46A14600F076FB002809D029
:10102000334E4F463369BB43336130BF00F06CFB36
:101030000028F5D100F06EFB002807D15246137846
:10104000002B31D1002000F0F5FEE5E700F068FB51
:10105000051C0A20FFF77EFE6A78414612A801F0BF
:1010600057FC12A8FFF77EFE2B7A0024002B0CD031
:1010700068685946025D12A801F04AFC12A8FFF701
:1010800071FE2B7A01349C42F2DB1A48FFF76AFEAC
:101090006B681B78FF2B1ED000F0B8FA00F044FB01
:1010A00052461378002BCDD000F02CF8124D134887
:1010B000134A0A21C8270824C4260123834200D1E9
:1010C000EC5101339342F9D10139AC510029F4D1EB
:1010D00053461970B6E700F05FFADFE70C03002013
:1010E000B83100000D03002098310000AC31000041
:1010F00000ED00E0A8310000006000407117000022
:10110000E12E000030B5524C524D89B0231C281CF2
:1011100060210022FFF744FD631C281C602101228E
:10112000FFF73EFDA31C281C60210222FFF738FDBB
:10113000E31C281C60210322FFF732FD231D281C1D
:1011400060210422FFF72CFD631D281C602105226D
:10115000FFF726FDA31D281C60210622FFF720FDB6
:10116000E31D281C60210722FFF71AFD231C08330A
:10117000281C60210822FFF713FD231C0933281CBB
:1011800060210922FFF70CFD334D2378291C002232
:10119000684601F0BDFB6846FFF7E4FD6378291C53
:1011A0000122684601F0B4FB6846FFF7DBFDA37837
:1011B000291C0222684601F0ABFB6846FFF7D2FD0E
:1011C000E378291C0322684601F0A2FB6846FFF77A
:1011D000C9FD2379291C0422684601F099FB684661
:1011E000FFF7C0FD6379291C0522684601F090FBDA
:1011F0006846FFF7B7FDA379291C0622684601F06F
:1012000087FB6846FFF7AEFDE379291C0722684695
:1012100001F07EFB6846FFF7A5FD237A291C082212
:10122000684601F075FB6846FFF79CFD637A291C50
:101230000922684601F06CFB6846FFF793FD0A201F
:10124000FFF788FD0A20FFF785FD09B030BDC046D5
:10125000C000002000A00040D031000084B0F0B5F4
:101260005F4656464D464446F0B4051C89B0129080
:1012700013911492159312ACEDB20295257C081CC3
:101280000195657C247E111C090AA246BE4CC9B298
:101290000695179D161C0390049105936021231C4D
:1012A0000022BA480795FFF77BFC631C60210122EE
:1012B000B648FFF775FCA31C60210222B348FFF774
:1012C0006FFCE31C60210322B048FFF769FC231D7B
:1012D00060210422AD48FFF763FC631D60210522F5
:1012E000AA48FFF75DFCA31D60210622A748FFF76F
:1012F00057FCE31D60210722A448FFF751FC231C83
:10130000083360210822A148FFF74AFC231CF6B2EB
:101310000933602109229D48FFF742FCB346A678B5
:101320003020371C102587432F43FFB280463B1CDB
:10133000602102229548FFF763FC0F231E402E43D5
:10134000F6B2331C602102229048A770FFF758FCC8
:10135000602102221F238D48A670FFF751FC1F2336
:10136000A370E378072213401D43EDB22B1C6021CC
:1013700003228648FFF744FC6021032210238348A0
:10138000E570FFF73DFC1023E37023793F251D40F6
:10139000EEB22B1C602104227C48FFF731FC202791
:1013A000331C2571BB4320252B43DBB26021042273
:1013B00076489946FFF724FC4046331C83434A464F
:1013C0002B432271DBB26021042270489846FFF75C
:1013D00017FC3823321C9A43131C2B434146DBB2C3
:1013E00021719846602104226848FFF709FC4346B2
:1013F00023713C239E4324231E43331C602104227B
:101400006248FFF7FDFB6021042224235F48267118
:10141000FFF7F6FB24232371E3797F221A409046DD
:10142000D6B24346602107225848FFF7E9FB402324
:10143000311C994340468846E071434660210722AB
:101440005248FFF7DDFB6023301C9843031C4246E3
:101450002B43E271DBB2602107224C489846FFF72C
:10146000CFFB7823321C9A43131C2B434146DBB23B
:10147000E1719846602107224448FFF7C1FB4346CB
:10148000E3717E239E433543EDB2602107222B1C7E
:101490003E48FFF7B5FB3D48602107222023E57158
:1014A000FFF7AEFBE7715C46002C1FD0012C47D044
:1014B000374C019D002D23D0012D53D05246002AD8
:1014C00027D05346012A2BD0231C12AA23CA23C398
:1014D00032CA32C312681A6009B03CBC90469946C1
:1014E000A246AB46F0BC08BC04B01847029803996A
:1014F0000122012300F05AFD019D254C002DDBD176
:10150000012204980599012300F050FD5246002A5B
:10151000D7D1069807990122012300F047FDD3E7B0
:1015200006980799042200F041FD637C6569D900A3
:10153000CB18184852469B00AA401B185A60C3E7B4
:10154000029803990422012300F030FD104C5A4602
:1015500023786068D900CB180E499B0082405B1845
:101560005A60A6E7049805990422012300F01EFDA5
:10157000637AE068D900CB1806492A1C9B00824098
:101580005B185A609AE7C046C000002000A00040E7
:10159000A400002010600040F0B5474680B4164C0F
:1015A000257A012D05D01548FFF7DCFB04BC9046D9
:1015B000F0BD134E0323377960213A1C9A439046BD
:1015C000434604220F48FFF71BFB434633710B23AE
:1015D0009F4308231F4304223B1C0A486021FFF756
:1015E0000FFB3771237862689540DA00D318064AFA
:1015F0009B009B181D61D9E7A4000020E431000086
:10160000C000002000A000400060004038B50E4B34
:101610001A7A012A03D00D48FFF7A4FB38BD1978C8
:101620005B680B4C9A40CB0059180A4B8900C918CB
:101630004A60257908239D430748602104222B1C1A
:10164000FFF7DEFA2571E9E7A4000020E43100008D
:10165000C00000201060004000A0004084B0F0B541
:1016600083B00B93224C0EAB089018780FAB099106
:101670000A92197808AA231CE0CAE0C3E0CAE0C3B2
:101680001C4B00229A74DA741B4B012518701B4BFB
:10169000022619701A4B0F219D65DA6C8A432A4382
:1016A000DA649E65DA6CF0218A4310210A43DA6419
:1016B00080225A63996A5205090109090A439A620C
:1016C000FFF7AAFBFFF788FB61690D420DD00D4BB8
:1016D00040221A600123207C0022009300F00EFCBF
:1016E00003B0F0BC08BC04B01847064B1E60F1E71D
:1016F00028030020100300202703002024030020DB
:101700000060004000E100E0014B987C7047C0465B
:1017100010030020014BD87C7047C0461003002006
:101720000048704710030020014B0022DA74704714
:1017300010030020F0B5514B514C5A6E186CA17C2F
:10174000012583B02A40002939D0C009054200D0C4
:1017500073E04C494C480E780378002A5ED14B4A1E
:101760002F1C955D9F40BD439555002B5DD10725EE
:10177000057008780130087045490878002842D182
:101780004448007800283ED14348127800788242CD
:1017900000D170E0A374E374404C0125207A0095D9
:1017A000E1680022002300F0A9FB207C616900228F
:1017B0000123009500F0A2FBFFF756F923E05B6ED2
:1017C0005B081D4221D1002A32D025702D4A00230A
:1017D00013702D4A072111702D4A0125A57413702D
:1017E0006374E374FFF72EF92C4C0122207C0095E2
:1017F0006169002300F082FB207AE16801220095F4
:10180000002300F07BFB03B0F0BD002A12D10223BD
:101810002370204B1B78002BD8D1F4E71B4A9D4046
:10182000975D3D439555002BA1D0013B0370EAE73E
:101830002270CBE703232370E5E7184E0022307AAD
:101840000095F168002300F059FB307C716900229B
:101850000123009500F052FBFFF706F90023A37463
:101860000A4B6574E5741A78013362706360054B46
:101870001B782372C7E701230B70C4E700600040A8
:101880001003002026030020400300200000002059
:10189000CD0000202403002027030020280300207F
:1018A000F0B5474D01222B7AE868D900CB1845499D
:1018B0009B005B188240444C9A61237883B0002BD4
:1018C0000AD0424A137C012B30D0032B00D16EE0AA
:1018D0003C4B0122DA650DE03D4A1378002B11D014
:1018E000013BDBB239481370017C1E1C012914D066
:1018F000032926D02278012353402370FFF792FA60
:1019000003B0F0BD334B314819780131197007230A
:101910001370017C1E1C0129EAD1072BEAD1032395
:1019200003742C4B167000221A70E3E75178284B91
:101930001A780123181C90400842C9D0214A9365A7
:10194000D8E7244B017A1E788E42D3D3002101269A
:1019500019701C4B46748174072010709E65DA6CF8
:101960000F218A4332430227DA649F65DA6CF02143
:101970008A4310210A43DA6480225A63996A520525
:10198000090109090A439A62FFF746FA69690E429A
:1019900012D0114B40221A600123287C00220093B0
:1019A00000F0ACFAFFF738FAFFF75EF8A2E7094B50
:1019B00052681B78D15CBAE7074B1F60ECE7C04662
:1019C00028030020006000402503002010030020B1
:1019D0000C000020CC00002000E100E0030570B501
:1019E0001B0F062B0ED8124A9B00D3589F46114A54
:1019F000C003C00E136801248440A3438140181C17
:101A00000843106070BD0C4AF2E70C4AF0E70C4A3C
:101A1000EEE70C4A01240C4DC0036B6DC00EDE07CF
:101A2000E8D42B6D2342FCD1E4E71024074AF2E707
:101A30000032000078800C4008800C4044800C404C
:101A400040800C4058800C4000800C4060800C406E
:101A500008B5F8239B031840C023DB02984200D14D
:101A600073E00ED990235B03984249D017D9A02385
:101A70005B03984253D0D0235B0398422ED00020C2
:101A80000CE080239B02984200D16FE08023DB02B0
:101A9000984220D00028F2D100F01AFE08BD802321
:101AA0001B039842EBD14C4A0321936A0B40022B53
:101AB00000D183E0032B00D17CE0012B6AD0936A34
:101AC00000201B0C01D000F057FE434B0F229B6EF1
:101AD0001340D840E2E700F0A3FDDFE73E4BE021F2
:101AE0005B69C90080220B40920093426FD045D9B8
:101AF000C0229200934268D08B42C0D13748CDE7D4
:101B0000354A936A1B079B0F022B4DD0032B47D0FE
:101B1000012B3CD0936A00201B0DBFD023E02E4A3E
:101B2000936A1B079B0F022B41D0032B49D0012B3B
:101B300033D0936A00201B0D01D000F01DFE264B10
:101B400003221B6F1340D840A8E7234A0321936A5E
:101B50000B40022B28D0032B22D0012B17D0936AE5
:101B600000201B0C9AD000F007FE97E700F0B0FDB4
:101B7000194B0F229B681340D8408FE7002B28D0C9
:101B800080225200934200D079E7154886E700F0A2
:101B9000EFFD83E700F0ECFD97E700F0E9FDCEE70D
:101BA00000F03EFD400879E700F0EAFD76E700F03E
:101BB000E7FDC4E700F034FD400886E700F0E0FDF3
:101BC00083E700F02DFD4008B9E7064866E70648C0
:101BD00064E7064862E7C04600800C40406F400161
:101BE000C0D8A70040420F00C0CF6A00809FD50038
:101BF00038B50F240440012C0AD0002C00D138BD88
:101C0000032CFCD80929FAD8434B89005B589F461E
:101C10000929F4D8414B89005B589F4680228023D4
:101C200052035B020021022C6ED03D4B3D49986A65
:101C300001400A439A62E2E73B4B042219680A43D7
:101C40001A6003210C220023EDE7354940230B6283
:101C50008022CB6A1A42FCD000F046F9042200230D
:101C60000121E0E72E4980235B0080220B62920075
:101C7000CB6A1342FCD000F037F90822002302217E
:101C8000D1E7002200230021CDE703250123022212
:101C900023490B62CB6A1342FCD000F025F9234B99
:101CA00007225B68111C1940012902D893430122C5
:101CB00013431E4C63601A4B5D6200F015F900F08F
:101CC000AFFC1B4A636881181A4A914216D8072252
:101CD000934301221343154A536090E70125D5E74A
:101CE000032540238022D3E78023802204255B0044
:101CF0009200CDE7022504230822C9E70E4A90424C
:101D0000E9D807229343E6E7054A0B43906A0B495B
:101D100008400343936272E71C3200004432000023
:101D200000800C40F3FFEFFF40800C4000000C40AF
:101D3000FFDB0BFFFF23F4000024F400FCFFFEFF99
:101D400008B5042807D8134B80001B589F46124B38
:101D5000186200F0C9F808BD012302200029F6D05E
:101D60000D490B62002AF4D00A1CD36A0342FCD04E
:101D700000F0BAF8EFE710232020EFE7802380205F
:101D80005B008000EAE740238020E7E70423082087
:101D9000E4E7C0466C32000000800C40F0B55746C6
:101DA0004E464546E0B480231F4F5B01FA581F4B57
:101DB000FB58134034D4BA6B0221141C1C409343CB
:101DC0009A46884601260025002C1ED0184A9146C6
:101DD000264216D0331CBA68AB4049467B502B01D3
:101DE000D318DB68002B0CD0197A01224A401A72F2
:101DF0001A689446002A04D04A1E9141281C5A6849
:101E0000E04764080135002CE2D101235B4298448D
:101E10004146002905D11CBC90469946A246F0BD1A
:101E2000FEE75446CFE7C04600200C400C100000EF
:101E300008100000284938B5284ACB6A04241380CA
:101E4000274A15692C43146130BF002805D15A0573
:101E500000D538BD00F0E4FBFBE78422885801245C
:101E6000044020488850AA2252001A400A62F022F8
:101E7000920180201A404001824213D080208001CC
:101E800082421FD080200001824213D0DA0702D4A0
:101E9000114B02221A62002CDBD00F4A002184234E
:101EA000D150D6E78020CA6A1042FCD00A4A0321EA
:101EB0005162EBE70820CA6A1042FCD0064A0221B0
:101EC0005162E3E780208000CA6A0242FCD0024AE5
:101ED00004215162DAE7C04600800C40CE000020A9
:101EE00000ED00E00E580000024BDA6A024B1A8047
:101EF0007047C04600800C40CE000020F0B54E4632
:101F000057464546E0B408AC267807293AD9234F0E
:101F100082246400A2463D1C5544B9462C680F1C1F
:101F2000083FA446BF000F24251CBD406446AC43B7
:101F3000B840071C4D46201C554438432860184DB6
:101F400001242F688C40E0430740BC46171C8F409B
:101F500062463A432A60134A1D1C17688D400740A9
:101F60003B1C2B4313600D4A8E235B00D4500E4B59
:101F70008E401A681040304318601CBC9046994649
:101F8000A246F0BD054CA14680246400A2464F46FF
:101F900057443D688F00AC46C5E7C046006000402E
:101FA000086100400C61004010610040F0B54F46F0
:101FB0004646C0B4C400002A09D0C4000126251832
:101FC0008E40AD00002B3DD0244FED192E61251819
:101FD000AD00072920D8214EAD196F688E00B94693
:101FE0000F27B740B0464E46BE43B446171C464680
:101FF000B74066463E436E60002A09D1002B25D1CA
:1020000001238B40191C2018154B8000C01841601B
:102010000CBC90469946F0BD104FED19AE68B14624
:10202000104E8F19BF00B8460F273E1C4746BE40D2
:102030004F46B743BC464646171CB74066463E432C
:10204000AE60D9E7064FED196E60C0E72018034F68
:10205000012380008B40C0190361D9E70060004074
:1020600010600040F8FFFF3FF8B5002343631B4BAF
:102070000D1C0363036802224978934301224A40FE
:10208000520013430360AE68041C2F7B6868002E67
:1020900014D02268124B1340236023683A02134382
:1020A0002360002815D0B300C01A0E4BD95D7143D0
:1020B00000F06CFB23689A0707D420612368012293
:1020C00093432A7813432360F8BD0028F5D10120FB
:1020D000F3E70548FFF7BCFCE5E7C046CFFF01008A
:1020E000FFFCFFFFA432000010810200F0B55F4644
:1020F00056464D464446F0B4B84B83B0984200D0A3
:10210000FDE0B74BB74C5A88A14694468026402242
:1021100004249F6819781D79B2469046A346826AC6
:10212000C024E400144000D00CE1082911D9FB229E
:102130005A706146092259801D711A70A74B0520FB
:102140005C63404203B03CBC90469946A246AB4615
:10215000F0BD8C004E463659B746072164461970CB
:102160005C801D71960619D5ED007F199B483A8950
:102170005988C4698A4200D8DBE07D686C5401311B
:1021800089B259808A4200D8D3E004234360012AEF
:1021900004D0013A914201D1082343600120D1E7E4
:1021A0000821197080216046490058801D710A423B
:1021B000F4D08A4A1163587809221A70874900229C
:1021C00040B24A630128BDD15A700020BAE7664682
:1021D0005E801D7179883A88C80600D49AE006208E
:1021E000120A0240F02002434C0701D501210A43A4
:1021F00004211970794B0121596001205A62A1E72D
:102200005646164200D0B0E04146114200D1D1E01E
:1022100001637A885E4616426FD060460722588076
:102220001D711A7001208DE7EA00BA1814896445FF
:1022300000D9ABE07A8801355C46EDB214406CD130
:102240000126324000D0C5E0012D78D95A801D7199
:1022500008221A70614B02225A60012072E756462A
:10226000164200D081E04146114200D19BE0424637
:1022700002637A885949D40600D5A2E094073CD578
:102280001D7166460722ED005E801A707F193B893A
:10229000012B00D082E708234B60012052E7604603
:1022A00058801D717A88D1062CD539880622090AF2
:1022B0001140F022114301221A70484B012059624B
:1022C0005A603FE7514611425DD14446144228D13D
:1022D000022266461A705E801D71012032E7514667
:1022E000114250D14446144206D1062266461A7065
:1022F0005E801D71012025E7046305210FE704209E
:1023000040421FE73988FE2001409407D3D50122BF
:102310001143D0E7FE20024066E70026B4460321C1
:10232000FDE604637A880321940700D5F7E60521CA
:10233000F5E6012A8CD1294A0821516088E700225C
:102340009446ECE664465C801D71960505D5FD2239
:102350005A70FD2009221A7030E7500501D45878D0
:10236000F8E7FE225A70FE20F4E7604658801B4AC8
:1023700080211D711163FF215970082119700223FA
:1023800053600120DEE662465A80F0E752686046FC
:10239000115C124A1D715162624601325A80062256
:1023A0001A700120CEE601221A7062465A801D7111
:1023B0000120C7E604221A7062465A801D7101206E
:1023C000C0E6664602225E801D711A703B780120CD
:1023D0004B62B7E65C801D713AE7C04600A0004042
:1023E000D00000208032000008B5174B984229D158
:1023F0008368DA0701D5202343604B889A0702D50A
:102400000A89002A1ED05A0702D50B8A002B19D040
:102410000E4B002201201A711A705A805870996070
:10242000094BC0225A609A6A910609D40648084BA3
:102430000363FC23DB004363FFF758FE40B208BD93
:10244000DB69F3E7FC20F9E700A00040D0000020A2
:10245000CFFF0100036C70B5041C0D1CDA0703D418
:102460000222636C1A42FCD10A236360636C002B66
:10247000FCD10123236423682A7B1C218B43134353
:102480006A7B68681343AA7BAE6813432360002805
:102490000AD10E4B9C4204D02B7863600023236446
:1024A00070BD0B48FFF7D4FA311C400100F06EF903
:1024B000011C084B2039C9001940236CDA0703D4EA
:1024C0000422636C1A42FCD1E160E5E70040084059
:1024D00040051400F87F000000B5102283681A42FE
:1024E000FCD0036CDA0703D44022436C1A42FCD1BF
:1024F000816200BD00B5002802D1034B196000BD08
:102500000128FCD1014BF9E7080008400C00084005
:10251000427800B50378002A01D002221343827862
:10252000002A01D004221343014A136000BDC046B3
:102530000000084030B50B78002B01D10222426028
:10254000002242628C78CA782406120422430C7A54
:1025500022438C79A4022243CC79240222434C7872
:10256000651EAC41A40122434C7A651EAC41E401D6
:1025700022438C7A651EAC4164012243CC7A651EED
:10258000AC41240122430C79651EAC416403224313
:102590004C79097B651EAC41240722434C1EA141A6
:1025A000C9000A430260002B01D00123436030BD03
:1025B00000B5802203691A42FCD0C069C0B200BDD8
:1025C000064880470649074A074B9B1A03DD043B30
:1025D000C858D050FBDC0548004700006D270000BC
:1025E000F032000000000020880000206109000097
:1025F000FEE7FEE7FEE7FEE7FEE7FEE7FEE7FEE7B3
:10260000FEE7FEE7FEE7FEE7FEE7FEE7FEE7FEE7A2
:10261000FEE7FEE7FEE7FEE7FEE7FEE7FEE7C04671
:10262000224AF023D16A9B010B40802100B5490169
:102630008B4226D0802189018B421FD08021090145
:102640008B4210D0D268E023DB001340802292003E
:10265000934223D018D8002B22D0802252009342DC
:102660001AD1134A01E0134B1A68104B0F205B6814
:102670001840114BC240101C1A6000BD0F4B1A6865
:10268000F3E780221202F0E7C022920093420BD0BF
:102690008022D200934205D00022E6E7084AE4E710
:1026A000084AE2E7084AE0E7084ADEE700800C4013
:1026B00040B56400140000204403002010000020F6
:1026C000C0D8A700804F1200406F4001809FD50006
:1026D0001E4AF023D16A9B010B40802100B54901BD
:1026E0008B421ED0802189018B4217D080210901A5
:1026F0008B4210D0D268E023DB001340802292008E
:1027000093421BD010D8002B1AD080225200934243
:1027100012D10F4801E00F4B186800BD0E4B18682E
:10272000FBE780200002F8E7C022920093420BD022
:102730008022D200934205D00020EEE70748ECE764
:102740000748EAE70748E8E70748E6E700800C4063
:1027500040B564001400002010000020C0D8A7007D
:10276000804F1200406F4001809FD5007047C046E7
:10277000802000027047C046FA2080007047C046A3
:10278000014B18687047C04610000020002934D063
:102790000123002210B488422CD301242407A14233
:1027A00004D2814202D209011B01F8E7E400A142F0
:1027B00004D2814202D249005B00F8E7884201D38B
:1027C000401A1A434C08A04202D3001B5C08224363
:1027D0008C08A04202D3001B9C082243CC08A042D4
:1027E00002D3001BDC082243002803D01B0901D0C0
:1027F0000909E3E7101C10BC7047002801D0002035
:10280000C04307B4024802A14018029003BDC0466D
:10281000190000000029F0D003B5FFF7B9FF0EBC86
:102820004243891A1847C0467047C04610B5044C49
:10283000002C02D000E000BF00E0201C10BDC0460C
:1028400000000000094B10B5041C002B03D0002130
:1028500000E000BF01E000F00DF805480068816A63
:10286000002900D08847201C00F056FC0000000022
:10287000AC32000038B5084B084C1D1CE01A84101F
:10288000002C06D0A1006A18043A13689847013C4E
:10289000F6E700F049FC38BD8400002088000020E5
:1028A00070B50E4B0E4D0024E81A85101E1CAC426C
:1028B00004D0A100725890470134F8E700F02EFCD4
:1028C0000849094A0E1C541AA5100024AC4204D031
:1028D000A300F05880470134F8E770BD8000002065
:1028E00080000020800000208400002010B500231C
:1028F000934203D0CC5CC4540133F9E710BD00B55A
:102900008218031C934202D019700133FAE700BD0C
:102910000EB400B59CB01DAB02A904CB822202907C
:102920000861920009488A8101228860486150420A
:10293000074AC88110681D9A019300F063F8029954
:1029400000230B701CB008BC03B01847FFFFFF7FCB
:102950007C000020F7B501919168071C141C002928
:1029600040D190239289D80002423BD0256821694A
:1029700063696E1A58000096C6180098F50FAB19D7
:1029800001305D10A84201DB009D0235381C530563
:102990000FD5291C00F004FB061E13D02169009AF4
:1029A000FFF7A4FFA7891649802239401143A1816E
:1029B00011E02A1C00F04AFB061E0CD1381C2169CC
:1029C00000F0A6FA0C203860A58940263543A58181
:1029D0000124604213E0009B6561F018ED1A266146
:1029E0002060A560A668002E08DD694627680A7980
:1029F0003A70A3680137013B2760A3600020FEBD49
:102A00007FFBFFFFF0B5A1B0049007938B890E1CEC
:102A1000171C19060FD53269002A0CD1402100F08D
:102A2000BFFA30603061002803D1049C0C26266078
:102A3000D6E04020706108AD002120243023696178
:102A40006C76AB763C1C2278002A04D1E01B069001
:102A500019D003970FE0252AF8D00134F3E7039942
:102A6000321C09780498FFF775FF039A013203922C
:102A7000013000D1AFE003990698CB1B8342EEDB17
:102A80000D9F3A180D922178002900D1A3E0012072
:102A90006A4600234742633201342B60EB606F606B
:102AA000AB601370AB65504F2178381C052200F0E5
:102AB000C1FA002807D0C71B2B680120B840184373
:102AC00028600134EFE72B68D90603D5684620213A
:102AD000633001701A0703D56A462B2763321770DB
:102AE00021782A2901D00B9B0EE0079A1068111D4E
:102AF0000791002801DB0B9004E0022247421343B8
:102B0000EF602B60013409E020783038092804D8C0
:102B10000A277B4301341B18F6E70B9323782E2BEF
:102B200018D161782A2909D1079B02341A68191D26
:102B30000791002A0DDA012042420AE00134002206
:102B400020783038092804D80A277A43013412182B
:102B5000F6E70992254F2178381C032200F06AFA23
:102B6000002806D02B68C21B4021914019432960E0
:102B7000013421781E4806222976671C00F05AFA93
:102B8000002817D01B4800280BD12868079C072372
:102B9000C10501D5E41800E007349C4308340794CC
:102BA00014E007AA00920498291C321C124B00E082
:102BB00000BF07E007AC00940498291C321C0E4BA0
:102BC00000F08CF8059005994A1C04D00D99059ADF
:102BD0008C180D9436E7B589690601D40D9801E08B
:102BE0000127784221B0F0BDB0320000B6320000BB
:102BF000BA3200000000000055290000F7B5151C8E
:102C000001930A698B6800900C1C934200DA131C34
:102C1000201C2B6043300178002901D001332B6048
:102C20002668B00602D52F6802372F602268062674
:102C300016401CD0261C4336377822683E1C731E73
:102C40009E4192061CD5A319181C40303021271C28
:102C5000C17045373A784133DA70023610E0617E50
:102C60000098019A089FB847013006D00136E36802
:102C70002868191A8E42F2DBDCE7012040422CE082
:102C80000027B7420ADAE119433109780098019A1E
:102C9000089B98470130F0D00137F2E72B68256890
:102CA00006212940E6680025042903D1F01AC7430C
:102CB000FD170540A2682669B24201DD931BED189D
:102CC0000027AF4208DAA17E0098019A089EB0471B
:102CD0000130D2D00137F4E70020FEBDF0B50D1C65
:102CE0008BB0433507930590069204950A7E0C1C21
:102CF000109B6E2A00D1A8E012D8632A24D009D8EC
:102D0000002A00D1B1E0582A00D0C1E045310A7054
:102D10007D4D51E0642A1FD0692A00D0B8E01BE045
:102D2000732A00D1A5E009D86F2A2BD0702A00D0D1
:102D3000AEE00A68202616430E6038E0752A21D0DE
:102D4000782A00D0A4E032E018680E1C051D1D6032
:102D50000368423633709EE026681F68300606D44A
:102D6000750604D5381D186000203D5E02E03D1D4B
:102D70001D603D68644B002D3BDA04992D226D42A5
:102D80000A7036E027681E683D0605D4780603D52C
:102D9000351D1D60358802E0311D196035685A4BBC
:102DA000207E039308276F281ED00A271CE0271CCB
:102DB00045377820554D38701A682668111D0395DF
:102DC0001960300603D4750601D5158800E0156832
:102DD000F00702D520231E4326601027002D03D1C3
:102DE0002668202086432660261C43360022327047
:102DF00001E003930A276168A160002903DB2068D2
:102E0000042398432060002D02D1049E00290ED097
:102E1000049E281C391CFFF7FDFC039A013E515CFF
:102E2000281C3170391CFFF7B1FC051EF1D1049B41
:102E30009A1B2261082F33D12768F80730D56068C4
:102E400090422DDC013262602AE008681E68496900
:102E5000050606D4450604D5351D1D603368198066
:102E600003E0321D1A603768396000202061049E3B
:102E700016E01E68311D19603668301C00F01EF91E
:102E800065682061A84200D925612369636004E078
:102E9000261C4236327001212161049F00223A70C3
:102EA00007990598009109AA211C069BFFF7A6FE29
:102EB00001300CD0351C2269AB1B93420ADA297809
:102EC0000598069A079FB84701350130F3D10122D2
:102ED000504217E02668B10705D4099BE068984284
:102EE00010DA181C0EE00025E7680998391A8D429F
:102EF000F3DA617E0598069A079EB0470130E6D066
:102F00000135F1E70BB0F0BDC1320000D232000054
:102F100030B5002940D004390B68002B00DAC918FD
:102F20001E4A1368141C002B02D14B60116033E061
:102F300099420FD20D684A199A4205D110682B1890
:102F400055680B604D6000E04B60216024E08A42D0
:102F500003D8131C5A68002AF9D11D685C198C42E9
:102F60000BD10C682D1958191D60904214D11168AD
:102F700052686C181C605A600EE08C4202D90C2119
:102F8000016009E008680D18954203D11468526881
:102F9000001908604A60596030BDC046DC0000205E
:102FA00070B50323CD1C9D430835061C0C2D01D2A2
:102FB0000C2501E0002D2DDB8D422BD31C4A13681C
:102FC000111C1C1C002C12D02068421B0CD40B2A94
:102FD00002D92260A41815E0A34202D166680E60EF
:102FE0001CE065685D6019E0231C6468EAE7301C3A
:102FF000291C00F051F8421C0CD0C41C03218C4346
:10300000844201D1256009E0211A301C00F044F807
:103010000130F7D10C243460002008E0201C0B3074
:103020000722211D9043431A01D05D42E55070BD37
:10303000DC00002000B5C9B28218904204D00378A9
:103040008B4202D00130F8E7002000BDF8B5061C25
:103050000C1C151C002904D1111CFFF7A1FF041C36
:1030600018E0002A03D1FFF753FF2C1C12E000F0F8
:103070002CF8A8420ED2301C291CFFF791FF071E26
:1030800007D0211C2A1CFFF731FC301C211CFFF744
:103090003FFF3C1C201CF8BD38B5074C0023051C25
:1030A000081C236000F01CF8431C03D12168002990
:1030B00000D0296038BDC046480300200023C25C10
:1030C0000133002AFBD1581E704704390B6800B544
:1030D000181F002B02DAC8581918081F00BD00007D
:1030E0000A4A00B51368002B0CD0181869468842AC
:1030F00002D81060181C00BD054B0C2201201A607C
:103100004342F7E7034B1360EFE7C046E0000020BF
:10311000480300205003002000B5FEE7F8B5C04684
:10312000F8BC08BC9E467047F8B5C046F8BC08BC61
:103130009E467047010001000101000000000000F0
:1031400034FD0500020000004932435F7365745F7F
:1031500074696D656F75740A0000000044657465DC
:103160006374656420493243206465766963653A17
:10317000202564203078253032780A0005000000D0
:103180000000000080250000000000005374617200
:103190007475700A00000000416464723A2030784F
:1031A000253032780A0000000A0A0000093078252C
:1031B00030327809000000004D6F64436F6D6D2060
:1031C000496E697469616C697A6174696F6E0A002D
:1031D0005B3078253032785D3A203078253032788F
:1031E000090000004750494F31206973206E6F7409
:1031F00020736574206173206F75747075740A0094
:10320000041A0000061A00000A1A00000E1A000034
:10321000121A00002A1A0000EE190000FE1B00001E
:10322000821C0000641C00004A1C0000FE1B000001
:10323000FE1B0000381C0000FE1B0000FE1B0000EF
:103240001C1C0000FE1B0000FE1B0000E81C000010
:10325000E01C0000F41C0000DC1C0000FE1B000051
:10326000FE1B0000FE1B00008A1C00007C1D0000ED
:10327000861D00008C1D0000581D0000761D0000FA
:103280009E2200005E220000C4220000CE21000029
:103290000022000028220000DE2200005A21000047
:1032A000A0210000080911084300000018000020B8
:1032B000232D302B2000686C4C006566674546471F
:1032C00000303132333435363738394142434445A2
:1032D0004600303132333435363738396162636411
:0832E00065660000000000001B
:0832E80078D6FF7F0100000011
:1032F000AAAAAA00FFAA00AAFF0000000700000077
:103300000080000000366E01000000000000000098
:1033100000000000000000000000000000000000AD
:103320000000000000000000A832000000000000C3
:10333000000000000000000000000000000000008D
:10334000000000000000000000000000000000007D
:10335000000000000000000000000000000000006D
:103360000000000000000000000000001800002025
:08337000290900000109000019
:04000003000025C113
:00000001FF
