:1008000000100020E11B0000131C0000151C00005C
:10081000111C0000111C0000111C0000111C000024
:10082000111C0000111C0000111C0000171C00000E
:10083000111C0000111C0000191C00001B1C0000F2
:1008400061150000210F0000211C0000231C000086
:10085000251C0000711E0000291C00002B1C00003C
:10086000892100001D210000311C0000331C000004
:10087000FD0B0000371C0000391C00003B1C000071
:100880003D1C00000000000000000000000000000F
:100890000000000000000000000000000000000058
:1008A0000000000000000000000000000000000048
:1008B0000000000000000000000000000000000038
:1008C0000000000000000000000000000000000028
:1008D0000000000000000000000000000000000018
:1008E0000000000000000000000000000000000008
:1008F00000000000000000000000000000000000F8
:1009000010B5064C2378002B07D10548002802D0EB
:10091000044800E000BF0121217010BDC400002088
:1009200000000000C46A000008B5084B002B03D08B
:100930000748084900E000BF07480168002903D0C4
:10094000064A002A00D0904708BDC04600000000BB
:10095000C46A0000C8000020C4000020000000009D
:10096000164B002B00D1144B9D46402292029A1A3E
:10097000924600218B460F461348144A121A04F07F
:100980008DFB0F4B002B00D098470E4B002B00D057
:1009900098470020002104460D4600200C49002203
:1009A000002304F003FB04F03BFB2046294600F043
:1009B000ABFB04F007FBC04600000800001000205D
:1009C0000000000000000000C4000020AC03002074
:1009D000F54F000008B50848062100F053FD074810
:1009E000012100F043FC0648012100F03FFC0548CE
:1009F000012100F03BFC08BD0300120000230400AD
:100A0000108102000072020000B500235A1C782BEE
:100A100003D1074B04221A6009E03C2B04D1054B9B
:100A200004211960131CF1E7131E792BEED100BDD0
:100A3000C4600040C8600040F0B58FB0654CFA2239
:100A4000207D617D0A25920069434243A37D5218AF
:100A5000D218614906A804F02BFB06A801F04CFB54
:100A6000A27AE67A237B64214A435943607B921938
:100A70000B185A4906A804F01BFB06A801F03CFB22
:100A8000A27BE07B237C617C12021B028218CB18C4
:100A900092B29BB2524906A804F00AFB06A801F0E4
:100AA0002BFBA27CE37C6A434E499A1806A804F00B
:100AB000FFFA06A801F020FBE77D267E637E281C56
:100AC0000293A37E3F020393E37EF6190493237FF0
:100AD000059301F009FB0298039903020498CB18CF
:100AE0000102059832B2411809B21BB2009106A862
:100AF0003D4904F0DDFA06A801F0FEFA611C627FB0
:100B0000A67FE37FCD7FA11CC97FE01CC07F0902C7
:100B1000411812021B02B218EB1809B212B21BB232
:100B2000009106A8314904F0C3FA06A801F0E4FADE
:100B3000231DDA7F631DDE7FE11DA31DDB7FCD7FDB
:100B4000211C201C0831C97F283000780902411877
:100B500012021B02B218EB1809B212B21BB20091BA
:100B600006A8234904F0A4FA06A801F0C5FA231C3C
:100B700029331878231C2A331A78211C231C2B3381
:100B80002C311B7800060978120482181B025218B7
:100B9000D218184906A804F08BFA06A801F0ACFA9E
:100BA000231C2D331878231C2E331A78231C2F3343
:100BB00030341B7800062178120482181B02521868
:100BC000D2180D4906A804F073FA06A801F094FAA9
:100BD0000FB0F0BD0D010020D4580000E058000017
:100BE000F2580000015900000A590000265900007F
:100BF0003D590000575900006E590000F0B593B000
:100C0000FFF702FFFFF700FFFFF7FEFEFFF7FCFE16
:100C1000FFF7FAFEFFF7F8FEFFF7F6FEB94CBA4A07
:100C2000442323701378002B14D163799A0701D5DC
:100C300001F058FD63791A0701D501F067FB63796C
:100C4000DA0701D501F0D8FD642001F093F8012303
:100C5000AD4AF4E0012B00D0F3E062791A4226D0CD
:100C6000002304A805A90493059301F0F3FD0130C6
:100C70001AD0049D6421281C03F008FBC0B2A072A6
:100C80006421281C03F046FB059DC9B2E172281CB3
:100C9000642103F049FBC0B220736421281C03F0D7
:100CA00099FBC9B2617302E0984801F025FA6379B3
:100CB0009A070DD500236D46EB810E35281C01F0F7
:100CC00017FD2B881A0ADBB2A273E37301F032FD21
:100CD00063791A0714D500236D46EB810E35281C65
:100CE00001F01EFB0023ED5E0A21281C03F01CFB13
:100CF0000A21A074281C03F06DFBE17401F034FBA1
:100D00006379DA0618D56F466D460A3703AE0E359D
:100D10002A1C381C311C01F097FB0122BA563B8873
:100D2000E27523760122B25633886276A3760122D9
:100D3000AA562B88E276237763799A0600D47BE063
:100D400006AD0021281C02F085F901222B88AA5645
:100D500005216277A3770323EB566A88E377631C48
:100D6000DA77695608AEAA88A31CD977301CE31C31
:100D70000021DA7702F046F9012171563288231DED
:100D8000D977631DDA77032171567288A31DD9774D
:100D9000E31DDA7705217156231C0833B288D97711
:100DA000231C28331A706B460E33009303AB019358
:100DB000301C0023291C0AAA03F088F93123544966
:100DC0001A1C0878313A824202DA5248825C00E00A
:100DD0000022E25401333B2BF1D1002504A80D7011
:100DE000049502F0CBFF049B221C190E29321170CE
:100DF000190C221CC9B22A321170190A221CC9B25C
:100E00002B321170221CDBB22C3205A81370059511
:100E100002F0DEFF059B221C190E2D321170190CF9
:100E2000221CC9B22E321170190A221CC9B22F32EB
:100E3000DBB2303411702370334A137801331370EE
:100E40004EE0022B4CD162791A421FD002AD002332
:100E5000281C2B8001F076FC2B886E466F461A0A00
:100E60000A3603AD0E372274DBB2291C3A1C301C43
:100E7000637401F08BFC398832882B880AA80091B2
:100E8000254904F015F90AA801F036F963791A0723
:100E90001DD5002305A8059301F070FA059DFA21E0
:100EA0008900281C03F0F2F9FA21C0B220758900EC
:100EB000281C03F02FFA081C0A2103F0E7F9C0B23E
:100EC00060751649281C03F025FAC9B2A175C8201F
:100ED000400000F04FFF0C4A00231370FFF7ACFDF9
:100EE000FFF792FDFFF790FDFFF78EFDFFF78CFDFA
:100EF000FFF78AFDFFF788FDFFF786FD00F054FF3E
:100F000013B0F0BD0D010020E00000208459000066
:100F100071010020D6010020AE590000102700000A
:100F200008B5074B5B799A0705D5064B1B6CDA05AC
:100F300001D401F0CDFB044A044B1A6208BDC0463F
:100F40000D01002000600040FFFF0000FC60004039
:100F500010B5294801F0D0F8284C0023637101F046
:100F600041FC002807D0264801F0C6F86379012229
:100F70001343637102E0234801F0BEF801F044FB23
:100F8000002807D0204801F0B7F863790222134304
:100F9000637102E01D4801F0AFF801F02BF9002861
:100FA00007D01B4801F0A8F8637908221343637146
:100FB00002E0184801F0A0F801F002FA002807D07A
:100FC000154801F099F8637910221343637102E028
:100FD000124801F091F801F0B9FA002807D0104842
:100FE00001F08AF8637920221343637102E00D480F
:100FF00001F082F810BDC046BD5900000D0100206F
:10100000DB590000EE5900000D5A0000205A000084
:101010003F5A0000525A0000715A0000865A0000E0
:10102000A75A0000BB5A000013B51B4801F064F832
:101030001A4C6379DA0704D501F0DCFB184801F09B
:101040005BF863799A070AD501236A461370082171
:101050000098019101F0DCFA124801F04DF8637933
:101060001A0704D501F0C4F80F4801F045F8637978
:10107000DA0604D501F0ACF90C4801F03DF86379CB
:101080009A0604D501F06AFA094801F035F80A20F9
:1010900001F02AF813BDC046DB5A00000D01002004
:1010A000ED5A0000F55A0000FD5A0000055B0000F3
:1010B0000F5B000030B58DB0052202AB1A7003241F
:1010C000E1221C7301255202059B009202982A1C02
:1010D000002100F0D3FF0A4801F00EF807AB1D74A1
:1010E0000B9A1C701C72079800920721099A06231C
:1010F00000F060FE034800F0A5FF0DB030BDC04613
:10110000185B000000A0004008B5FFF763FCFFF784
:10111000D1FF00220E4B002199540132642AF9D1EB
:1011200044221A7045225A7053229A704E22DA7065
:10113000FFF70EFFFFF778FF00F008FEFA204000EF
:1011400000F018FE00F022FE002000F087FAFBE716
:101150000D01002000B5064907224B68181C1040FD
:10116000012802D89343012213434B6000BDC046BF
:1011700000000C4010B50949094A44180949536850
:101180008C4204D807218B4301210B4304E006491C
:10119000884201D807218B43536010BDFFDB0BFF52
:1011A00000000C40FF23F4000024F40000B5114BB4
:1011B000E0225B69D2008021134089008B4216D067
:1011C00007D8002B0FD08022520093420DD10A483D
:1011D0000EE0C02189008B4203D0934205D107481D
:1011E00006E0074804E0074802E0002000E0064867
:1011F00000BDC04600800C40C0D8A700406F400131
:1012000040420F00809FD500C0CF6A0000B5044B5C
:101210005A6DD10702D41A6D0242FCD100BDC046FE
:1012200000800C4008B5104A4300916AD9400B1C5D
:1012300003210B40022B06D08B4207D0012B09D192
:1012400000F05DFD0FE000F061FD0CE000F046FDF8
:10125000400808E0936A04308000C34000208342C5
:1012600001D000F04FFD08BD00800C4070B5051C9A
:101270000005000F01380E1C052823D802F0FCFFE2
:10128000031206090C0F00200F4C0DE000200F4C3C
:101290000AE001200E4C07E010200E4C04E0002074
:1012A0000D4C01E00D4C0020ED03ED0E002801D0A7
:1012B000FFF7ACFF23680122AA409343AE401D1CF8
:1012C0003543256070BDC04608800C4040800C400E
:1012D00058800C4060800C4078800C4044800C406A
:1012E00000B50F2318400138002303283ED802F030
:1012F000C3FF021627381E4BDA6AF0239B01134006
:101300008022520193422ED08022920193422CD00F
:1013100018495B185A4253410522D31A26E0144A51
:101320000321936A0B40022B20D08B4213D0012B58
:1013300001D10B1C1AE0926A0923D10316D410E0E4
:101340000B4A0C23916A0B40082B0ED00C2B02D0B9
:10135000042B02D107E0062308E0926A0923D10298
:1013600004D4012302E0032300E00223181C00BD83
:1013700000800C4000F8FFFF08B5F8239B031840DD
:1013800080231B0398422ED011D880239B029842C1
:1013900021D002D8002840D045E08023DB029842CB
:1013A0001ED0C023DB0298423DD1002024E0A023C0
:1013B0005B03984223D005D890235B03984232D137
:1013C000012019E0C0235B0398421FD0D0235B03A8
:1013D000984228D124E000F033FC144B9A6807E0CF
:1013E00000F07CFC20E00020FFF71CFF0F4B9A6E02
:1013F0000F231340D84017E0FFF714FF14E001203B
:10140000FFF710FF094B1A6F0323F2E70848FFF7B5
:1014100067FF072804D0082805D100F011FC03E07D
:10142000FFF7C4FE00E0002008BDC04600800C406D
:101430000400180010B5042821D802F01DFF0C0983
:1014400011030600012002230CE01020202309E0F4
:101450004020802306E08020802340009B0001E0A4
:1014600004200823064C002906D02062002A04D05C
:10147000E26A1A42FCD000E0236200F00BF910BDD2
:1014800000800C4010B50F240440012C04D0002C27
:101490005DD0032C5BD824E0881E072857D802F0C3
:1014A000EBFE0F06090C56565604032000E00120FF
:1014B000032407E00220041C04E00320012401E0CF
:1014C0000020042401210A1CFFF7B4FFFFF742FEAD
:1014D0001F4B5C6200F0DEF800F000FCFFF74AFEF4
:1014E00035E0481E082832D802F0C6FE05070E3146
:1014F000311531311D00002313E0012100200A1CA9
:10150000FFF798FF02230CE00120011C021CFFF7EB
:1015100091FF012305E00F4B042219680A431A606A
:101520000323002201E0002301220949022C06D1F5
:101530008C6A0948120420400343134306E0120555
:101540009B001343886A054A104003438B6210BD19
:1015500000800C4040800C40FCFFFEFFF3FFEFFFDB
:10156000F7B51B4F80235B01FE581A4BFB581E40FA
:1015700000D5FEE7BA6B0223151C0192354000939B
:101580000024002D1BD00122154215D0124B101C37
:10159000B968A040F8502301CB18DB68002B0BD0B2
:1015A000197A4A401A721A689446002A04D04A1ED0
:1015B0009141201C5A68E0476D080134E1E7009A28
:1015C000019B351C013A9D430092002AD8D1F7BDFA
:1015D00000200C400C1000000810000030B51B4823
:1015E0000122C46FAA211440194A1A4BC2671A4A31
:1015F00049001288802511401962F02189011140AB
:101600006D01A94208D08025AD01A94209D08025ED
:101610002D01A94210D109E0D96A0D06FCD5032598
:1016200008E0D96A8D05FCD5042503E0D96A0D07C9
:10163000FCD5022507494D62D10701D402221A6266
:10164000002C01D00023C36730BDC04608800C4089
:101650000E58000000800C40E200002010B50A4B3C
:101660000A4ADB6A04241380094A11692143116183
:1016700030BF002802D0FFF7B1FF03E05A0501D4C4
:1016800000F02CFB10BDC04600800C40E2000020A2
:1016900000ED00E0024BDA6A024B1A807047C04648
:1016A00000800C40E2000020F7B508AC24780194DB
:1016B0001B4C07290AD88D0067680F26AE40A8404A
:1016C000B743051C381C284360600BE00D1C083D27
:1016D000AD00A7680F26AE40A840B743051C381CD4
:1016E0002843A0600F4F012538688D408446664628
:1016F000E84306408A4032433A600B4A1768074085
:10170000BC461F1C8F4063463B431360074B25625A
:101710001A68019C10408C4020431860F7BDC046F9
:10172000FC600040086100400C6100401061004016
:10173000F0B5002A0CD0012524248D404443002B11
:1017400003D01B4EA419256102E01A4EA41965604E
:101750002424444307290CD8154D0F2664196768C3
:101760008D00AE40B743161CAE403D1C354365604E
:101770000DE00F4EA419104EA7688D19AD000F266D
:10178000AE40B743161CAE403D1C3543A560002A51
:101790000CD1012424228C404243002B03D0044B63
:1017A000D218146102E0034D52195460F0BDC046D6
:1017B0000060004010600040F8FFFF3F70B5041C5F
:1017C000151C1E1C002A1BD002680E4B1340036020
:1017D0000368320213430360002903D10A48FFF76C
:1017E000CBFD011C094BA800081A995D694302F062
:1017F0004DFD23689A0702D5002800D10120206101
:1018000070BDC046FFFCFFFF10810200215B00009D
:1018100070B5002343630C4B022203630368012667
:1018200093434A780D1C7240B240134303600B7B14
:10183000AA684968041CFFF7C1FF23682A78B343EC
:101840001343236070BDC046CFFF0100F0B5894A45
:10185000904200D00AE1884B9E681F785C88197915
:10186000C020956AC00005420AD019715C80FD2134
:10187000A80500D5EAE0690500D4E8E0FE21E5E02E
:10188000082F00D9DFE0381C02F0F6FC051B424FA0
:10189000677697ABD3005C80197170883188C40675
:1018A00004D50620090A0140F02004E0FE2421406E
:1018B000850701D501200143012018705162506055
:1018C000C7E08020054200D07AE040273D4201D1A8
:1018D00001207FE01763778802256648AC46FD0645
:1018E00006D5197161465C80197031784162B0E0AB
:1018F00065462F4273D05C8019710724C9001C70A3
:1019000076183189012900D0A3E008214160A0E0C8
:101910008020054254D1402702203D425AD017630F
:101920007588032705429BD159E05C801971748842
:101930003188E00605D50620090A0140F020014360
:1019400001E0FE2001400420044201D00124214393
:1019500018700120506051627BE0802005422FD139
:10196000402704203D4235D017637588054236D0A4
:1019700019715C8007216BE0C80030180589A54209
:1019800013D8748801310420C9B2204002D0002449
:10199000032765E701252C4002D05880197138E0F3
:1019A000012900D85CE75C80F8E719714168095D9E
:1019B000013451625C8006214AE08020054205D056
:1019C0001971FF215C801063597022E040200542AC
:1019D00004D1062018705C8019713AE01063052765
:1019E0003EE7072018705C801971AC0631D5C9003C
:1019F000761830895C88D569844203D271680D55A8
:101A000001345C805988814208D3012801D1082122
:101A1000516008211970022151601AE004245460B9
:101A2000012816D00138814213D11249082048609C
:101A30000FE0197180210820490018705C800D4268
:101A400007D0116303E019715C80FB2159700921F3
:101A5000197019780120092909D100215163012247
:101A60009A56824200D15970587800E0FC2040B26A
:101A7000F0BDC04600A00040E400002010B5174BA8
:101A8000984201D0FC2026E09A68D00701D5202298
:101A90005A604A88900702D508890028F2D050077A
:101AA00002D50A8A002AEDD00D4A002001241071C7
:101AB0001070547050809160C0225A609A6A9106EA
:101AC00001D5064AD269074A04481A63FC22D200AB
:101AD0005A63FFF7BBFE40B210BDC04600A00040F5
:101AE000E4000020CFFF010000B5036CDA0702D448
:101AF000436C0B42FCD100BD38B5041C151C081EFC
:101B000005D10A4B9C4210D10948FFF735FC291C2E
:101B1000400102F0BBFB051C064B203DED001D40C3
:101B2000201C0421FFF7E0FFE56038BD00400840BD
:101B300040051400F87F000070B50D1C0221041C44
:101B4000FFF7D2FF0A236360666C002EFCD10123ED
:101B5000236423682A7B1C218B4313436A7B201C4C
:101B60001343AA7B696813432360AA68FFF7C4FF85
:101B70002B786360266470BD38B5041C0D1CA36807
:101B8000DA06FCD5201C4021FFF7AEFFA56238BD68
:101B900000B5002803D0012803D1024B00E0024B1E
:101BA000196000BD0C0008400800084000B54278EC
:101BB0000378002A01D0022213438278002A01D040
:101BC00004221343014A136000BDC04600000840D0
:101BD00000B503691A06FCD5C069C0B200BD00009B
:101BE000064880470649074A074B9B1A03DD043B1A
:101BF000C858D050FBDC054800470000FD1C000021
:101C0000D06A000000000020C4000020610900002C
:101C1000FEE7FEE7FEE7FEE7FEE7FEE7FEE7FEE79C
:101C2000FEE7FEE7FEE7FEE7FEE7FEE7FEE7FEE78C
:101C3000FEE7FEE7FEE7FEE7FEE7FEE7FEE7C0465B
:101C400000B51E4AF023D16A9B010B408021490157
:101C50008B422DD0802189018B4205D08021090142
:101C60008B4204D1164B00E0164B186824E0D26872
:101C7000E023DB00134080229200934212D007D869
:101C8000002B11D08022520093420FD10E4813E056
:101C9000C022920093420ED08022D200934205D1FE
:101CA0000A4809E00A4807E00A4805E0002003E086
:101CB0008020000200E0084800BDC04600800C40C3
:101CC000040000200000002040B56400406F400187
:101CD000C0D8A700804F1200809FD50008B5FFF73D
:101CE000AFFF044B5A680F231340D840024B1860D3
:101CF00008BDC04600800C40E001002070478020F5
:101D000000027047FA20800070470000014B1868FD
:101D10007047C0460000002008B50120021C011CCD
:101D2000FFF788FB06480321FFF7ACFB05480121BC
:101D3000FFF79CFA04480121FFF798FA08BDC04656
:101D400002000600300408000023040013B501ACB3
:101D5000FFF7E2FF06490322201C03F096F9012356
:101D60002370A370201C00236370FFF71FFF13BDB7
:101D7000255B000008B5FA218900C00302F086FA4D
:101D8000411E0020FFF704FF08BD0000044B0221A4
:101D9000DA690A43DA61034B802252011A60704704
:101DA0000000084000E100E0014B02229A61704708
:101DB0000000084084B0F0B589B00F1C0F91D1B27B
:101DC000C4B20E90039125480121254D1092119324
:101DD00002940193FFF74AFA00232B6004AC214BD5
:101DE000221C43CB43C21B681F4813600121FFF72D
:101DF0003DFA1A480121FFF739FA391C02980A22E4
:101E00000123FFF795FC0398019901230A22FFF7AC
:101E10008FFC0123181C01991E1CB840071C8E4022
:101E200009230299242251431048013B09180F60ED
:101E300003994A4312185660002BF2D10EAB1B7C5B
:101E400003221B021343AB630548211CFFF7E0FC90
:101E500009B0F0BC08BC04B01847C04600B202008C
:101E600000A00040285B00001081020010600040CC
:101E700008B50448836A0363FFF7E8FC024B187057
:101E800008BDC04600A000400C01002030B587B05E
:101E900001AC21800421618069460A7000AA029287
:101EA000012222812282211C0493FFF7E7FD0B4CC3
:101EB0000B4D20702378012B07D1013D002D04D05C
:101EC0000848FFF7C3FC2070F4E723780120002BBB
:101ED00001D0207840B207B030BDC0460C010020D0
:101EE000B90B000000A0004030B587B001AC2180E4
:101EF0000121618069464B7002230A70238100AA88
:101F0000211C0292FFF7BAFD084C094D207023787E
:101F1000012B07D1013D002D04D00648FFF796FCA8
:101F20002070F4E7207840B207B030BD0C010020EB
:101F3000B90B000000A0004030B589B06C46E271DA
:101F400003AA118008215180012111810C990734C5
:101F500006911382111C0494FFF790FD084C094D63
:101F600020702378012B07D1013D002D04D00648B5
:101F7000FFF76CFC2070F4E7207840B209B030BD68
:101F80000C010020B90B000000A0004070B586B025
:101F900001AC1E1C042363806B461A7000AB0293D5
:101FA000012323810A9B21802682211C0493FFF7B1
:101FB00065FD0B4C0B4D20702378012B07D1013DA3
:101FC000002D04D00848FFF741FC2070F4E7237887
:101FD000301C5A4253415B42184006B070BDC046A7
:101FE0000C010020B90B000000A0004010B588B023
:101FF000042203AB19805A80694600220A704A7095
:1020000000AA049201221A8101AA069208221A82C9
:102010000A48191CFFF732FD094C40B2012808D1CB
:10202000013C002C03D00548FFF710FCF5E7201C0D
:1020300001E04442604108B010BDC04600A000402D
:10204000B90B000070B588B00024061C6500E9B229
:10205000301CFFF7CBFF002808D0684606492A1C31
:10206000231C03F025F8684600F046F80134802C64
:10207000ECD108B070BDC046385B000084B030B50C
:1020800085B0C4B208900991144801210A920B93BB
:10209000FFF7ECF8201C099904220123FFF748FB05
:1020A000201C0A9901220023FFF742FB0C4B6A46D1
:1020B00031CB31C21B68694613600C9808AB0290A3
:1020C0001B7B022207481B0213434365FFF734FDC5
:1020D00005B030BC08BC04B01847C0464005140029
:1020E000585B00000040084008B5011C0148FFF79C
:1020F00043FD08BD0040084038B50024051C285D9C
:10210000002804D00134FFF7EFFF962CF7D1024BE3
:102110009B68DA06FBD538BD0040084010B50C4A74
:102120001369590613D50B48016800290ED00A4BD4
:102130001C68095D51631A6801321A601A68074BFE
:102140001B689A4203D10023036000E0516310BD75
:1021500000C400400002002004020020F80100201A
:1021600030B50023C15C074A002907D01469650611
:10217000FCD5044C01336163962BF3D113695906E6
:10218000FCD530BD00C40040F8B5144E33691A06C2
:1021900023D5301CFFF71CFD114CCA235B00E35C08
:1021A000002B18D10F4FE35D002B14D1C8256D0013
:1021B0006359E0546359013363510B4B1B689847D3
:1021C000012800D1E0556259084B9A4203D90122F7
:1021D000CA239340E2540423B364F8BD00C4004012
:1021E0000802002095010000A00300208F010000DC
:1021F0007047000008B5EE210148FFF7F7FE08BD63
:1022000000A0004010B50C4B1B88C01A0B4B1C885B
:102210000B4B44430022985E0A4BE4130022995E64
:10222000C002611802F080F8074B24181C600834C3
:10223000200900B210BDC04612000020100000208E
:10224000180000201A000020A403002070B5234BC2
:10225000234A1B6823499B181A1C5A4300254C5FCC
:10226000214915130026895F5C43694364130914EF
:102270006118023180242402891009191B4C24881A
:1022800061431B4CC90B0025645F1A4DA400002656
:10229000AD5F6A43184DD2150026AD5F6B43DB126C
:1022A000D318E31802339B10C01A144B584300286C
:1022B00003DB400001F0EAFF02E001F0E7FF40002D
:1022C00003125B430E4A53430E4A1B14424312143B
:1022D0009B180D4A9B181B11C01870BDA403002049
:1022E00060F0FFFF0C000020140000200E00002012
:1022F00008000020160000200A00002050C3000043
:10230000DE0B000043E3FFFFCF0E000008B5EE2117
:10231000F4222E230148FFF7E7FD08BD00A000408E
:10232000F0B585B000276D460E4EAF730E350190A7
:102330002B1C6C46301CEE21F622FFF7A7FDE7733D
:102340000F34EE21F722231C301CFFF79FFD287865
:1023500023780002C018FFF755FF019B188005B0D5
:10236000F0BDC04600A0004008B5EE21F4223423A1
:102370000148FFF7B9FD08BD00A00040F7B50F4EBA
:102380006D460023AB710635071C2B1C301CEE215B
:10239000F622FFF77BFD6C460023E3710734EE2144
:1023A000F722231C301CFFF771FD287823780002E8
:1023B000C018FFF74BFF3860F7BDC04600A00040D3
:1023C00008B53C210148FFF711FE08BD00A0004000
:1023D00038B5164B03251978154B29401A78072371
:1023E0001A40144B49011B789200134C8A182B4059
:1023F000D318DBB2201C3C210022FFF775FD0F4BE8
:10240000201C1B783C215B01DBB20122FFF76CFD35
:102410000B4B201C1A780B4BD2011B783C211D4022
:102420005319DBB20222FFF75FFD38BDF200002036
:102430001C000020F300002000A000401D00002030
:10244000F1000020F0000020F0B585B002AC071CC0
:102450000E1C151C00943C21032206230948FFF79B
:1024600095FD237862781B029B183B80A378E27865
:102470001B029B183380237962791B029B182B80E7
:1024800005B0F0BD00A0004010B588B0041C221CAF
:102490000A49684602F00CFE094BE4001A78094923
:1024A000E4B28C541A78082A03D81A780132D2B2CE
:1024B0001A706846FFF754FE08B010BD685B000054
:1024C00071010020D601002000B50278002351B22E
:1024D000994212DC0423002A0FD14278012351B221
:1024E00000290ADC0523002A07D18278022351B291
:1024F000002902DC534253410633181C00BD000082
:1025000070B588B0051C0E1C2A1C331C0C4968468B
:1025100002F0CEFD6846FFF723FE0A4C0722164064
:10252000ED0023787619084AF6B2D6542378082BA2
:1025300003D823780133DBB2237008B070BDC046E6
:102540008B5B000071010020D601002008B5D2216C
:102550000148FFF74BFD08BD00A0004073B5002007
:1025600001F0C0F8782000F0DFFF782000F0D4FE02
:10257000642001F073F801F007FA002001F0B8F9C7
:102580001D4C201CFFF7A0FF051CE01CFFF79CFF63
:10259000061CA01DFFF798FFF60080010643354397
:1025A000A8B201F0FFF9154801F05AFE144801F0F5
:1025B0005DFE144801F08AFC012001F039FC012085
:1025C00001F068FC002001F0F4FB002001F01DFC8C
:1025D000012001F055FD012001F08AF96C4614201C
:1025E000E080063401F06CFA201C01F09BFA208890
:1025F00001F034F873BDC0461E0000200125000024
:10260000892400007301000008B500F0B9F908BD85
:1026100070B588B00122C6B2131C0D1C301C0124F9
:10262000FFF786F8294B0222254200D040221A608B
:10263000301C0022291C00940123FFF735F80025E7
:1026400000F0A6F906AB9D70DC705D709C715C714A
:102650001C711C700799069800F0C4FAC82000018C
:1026600000F09CF905AB1C70042202249A705C7087
:10267000059800F0F7FA201C00F036FB201C00F053
:1026800051FB201C00F06CFB0A20021C011C00F016
:10269000ADF9072000F082FB072000F0A1FB072026
:1026A00000F0A9FB0120011C00F0ECFB291C281CF8
:1026B00000F0ACFB281C00F0D1FB281C00F0D8FB7C
:1026C0000C20291C00F0E6F908B070BD00E100E024
:1026D00008B57320FFF708FD6920FFF705FD00F03E
:1026E0001BFA08BD08B50720002100F0D3F908BD8A
:1026F00030B589B0051C00F004FA0F23041C9C437C
:10270000E4B2021C002C0CD00949684602F0D0FC4F
:102710006846FFF7F1FC0220002100F0BBF9FF2022
:1027200003E000F0FFF92880201C09B030BDC0464E
:10273000B05B000008B500F083F90720002100F02D
:10274000A9F908BD30B589B0051C00F0DAF90F23EE
:10275000041C9C43E4B2021C002C0CD00A496846BD
:1027600002F0A6FC6846FFF7C7FC0220002100F03B
:1027700091F9FF2402E000F021FA288000F072F9BC
:10278000201C09B030BDC046D25B0000F0B589B056
:10279000151C071C0E1C00F0B4F90F23041C9C43ED
:1027A000E4B2021C002C0CD00D49684602F080FCFB
:1027B0006846FFF7A1FC0220002100F06BF9FF241E
:1027C00008E000F0C2F9388000F0D2F9308000F063
:1027D000E2F9288000F046F9201C09B0F0BDC0469F
:1027E000D25B000008B580210148FFF7FFFB08BD60
:1027F00000A000407047000030B587B0802301A9D9
:10280000E522684602700B8000AA01234A600B8112
:102810000C484B80FFF732F90B4D0C4C28702B788D
:10282000012B02D001340AD106E0013C04D3054853
:10283000FFF70CF82870F2E70548FFF791FC07B0A6
:1028400030BDC04600A000400C010020B80B0000C5
:10285000F35B0000F0B591B080230D1C06A90B803E
:1028600004AF022301904F600B8134484B80FFF787
:1028700005F9334C334E20702378012B02D00136FA
:102880000AD106E0013E04D32C48FEF7DFFF20709A
:10289000F2E72D48FFF764FC2378002B02D0207864
:1028A00040B248E03B787A781B029B185A01D21A52
:1028B00091018A1AD200D318244A5B139B18019AFB
:1028C0000BA9136080230B8004234B80E02203AB11
:1028D0001A704B6001230B8105AE0223CE600B8280
:1028E0001648FFF7CBF8174F20702378012B02D042
:1028F00001370AD106E0013F04D31048FEF7A6FFD6
:102900002070F2E71048FFF72BFC2378002B03D050
:1029100000232B60237806E07378032293433278F8
:1029200012029B182B602A68094B01205343094A65
:102930005B139B182B6011B0F0BDC04600A0004097
:102940000C010020B80B0000F35B000090E8FFFFD3
:10295000CD550000FE48FFFF08B5021C0B1C0248C5
:10296000C021FFF793FA08BD00A0004008B5021C83
:102970000B1C0248C021FFF7B7FA08BD00A00040B9
:1029800008B5C0210148FFF731FB08BD00A0004099
:1029900008B507201721FFF7E9FF08BD30B58DB056
:1029A000041CC1B20820FFF7E1FF210A6C460E3477
:1029B00009206D46FFF7DAFF0F35211C0820FFF7CD
:1029C000CBFF291C0920FFF7C7FF2A7823781102C3
:1029D000C918009104A8044902F06AFB04A8FFF793
:1029E0008BFB0DB030BDC0460C5C000030B58BB029
:1029F0000F24204009010918151C201CC9B2FFF73B
:102A0000B5FF291C214010206D46FFF7AFFF0635AA
:102A1000201C6C46291C0734FFF79EFF211C102048
:102A2000FFF79AFF2A782378044902A802F040FBB6
:102A300002A8FFF761FB0BB030BDC046245C00006C
:102A400008B513207B21FFF791FF14206B21FFF7BE
:102A50008DFF15200121FFF789FF16200021FFF7C8
:102A600085FF08BD08B513200021FFF77FFF142064
:102A70000021FFF77BFF15200021FFF777FF1620CD
:102A80000021FFF773FF08BD08B5011C1720FFF7F1
:102A90006DFF08BD08B50B1C0E282DD801F0ECFB0E
:102AA000080D2B131519171B1D1F2123252729007E
:102AB0001F2319400B1C803B03E01F2319400B1CF4
:102AC000603BDBB218E0012316E0022314E005238B
:102AD00012E0122310E006230EE007230CE0092386
:102AE0000AE00A2308E00B2306E00D2304E00E238E
:102AF00002E00F2300E000231820191CFFF736FF27
:102B000008BD13B500236C46E37107342020211C57
:102B1000FFF722FF207816BD08B521200021FFF71E
:102B200025FF08BD37B56C4606346D46211C0735B8
:102B30002220FFF711FF2320291CFFF70DFF287823
:102B400023780002C01880B23EBD37B56C4606340B
:102B50006D46211C07352620FFF7FEFE2720291C85
:102B6000FFF7FAFE287823780002C01880B23EBD35
:102B700037B56C4606346D46211C07352820FFF713
:102B8000EBFE2920291CFFF7E7FE287823780002B6
:102B9000C01880B23EBD37B56C4606346D46211C68
:102BA00007352A20FFF7D8FE2B20291CFFF7D4FE7B
:102BB000287823780002C01880B23EBD37B56C4635
:102BC00006346D46211C07352C20FFF7C5FE2D204D
:102BD000291CFFF7C1FE287823780002C01880B2B4
:102BE0003EBD0000F0B58DB00122060A050C16406E
:102BF00015400C0CB601030E6D0175190F1C144025
:102C000013401B01090A2C191740E4180A40BF00A1
:102C10005200E419C0B2A418C0012418E4B2201C68
:102C2000FFF732FFA1211820FFF7A0FE6D460B48E9
:102C3000FFF762FA0F3518208121FFF797FE291C54
:102C40002E20FFF789FE2A780549231C04A802F0EC
:102C50002FFA04A8FFF750FA0DB0F0BD4B5C00004E
:102C6000565C000030B58DB00725020A2A40031CCF
:102C70002B4001901001C018FFF706FF6C4618208A
:102C8000A221FFF773FE0F3418208221FFF76EFE9A
:102C9000211C2E20FFF760FE2278114904A802F0C3
:102CA00007FA04A8FFF728FA01AB98782840FFF745
:102CB000EBFE1820A321FFF759FE18208321FFF710
:102CC00055FE211C2E20FFF747FE2278054904A857
:102CD00002F0EEF904A8FFF70FFA0DB030BDC046C0
:102CE0007A5C00009D5C000010B58AB0FFF7CCFE56
:102CF0006C461820A721FFF739FE073418208721DA
:102D0000FFF734FE211C2E20FFF726FE227804490F
:102D100002A802F0CDF902A8FFF7EEF90AB010BD43
:102D2000BF5C000010B58AB0FFF7AEFE6C461820FD
:102D3000A821FFF71BFE073418208821FFF716FE95
:102D4000211C2E20FFF708FE2278044902A802F079
:102D5000AFF902A8FFF7D0F90AB010BDDE5C0000A1
:102D600010B58AB0FFF790FE6C461820A921FFF736
:102D7000FDFD073418208921FFF7F8FD211C2E20C6
:102D8000FFF7EAFD2278044902A802F091F902A8AF
:102D9000FFF7B2F90AB010BDFD5C000010B58AB0B3
:102DA000072318400001FFF76FFE6C461820AA2188
:102DB000FFF7DCFD073418208A21FFF7D7FD211C1F
:102DC0002E20FFF7C9FD2278044902A802F070F90D
:102DD00002A8FFF791F90AB010BDC0461C5D0000C3
:102DE00008B5072318400001FFF74EFE1820B02158
:102DF000FFF7BCFD08BD08B5072318400001FFF729
:102E000043FE1820BD21FFF7B1FD08BD10B58AB003
:102E100007231840002904D1C3B2052B00D905208F
:102E2000C0B2FFF731FE6C461820AB21FFF79EFDC4
:102E3000073418208B21FFF799FD211C2E20FFF766
:102E40008BFD2278044902A802F032F902A8FFF7AC
:102E500053F90AB010BDC0463F5D000008B5072316
:102E60001840FFF711FE1820B121FFF77FFD08BDC4
:102E700008B507231840FFF707FE1820BE21FFF70B
:102E800075FD08BD10B58AB00123194003405B01F0
:102E90008900C818FFF7F8FD6C461820AC21FFF731
:102EA00065FD073418208C21FFF760FD211C2E20C2
:102EB000FFF752FD2278044902A802F0F9F802A8AF
:102EC000FFF71AF90AB010BD5F5D000010B50C1CC9
:102ED0004000C1B213780248221CFFF705F810BD6C
:102EE00000A0004010B50C1C4000131CC1B2221CF5
:102EF0000448FEF7CBFF431E5A1E93415B42184025
:102F000010BDC04600A0004037B5184C631DDB7FE4
:102F1000002B0CD06D460735002802D002232B7001
:102F200000E02870636818782368597C14E0A27A5E
:102F3000002A18D0002807D0627C181C002A14D15F
:102F400001226B46DA7101E06B46D87163686D4609
:102F5000187823680735597C2A1CFFF7B7FF2B78B0
:102F60000020637401E0012040423EBD28000020A3
:102F700037B50D1C141E012C03D11A1CFFF7A6FF38
:102F800007E04000C1B2009303482A1C231CFEF74F
:102F9000D3FF00203EBDC04600A0004037B50D1C49
:102FA000141E012C03D11A1CFFF79CFF08E04000FF
:102FB000C1B2009303482A1C231CFEF7E7FF002040
:102FC0003EBDC04600A0004000B50023084A934221
:102FD00002D10421074A04E0074A934202D1074A7A
:102FE00004211160064A01339342EFD100BDC0466F
:102FF000C0D40100C460004060EA0000C860004026
:10300000C1D4010013B5124B7022997A041C1142ED
:1030100002D1012040421AE059681B680878062254
:10302000997B6B46FFF7BAFF0028F2D16A46137806
:1030300052781B021343238069468B78CA781B029F
:10304000134363800B794A791B021343A38016BD97
:103050002800002013B5114B041C9A7A110702D4E2
:103060000120404219E05A681B681078D97B06227B
:103070006B46FFF793FF0028F2D169460B784A7838
:103080001B02134323808B78CA781B02134363808F
:103090000B794A791B021343A38016BD2800002038
:1030A00073B5424CA37A002B7DD06D4607350023C3
:1030B0002B70626823681078597C2A1CFFF706FF82
:1030C00062682368107859792A1CFFF7FFFE62684E
:1030D0002368107819792A1CFFF7F8FE631DDB7F3F
:1030E000002B2DD00C232B7062682368107819797F
:1030F0002A1CFFF7EBFE3220FFF766FFC0232B7080
:10310000A37ADA0701D5E0232B7063682268187868
:1031100011792A1CFFF7DAFE637C002B00D0022312
:103120002B7022686368517C18782A1CFFF7CEFE4A
:10313000002663682E70187823682A1C59792EE0BF
:1031400004232B7062682368107819792A1CFFF712
:10315000BDFEA37C002B02D1A37ADA0701D4402361
:1031600000E060232B7022686368117918782A1CAC
:10317000FFF7ACFE3220FFF727FF637C002B00D067
:1031800001232B7022686368517C18782A1CFFF792
:103190009DFE2268636851791878221C1032FFF76F
:1031A00095FE002001E00120404276BD280000206D
:1031B00073B5194CA37A002B2AD0FA235B009842EE
:1031C0000ED003D8FA2823D100220CE0FA239B006A
:1031D000984207D0FA23DB00984219D1182202E066
:1031E000082200E010226B46DA71DB79227A6E4603
:1031F0000736DB0800259A420CD06368321C187829
:1032000023689979FFF762FE3378DB08237201E0C7
:1032100001256D42281C76BD2800002000B50E4A0D
:10322000031C507A032813D801F026F8020406087C
:10323000022104E0042102E0082100E010211970BD
:10324000D27C0020824205D01A7852001A7001E028
:103250000120404200BDC0462800002073B5164C36
:10326000A37A002B24D004280AD003D802281FD127
:10327000002208E0082805D0102819D1182202E001
:10328000082200E010226B46DA71DB79627A6E4622
:103290000736DB0800259A420CD06368321C187888
:1032A0002368D979FFF712FE3378DB08637201E0F7
:1032B00001256D42281C76BD2800002073B5154DF0
:1032C000AB7A002B21D06C4607340123BB280CD8E5
:1032D0000223612809D80323292806D804231328A8
:1032E00003D80523092800D806232370EA7A237817
:1032F00000269A420BD06B68221C18782B689978AC
:10330000FFF7E4FD2378EB7201E001267642301CE2
:1033100076BDC04628000020F8B5154B00245A1D84
:10332000D27F1E1CA24221D19C7A002C1CD00122EB
:10333000051C95432C401F7C1C74641B6242544145
:10334000013C002D02D1187D002805D00120FFF797
:10335000DBFD002D0AD002E0FFF7D6FD06E0FFF707
:103360009FFE002802D0377401246442201CF8BD5F
:1033700028000020F0B587B0254C019003910292FF
:10338000631DDB7F271C002B16D0A37A002B13D0E4
:103390006268236805AD1078197B02222B1CFFF7A9
:1033A000FDFD002808D12E786B78019A36021E4365
:1033B000964204D2029B18700120404226E06368C6
:1033C0005A88520896420ED9187823682A1CD97C4C
:1033D000FFF788FD0028EFD12B78DA0603D5FFF739
:1033E0005FFE0220E9E77B6818783B68597B6B46F3
:1033F0001A79039BFFF7D2FD041EDDD1301C019921
:1034000000F044FF029A01381070201C07B0F0BD94
:103410002800002073B52D4D061CAB7C834252D092
:103420006B686C4618782B6807341979221C002EBB
:103430001CD0FFF757FD002802D00120404243E096
:1034400023782022934323706B68221C18782B6802
:103450001979FFF73BFD0320FFF7B6FD0223237028
:10346000EB1CDB7F002B1ED082231BE0FFF73AFD15
:103470000028E2D1A97A20222378C80701D5134376
:1034800000E0934323706B68221C18782B6819792D
:10349000FFF71CFD0320FFF797FDEB1CDB7F002BE4
:1034A00000D0802323702B1DDB7F002B03D02378DB
:1034B0003022134323706B68221C18782B68D97D47
:1034C000FFF704FDAE74002076BDC0462800002042
:1034D00037B5144B041C1A1DD27F82421FD06A4696
:1034E0000732002802D03021117000E01070997C62
:1034F000002903D01178022001431170D91CC97F23
:10350000002904D0107880214942014311701D1C0C
:10351000596808CD0878D97DFFF7D8FCEC770020F2
:103520003EBDC0462800002073B570236C46051CC4
:1035300003400734002B01D0012302E0002800D112
:1035400040231D4E23707368221C18783368597D00
:10355000FFF7BCFC227840239A4332731D4201D00E
:10356000002300E004232370AB0603D42378022257
:1035700013432370EB0603D42378012213432370F3
:103580002B0703D423783822134323707368221C3B
:1035900018783368997DFFF799FC002D04D0082D29
:1035A00002D00020FFF794FF00243220B57234755A
:1035B000FFF70AFD201C76BD2800002073B5061E0B
:1035C000282E45D801AC244D002810D1FFF780FFEC
:1035D000072363706B68267018782B680222597D68
:1035E000231CFFF7C5FC002832D1287532E00120EA
:1035F000FFF76EFF202323700023012E02D0052E3B
:1036000003D801236370052008E0142E03D8022399
:1036100063700A2002E0032363701420FFF74EFE5C
:10362000637807229B01134363706B68022218784A
:103630002B68597D231CFFF79BFC041E08D108232F
:10364000AB72012328732B75FFF766FE201C01E087
:103650000120404276BDC0462800002073B5204BB3
:10366000041C9A7A1D1C002A36D05A1DD67F002EC3
:1036700032D11B7D002B09D0431E272B03D8C0B2AB
:10368000FFF79CFF26E0301CFFF798FF0421032C76
:1036900006D9FA239B00211C9C4200D9191C89B22F
:1036A000FA20800000F040FE6C466B680138E07143
:1036B00018782B6807345978221CFFF707FC21780B
:1036C000FA200131800000F02FFE80B2E88140082E
:1036D000FFF7F4FD002001E00120404276BDC04626
:1036E0002800002037B52D4C80236A46137063688C
:1036F00022681878517D6A46FFF7E8FB64200025B0
:10370000FFF762FC6B461D70626823681078597D74
:103710006A46FFF7DBFB0122FF235242A3722372AA
:103720006372E372E2812274A374E21C0123201C01
:10373000D37723731630231D291C0C22DD77E57403
:103740006575257501F0AAFC631DFA20DD77C000C0
:10375000A31DDD77E584FFF72BFDA84202D00120F1
:10376000404219E00220FFF779FD0028F7D12A2016
:10377000FFF7A4FD0028F2D13220FFF76FFF0028E9
:10378000EDD1FFF7C9FD0028E9D1FFF743FE041E84
:10379000E5D1FFF7C9FE201C3EBDC0462800002031
:1037A000F7B50F1C161E02D10120404220E0114C3B
:1037B000A37A002BF8D0030A01AD2B70C0B2636866
:1037C00068705A8940189042EEDC1878236802220B
:1037D000D97E2B1CFFF7CCFB0028E5D16368FAB239
:1037E00018782368197E331CFFF7C2FB0028DBD151
:1037F000FEBDC04628000020F7B50F1C161E02D1E2
:103800000120404220E0114CA37A002BF8D0030A9B
:1038100001AD2B70C0B2636868705A89401890423D
:10382000EEDC187823680222D97E2B1CFFF7A0FB60
:103830000028E5D16368FAB218782368197E331C32
:10384000FFF7ACFB0028DBD1FEBDC04628000020FE
:10385000F0B58BB00393254B009001910292063393
:10386000DC7F002C01D001203DE001990029FAD035
:1038700000998C421FD2009A151B102D00DD1025D7
:10388000019BAEB21F19201C311C3A1CFFF788FFA8
:103890000028E8D1201C311C06AAFFF7ADFF002844
:1038A000E1D1321C381C06A901F0E0FB002819D137
:1038B0003419A4B2DCE702990C4C0A0A05AB1A7061
:1038C0006268597010782268517F0222FFF750FB1E
:1038D0000028C8D1A31D0122DA770C216B46CB5AF0
:1038E000E38401E0022040420BB0F0BD280000203C
:1038F00073B51B4C051C661DF37F83422AD000283C
:103900001AD0A31DDB7F002B26D00020FFF7FCFA86
:103910000020FFF77FFDE08CFFF7A0FE6A4607322C
:1039200063680025157018782321FFF7CFFA01206E
:10393000F077FFF7E9FA0BE0FFF7E6FA237C6A4637
:1039400007321370636823211878FFF7BFFAF57701
:10395000FFF7A6FB002001E00120404276BDC046F3
:10396000280000201FB50924221C01A8054901F0E8
:103970008CFB9720211C01AAC000FFF711FF04B0A7
:1039800010BDC046D25D000008B580220349D200B8
:10399000C8230348FFF75CFF08BDC046125E000065
:1039A000F60B0000F0B587B0404F032402AE391C7F
:1039B000051C0931301C221C01F067FB391C0C313D
:1039C000221C03A801F061FB391C0F31221C04A842
:1039D00001F05BFB391C1231221C05A801F055FBDC
:1039E000291C2140735C6846EA0803702240B35CDE
:1039F0004370AB092340F05C6E46B07003A8415C95
:103A000001AE3170825C211C7270C35C6A4628482A
:103A1000B370FFF7C5FE002802D00120404242E00B
:103A20002448211C321CFFF7BBFE0028F5D104A955
:103A3000221C684601F029FB05A9301C221C01F05C
:103A400024FB690708D56B461A7801231A43684698
:103A50000270327813433370A90608D56B465A7842
:103A600001231A4368464270727813437370E90564
:103A700008D56B469A7801231A4368468270B2785B
:103A80001343B3708820C00003216A46FFF788FE05
:103A90000028C2D108480321321CFFF781FE00280C
:103AA000BBD1064B1D8107B0F0BDC046D25D000002
:103AB000260400002A04000031040000F400002065
:103AC00010B586B01349041C153103A80C2201F06F
:103AD000DCFAC82C02D90120404218E0211CC82081
:103AE00000F022FC013880B201AA030A50700221C2
:103AF00009481370FFF754FE0028ECD107480C2149
:103B000003AAFFF74DFE0028E5D1054B9C8106B0C6
:103B100010BDC046D25D000016020000C10A0000C0
:103B2000F4000020024B9B89038000207047C046B0
:103B3000F400002073B5061C430700D18FE0C823B2
:103B4000DB00994200D98AE0081C01F0BDF9454923
:103B500000F09EFC6D460335041C281CFFF75EFB3D
:103B60002B78042B1CD00CD8022B78D18D21C905C1
:103B7000201C00F07FFE00F073FC3B4985B2201C46
:103B800023E0082B17D0102B69D18A21C905201CEE
:103B900000F070FE00F064FC344985B2201C14E093
:103BA0008C21C905201C00F065FE00F059FC30494D
:103BB00085B2201C09E08B21C905201C00F05AFEAB
:103BC00000F04EFC2B4985B2201C00F053FE00F0A3
:103BD00047FC01AC80B22B0A2370030A6570A37006
:103BE000E070F30703D402252E4223D011E0EA202F
:103BF00040000221221CFFF7D3FD00282FD1922084
:103C00006A46400002210632FFF7CAFD0028EAD0CA
:103C100025E0EC204000291C221CFFF7C1FD0028F4
:103C20001DD194206A464000291C0632FFF7B8FDDA
:103C3000002814D104200640301E12D0EE2040008F
:103C40000221221CFFF7ACFD002808D196206A460D
:103C5000400002210632FFF7A3FD002801D0012019
:103C6000404276BD00004843000040460000C0448A
:103C70000000C0450000404507B501236A460340E7
:103C80000732002B00D030231370830703D513783D
:103C90000C210B431370430703D5137803210B4307
:103CA0001370A42001214000FFF77AFD0EBD000033
:103CB00007B50123002804D0C3B2042B00D9042087
:103CC000C3B26A460732013B012102481370FFF775
:103CD00067FD0EBD4F01000007B5052100F0D6FAC3
:103CE00001AA80B2030A5070EF2002214000137035
:103CF000FFF756FD0EBD07B5052100F0C7FA01AA72
:103D000080B2030A5070ED20022140001370FFF7CB
:103D100047FD0EBD13B50C1CFA21890000F004FB11
:103D2000211C414301AA0B161370AE200B145370D3
:103D3000D1700B12400004219370FFF731FD16BDC6
:103D400007B5052100F0A2FA01AA80B2030A50705B
:103D5000AD20022140001370FFF722FD0EBD07B514
:103D6000052100F093FA01AA80B2030A5070AC203A
:103D7000022140001370FFF713FD0EBD37B5051E7D
:103D800002D10120404213E001ACD8208000042180
:103D9000221CFFF731FD0028F3D122786378120648
:103DA0001B041343E2781343A278120213432B60DF
:103DB0003EBD07B501AA030E1370030C5370D070FB
:103DC000030AD820042180009370FFF7E9FC0EBDA0
:103DD00037B5051E02D10120404215E001ACF120AB
:103DE00080000421221CFFF707FD0028F3D1227870
:103DF000637812061B041343E2781343A27812027D
:103E00001343142253432B603EBD07B5142100F029
:103E10003DFA01AA030E1370030C5370D070030A0D
:103E2000F120042180009370FFF7BAFC0EBD000062
:103E30001FB5002802D0FFF795FD0BE006490922C7
:103E4000213101A801F021F99720C000092101AA20
:103E5000FFF7A6FC05B000BDD25D000013B501ACB4
:103E6000002808D0C0232370C2236370C423A3702A
:103E7000C623E37004E0201C8B21042201F00EF91C
:103E80000421221C0248FFF78BFCFFF709F916BD3D
:103E9000980A000013B501AC002808D02023237035
:103EA000282363703023A3703823E37004E0201CC0
:103EB000A321042201F0F2F80421221C0248FFF79A
:103EC0006FFCFFF7EDF816BD9E0A0000F0B587B055
:103ED000022303AC2370CA236370E323051CA37081
:103EE000682009230421221CE3704027FFF758FCB7
:103EF000A32323702F4005D0C0236370C823A37071
:103F0000C22301E06370A370E370C0235B002B4009
:103F1000009305D0C4232371CC236371C62302E030
:103F2000A32323716371A3714F48A3230A21221C89
:103F3000E37123726372FFF733FC03232B40019379
:103F400001D0202300E0D82348480121221C2370FF
:103F5000FFF726FC2020284002D0FFF703FD01E0F8
:103F6000FFF766FF009B002B16D0EB0507D5B223A9
:103F700023708B236370B623A3709B2306E0B023CA
:103F8000237080236370B423A370902338480421E6
:103F9000221CE370FFF704FC0126354223D08B205E
:103FA000F823221C311C00012370FFF7F9FBFA21D2
:103FB0000720FFF7BFFD0720FFF75EFE301CFFF76D
:103FC00077FE6420FFF788FEFA20B040FFF793FEEB
:103FD000C8212848FFF79EFE2820FFF7B1FE0A20DF
:103FE000FFF7BDFE07E08B20D8230001311C221C07
:103FF0002370FFF7D5FBAB0701D5D92300E0D82309
:104000001D480121221C2370FFF7CAFB0420284011
:1040100000D00120FFF722FF1020284000D001200F
:10402000FFF738FF154C08232B436381FFF738F85F
:10403000002F01D1A77301E00623A373009B002B7F
:1040400002D0A37B0633A37314231D4202D0A37BAB
:104050001033A373019B002B02D0A37B0433A37303
:10406000002007B0F0BDC046A70A0000B60A000055
:10407000A20A000009E3CA023D070000F400002084
:1040800030B587B00F4D041C291C2A310B2268461D
:1040900000F0FBFF291C353103A80B2200F0F5FFCF
:1040A000012C05D0022C09D107480B216A4602E0F9
:1040B00005480B2103AAFFF773FB01E001204042F2
:1040C00007B030BDD25D0000820A0000F0B58DB0AF
:1040D000129C0023614F029023800E1C151CB87B9C
:1040E00004A9139AFFF746F90390002800D0B0E026
:1040F0007B8914221A4057D06846017C427C09060D
:1041000012041143C27C6F461143827C1202114398
:1041100029607A7D007D120400061043FA7D09149F
:104120001043BA7D49431202104368607A7E844688
:10413000387E120400060243F87E0243B87E000275
:104140000243AA603F7F12143F0601976F46787FB3
:10415000019F0004074301976F46F87F019F524378
:10416000074301976F46B87F019F000238436746B7
:10417000E8603D146D430014404349198A18F12149
:1041800009061018401880218904884206D9FEF7D4
:1041900087FF6A460C239A5A22805AE0218880229F
:1041A00052000A43228010225D0617D504AFB918C9
:1041B000B85C4D780002284330808878CD780002C2
:1041C000284370800D7948792D02291C0143B18064
:1041D0002188082006320143D2B22180C021490043
:1041E0000B4219D004A9885C89184D780002284335
:1041F000029D029F28808878CD780002284378802D
:104200000D7948792D02291C0143B980218870203D
:1042100006320143D2B221809F0718D004A8851826
:104220006B78EC78D90709D50C4B1B68002B05D0AF
:104230000721A0062140400F013198476B781A07EB
:1042400005D5064B5B68002B01D0A00998470020DC
:1042500001E0012040420DB0F0BDC046F400002056
:10426000014B186000207047F4000020014B58609B
:1042700000207047F400002002B47146490849004C
:10428000095C49008E4402BC7047C046002934D006
:104290000123002210B488422CD301242407A14218
:1042A00004D2814202D209011B01F8E7E400A142D5
:1042B00004D2814202D249005B00F8E7884201D370
:1042C000401A1A434C08A04202D3001B5C08224348
:1042D0008C08A04202D3001B9C082243CC08A042B9
:1042E00002D3001BDC082243002803D01B0901D0A5
:1042F0000909E3E7101C10BC7047002801D000201A
:10430000C04307B4024802A14018029003BDC04652
:10431000D90000000029F0D003B5FFF7B9FF0EBCAB
:104320004243891A1847C046002941D010B4041CE2
:104330004C40A44601230022002900D54942002810
:1043400000D5404288422CD301242407A14204D244
:10435000814202D209011B01F8E7E400A14204D224
:10436000814202D249005B00F8E7884201D3401A3B
:104370001A434C08A04202D3001B5C0822438C085D
:10438000A04202D3001B9C082243CC08A04202D3C7
:10439000001BDC082243002803D01B0901D00909B7
:1043A000E3E7101C6446002C00D5404210BC704767
:1043B000002806D003DB0020C043400801E0802035
:1043C000000607B4024802A14018029003BDC0468F
:1043D000190000000029EBD003B5FFF7A7FF0EBCC2
:1043E0004243891A1847C0467047C0468446081C95
:1043F0006146FFE71FB500F0F5F9002801D4002160
:10440000C8421FBD10B500F07DF94042013010BD1B
:1044100010B500F0E7F9002801DB002010BD0120F5
:1044200010BDC04610B500F0DDF9002801DD002008
:1044300010BD012010BDC04610B500F08BF900285A
:1044400001DC002010BD012010BDC04610B500F0F9
:1044500081F9002801DA002010BD012010BDC046FE
:104460009E2110B5C905041CFFF7F0FF002803D1F9
:10447000201C00F009FD10BD9E22201CD10500F07B
:1044800029FB00F001FD80231C060019F3E7C0465C
:10449000F0B55F4656464D464446F0B445024400EA
:1044A00083B00E1C6D0A240EC70F002C07D1002DFF
:1044B00000D091E0042101228846924609E0FF2CB9
:1044C00055D08023180400210543ED007F3C884629
:1044D0008A46331C58007602D90F760A000E8B46A6
:1044E0004CD101229446002E00D081E05B467B40F7
:1044F0006246414601930A430F2A50D9201A6901A6
:1045000081467501A94200D3B3E001225342994488
:104510001B2400260127621E381C10404B00760029
:10452000002900DAA9E09D4200D8A6E0013C002C59
:1045300000DCABE000280CD0191C76005B000029E1
:1045400001DB9D4201D85B1B3E43013C002C00DC9B
:104550009CE059007200002B01DB8D4201D8491B01
:104560003A43013C4B0056000029EADAEBE7002D04
:104570002DD10820022180468A46AAE7FF2820D0B4
:104580008022130400211E438C465B467B4062461A
:104590004146F6007F3801930A430F2AAED85649A8
:1045A00092008A589746019BFF260025F005284374
:1045B000DE07304303B03CBC90469946A246AB466A
:1045C000F0BD331C5A1E934102339C468EE70C22E9
:1045D000032390469A467CE7281C00F0C9FC76220B
:1045E000441F5342A5401C1A00208046824670E7B3
:1045F000301C00F0BDFC7623411F8E405A42002142
:10460000101A8C4672E700233C4DFF26CEE75F462A
:10461000351C01976346022BC5D0032B63D0012BB9
:1046200043D049467F31002935DD0F272F40042F25
:1046300000D004352B0103D5314A4946154080315D
:10464000FE29B0DCA801450ACEB2019BAEE70026E8
:104650000025ABE78020C1030D4211D00E420FD1DF
:104660000E4373025D0AFF265B469FE701975346A0
:10467000D1E7491B1A2401264CE75B1B3E4355E753
:104680000D436A02550A3B1CFF268FE71D1C6B1E5B
:104690009D413543C5E77E2467424A46B91A1B2926
:1046A00008DD019B0026002580E7019D00262B40A8
:1046B00000257BE74E469E36281CB5402B1C5D1E10
:1046C000AB41C84003430F251D40042D00D00433E7
:1046D0005A0103D5019B0126002567E79C01650A65
:1046E000019B002662E78027FC0325436E02750AC2
:1046F000019BFF265AE7C046086A0000FFFF7F00C3
:10470000FFFFFFF74302420070B55C0AC60F130EAD
:1047100048024A00450A120EC90FFF2B05D0FF2A96
:1047200008D0012093420BD070BD0120002CFBD19A
:10473000FF2AF6D10120002DF6D101209342F3D1BA
:10474000AC42F1D18E4203D0002BEDD1002CEBD145
:104750000020E9E7F0B5430242004F00C60F4802CF
:104760005C0A450A130EC90F3A0EFF2B26D0FF2A0A
:1047700029D0002B0CD1604260418446002A0AD027
:10478000002816D18E4221D0002E14D1012014E031
:10479000002AF7D194466F426F416046002805D148
:1047A000002FEFD00120002E07D004E00020002FC2
:1047B00003D10029EAD101214842F0BD002CD6D016
:1047C00002225042F9E7002DD3D0F9E79342DBDC17
:1047D00004DBAC42D8D80020AC42EED2002EEAD0A6
:1047E0000120EAE7F0B5430242004F00C60F48023D
:1047F0005C0A450A130EC90F3A0EFF2B26D0FF2A7A
:1048000028D0002B0FD0002A14D194466F426F415C
:104810006046002814D00020002F03D100290DD1BC
:1048200001214842F0BD604260418446002AEDD03B
:104830000028F3D18E4211D0002EF1D10120F1E7F2
:10484000002FF7D00120002EECD0E9E70220002C49
:10485000E8D1D4E70220002DE4D1D2E79342EBDC8B
:1048600004DBAC42E8D80020AC42DBD2002ED7D02B
:104870000120D7E7F0B55F4656464D464446F0B4B2
:104880004502460083B00F1C6D0A360EC40F002E81
:1048900006D1002D70D1042101228846924609E0FC
:1048A000FF2E43D08023180400210543ED007F3EF6
:1048B00088468A46381C43007F02C10F7F0A1B0EC0
:1048C0008B463AD10121002F62D1584660404246C2
:1048D00001900A430F2A3FD92C04F018260C3B0400
:1048E0001A0C311C51433F0C2D0C7E436A43814608
:1048F000080C36182C1CB3187C439A4200D99AE055
:1049000009041D04080C2E18B5011B0C691E8D41ED
:10491000B20EE7181543BC0125432B014BD50120EE
:10492000284001216D088944054344E0002D1ED133
:104930000820022180468A46BCE7FF2B12D0802245
:10494000100407435846002160404246FF007F3B69
:1049500001900A430F2ABFD890005B4A8446624404
:1049600010688746391C4A1E91410231ADE70C227E
:10497000032390469A469DE7281C00F0F9FA762218
:10498000461F5342B5401E1A00208046824691E7DA
:10499000381C00F0EDFA7621431F4A429F40002167
:1049A000131A92E70194514602292CD0032900D111
:1049B00080E0012948D04E467F36002E51DD0F247D
:1049C0002C40042C00D004352A0103D53F494E4623
:1049D0000D408036FE2E3DDD019B01241C40FF2151
:1049E0000025C805E2072843104303B03CBC9046AD
:1049F0009946A246AB46F0BD0024354DFF21F0E7B5
:104A000051460229D2D1019D01242C40FF210025CD
:104A1000E7E75E463D1C0196C6E73D1CC4E78026DD
:104A2000F3031D420BD01F4209D11F437A02550ADE
:104A30005C46FF21D5E780225702E41960E71D4359
:104A40006F027D0AFF21CCE7019B00251940CCB203
:104A50000021C6E70198AD0101246D0AF1B20440BE
:104A6000BFE77E2673424A469F1A1B2F05DD019D34
:104A700001242C4000210025B3E749469E312C1C1F
:104A80008D402E1CFC40751EAE4126430F20304049
:104A9000042800D00436700105D5019F01243C4054
:104AA000012100259DE7019AB30101245D0A14400C
:104AB000002196E78022D00305436C020199650A24
:104AC00001240C40FF218CE7486A0000FFFFFFF73C
:104AD000FFFF7F00F8B5430245004F024C00C20FB4
:104AE000980984462D0E200EC90FBF09FF2854D007
:104AF000012671408A423BD02C1A002C00DC89E050
:104B0000002825D1002F4BD16E1C2C1C6346151C90
:104B10000F221A40042A00D004338027F90401220E
:104B200019402A40002906D0FF2E00D181E0B14D66
:104B3000341C2B400136F6B2DD08012E62DD6B021B
:104B40005D0AE4B2E4052543281CD2071043F8BDF2
:104B5000FF2D51D08021CB041F4301261B2C70DD7B
:104B600067462C1CBB1B151C580122D4661CCFE7C2
:104B70002E1A002E76DD002832D0FF2D3CD0802466
:104B8000E1040F4301231B2E00DCD1E063442C1C05
:104B900058017AD4661C151CBAE7002FAAD1A7E7E2
:104BA000013C002C6DD163462C1CDB1B151C5801ED
:104BB000DCD59A019609301C00F0DAF905388640F8
:104BC000844239DC001B1F231A1A331C311C441C7D
:104BD0009340E1405E1EB3410B430126002497E75A
:104BE000002F00D190E7013E002E03D164463B190F
:104BF0002C1CCDE7FF2DC5D1151C80226346560025
:104C0000FF2485E7002D9CD0002C28D08020C703EE
:104C10003D4394E7002C45D16B1CD8B2012800DC41
:104C200090E06446E61B730157D53E1B2C1C0D1CFF
:104C3000C1E7FF24002585E76E4B241A3340661C2C
:104C400066E7381C2021E0400C1BA7403E1C771E65
:104C5000BE41064367462C1CBB1B151C84E769023A
:104C60004D0A6FE7002E79D16C1CE0B201284BDDB4
:104C7000FF2C00D198E061467F18AE1C7B08151C04
:104C800046E7FF2D00D068E7B6E7671CFF2F36D058
:104C900058480121194003405B08A61C0B433C1CEB
:104CA000151C35E76642002D1ED0FF286FD08025E9
:104CB0006246EB041A43944601251B2E09DC62462A
:104CC0002023F24064469E1BB440251C6C1EA54167
:104CD00015437B1B041C0D1C69E7002E0CD1002220
:104CE00001260423002426E76446002C55D1461CE7
:104CF0003B1C041C0D1C0BE72C1C151C5BE78023C4
:104D00005E00FF24042316E7002D00D08DE06546E9
:104D1000002D00D1ADE0002F00D181E07B195C01B6
:104D200000D47EE0334F151C3B4002260124EFE601
:104D3000381C2023F0409E1BB7403B1C5F1EBB412C
:104D4000034323E7002D15D16546002D47D1002FE1
:104D5000C5D03B1C0D1C01260024D9E67642002D4F
:104D600026D16546002D00D07DE0461C3B1C041C6E
:104D7000151CCDE66546002D40D1002F07D18021BE
:104D800000224E001C4BFF24D5E6FF2894D1802042
:104D90003B1C0D1C4600FF24BAE6013E002EF4D158
:104DA0003B1B0D1C041C02E780256E000423C2E699
:104DB000FF2852D080246146E30419438C46012326
:104DC0001B2E09DC20216446F44065468E1BB5404D
:104DD0002B1C591E8B412343DB19041CD8E6002FE2
:104DE0001ED0EB1B58014BD57B1B01260D1C00244C
:104DF0008EE6C046FFFFFFFBFCFFFF03002F00D144
:104E0000FAE68020EB08C403234237D0FF0827428C
:104E100034D13B1C0D1C8022DB005600FF2477E6BA
:104E20006346151C0126002472E66446002C14D04B
:104E3000002F00D1E0E68023E608D803311C0642AB
:104E400003D0F908014200D0311C151C8022CB0090
:104E50005600FF245CE6FF28B1D180203B1C151CC6
:104E60004600FF2454E6013E002EF4D17B19041CB9
:104E70008EE63B1C151C0126002449E6151CCAE7DA
:104E8000002B00D12BE7CCE743024200590A00B5C2
:104E9000130EC20F00207E2B0DDD9D2B0CDC80201D
:104EA00000040143952B0ADC9620C31AD9404842DE
:104EB000002A00D1081C00BD02495018FBE7963BB0
:104EC0009940F4E7FFFFFF7F10B5041E34D000F0D7
:104ED0004FF89E231B1A962B07DC08388440640287
:104EE000610ADBB2D805084310BD992B0ADD021C0C
:104EF0001B32211C91400A1C511E8A410521091AAE
:104F0000CC40144305281ADC184A0F2122400C40DB
:104F1000042C00D00432510105D59F24231AFF2B05
:104F200021D012480240591CCCB2D208012C09DD14
:104F30005002410ADBB2D5E700230021D2E7421F2D
:104F40009440E1E7002A0BD0002B06D08021CC034F
:104F500022435202510ADBB2C4E75002410AC1E7C0
:104F6000DBB20021BEE7FF230021BBE7FFFFFFFB11
:104F70001C2101231B04984201D3000C10391B0A89
:104F8000984201D3000A08391B09984201D300094D
:104F9000043902A2105C40187047C04604030202A4
:104FA00001010101000000000000000010B5044CE8
:104FB000002C02D000E000BF00E0201C10BDC04665
:104FC00000000000094B10B5041C002B03D0002189
:104FD00000E000BF01E000F00DF805480068816ABC
:104FE000002900D08847201C00F066FC000000006B
:104FF0008C6A000038B5084B084C1D1CE01A841060
:10500000002C06D0A1006A18043A13689847013CA6
:10501000F6E700F059FC38BDC0000020C4000020B5
:1050200070B50E4B0E4D0024E81A85101E1CAC42C4
:1050300004D0A100725890470134F8E700F03EFC1C
:105040000849094A0E1C541AA5100024AC4204D089
:10505000A300F05880470134F8E770BDBC00002081
:10506000BC000020BC000020C000002030B50023A0
:10507000934208D0C55C0133CC18013C2478A5428A
:10508000F6D0281B00E0002030BD10B5002393426D
:1050900003D0CC5CC4540133F9E710BD00B58218CD
:1050A000031C934202D019700133FAE700BD0000DF
:1050B0000EB400B59CB01DAB02A904CB82220290B5
:1050C0000861920009488A81012288604861504243
:1050D000074AC88110681D9A019300F063F802998D
:1050E00000230B701CB008BC03B01847FFFFFF7F04
:1050F000B8000020F7B501919168071C141C002925
:1051000040D190239289D80002423BD02568216982
:1051100063696E1A58000096C6180098F50FAB190F
:1051200001305D10A84201DB009D0235381C53059B
:105130000FD5291C00F004FB061E13D02169009A2C
:10514000FFF7A3FFA7891649802239401143A181A7
:1051500011E02A1C00F04AFB061E0CD1381C216904
:1051600000F0A6FA0C203860A58940263543A581B9
:105170000124604213E0009B6561F018ED1A26617E
:105180002060A560A668002E08DD694627680A79B8
:105190003A70A3680137013B2760A3600020FEBD81
:1051A0007FFBFFFFF0B5A1B0049007938B890E1C25
:1051B000171C19060FD53269002A0CD1402100F0C6
:1051C000BFFA30603061002803D1049C0C262660B1
:1051D000D6E04020706108AD0021202430236961B1
:1051E0006C76AB763C1C2278002A04D1E01B06903A
:1051F00019D003970FE0252AF8D00134F3E703997B
:10520000321C09780498FFF775FF039A0132039264
:10521000013000D1AFE003990698CB1B8342EEDB4F
:105220000D9F3A180D922178002900D1A3E00120AA
:105230006A4600234742633201342B60EB606F60A3
:10524000AB601370AB65504F2178381C052200F01D
:10525000C1FA002807D0C71B2B680120B8401843AB
:1052600028600134EFE72B68D90603D56846202172
:10527000633001701A0703D56A462B276332177013
:1052800021782A2901D00B9B0EE0079A1068111D86
:105290000791002801DB0B9004E0022247421343F0
:1052A000EF602B60013409E020783038092804D8F9
:1052B0000A277B4301341B18F6E70B9323782E2B28
:1052C00018D161782A2909D1079B02341A68191D5F
:1052D0000791002A0DDA012042420AE0013400223F
:1052E00020783038092804D80A277A430134121864
:1052F000F6E70992254F2178381C032200F06AFA5C
:10530000002806D02B68C21B402191401943296018
:10531000013421781E4806222976671C00F05AFACB
:10532000002817D01B4800280BD12868079C0723AA
:10533000C10501D5E41800E007349C430834079404
:1053400014E007AA00920498291C321C124B00E0BA
:1053500000BF07E007AC00940498291C321C0E4BD8
:1053600000F08CF8059005994A1C04D00D99059A17
:105370008C180D9436E7B589690601D40D9801E0C3
:105380000127784221B0F0BD906A0000966A0000C3
:105390009A6A000000000000F5500000F7B5151CE7
:1053A00001930A698B6800900C1C934200DA131C6D
:1053B000201C2B6043300178002901D001332B6081
:1053C0002668B00602D52F6802372F6022680626AD
:1053D00016401CD0261C4336377822683E1C731EAC
:1053E0009E4192061CD5A319181C40303021271C61
:1053F000C17045373A784133DA70023610E0617E89
:105400000098019A089FB847013006D00136E3683A
:105410002868191A8E42F2DBDCE7012040422CE0BA
:105420000027B7420ADAE119433109780098019A56
:10543000089B98470130F0D00137F2E72B682568C8
:1054400006212940E6680025042903D1F01AC74344
:10545000FD170540A2682669B24201DD931BED18D5
:105460000027AF4208DAA17E0098019A089EB04753
:105470000130D2D00137F4E70020FEBDF0B50D1C9D
:105480008BB0433507930590069204950A7E0C1C59
:10549000109B6E2A00D1A8E012D8632A24D009D824
:1054A000002A00D1B1E0582A00D0C1E045310A708D
:1054B0007D4D51E0642A1FD0692A00D0B8E01BE07E
:1054C000732A00D1A5E009D86F2A2BD0702A00D00A
:1054D000AEE00A68202616430E6038E0752A21D017
:1054E000782A00D0A4E032E018680E1C051D1D606B
:1054F0000368423633709EE026681F68300606D483
:10550000750604D5381D186000203D5E02E03D1D83
:105510001D603D68644B002D3BDA04992D226D42DD
:105520000A7036E027681E683D0605D4780603D564
:10553000351D1D60358802E0311D196035685A4BF4
:10554000207E039308276F281ED00A271CE0271C03
:1055500045377820554D38701A682668111D039517
:105560001960300603D4750601D5158800E015686A
:10557000F00702D520231E4326601027002D03D1FB
:105580002668202086432660261C4336002232707F
:1055900001E003930A276168A160002903DB20680A
:1055A000042398432060002D02D1049E00290ED0D0
:1055B000049E281C391CFEF7ADFE039A013E515C87
:1055C000281C3170391CFEF761FE051EF1D1049BC9
:1055D0009A1B2261082F33D12768F80730D56068FD
:1055E00090422DDC013262602AE008681E68496939
:1055F000050606D4450604D5351D1D60336819809F
:1056000003E0321D1A603768396000202061049E73
:1056100016E01E68311D19603668301C00F01EF956
:1056200065682061A84200D925612369636004E0B0
:10563000261C4236327001212161049F00223A70FB
:1056400007990598009109AA211C069BFFF7A6FE61
:1056500001300CD0351C2269AB1B93420ADA297841
:105660000598069A079FB84701350130F3D101220A
:10567000504217E02668B10705D4099BE0689842BC
:1056800010DA181C0EE00025E7680998391A8D42D7
:10569000F3DA617E0598069A079EB0470130E6D09E
:1056A0000135F1E70BB0F0BDA16A0000B26A00005D
:1056B00030B5002940D004390B68002B00DAC91836
:1056C0001E4A1368141C002B02D14B60116033E09A
:1056D00099420FD20D684A199A4205D110682B18C9
:1056E00055680B604D6000E04B60216024E08A4209
:1056F00003D8131C5A68002AF9D11D685C198C4222
:105700000BD10C682D1958191D60904214D11168E5
:1057100052686C181C605A600EE08C4202D90C2151
:10572000016009E008680D18954203D114685268B9
:10573000001908604A60596030BDC046040100206D
:1057400070B50323CD1C9D430835061C0C2D01D2DA
:105750000C2501E0002D2DDB8D422BD31C4A136854
:10576000111C1C1C002C12D02068421B0CD40B2ACC
:1057700002D92260A41815E0A34202D166680E6027
:105780001CE065685D6019E0231C6468EAE7301C72
:10579000291C00F051F8421C0CD0C41C03218C437E
:1057A000844201D1256009E0211A301C00F044F840
:1057B0000130F7D10C243460002008E0201C0B30AD
:1057C0000722211D9043431A01D05D42E55070BD70
:1057D0000401002000B5C9B28218904204D00378B9
:1057E0008B4202D00130F8E7002000BDF8B5061C5E
:1057F0000C1C151C002904D1111CFFF7A1FF041C6F
:1058000018E0002A03D1FFF753FF2C1C12E000F030
:105810002CF8A8420ED2301C291CFFF791FF071E5E
:1058200007D0211C2A1CFFF730FC301C211CFFF77D
:105830003FFF3C1C201CF8BD38B5074C0023051C5D
:10584000081C236000F01CF8431C03D121680029C8
:1058500000D0296038BDC046A80300200023C25CE8
:105860000133002AFBD1581E704704390B6800B57C
:10587000181F002B02DAC8581918081F00BD0000B5
:105880000A4A00B51368002B0CD0181869468842E4
:1058900002D81060181C00BD054B0C2201201A60B4
:1058A0004342F7E7034B1360EFE7C04608010020CF
:1058B000A8030020B003002000B5FEE7F8B5C046FD
:1058C000F8BC08BC9E467047F8B5C046F8BC08BC9A
:1058D0009E4670470A50726573733A256C642000C7
:1058E00048756D3A256C642054656D703A256C647A
:1058F00020000A414C533A25642055563A25640A43
:105900000054656D703A25642000436F6D706173BB
:10591000733A20585B25645D20595B25645D205AED
:105920005B25645D0A004163633A20585B25645D32
:1059300020595B25645D205A5B25645D0009477929
:10594000726F3A20585B25645D20595B25645D20A9
:105950005A5B25645D0A0009095065646F6D6574C2
:10596000657220636F756E743A20256C64000909B6
:105970005065646F6D657465722074696D653A2059
:10598000256C64004572726F72206D65617375726B
:10599000696E672074656D706572617475726520DB
:1059A000616E642068756D69646974790A000A50D3
:1059B000533A0925640925640925640A000A444507
:1059C00054454354494E4720434F4E4E454354455A
:1059D000442053454E534F52530A00090953693727
:1059E0003031332064657465637465640A002D2D5D
:1059F0002D0909536937303133204E4F5420444527
:105A000054454354454409092D2D2D0A00090953D5
:105A100069313134322064657465637465640A00E9
:105A20002D2D2D0909536931313432204E4F542028
:105A3000444554454354454409092D2D2D0A000978
:105A400009424D5031383020646574656374656473
:105A50000A002D2D2D0909424D50313830204E4F6E
:105A60005420444554454354454409092D2D2D0ADD
:105A7000000909484D43353838334C206465746556
:105A8000637465640A002D2D2D0909484D4335388E
:105A900038334C204E4F54204445544543544544DC
:105AA00009092D2D2D0A0009094D50553630353084
:105AB0002064657465637465640A002D2D2D0909E1
:105AC0004D505536303530204E4F542044455445C6
:105AD0004354454409092D2D2D0A000A494E4954C5
:105AE00049414C495A4154494F4E3A2000205349AC
:105AF0003730313300205349313134320020424DA8
:105B0000503138300020484D43353838334C002070
:105B10004D50553630353000537461727475700ACB
:105B20000008091108010001010100000000000047
:105B300034FD05000200000044657465637465640B
:105B400020493243206465766963653A20256420E4
:105B50003078253032780A0005000000000000008F
:105B600080250000000000000A0A095041434B450F
:105B7000545F545950455F414E44524F49445F4F22
:105B80005249454E542025640A0A000A0A09504128
:105B9000434B45545F545950455F5441502064690C
:105BA000723A256420636F756E743A25640A0A00A0
:105BB0000A09090953493131347820414C53206D89
:105BC000656173204572726F723D3078253032788E
:105BD0000A000A0909095349313134782055562001
:105BE0006D656173204572726F723D307825303279
:105BF000780A000A4552524F523A204932435F67B1
:105C000065745F74696D656F75740A004D656173C5
:105C1000526174653A307825303278253032783DDB
:105C200025640A000A4C45442043757272656E74FF
:105C30002073657474696E67733A2030782530324A
:105C4000782C203078253032780A004C6574732027
:105C5000776169740A000A5349313134585F434807
:105C60004C4953545F5245473A20307825303278BA
:105C70002C203078253032780A005349313134589D
:105C80005F50534C454431325F53454C4543545F5C
:105C90005245473A203078253032780A005349314E
:105CA0003134585F50534C4544335F53454C454362
:105CB000545F5245473A203078253032780A0053F5
:105CC00049313134585F5053315F4144434D555849
:105CD0005F5245473A203078253032780A005349E0
:105CE000313134585F5053325F4144434D55585F12
:105CF0005245473A203078253032780A00534931EE
:105D00003134585F5053335F4144434D55585F52CF
:105D100045473A203078253032780A0053493131EE
:105D200034585F50535F4144435F434F554E544591
:105D3000525F5245473A203078253032780A005376
:105D400049313134585F50535F4144435F474149C3
:105D50004E5F5245473A203078253032780A00535A
:105D600049313134585F50535F4144435F4D49538B
:105D7000435F5245473A203078253032780A000098
:105D80008300000000080000000100183200050038
:105D9000000020410000D242295C0F3E9A99993EB2
:105DA0003333733F295C0F3E6900000476005401D1
:105DB000F7FD000175191A0C6A231B1C00001F2037
:105DC0007274433B4138393A006B6C376F06246D6F
:105DD0006E70B8AAB38DB4980D355D4CCD6C0CC9FE
:105DE0002C365676264666FEF2ABC4AAF1DFDFBB40
:105DF000AFDFDFB8AAAAAAB088C3C5C7D8B1B9F3C4
:105E00008BA391B609B4D9DAB1B9F38BA391B6DA01
:105E1000B4DA00007000000000240000000200035B
:105E2000000000650054FFEF0000FA80000B1282B2
:105E30000001030C30C30E8C8CE914D540021371A1
:105E40000F8E3883F8833000F883258EF883300076
:105E5000F883FFFFFFFF0FFEA9D6240004001A827B
:105E600079A10000003CFFFF000000100000388313
:105E70006FA2003E03304000000002CAE3093E80EA
:105E80000000200000000000000040000000600052
:105E90000000000C0000000C186E000006920A16AC
:105EA000C0DFFFFF0256FD8CD377FFE1C496E0C54B
:105EB000BEAA00000000FFFF0B2B000016570000D9
:105EC00003594000000000001DFA00026C1D000094
:105ED00000003FFFDFEB003EB3B6000D227800006C
:105EE0002F3C00000000001942B5000039A200005C
:105EF000B365D90E9FC91DCF4C343000000050004F
:105F000000003BB67AE80064000000C80000000012
:105F10000000100000001000FA921000225E000D38
:105F2000229F0001000000320000FF46000063D401
:105F300000001000000004D6000004CC000004CCD7
:105F4000000000001072000000400000000000008F
:105F500000000006000200050007000000000064C9
:105F600000000000000000000005000500640020A3
:105F700000000000000000000000000040000000E1
:105F8000030000000032F8980000FF650000830F56
:105F90000000FF9BFC00000000000000000000006B
:105FA00000000000000000000000000000000000F1
:105FB00000000000000000000000000000000000E1
:105FC000100040000000000000060000B26A00025D
:105FD00000000001FB830068000000D9FC007CF198
:105FE000FF830000000000650000006403E8006417
:105FF0000028000000250000000016A0000000009E
:10600000100000001000002F0000000001F400004C
:10601000100000280000FFFF4581FFFFFA7200001A
:10602000000000000000004400050005BAC600475B
:1060300078A200000001000000000000060000003F
:1060400000140000254D002F706D000005AE000CFF
:1060500002D000000000000000000000000000006E
:106060000000001B00000000000000000000000015
:1060700000000064000000080000000000000000B4
:106080000000000000000000000000000000000010
:106090000000000000000000000000000000000000
:1060A00000000000000000000000000000000000F0
:1060B00000000000000000000000000000000000E0
:1060C00000000000000000000000000000000000D0
:1060D0000000001B00000000000000000000000E97
:1060E000000E00000AC70004000000000032FFFF9D
:1060F000FF9C00000B2B00000002000000010000CC
:106100000064FFE500000000000000000000000047
:10611000000000000001000000000001000000007D
:1061200000000001800000018000000180000024C8
:1061300026D30000000000000000000600100096BA
:10614000003C000000000000000000000000000013
:1061500000000C0A4E68CDCF770950166759C61952
:10616000CE820000000000000000000000000000DF
:106170000000000000000000000017D784000300AA
:1061800000000000000000000000C7938F9D1E1B50
:106190001C190000000000000000000000000000CA
:1061A000000000000000000000000203188500004D
:1061B0004000000000030000000300000000000099
:1061C000000040000000000000000000000000008F
:1061D00000000000000000000000000000000000BF
:1061E00000000000000000000000000000000000AF
:1061F000000000000000677DDF7E72902E554CF697
:10620000E688000000000000000000000000000020
:106210000000D8DCB4B8B0D8B9ABF3F8FAB3B7BB68
:106220008E9EAEF132F51BF1B4B8B08097F1A9DFC4
:10623000DFDFAADFDFDFF2AAC5CDC7A90CC92C9723
:10624000F1A989264666B28999A92D557DB0B08AF3
:10625000A896365676F1BAA3B4B280C0B8A8971102
:10626000B28398BAA3F0240844106418B2B9B49861
:1062700083F1A329557DBAB5B1A38393F0002850CB
:10628000F5B2B6AA839328547CF1B9A3829361BA7C
:10629000A2DADEDFDB819AB9AEF5606870F1DABAB6
:1062A000A2DFD9BAA2FAB9A38292DB31BAA2D9BAD3
:1062B000A2F8DF85A4D0C1BBAD83C2C5C7B8A2DF39
:1062C000DFDFBAA0DFDFDFD8D8F1B8AAB38DB4988A
:1062D0000D355DB2B6BAAF8C96198F9FA70E161EFC
