:1008000000100020011B0000331B0000351B0000FE
:10081000311B0000311B0000311B0000311B0000A8
:10082000311B0000311B0000311B0000371B000092
:10083000311B0000311B0000391B00003B1B000076
:10084000BD1400003F1B0000411B0000431B0000C3
:10085000451B0000911D0000491B00004B1B0000C0
:10086000652000004F1B0000511B0000531B0000BF
:100870003D0D0000571B0000591B00005B1B0000D2
:100880005D1B0000000000000000000000000000F0
:100890000000000000000000000000000000000058
:1008A0000000000000000000000000000000000048
:1008B0000000000000000000000000000000000038
:1008C0000000000000000000000000000000000028
:1008D0000000000000000000000000000000000018
:1008E0000000000000000000000000000000000008
:1008F00000000000000000000000000000000000F8
:1009000010B5064C2378002B07D10548002802D0EB
:10091000044800E000BF0121217010BDC400002088
:10092000000000004061000008B5084B002B03D018
:100930000748084900E000BF07480168002903D0C4
:10094000064A002A00D0904708BDC04600000000BB
:1009500040610000C8000020C4000020000000002A
:10096000164B002B00D1144B9D46402292029A1A3E
:10097000924600218B460F461348144A121A03F080
:10098000B1FF0F4B002B00D098470E4B002B00D02F
:1009900098470020002104460D4600200C49002203
:1009A000002303F027FF03F05FFF2046294600F0F5
:1009B00059FB03F02BFFC046000008000010002088
:1009C0000000000000000000C4000020F80100202A
:1009D0003D48000008B50648012100F0F5FB054838
:1009E000012100F0F1FB0448012100F0EDFB08BDFE
:1009F000108102000072020000B2020000B5002364
:100A00005A1C782B03D1074B04221A6009E03C2BB7
:100A100004D1054B04211960131CF1E7131E792B37
:100A2000EED100BDC4600040C860004010B5294848
:100A300001F008FB284C0023637101F0B1FD002890
:100A400007D0264801F0FEFA63790122134363714F
:100A500002E0234801F0F6FA01F036FD002807D045
:100A6000204801F0EFFA637902221343637102E038
:100A70001D4801F0E7FA01F01DFB002807D01B48D4
:100A800001F0E0FA637908221343637102E0184829
:100A900001F0D8FA01F0F4FB002807D0154801F066
:100AA000D1FA637910221343637102E0124801F016
:100AB000C9FA01F0ABFC002807D0104801F0C2FAD7
:100AC000637920221343637102E00D4801F0BAFA02
:100AD00010BDC0461C5100000D0100203A5100001D
:100AE0004D5100006C5100007F5100009E510000EC
:100AF000B1510000D0510000E55100000652000045
:100B00001A52000010B5184801F09CFA174C63798E
:100B1000DA0704D501F04CFD154801F093FA63792A
:100B20009A0704D501F0D8FC124801F08BFA6379DA
:100B30001A0704D501F0BCFA0F4801F083FA637973
:100B4000DA0604D501F0A4FB0C4801F07BFA6379C6
:100B50009A0604D501F062FC094801F073FA0A20F4
:100B600001F066FA10BDC0463A5200000D010020A7
:100B70004C520000545200005C52000064520000CD
:100B80006E520000F0B58FB0624CFA22E07C217DFD
:100B90000A25920069434243637D5218D2185E4988
:100BA00006A803F0A9FE06A801F04CFAA27AE67A9C
:100BB000237B64214A435943607B92190B185749A0
:100BC00006A803F099FE06A801F03CFAA27BE37B9D
:100BD00012029A1892B2524906A803F08DFE06A896
:100BE00001F030FA627CA37C6A434E499A1806A849
:100BF00003F082FE06A801F025FAA77DE67D237E9C
:100C0000281C0293637E3F020393A37EF61904938C
:100C1000E37E059301F00CFA02980399030204980D
:100C2000CB180102059832B2411809B21BB20091EB
:100C300006A83D4903F060FE06A801F003FA611C16
:100C4000227FA01C667FA37FE57FC97FC07F09024A
:100C5000411812021B02B218EB1809B212B21BB2F1
:100C6000009106A8314903F047FE06A801F0EAF911
:100C7000E31CDA7F231DDE7FA11D631DDB7F201CAB
:100C8000CD7FE11DC97F0830C07F090241181202E3
:100C90001B02B218EB1809B212B21BB2009106A8DF
:100CA000234903F029FE06A801F0CCF9231C2833C0
:100CB0001878231C29331A78211C231C2A332B3142
:100CC0001B7800060978120482181B025218D218E9
:100CD000184906A803F010FE06A801F0B3F9231C7A
:100CE0002C331878231C2D331A78231C2E332F34E1
:100CF0001B7800062178120482181B025218D218A1
:100D00000D4906A803F0F8FD06A801F09BF90FB005
:100D1000F0BDC0460D010020775200008352000054
:100D2000955200009D520000A6520000C2520000E1
:100D3000D9520000F35200000A530000F0B58FB002
:100D4000FFF75CFEFFF75AFEFFF758FEFFF756FE6F
:100D5000FFF754FEFFF752FEFFF750FEA64DA74ADD
:100D600044232B7013782C1C171C002B13D16B7988
:100D7000990701D501F0C8FB63791A0701D501F085
:100D800025FA6379D90701D501F014FC642000F03D
:100D900081FF0123F1E0012B00D0F0E06A791A42D3
:100DA00026D0002304A805A90493059301F030FC84
:100DB00001301AD0049D6421281C02F08BFEC0B2C1
:100DC000A0726421281C02F0C9FE059DC9B2E1721F
:100DD000281C642102F0CCFEC0B220736421281CC0
:100DE00002F01CFFC9B2617302E0854801F02AF9E4
:100DF00063799A070DD56D460023EB810E35281CCB
:100E000001F08CFB013004D02B881A0ADBB2A273EC
:100E1000E3736379190714D500236D46EB810E3512
:100E2000281C01F0DDF90022AD5E0A21281C02F029
:100E30009FFE0A216074281C02F0F0FEA17401F0EC
:100E4000F3F96379D90618D56D4603AE0E356846B9
:100E50002A1C0A30311C01F057FA6A465389D27AAB
:100E600052B2A275E3750122B256338822766376B8
:100E70000122AA562B88A276E3766379990600D4DC
:100E800079E006AD0021281C01F008FD01222B8825
:100E9000AA5605212277637703226B88AA5608AEEB
:100EA000A277E3776956AA88631CD977301CA31C04
:100EB0000021DA7701F0CAFC012171563288E31C67
:100EC000D977231DDA77032171567288631DD9778C
:100ED000A31DDA7705217156E31DB288D977231C4B
:100EE0000833DA776B460E33009303AB0193301C63
:100EF0000023291C0AAA02F00DFD302341491A1CC7
:100F00000878303A824202DA3F48825C00E00022F0
:100F1000E25401333A2BF1D1002504A80D70049559
:100F200002F050FB049B221C190E28321170190C80
:100F3000221CC9B229321170190A221CC9B22A32E4
:100F40001170221CDBB22B3205A81370059502F03C
:100F500063FB059B221C190E2C321170190C221CEC
:100F6000C9B22D321170190A221CC9B22E32DBB25D
:100F70002F34117023703B7801333B702AE0022B31
:100F800028D16B791A071DD5002305A8059301F018
:100F900055F9059CFA218900201C02F09BFDFA21DD
:100FA000C0B2E8748900201C02F0D8FD081C0A2198
:100FB00002F090FDC0B228751449201C02F0CEFD4D
:100FC000C9B26975C820400000F064FE00233B7080
:100FD000FFF7D8FDFFF712FDFFF710FDFFF70EFD3D
:100FE000FFF70CFDFFF70AFDFFF708FDFFF706FD11
:100FF00000F06AFE0FB0F0BD0D010020E0000020FF
:101000002053000071010020E001002010270000A3
:1010100010B58CB0032202AB1A7002221A73E122BF
:1010200006245202059B00920298221C072100F020
:10103000B1FF0A4801F006F807AB1C7404221A70CD
:101040001A720B9A079800920D21099A0C2300F04E
:1010500041FE034800F086FF0CB010BD4A5300006B
:1010600000A0004008B5FFF7B5FCFFF7D1FF002254
:101070000E4B002199540132642AF9D144221A708E
:1010800045225A7053229A704E22DA70FFF7CEFC36
:10109000FFF738FD00F0EAFDFA20400000F0FAFD0D
:1010A00000F004FE002000F087FAFBE70D010020AD
:1010B00000B5064907224B68181C1040012802D8C9
:1010C0009343012213434B6000BDC04600000C4017
:1010D00010B50949094A4418094953688C4204D893
:1010E00007218B4301210B4304E00649884201D8C4
:1010F00007218B43536010BDFFDB0BFF00000C404A
:10110000FF23F4000024F40000B5114BE0225B69DA
:10111000D2008021134089008B4216D007D8002BC3
:101120000FD08022520093420DD10A480EE0C02118
:1011300089008B4203D0934205D1074806E0074857
:1011400004E0074802E0002000E0064800BDC04679
:1011500000800C40C0D8A700406F400140420F0003
:10116000809FD500C0CF6A0000B5044B5A6DD107EF
:1011700002D41A6D0242FCD100BDC04600800C4072
:1011800008B5104A4300916AD9400B1C03210B405B
:10119000022B06D08B4207D0012B09D100F03FFD76
:1011A0000FE000F043FD0CE000F028FD400808E0EF
:1011B000936A04308000C3400020834201D000F0D5
:1011C00031FD08BD00800C4070B5051C0005000F06
:1011D00001380E1C052823D802F072FC0312060900
:1011E0000C0F00200F4C0DE000200F4C0AE00120F6
:1011F0000E4C07E010200E4C04E000200D4C01E0E6
:101200000D4C0020ED03ED0E002801D0FFF7ACFFE0
:1012100023680122AA409343AE401D1C354325603C
:1012200070BDC04608800C4040800C4058800C4087
:1012300060800C4078800C4044800C4000B50F2347
:1012400018400138002303283ED802F039FC02166A
:1012500027381E4BDA6AF0239B011340802252018B
:1012600093422ED08022920193422CD018495B18D1
:101270005A4253410522D31A26E0144A0321936AA5
:101280000B40022B20D08B4213D0012B01D10B1C21
:101290001AE0926A0923D10316D410E00B4A0C23FA
:1012A000916A0B40082B0ED00C2B02D0042B02D1DC
:1012B00007E0062308E0926A0923D10204D401233F
:1012C00002E0032300E00223181C00BD00800C4054
:1012D00000F8FFFF08B5F8239B03184080231B0389
:1012E00098422ED011D880239B02984221D002D858
:1012F000002840D045E08023DB0298421ED0C02366
:10130000DB0298423DD1002024E0A0235B039842F9
:1013100023D005D890235B03984232D1012019E0F5
:10132000C0235B0398421FD0D0235B03984228D18F
:1013300024E000F015FC144B9A6807E000F05EFC16
:1013400020E00020FFF71CFF0F4B9A6E0F23134085
:10135000D84017E0FFF714FF14E00120FFF710FF5B
:10136000094B1A6F0323F2E70848FFF767FF0728C6
:1013700004D0082805D100F0F3FB03E0FFF7C4FE1A
:1013800000E0002008BDC04600800C4004001800AA
:1013900010B5042821D802F093FB0C0911030600B4
:1013A000012002230CE01020202309E040208023AC
:1013B00006E08020802340009B0001E004200823F9
:1013C000064C002906D02062002A04D0E26A1A42A4
:1013D000FCD000E0236200F00BF910BD00800C404F
:1013E00010B50F240440012C04D0002C5DD0032C38
:1013F0005BD824E0881E072857D802F061FB0F064F
:10140000090C56565604032000E00120032407E08F
:101410000220041C04E00320012401E00020042435
:1014200001210A1CFFF7B4FFFFF742FE1F4B5C626D
:1014300000F0DEF800F0E2FBFFF74AFE35E0481E60
:10144000082832D802F03CFB05070E313115313146
:101450001D00002313E0012100200A1CFFF798FF64
:1014600002230CE00120011C021CFFF791FF012365
:1014700005E00F4B042219680A431A600323002277
:1014800001E0002301220949022C06D18C6A094897
:10149000120420400343134306E012059B0013434C
:1014A000886A054A104003438B6210BD00800C40DF
:1014B00040800C40FCFFFEFFF3FFEFFFF7B51B4F32
:1014C00080235B01FE581A4BFB581E4000D5FEE7F7
:1014D000BA6B0223151C0192354000930024002DA5
:1014E0001BD00122154215D0124B101CB968A04028
:1014F000F8502301CB18DB68002B0BD0197A4A4037
:101500001A721A689446002A04D04A1E9141201C7F
:101510005A68E0476D080134E1E7009A019B351CE9
:10152000013A9D430092002AD8D1F7BD00200C401B
:101530000C1000000810000030B51B480122C46FD9
:10154000AA211440194A1A4BC2671A4A4900128844
:10155000802511401962F021890111406D01A942D5
:1015600008D08025AD01A94209D080252D01A942CE
:1015700010D109E0D96A0D06FCD5032508E0D96A27
:101580008D05FCD5042503E0D96A0D07FCD502259D
:1015900007494D62D10701D402221A62002C01D002
:1015A0000023C36730BDC04608800C400E580000C1
:1015B00000800C40E200002010B50A4B0A4ADB6AAA
:1015C00004241380094A11692143116130BF0028A6
:1015D00002D0FFF7B1FF03E05A0501D400F00EFB83
:1015E00010BDC04600800C40E200002000ED00E08D
:1015F000024BDA6A024B1A807047C04600800C40EA
:10160000E2000020F0B5002A0CD0012524248D40F2
:101610004443002B03D01B4EA419256102E01A4E4F
:10162000A41965602424444307290CD8154D0F26BE
:10163000641967688D00AE40B743161CAE403D1C70
:10164000354365600DE00F4EA419104EA7688D1943
:10165000AD000F26AE40B743161CAE403D1C3543CF
:10166000A560002A0CD1012424228C404243002B87
:1016700003D0044BD218146102E0034D5219546098
:10168000F0BDC0460060004010600040F8FFFF3F22
:1016900070B5041C151C1E1C002A1BD002680E4BC2
:1016A000134003600368320213430360002903D12F
:1016B0000A48FFF70FFE011C094BA800081A995DA4
:1016C000694302F007FA23689A0702D5002800D17F
:1016D0000120206170BDC046FFFCFFFF10810200A9
:1016E0005453000070B5002343630C4B0222036384
:1016F0000368012693434A780D1C7240B24013439D
:1017000003600B7BAA684968041CFFF7C1FF2368CC
:101710002A78B3431343236070BDC046CFFF010056
:10172000F0B5894A904200D00AE1884B9E681F7844
:101730005C881979C020956AC00005420AD01971E9
:101740005C80FD21A80500D5EAE0690500D4E8E049
:10175000FE21E5E0082F00D9DFE0381C02F0B0F9E7
:10176000051B424F677697ABD3005C801971708878
:101770003188C40604D50620090A0140F02004E09F
:10178000FE242140850701D5012001430120187066
:1017900051625060C7E08020054200D07AE04027C7
:1017A0003D4201D101207FE017637788022566481A
:1017B000AC46FD0606D5197161465C80197031781A
:1017C0004162B0E065462F4273D05C8019710724F6
:1017D000C9001C7076183189012900D0A3E00821C6
:1017E0004160A0E08020054254D1402702203D42C4
:1017F0005AD017637588032705429BD159E05C8056
:10180000197174883188E00605D50620090A01405F
:10181000F020014301E0FE2001400420044201D0F9
:101820000124214318700120506051627BE0802028
:1018300005422FD1402704203D4235D017637588DB
:10184000054236D019715C8007216BE0C800301862
:101850000589A54213D8748801310420C9B22040FB
:1018600002D00024032765E701252C4002D05880D0
:10187000197138E0012900D85CE75C80F8E719713C
:101880004168095D013451625C8006214AE0802094
:10189000054205D01971FF215C801063597022E068
:1018A0004020054204D1062018705C8019713AE08E
:1018B000106305273EE7072018705C801971AC069D
:1018C00031D5C900761830895C88D569844203D245
:1018D00071680D5501345C805988814208D3012814
:1018E00001D10821516008211970022151601AE0CC
:1018F00004245460012816D00138814213D11249C2
:10190000082048600FE019718021082049001870F4
:101910005C800D4207D0116303E019715C80FB21EC
:1019200059700921197019780120092909D100215C
:10193000516301229A56824200D15970587800E0D2
:10194000FC2040B2F0BDC04600A00040E4000020F2
:1019500010B5174B984201D0FC2026E09A68D007BA
:1019600001D520225A604A88900702D508890028AC
:10197000F2D0500702D50A8A002AEDD00D4A002085
:10198000012410711070547050809160C0225A6010
:101990009A6A910601D5064AD269074A04481A6331
:1019A000FC22D2005A63FFF7BBFE40B210BDC04616
:1019B00000A00040E4000020CFFF010000B5002897
:1019C00003D0012803D1024B00E0024B196000BD97
:1019D0000C0008400800084000B542780378002A4F
:1019E00001D0022213438278002A01D0042213433B
:1019F000014A136000BDC0460000084070B5051CD8
:101A0000161C081C1C1C002902D11348FFF762FC9D
:101A1000402C0CD005D8002C07D0202C1BD108233B
:101A200006E0602C17D1042302E0102300E0062317
:101A3000311C594380004B08181802F04BF8074B33
:101A40000438800118402B68602293432B602B6878
:101A50001C432C60686170BD10810200C0FF1F0034
:101A600005238B435B00C360C160704700B50B4B1F
:101A70000B4AC3600023036042600A4A83604361EB
:101A8000C3648264084A4365904200D1036583655C
:101A9000904201D10023C36500BDC046AA0E0000DC
:101AA00005100000F91F000000C4004038B50C1CF0
:101AB000051CFFF7DBFFA37C002B04D02A688023E2
:101AC000DB0513432B60E37C002B03D0237D102226
:101AD0001343AB65228A637B281C1343E289616848
:101AE00013436B60237BA268FFF788FF2378EB60CA
:101AF00038BD00B503691A06FCD5C069C0B200BD87
:101B0000064880470649074A074B9B1A03DD043BFA
:101B1000C858D050FBDC0548004700001D1C0000E1
:101B20004C61000000000020C4000020610900009A
:101B3000FEE7FEE7FEE7FEE7FEE7FEE7FEE7FEE77D
:101B4000FEE7FEE7FEE7FEE7FEE7FEE7FEE7FEE76D
:101B5000FEE7FEE7FEE7FEE7FEE7FEE7FEE7C0463C
:101B600000B51E4AF023D16A9B010B408021490138
:101B70008B422DD0802189018B4205D08021090123
:101B80008B4204D1164B00E0164B186824E0D26853
:101B9000E023DB00134080229200934212D007D84A
:101BA000002B11D08022520093420FD10E4813E037
:101BB000C022920093420ED08022D200934205D1DF
:101BC0000A4809E00A4807E00A4805E0002003E067
:101BD0008020000200E0084800BDC04600800C40A4
:101BE000040000200000002040B56400406F400168
:101BF000C0D8A700804F1200809FD50008B5FFF71E
:101C0000AFFF044B5A680F231340D840024B1860B3
:101C100008BDC04600800C40EC01002070478020C9
:101C200000027047FA20800070470000014B1868DE
:101C30007047C0460000002008B50120021C011CAE
:101C4000FFF7A6FB06480321FFF7CAFB0548012161
:101C5000FFF7BAFA04480121FFF7B6FA08BDC046FB
:101C600002000600300408000023040013B501AC94
:101C7000FFF7E2FF06490322201C02F02AFE01239F
:101C80002370A370201C00236370FFF7A5FE13BD13
:101C90005853000008B5FA218900C00301F01AFF6B
:101CA000411E0020FFF78AFE08BD0000044B022100
:101CB000DA690A43DA61034B802252011A607047E5
:101CC0000000084000E100E0014B02229A617047E9
:101CD0000000084084B0F0B589B00F1C0F91D1B25C
:101CE000C4B20E90039125480121254D1092119305
:101CF00002940193FFF768FA00232B6004AC214B98
:101D0000221C43CB43C21B681F4813600121FFF70D
:101D10005BFA1A480121FFF757FA391C02980A2288
:101D20000123FFF76FFC0398019901230A22FFF7B3
:101D300069FC0123181C01991E1CB840071C8E4029
:101D400009230299242251431048013B09180F60CE
:101D500003994A4312185660002BF2D10EAB1B7C3C
:101D600003221B021343AB630548211CFFF7BAFC97
:101D700009B0F0BC08BC04B01847C04600B202006D
:101D800000A000405C530000108102001060004081
:101D900008B50448836A0363FFF7C2FC024B18705E
:101DA00008BDC04600A000400C01002030B587B03F
:101DB00001AC21800421618069460A7000AA029268
:101DC000012222812282211C0493FFF7C1FD0B4CCA
:101DD0000B4D20702378012B07D1013D002D04D03D
:101DE0000848FFF79DFC2070F4E723780120002BC2
:101DF00001D0207840B207B030BDC0460C010020B1
:101E0000B90B000000A0004030B587B001AC2180C4
:101E10000121618069464B7002230A70238100AA68
:101E2000211C0292FFF794FD084C094D2070237885
:101E3000012B07D1013D002D04D00648FFF770FCAF
:101E40002070F4E7207840B207B030BD0C010020CC
:101E5000B90B000000A0004030B589B06C46E271BB
:101E600003AA118008215180012111810C990734A6
:101E700006911382111C0494FFF76AFD084C094D6A
:101E800020702378012B07D1013D002D04D0064896
:101E9000FFF746FC2070F4E7207840B209B030BD6F
:101EA0000C010020B90B000000A0004070B586B006
:101EB00001AC1E1C042363806B461A7000AB0293B6
:101EC000012323810A9B21802682211C0493FFF792
:101ED0003FFD0B4C0B4D20702378012B07D1013DAA
:101EE000002D04D00848FFF71BFC2070F4E723788E
:101EF000301C5A4253415B42184006B070BDC04688
:101F00000C010020B90B000000A0004010B588B003
:101F1000042203AB19805A80694600220A704A7075
:101F200000AA049201221A8101AA069208221A82AA
:101F30000A48191CFFF70CFD094C40B2012808D1D2
:101F4000013C002C03D00548FFF7EAFBF5E7201C15
:101F500001E04442604108B010BDC04600A000400E
:101F6000B90B000070B588B00024061C6500E9B20A
:101F7000301CFFF7CBFF002805D0684604492A1C17
:101F8000231C02F0B9FC0134802CEFD108B070BDE5
:101F90006C53000084B030B587B0C4B20A900B9186
:101FA0001F4801210C920D93FFF70EF9201C0B998D
:101FB00004220123FFF726FB201C0C990122002399
:101FC000FFF720FB0E9A174C0525029280226946E6
:101FD0000023AA40201C0B7001930B734D73CB811F
:101FE0000A828B74CB740B75FFF760FD0AAB1B7B09
:101FF00003221B02134363650B4B0C4AA36480212D
:10200000C0235B004900D15080218900D150201CA1
:10201000291CFFF725FD07B030BC08BC04B01847E9
:102020000032020000C40040FF1F000000E100E099
:1020300000B5034B1A695106FBD5586300BDC04675
:1020400000C4004030B50023C15C002907D0044A19
:1020500014696506FBD501335163962BF4D130BD6D
:1020600000C4004010B5104C23691A061BD5201C73
:10207000FFF73FFD0D4B1A1C68321278002A10D171
:102080005A6E98545A6E01325A66002803D11A1CAF
:102090006932012111705A6E632A02D96833012214
:1020A0001A700423A36410BD00C400407401002012
:1020B0007047000008B5EE210148FFF727FF08BD73
:1020C00000A0004010B50C4B1B88C01A0B4B1C889D
:1020D0000B4B44430022985E0A4BE4130022995EA6
:1020E000C002611801F044FD074B24181C6008343D
:1020F000200900B210BDC0461200002010000020D0
:10210000180000201A000020F001002070B5234BB9
:10211000234A1B6823499B181A1C5A4300254C5F0D
:10212000214915130026895F5C4369436413091430
:102130006118023180242402891009191B4C24885B
:1021400061431B4CC90B0025645F1A4DA400002697
:10215000AD5F6A43184DD2150026AD5F6B43DB12AD
:10216000D318E31802339B10C01A144B58430028AD
:1021700003DB400001F0AEFC02E001F0ABFC4000EC
:1021800003125B430E4A53430E4A1B14424312147C
:102190009B180D4A9B181B11C01870BDF001002040
:1021A00060F0FFFF0C000020140000200E00002053
:1021B00008000020160000200A00002050C3000084
:1021C000DE0B000043E3FFFFCF0E000008B5EE2159
:1021D000F4222E230148FFF717FE08BD00A000409F
:1021E000F0B585B000276D460E4EAF730E350190E9
:1021F0002B1C6C46301CEE21F622FFF7D7FDE7734F
:102200000F34EE21F722231C301CFFF7CFFD287876
:1022100023780002C018FFF755FF019B188005B016
:10222000F0BDC04600A0004008B5EE21F4223423E2
:102230000148FFF7E9FD08BD00A00040F7B50F4ECB
:102240006D460023AB710635071C2B1C301CEE219C
:10225000F622FFF7ABFD6C460023E3710734EE2155
:10226000F722231C301CFFF7A1FD287823780002F9
:10227000C018FFF74BFF3860F7BDC04600A0004014
:1022800008B53C210148FFF741FE08BD00A0004011
:1022900038B5164B03251978154B29401A780723B2
:1022A0001A40144B49011B789200134C8A182B409A
:1022B000D318DBB2201C3C210022FFF7A5FD0F4BF9
:1022C000201C1B783C215B01DBB20122FFF79CFD47
:1022D0000B4B201C1A780B4BD2011B783C211D4064
:1022E0005319DBB20222FFF78FFD38BDF200002048
:1022F0001C000020F300002000A000401D00002072
:10230000F1000020F0000020F0B585B002AC071C01
:102310000E1C151C00943C21032206230948FFF7DC
:10232000C5FD237862781B029B183B80A378E27876
:102330001B029B183380237962791B029B182B8028
:1023400005B0F0BD00A0004010B588B0041C221CF0
:102350000A49684602F0D0FA094BE4001A780949A4
:10236000E4B28C541A78082A03D81A780132D2B20F
:102370001A706846FFF766FE08B010BD8A53000069
:1023800071010020E001002000B50278002351B265
:10239000994212DC0423002A0FD14278012351B262
:1023A00000290ADC0523002A07D18278022351B2D2
:1023B000002902DC534253410633181C00BD0000C3
:1023C00070B588B0051C0E1C2A1C331C0C496846CD
:1023D00002F092FA6846FFF735FE0A4C07221640D3
:1023E000ED0023787619084AF6B2D6542378082BE4
:1023F00003D823780133DBB2237008B070BDC04628
:10240000AD53000071010020E001002008B5D22189
:102410000148FFF77BFD08BD00A0004073B5002018
:1024200000F084FD782000F0A3FC782000F098FBF9
:10243000642000F037FD00F0CBFE002000F07CFEB1
:102440001D4C201CFFF7A0FF051CE01CFFF79CFFA4
:10245000061CA01DFFF798FFF600800106433543D8
:10246000A8B200F0C3FE154801F01EFB144801F0AD
:1024700021FB144801F04EF9012001F0FDF8012084
:1024800001F02CF9002001F0B8F8002001F0E1F88B
:10249000012001F019FA012000F04EFE6C461420D4
:1024A000E080063400F030FF201C00F05FFF208841
:1024B00000F0F8FC73BDC0461E000020C1230000E0
:1024C000492300007301000008B5B4210148FFF75B
:1024D0001DFD08BD00A0004010B50A4CB421201C11
:1024E00007221723FFF790FC201CB421172210238A
:1024F000FFF78AFC201CB4211822A123FFF784FCDB
:1025000010BDC04600A0004008B5B4211822062323
:102510000148FFF779FC08BD00A00040F0B58BB082
:1025200000236C4663710534B4212022231C061C51
:102530001948FFF73BFC22780F23111C99430F1E0B
:102540000FD0164902A802F0D7F902A8FFF77AFDCA
:102550001148B42118220123FFF756FC0120404204
:1025600018E06C46A1710634B4212222231C0A48CB
:10257000FFF71CFC6D460C23EB71073523222B1C47
:102580000548B421FFF712FC2B7822781B029B1818
:102590003380381C0BB0F0BD00A00040D2530000C7
:1025A00008B580210148FFF7B1FC08BD00A000403C
:1025B0007047000030B587B0802301A9E522684646
:1025C00002700B8000AA01234A600B810C484B80EB
:1025D000FFF7BEF90B4D0C4C28702B78012B02D065
:1025E00001340AD106E0013C04D30548FFF798F80E
:1025F0002870F2E70548FFF725FD07B030BDC0465B
:1026000000A000400C010020B80B0000E3530000C4
:10261000F0B591B080230D1C06A90B8004AF0223F6
:1026200001904F600B8134484B80FFF791F9334C98
:10263000334E20702378012B02D001360AD106E0F8
:10264000013E04D32C48FFF76BF82070F2E72D48C9
:10265000FFF7F8FC2378002B02D0207840B248E046
:102660003B787A781B029B185A01D21A91018A1A78
:10267000D200D318244A5B139B18019A0BA913604C
:1026800080230B8004234B80E02203AB1A704B6045
:1026900001230B8105AE0223CE600B821648FFF7A3
:1026A00057F9174F20702378012B02D001370AD138
:1026B00006E0013F04D31048FFF732F82070F2E73C
:1026C0001048FFF7BFFC2378002B03D000232B60BA
:1026D000237806E0737803229343327812029B1822
:1026E0002B602A68094B01205343094A5B139B184E
:1026F0002B6011B0F0BDC04600A000400C010020CE
:10270000B80B0000E353000090E8FFFFCD55000038
:10271000FE48FFFF10B50C1C4000C1B21378024800
:10272000221CFFF771FB10BD00A0004010B50C1C6F
:102730004000131CC1B2221C0448FFF737FB431EA4
:102740005A1E93415B42184010BDC04600A0004095
:1027500037B5184C631DDB7F002B0CD06D46073559
:10276000002802D002232B7000E0287063681878DC
:102770002368597C14E0A27A002A18D0002807D0D8
:10278000627C181C002A14D101226B46DA7101E028
:102790006B46D87163686D46187823680735597C95
:1027A0002A1CFFF7B7FF2B780020637401E001209B
:1027B00040423EBD2800002037B50D1C141E012CE0
:1027C00003D11A1CFFF7A6FF07E04000C1B2009337
:1027D00003482A1C231CFFF73FFB00203EBDC046D8
:1027E00000A0004037B50D1C141E012C03D11A1C8B
:1027F000FFF79CFF08E04000C1B2009303482A1C89
:10280000231CFFF753FB00203EBDC04600A0004044
:1028100000B50023084A934202D10421074A04E08C
:10282000074A934202D1074A04211160064A013344
:102830009342EFD100BDC046C0D40100C460004047
:1028400060EA0000C8600040C1D4010013B5124B1B
:102850007022997A041C114202D1012040421AE0F0
:1028600059681B6808780622997B6B46FFF7BAFF08
:102870000028F2D16A46137852781B021343238052
:1028800069468B78CA781B02134363800B794A79B7
:102890001B021343A38016BD2800002013B5114B63
:1028A000041C9A7A110702D40120404219E05A68A8
:1028B0001B681078D97B06226B46FFF793FF002830
:1028C000F2D169460B784A781B02134323808B7838
:1028D000CA781B02134363800B794A791B021343A6
:1028E000A38016BD2800002073B5424CA37A002BAC
:1028F0007DD06D46073500232B7062682368107801
:10290000597C2A1CFFF706FF626823681078597902
:102910002A1CFFF7FFFE62682368107819792A1CC9
:10292000FFF7F8FE631DDB7F002B2DD00C232B70EF
:1029300062682368107819792A1CFFF7EBFE3220B1
:10294000FFF766FFC0232B70A37ADA0701D5E023D7
:102950002B7063682268187811792A1CFFF7DAFE59
:10296000637C002B00D002232B7022686368517CAB
:1029700018782A1CFFF7CEFE002663682E701878A0
:1029800023682A1C59792EE004232B70626823687F
:10299000107819792A1CFFF7BDFEA37C002B02D109
:1029A000A37ADA0701D4402300E060232B70226869
:1029B0006368117918782A1CFFF7ACFE3220FFF704
:1029C00027FF637C002B00D001232B7022686368F3
:1029D000517C18782A1CFFF79DFE226863685179A4
:1029E0001878221C1032FFF795FE002001E001202C
:1029F000404276BD2800002073B5194CA37A002B05
:102A00002AD0FA235B0098420ED003D8FA2823D1AB
:102A100000220CE0FA239B00984207D0FA23DB0047
:102A2000984219D1182202E0082200E010226B46D9
:102A3000DA71DB79227A6E460736DB0800259A4286
:102A40000CD06368321C187823689979FFF762FE0E
:102A50003378DB08237201E001256D42281C76BD26
:102A60002800002000B50E4A031C507A032813D812
:102A700001F026F802040608022104E0042102E025
:102A8000082100E010211970D27C0020824205D07C
:102A90001A7852001A7001E00120404200BDC04681
:102AA0002800002073B5164CA37A002B24D00428EC
:102AB0000AD003D802281FD1002208E0082805D038
:102AC000102819D1182202E0082200E010226B46DB
:102AD000DA71DB79627A6E460736DB0800259A42A6
:102AE0000CD06368321C18782368D979FFF712FE7E
:102AF0003378DB08637201E001256D42281C76BD46
:102B00002800002073B5154DAB7A002B21D06C4600
:102B100007340123BB280CD80223612809D80323DA
:102B2000292806D80423132803D80523092800D808
:102B300006232370EA7A237800269A420BD06B682A
:102B4000221C18782B689978FFF7E4FD2378EB7244
:102B500001E001267642301C76BDC04628000020E8
:102B6000F8B5154B00245A1DD27F1E1CA24221D15C
:102B70009C7A002C1CD00122051C95432C401F7C04
:102B80001C74641B62425441013C002D02D1187D2B
:102B9000002805D00120FFF7DBFD002D0AD002E060
:102BA000FFF7D6FD06E0FFF79FFE002802D037743E
:102BB00001246442201CF8BD28000020F0B587B035
:102BC000254C019003910292631DDB7F271C002B93
:102BD00016D0A37A002B13D06268236805AD107855
:102BE000197B02222B1CFFF7FDFD002808D12E784F
:102BF0006B78019A36021E43964204D2029B1870EB
:102C00000120404226E063685A88520896420ED955
:102C1000187823682A1CD97CFFF788FD0028EFD19B
:102C20002B78DA0603D5FFF75FFE0220E9E77B6821
:102C300018783B68597B6B461A79039BFFF7D2FDE6
:102C4000041EDDD1301C019900F044FF029A0138C6
:102C50001070201C07B0F0BD2800002073B52D4D6A
:102C6000061CAB7C834252D06B686C4618782B688C
:102C700007341979221C002E1CD0FFF757FD0028BD
:102C800002D00120404243E0237820229343237066
:102C90006B68221C18782B681979FFF73BFD03201D
:102CA000FFF7B6FD02232370EB1CDB7F002B1ED049
:102CB00082231BE0FFF73AFD0028E2D1A97A202207
:102CC0002378C80701D5134300E0934323706B6852
:102CD000221C18782B681979FFF71CFD0320FFF7D9
:102CE00097FDEB1CDB7F002B00D0802323702B1D76
:102CF000DB7F002B03D023783022134323706B68D3
:102D0000221C18782B68D97DFFF704FDAE740020D3
:102D100076BDC0462800002037B5144B041C1A1D90
:102D2000D27F82421FD06A460732002802D030216B
:102D3000117000E01070997C002903D011780220F6
:102D400001431170D91CC97F002904D0107880215B
:102D50004942014311701D1C596808CD0878D97D7E
:102D6000FFF7D8FCEC7700203EBDC04628000020CD
:102D700073B570236C46051C03400734002B01D04B
:102D8000012302E0002800D140231D4E2370736808
:102D9000221C18783368597DFFF7BCFC2278402349
:102DA0009A4332731D4201D0002300E004232370B4
:102DB000AB0603D42378022213432370EB0603D41B
:102DC00023780122134323702B0703D4237838225E
:102DD000134323707368221C18783368997DFFF7BA
:102DE00099FC002D04D0082D02D00020FFF794FF9D
:102DF00000243220B5723475FFF70AFD201C76BD21
:102E00002800002073B5061E282E45D801AC244D9D
:102E1000002810D1FFF780FF072363706B682670CE
:102E200018782B680222597D231CFFF7C5FC002867
:102E300032D1287532E00120FFF76EFF2023237086
:102E40000023012E02D0052E03D801236370052034
:102E500008E0142E03D8022363700A2002E0032343
:102E600063701420FFF74EFE637807229B01134323
:102E700063706B68022218782B68597D231CFFF75A
:102E80009BFC041E08D10823AB72012328732B7509
:102E9000FFF766FE201C01E00120404276BDC046DF
:102EA0002800002073B5204B041C9A7A1D1C002AB0
:102EB00036D05A1DD67F002E32D11B7D002B09D073
:102EC000431E272B03D8C0B2FFF79CFF26E0301C1F
:102ED000FFF798FF0421032C06D9FA239B00211C3D
:102EE0009C4200D9191C89B2FA20800000F040FEF3
:102EF0006C466B680138E07118782B680734597894
:102F0000221CFFF707FC2178FA200131800000F035
:102F10002FFE80B2E8814008FFF7F4FD002001E0B9
:102F20000120404276BDC0462800002037B52D4C18
:102F300080236A461370636822681878517D6A4658
:102F4000FFF7E8FB64200025FFF762FC6B461D706D
:102F5000626823681078597D6A46FFF7DBFB01221F
:102F6000FF235242A37223726372E372E2812274DE
:102F7000A374E21C0123201CD37723731630231D76
:102F8000291C0C22DD77E5746575257501F0AAFC16
:102F9000631DFA20DD77C000A31DDD77E584FFF710
:102FA0002BFDA84202D00120404219E00220FFF789
:102FB00079FD0028F7D12A20FFF7A4FD0028F2D1DF
:102FC0003220FFF76FFF0028EDD1FFF7C9FD002881
:102FD000E9D1FFF743FE041EE5D1FFF7C9FE201C2F
:102FE0003EBDC04628000020F7B50F1C161E02D1BA
:102FF0000120404220E0114CA37A002BF8D0030AB4
:1030000001AD2B70C0B2636868705A894018904255
:10301000EEDC187823680222D97E2B1CFFF7CCFB4C
:103020000028E5D16368FAB218782368197E331C4A
:10303000FFF7C2FB0028DBD1FEBDC0462800002000
:10304000F7B50F1C161E02D10120404220E0114CA2
:10305000A37A002BF8D0030A01AD2B70C0B26368CD
:1030600068705A8940189042EEDC18782368022272
:10307000D97E2B1CFFF7A0FB0028E5D16368FAB2CC
:1030800018782368197E331CFFF7ACFB0028DBD1CE
:10309000FEBDC04628000020F0B58BB00393254B41
:1030A0000090019102920633DC7F002C01D00120B8
:1030B0003DE001990029FAD000998C421FD2009A74
:1030C000151B102D00DD1025019BAEB21F19201C11
:1030D000311C3A1CFFF788FF0028E8D1201C311C66
:1030E00006AAFFF7ADFF0028E1D1321C381C06A963
:1030F00001F0E0FB002819D13419A4B2DCE70299F1
:103100000C4C0A0A05AB1A70626859701078226874
:10311000517F0222FFF750FB0028C8D1A31D0122D6
:10312000DA770C216B46CB5AE38401E0022040425F
:103130000BB0F0BD2800002073B51B4C051C661DAC
:10314000F37F83422AD000281AD0A31DDB7F002BF7
:1031500026D00020FFF7FCFA0020FFF77FFDE08C6F
:10316000FFF7A0FE6A4607326368002515701878DD
:103170002321FFF7CFFA0120F077FFF7E9FA0BE000
:10318000FFF7E6FA237C6A4607321370636823214F
:103190001878FFF7BFFAF577FFF7A6FB002001E0EC
:1031A0000120404276BDC046280000201FB50924FA
:1031B000221C01A8054901F08CFB9720211C01AAC3
:1031C000C000FFF711FF04B010BDC0464E54000010
:1031D00008B580220349D200C8230348FFF75CFFEB
:1031E00008BDC0468E540000F60B0000F0B587B055
:1031F000404F032402AE391C051C0931301C221C2F
:1032000001F067FB391C0C31221C03A801F061FBA3
:10321000391C0F31221C04A801F05BFB391C123150
:10322000221C05A801F055FB291C2140735C68464F
:10323000EA0803702240B35C4370AB092340F05CA2
:103240006E46B07003A8415C01AE3170825C211CF7
:103250007270C35C6A462848B370FFF7C5FE002849
:1032600002D00120404242E02448211C321CFFF7DA
:10327000BBFE0028F5D104A9221C684601F029FBF9
:1032800005A9301C221C01F024FB690708D56B46F8
:103290001A7801231A436846027032781343337058
:1032A000A90608D56B465A7801231A43684642702E
:1032B000727813437370E90508D56B469A78012339
:1032C0001A4368468270B2781343B3708820C000F6
:1032D00003216A46FFF788FE0028C2D1084803216F
:1032E000321CFFF781FE0028BBD1064B1D8107B0C1
:1032F000F0BDC0464E540000260400002A04000021
:1033000031040000F400002010B586B01349041CFD
:10331000153103A80C2201F0DCFAC82C02D90120D7
:10332000404218E0211CC82000F022FC013880B285
:1033300001AA030A5070022109481370FFF754FED6
:103340000028ECD107480C2103AAFFF74DFE002806
:10335000E5D1054B9C8106B010BDC0464E5400001F
:1033600016020000C10A0000F4000020024B9B89F5
:10337000038000207047C046F400002073B5061C8F
:10338000430700D18FE0C823DB00994200D98AE0CF
:10339000081C01F0BDF9454900F09EFC6D4603355F
:1033A000041C281CFFF75EFB2B78042B1CD00CD8C8
:1033B000022B78D18D21C905201C00F07FFE00F082
:1033C00073FC3B4985B2201C23E0082B17D0102B3F
:1033D00069D18A21C905201C00F070FE00F064FC50
:1033E000344985B2201C14E08C21C905201C00F052
:1033F00065FE00F059FC304985B2201C09E08B21A4
:10340000C905201C00F05AFE00F04EFC2B4985B285
:10341000201C00F053FE00F047FC01AC80B22B0AE8
:103420002370030A6570A370E070F30703D40225CC
:103430002E4223D011E0EA2040000221221CFFF797
:10344000D3FD00282FD192206A4640000221063287
:10345000FFF7CAFD0028EAD025E0EC204000291C37
:10346000221CFFF7C1FD00281DD194206A464000B0
:10347000291C0632FFF7B8FD002814D104200640AD
:10348000301E12D0EE2040000221221CFFF7ACFDBE
:10349000002808D196206A46400002210632FFF734
:1034A000A3FD002801D00120404276BD0000484322
:1034B000000040460000C0440000C04500004045F8
:1034C00007B501236A4603400732002B00D03023A2
:1034D0001370830703D513780C210B431370430734
:1034E00003D5137803210B431370A420012140005E
:1034F000FFF77AFD0EBD000007B50123002804D0B8
:10350000C3B2042B00D90420C3B26A460732013B80
:10351000012102481370FFF767FD0EBD4F01000047
:1035200007B5052100F0D6FA01AA80B2030A50704F
:10353000EF20022140001370FFF756FD0EBD07B5C6
:10354000052100F0C7FA01AA80B2030A5070ED20ED
:10355000022140001370FFF747FD0EBD13B50C1C90
:10356000FA21890000F004FB211C414301AA0B163B
:103570001370AE200B145370D1700B124000042155
:103580009370FFF731FD16BD07B5052100F0A2FAD3
:1035900001AA80B2030A5070AD20022140001370CE
:1035A000FFF722FD0EBD07B5052100F093FA01AA31
:1035B00080B2030A5070AC20022140001370FFF764
:1035C00013FD0EBD37B5051E02D10120404213E0A8
:1035D00001ACD82080000421221CFFF731FD002817
:1035E000F3D12278637812061B041343E278134365
:1035F000A278120213432B603EBD07B501AA030E49
:103600001370030C5370D070030AD820042180007B
:103610009370FFF7E9FC0EBD37B5051E02D10120FE
:10362000404215E001ACF12080000421221CFFF78C
:1036300007FD0028F3D12278637812061B04134398
:10364000E2781343A27812021343142253432B60EF
:103650003EBD07B5142100F03DFA01AA030E137018
:10366000030C5370D070030AF12004218000937082
:10367000FFF7BAFC0EBD00001FB5002802D0FFF70F
:1036800095FD0BE006490922213101A801F021F93D
:103690009720C000092101AAFFF7A6FC05B000BDD4
:1036A0004E54000013B501AC002808D0C02323708D
:1036B000C2236370C423A370C623E37004E0201CFC
:1036C0008B21042201F00EF90421221C0248FFF78D
:1036D0008BFCFFF709F916BD980A000013B501AC81
:1036E000002808D020232370282363703023A37080
:1036F0003823E37004E0201CA321042201F0F2F837
:103700000421221C0248FFF76FFCFFF7EDF816BDFD
:103710009E0A0000F0B587B0022303AC2370CA23D1
:103720006370E323051CA370682009230421221C75
:10373000E3704027FFF758FCA32323702F4005D0E8
:10374000C0236370C823A370C22301E06370A37019
:10375000E370C0235B002B40009305D0C42323718A
:10376000CC236371C62302E0A32323716371A37189
:103770004F48A3230A21221CE37123726372FFF7CF
:1037800033FC03232B40019301D0202300E0D823F6
:1037900048480121221C2370FFF726FC20202840E6
:1037A00002D0FFF703FD01E0FFF766FF009B002B4F
:1037B00016D0EB0507D5B22323708B236370B62395
:1037C000A3709B2306E0B023237080236370B4238F
:1037D000A370902338480421221CE370FFF704FCF7
:1037E0000126354223D08B20F823221C311C0001F6
:1037F0002370FFF7F9FBFA210720FFF7BFFD072031
:10380000FFF75EFE301CFFF777FE6420FFF788FEAF
:10381000FA20B040FFF793FEC8212848FFF79EFE2C
:103820002820FFF7B1FE0A20FFF7BDFE07E08B203E
:10383000D8230001311C221C2370FFF7D5FBAB07F6
:1038400001D5D92300E0D8231D480121221C237073
:10385000FFF7CAFB0420284000D00120FFF722FF19
:103860001020284000D00120FFF738FF154C082316
:103870002B436381FFF738F8002F01D1A77301E0D4
:103880000623A373009B002B02D0A37B0633A373F4
:1038900014231D4202D0A37B1033A373019B002B82
:1038A00002D0A37B0433A373002007B0F0BDC04651
:1038B000A70A0000B60A0000A20A000009E3CA0233
:1038C0003D070000F400002030B587B00F4D041C08
:1038D000291C2A310B22684600F0FBFF291C3531D8
:1038E00003A80B2200F0F5FF012C05D0022C09D112
:1038F00007480B216A4602E005480B2103AAFFF79F
:1039000073FB01E00120404207B030BD4E5400007F
:10391000820A0000F0B58DB0129C0023614F029026
:1039200023800E1C151CB87B04A9139AFFF746F9D7
:103930000390002800D0B0E07B8914221A4057D0B1
:103940006846017C427C090612041143C27C6F4622
:103950001143827C1202114329607A7D007D12049A
:1039600000061043FA7D09141043BA7D4943120240
:10397000104368607A7E8446387E12040006024353
:10398000F87E0243B87E00020243AA603F7F121411
:103990003F0601976F46787F019F00040743019718
:1039A0006F46F87F019F5243074301976F46B87FE8
:1039B000019F000238436746E8603D146D430014E0
:1039C000404349198A18F12109061018401880212E
:1039D0008904884206D9FEF787FF6A460C239A5A63
:1039E00022805AE02188802252000A43228010223D
:1039F0005D0617D504AFB918B85C4D7800022843AE
:103A000030808878CD780002284370800D7948791D
:103A10002D02291C0143B180218808200632014370
:103A2000D2B22180C02149000B4219D004A9885C80
:103A300089184D7800022843029D029F28808878CB
:103A4000CD780002284378800D7948792D02291C11
:103A50000143B9802188702006320143D2B221800F
:103A60009F0718D004A885186B78EC78D90709D57A
:103A70000C4B1B68002B05D00721A0062140400FEE
:103A8000013198476B781A0705D5064B5B68002B08
:103A900001D0A0099847002001E0012040420DB06C
:103AA000F0BDC046F4000020014B186000207047B4
:103AB000F4000020014B586000207047F400002003
:103AC00002B4714649084900095C49008E4402BCB1
:103AD0007047C046002934D00123002210B4884228
:103AE0002CD301242407A14204D2814202D209012D
:103AF0001B01F8E7E400A14204D2814202D249004E
:103B00005B00F8E7884201D3401A1A434C08A042F0
:103B100002D3001B5C0822438C08A04202D3001B86
:103B20009C082243CC08A04202D3001BDC0822439D
:103B3000002803D01B0901D00909E3E7101C10BCC1
:103B40007047002801D00020C04307B4024802A1FA
:103B50004018029003BDC046D90000000029F0D0F3
:103B600003B5FFF7B9FF0EBC4243891A1847C04698
:103B7000002941D010B4041C4C40A446012300226B
:103B8000002900D54942002800D5404288422CD364
:103B900001242407A14204D2814202D209011B015F
:103BA000F8E7E400A14204D2814202D249005B005E
:103BB000F8E7884201D3401A1A434C08A04202D3C6
:103BC000001B5C0822438C08A04202D3001B9C0807
:103BD0002243CC08A04202D3001BDC082243002869
:103BE00003D01B0901D00909E3E7101C6446002C2F
:103BF00000D5404210BC7047002806D003DB0020EF
:103C0000C043400801E08020000607B4024802A13A
:103C10004018029003BDC046190000000029EBD0F7
:103C200003B5FFF7A7FF0EBC4243891A1847C046E9
:103C30007047C0468446081C6146FFE71FB500F088
:103C4000F5F9002801D40021C8421FBD10B500F0CD
:103C50007DF94042013010BD10B500F0E7F90028B1
:103C600001DB002010BD012010BDC04610B500F0E2
:103C7000DDF9002801DD002010BD012010BDC04687
:103C800010B500F08BF9002801DC002010BD0120E8
:103C900010BDC04610B500F081F9002801DA0020FF
:103CA00010BD012010BDC0469E2110B5C905041CE1
:103CB000FFF7F0FF002803D1201C00F009FD10BD24
:103CC0009E22201CD10500F029FB00F001FD80237D
:103CD0001C060019F3E7C046F0B55F4656464D4650
:103CE0004446F0B44502440083B00E1C6D0A240E15
:103CF000C70F002C07D1002D00D091E00421012234
:103D00008846924609E0FF2C55D0802318040021F4
:103D10000543ED007F3C88468A46331C58007602F6
:103D2000D90F760A000E8B464CD101229446002E04
:103D300000D081E05B467B406246414601930A43E6
:103D40000F2A50D9201A690181467501A94200D372
:103D5000B3E00122534299441B2400260127621E2E
:103D6000381C10404B007600002900DAA9E09D4283
:103D700000D8A6E0013C002C00DCABE000280CD011
:103D8000191C76005B00002901DB9D4201D85B1BFA
:103D90003E43013C002C00DC9CE059007200002BEB
:103DA00001DB8D4201D8491B3A43013C4B005600D0
:103DB0000029EADAEBE7002D2DD108200221804608
:103DC0008A46AAE7FF2820D08022130400211E4340
:103DD0008C465B467B4062464146F6007F38019345
:103DE0000A430F2AAED8564992008A589746019B3B
:103DF000FF260025F0052843DE07304303B03CBC16
:103E000090469946A246AB46F0BD331C5A1E9341DC
:103E100002339C468EE70C22032390469A467CE7A9
:103E2000281C00F0C9FC7622441F5342A5401C1AEE
:103E300000208046824670E7301C00F0BDFC7623EF
:103E4000411F8E405A420021101A8C4672E700230F
:103E50003C4DFF26CEE75F46351C01976346022B9B
:103E6000C5D0032B63D0012B43D049467F310029B5
:103E700035DD0F272F40042F00D004352B0103D54B
:103E8000314A494615408031FE29B0DCA801450A77
:103E9000CEB2019BAEE700260025ABE78020C10330
:103EA0000D4211D00E420FD10E4373025D0AFF2660
:103EB0005B469FE701975346D1E7491B1A24012629
:103EC0004CE75B1B3E4355E70D436A02550A3B1C1A
:103ED000FF268FE71D1C6B1E9D413543C5E77E24E1
:103EE00067424A46B91A1B2908DD019B00260025B6
:103EF00080E7019D00262B4000257BE74E469E363D
:103F0000281CB5402B1C5D1EAB41C84003430F2548
:103F10001D40042D00D004335A0103D5019B012616
:103F2000002567E79C01650A019B002662E7802760
:103F3000FC0325436E02750A019BFF265AE7C04623
:103F400084600000FFFF7F00FFFFFFF74302420095
:103F500070B55C0AC60F130E48024A00450A120EDD
:103F6000C90FFF2B05D0FF2A08D0012093420BD0A8
:103F700070BD0120002CFBD1FF2AF6D10120002DBD
:103F8000F6D101209342F3D1AC42F1D18E4203D05D
:103F9000002BEDD1002CEBD10020E9E7F0B5430276
:103FA00042004F00C60F48025C0A450A130EC90FB3
:103FB0003A0EFF2B26D0FF2A29D0002B0CD16042CD
:103FC00060418446002A0AD0002816D18E4221D0B2
:103FD000002E14D1012014E0002AF7D194466F423C
:103FE0006F416046002805D1002FEFD00120002E40
:103FF00007D004E00020002F03D10029EAD10121DD
:104000004842F0BD002CD6D002225042F9E7002DE4
:10401000D3D0F9E79342DBDC04DBAC42D8D80020F4
:10402000AC42EED2002EEAD00120EAE7F0B543021E
:1040300042004F00C60F48025C0A450A130EC90F22
:104040003A0EFF2B26D0FF2A28D0002B0FD0002AB3
:1040500014D194466F426F416046002814D000206E
:10406000002F03D100290DD101214842F0BD60424B
:1040700060418446002AEDD00028F3D18E4211D051
:10408000002EF1D10120F1E7002FF7D00120002E02
:10409000ECD0E9E70220002CE8D1D4E70220002D83
:1040A000E4D1D2E79342EBDC04DBAC42E8D8002059
:1040B000AC42DBD2002ED7D00120D7E7F0B55F4667
:1040C00056464D464446F0B44502460083B00F1CA8
:1040D0006D0A360EC40F002E06D1002D70D10421BA
:1040E00001228846924609E0FF2E43D0802318041F
:1040F00000210543ED007F3E88468A46381C430078
:104100007F02C10F7F0A1B0E8B463AD10121002F7F
:1041100062D158466040424601900A430F2A3FD977
:104120002C04F018260C3B041A0C311C51433F0C94
:104130002D0C7E436A438146080C36182C1CB3189C
:104140007C439A4200D99AE009041D04080C2E18F9
:10415000B5011B0C691E8D41B20EE7181543BC0159
:1041600025432B014BD50120284001216D088944AE
:10417000054344E0002D1ED10820022180468A46D6
:10418000BCE7FF2B12D080221004074358460021C1
:1041900060404246FF007F3B01900A430F2ABFD890
:1041A00090005B4A8446624410688746391C4A1E68
:1041B00091410231ADE70C22032390469A469DE7D8
:1041C000281C00F0F9FA7622461F5342B5401E1A09
:1041D00000208046824691E7381C00F0EDFA7621F7
:1041E000431F4A429F400021131A92E7019451460F
:1041F00002292CD0032900D180E0012948D04E4665
:104200007F36002E51DD0F242C40042C00D00435C5
:104210002A0103D53F494E460D408036FE2E3DDD36
:10422000019B01241C40FF210025C805E20728430B
:10423000104303B03CBC90469946A246AB46F0BD45
:104240000024354DFF21F0E751460229D2D1019DCE
:1042500001242C40FF210025E7E75E463D1C019626
:10426000C6E73D1CC4E78026F3031D420BD01F4266
:1042700009D11F437A02550A5C46FF21D5E7802207
:104280005702E41960E71D436F027D0AFF21CCE766
:10429000019B00251940CCB20021C6E70198AD0171
:1042A00001246D0AF1B20440BFE77E2673424A46FC
:1042B0009F1A1B2F05DD019D01242C4000210025A4
:1042C000B3E749469E312C1C8D402E1CFC40751EC8
:1042D000AE4126430F203040042800D00436700140
:1042E00005D5019F01243C40012100259DE7019A4D
:1042F000B30101245D0A1440002196E78022D00317
:1043000005436C020199650A01240C40FF218CE7EA
:10431000C4600000FFFFFFF7FFFF7F00F8B5430216
:1043200045004F024C00C20F980984462D0E200E06
:10433000C90FBF09FF2854D0012671408A423BD0E3
:104340002C1A002C00DC89E0002825D1002F4BD14D
:104350006E1C2C1C6346151C0F221A40042A00D028
:1043600004338027F904012219402A40002906D08D
:10437000FF2E00D181E0B14D341C2B400136F6B246
:10438000DD08012E62DD6B025D0AE4B2E40525431F
:10439000281CD2071043F8BDFF2D51D08021CB043B
:1043A0001F4301261B2C70DD67462C1CBB1B151CF4
:1043B000580122D4661CCFE72E1A002E76DD002885
:1043C00032D0FF2D3CD08024E1040F4301231B2E6B
:1043D00000DCD1E063442C1C58017AD4661C151C07
:1043E000BAE7002FAAD1A7E7013C002C6DD16346A4
:1043F0002C1CDB1B151C5801DCD59A019609301CBE
:1044000000F0DAF905388640844239DC001B1F23AE
:104410001A1A331C311C441C9340E1405E1EB34108
:104420000B430126002497E7002F00D190E7013EBF
:10443000002E03D164463B192C1CCDE7FF2DC5D1BE
:10444000151C802263465600FF2485E7002D9CD072
:10445000002C28D08020C7033D4394E7002C45D191
:104460006B1CD8B2012800DC90E06446E61B7301A7
:1044700057D53E1B2C1C0D1CC1E7FF24002585E7EA
:104480006E4B241A3340661C66E7381C2021E0403E
:104490000C1BA7403E1C771EBE41064367462C1CE2
:1044A000BB1B151C84E769024D0A6FE7002E79D10A
:1044B0006C1CE0B201284BDDFF2C00D198E0614676
:1044C0007F18AE1C7B08151C46E7FF2D00D068E75F
:1044D000B6E7671CFF2F36D058480121194003402A
:1044E0005B08A61C0B433C1C151C35E76642002DDF
:1044F0001ED0FF286FD080256246EB041A439446F5
:1045000001251B2E09DC62462023F24064469E1BD7
:10451000B440251C6C1EA54115437B1B041C0D1CBF
:1045200069E7002E0CD1002201260423002426E78F
:104530006446002C55D1461C3B1C041C0D1C0BE78B
:104540002C1C151C5BE780235E00FF24042316E768
:10455000002D00D08DE06546002D00D1ADE0002F8C
:1045600000D181E07B195C0100D47EE0334F151C43
:104570003B4002260124EFE6381C2023F0409E1B1E
:10458000B7403B1C5F1EBB41034323E7002D15D101
:104590006546002D47D1002FC5D03B1C0D1C0126C0
:1045A0000024D9E67642002D26D16546002D00D0A4
:1045B0007DE0461C3B1C041C151CCDE66546002D09
:1045C00040D1002F07D1802100224E001C4BFF2438
:1045D000D5E6FF2894D180203B1C0D1C4600FF240B
:1045E000BAE6013E002EF4D13B1B0D1C041C02E771
:1045F00080256E000423C2E6FF2852D08024614645
:10460000E30419438C4601231B2E09DC2021644658
:10461000F44065468E1BB5402B1C591E8B4123432D
:10462000DB19041CD8E6002F1ED0EB1B58014BD51C
:104630007B1B01260D1C00248EE6C046FFFFFFFBFE
:10464000FCFFFF03002F00D1FAE68020EB08C40333
:10465000234237D0FF08274234D13B1C0D1C802257
:10466000DB005600FF2477E66346151C0126002474
:1046700072E66446002C14D0002F00D1E0E68023BF
:10468000E608D803311C064203D0F908014200D0E5
:10469000311C151C8022CB005600FF245CE6FF284D
:1046A000B1D180203B1C151C4600FF2454E6013E7E
:1046B000002EF4D17B19041C8EE63B1C151C012630
:1046C000002449E6151CCAE7002B00D12BE7CCE7F4
:1046D00043024200590A00B5130EC20F00207E2B80
:1046E0000DDD9D2B0CDC802000040143952B0ADCA2
:1046F0009620C31AD9404842002A00D1081C00BDA8
:1047000002495018FBE7963B9940F4E7FFFFFF7F13
:1047100010B5041E34D000F04FF89E231B1A962BC0
:1047200007DC083884406402610ADBB2D80508431C
:1047300010BD992B0ADD021C1B32211C91400A1C62
:10474000511E8A410521091ACC40144305281ADC60
:10475000184A0F2122400C40042C00D00432510191
:1047600005D59F24231AFF2B21D012480240591C43
:10477000CCB2D208012C09DD5002410ADBB2D5E7E8
:1047800000230021D2E7421F9440E1E7002A0BD02A
:10479000002B06D08021CC0322435202510ADBB207
:1047A000C4E75002410AC1E7DBB20021BEE7FF23A4
:1047B0000021BBE7FFFFFFFB1C2101231B049842E4
:1047C00001D3000C10391B0A984201D3000A0839A2
:1047D0001B09984201D30009043902A2105C401859
:1047E0007047C046040302020101010100000000FD
:1047F0000000000010B5044C002C02D000E000BF07
:1048000000E0201C10BDC04600000000094B10B5A0
:10481000041C002B03D0002100E000BF01E000F0E9
:104820000DF805480068816A002900D08847201CDF
:1048300000F066FC000000000861000038B5084B7D
:10484000084C1D1CE01A8410002C06D0A1006A1828
:10485000043A13689847013CF6E700F059FC38BD6C
:10486000C0000020C400002070B50E4B0E4D002487
:10487000E81A85101E1CAC4204D0A1007258904763
:104880000134F8E700F03EFC0849094A0E1C541AAE
:10489000A5100024AC4204D0A300F0588047013496
:1048A000F8E770BDBC000020BC000020BC00002068
:1048B000C000002030B50023934208D0C55C01330E
:1048C000CC18013C2478A542F6D0281B00E000203B
:1048D00030BD10B50023934203D0CC5CC4540133E7
:1048E000F9E710BD00B58218031C934202D019707D
:1048F0000133FAE700BD00000EB400B59CB01DAB5B
:1049000002A904CB822202900861920009488A81A0
:104910000122886048615042074AC88110681D9A88
:10492000019300F063F8029900230B701CB008BCDF
:1049300003B01847FFFFFF7FB8000020F7B50191D3
:104940009168071C141C002940D190239289D8003B
:1049500002423BD02568216963696E1A58000096AF
:10496000C6180098F50FAB1901305D10A84201DBA5
:10497000009D0235381C53050FD5291C00F004FB9F
:10498000061E13D02169009AFFF7A3FFA7891649D5
:10499000802239401143A18111E02A1C00F04AFB1A
:1049A000061E0CD1381C216900F0A6FA0C203860D4
:1049B000A58940263543A5810124604213E0009B70
:1049C0006561F018ED1A26612060A560A668002ECA
:1049D00008DD694627680A793A70A3680137013B08
:1049E0002760A3600020FEBD7FFBFFFFF0B5A1B0F4
:1049F000049007938B890E1C171C19060FD532697A
:104A0000002A0CD1402100F0BFFA3060306100284C
:104A100003D1049C0C262660D6E04020706108ADCE
:104A200000212024302369616C76AB763C1C22780F
:104A3000002A04D1E01B069019D003970FE0252A25
:104A4000F8D00134F3E70399321C09780498FFF792
:104A500075FF039A01320392013000D1AFE0039950
:104A60000698CB1B8342EEDB0D9F3A180D922178FE
:104A7000002900D1A3E001206A46002347426332A7
:104A800001342B60EB606F60AB601370AB65504F0F
:104A90002178381C052200F0C1FA002807D0C71B76
:104AA0002B680120B840184328600134EFE72B68D9
:104AB000D90603D568462021633001701A0703D553
:104AC0006A462B276332177021782A2901D00B9B65
:104AD0000EE0079A1068111D0791002801DB0B906A
:104AE00004E0022247421343EF602B60013409E0E7
:104AF00020783038092804D80A277B4301341B1852
:104B0000F6E70B9323782E2B18D161782A2909D147
:104B1000079B02341A68191D0791002A0DDA01203B
:104B200042420AE00134002220783038092804D8B3
:104B30000A277A4301341218F6E70992254F2178A3
:104B4000381C032200F06AFA002806D02B68C21B2A
:104B50004021914019432960013421781E480622E2
:104B60002976671C00F05AFA002817D01B48002845
:104B70000BD12868079C0723C10501D5E41800E084
:104B800007349C430834079414E007AA0092049861
:104B9000291C321C124B00E000BF07E007AC009458
:104BA0000498291C321C0E4B00F08CF805900599D6
:104BB0004A1C04D00D99059A8C180D9436E7B589D6
:104BC000690601D40D9801E00127784221B0F0BDBB
:104BD0000C6100001261000016610000000000007E
:104BE0003D490000F7B5151C01930A698B680090D8
:104BF0000C1C934200DA131C201C2B6043300178FC
:104C0000002901D001332B602668B00602D52F6839
:104C100002372F602268062616401CD0261C433619
:104C2000377822683E1C731E9E4192061CD5A3193C
:104C3000181C40303021271CC17045373A78413369
:104C4000DA70023610E0617E0098019A089FB8473A
:104C5000013006D00136E3682868191A8E42F2DB6B
:104C6000DCE7012040422CE00027B7420ADAE119D4
:104C7000433109780098019A089B98470130F0D099
:104C80000137F2E72B68256806212940E6680025F0
:104C9000042903D1F01AC743FD170540A26826690D
:104CA000B24201DD931BED180027AF4208DAA17E66
:104CB0000098019A089EB0470130D2D00137F4E73E
:104CC0000020FEBDF0B50D1C8BB043350793059059
:104CD000069204950A7E0C1C109B6E2A00D1A8E057
:104CE00012D8632A24D009D8002A00D1B1E0582A6A
:104CF00000D0C1E045310A707D4D51E0642A1FD0DB
:104D0000692A00D0B8E01BE0732A00D1A5E009D8D9
:104D10006F2A2BD0702A00D0AEE00A6820261643F6
:104D20000E6038E0752A21D0782A00D0A4E032E065
:104D300018680E1C051D1D600368423633709EE026
:104D400026681F68300606D4750604D5381D18601D
:104D500000203D5E02E03D1D1D603D68644B002D5E
:104D60003BDA04992D226D420A7036E027681E68EE
:104D70003D0605D4780603D5351D1D60358802E053
:104D8000311D196035685A4B207E039308276F2820
:104D90001ED00A271CE0271C45377820554D387057
:104DA0001A682668111D03951960300603D475062C
:104DB00001D5158800E01568F00702D520231E43B1
:104DC00026601027002D03D1266820208643266008
:104DD000261C43360022327001E003930A276168E3
:104DE000A160002903DB2068042398432060002D84
:104DF00002D1049E00290ED0049E281C391CFEF707
:104E0000ADFE039A013E515C281C3170391CFEF73F
:104E100061FE051EF1D1049B9A1B2261082F33D13C
:104E20002768F80730D5606890422DDC0132626057
:104E30002AE008681E684969050606D4450604D5B7
:104E4000351D1D603368198003E0321D1A60376814
:104E5000396000202061049E16E01E68311D196033
:104E60003668301C00F01EF965682061A84200D940
:104E700025612369636004E0261C423632700121FB
:104E80002161049F00223A7007990598009109AAB0
:104E9000211C069BFFF7A6FE01300CD0351C2269B1
:104EA000AB1B93420ADA29780598069A079FB84700
:104EB00001350130F3D10122504217E02668B107D5
:104EC00005D4099BE068984210DA181C0EE0002512
:104ED000E7680998391A8D42F3DA617E0598069AD7
:104EE000079EB0470130E6D00135F1E70BB0F0BDC9
:104EF0001D6100002E61000030B5002940D004394A
:104F00000B68002B00DAC9181E4A1368141C002B0A
:104F100002D14B60116033E099420FD20D684A19FB
:104F20009A4205D110682B1855680B604D6000E05F
:104F30004B60216024E08A4203D8131C5A68002A7F
:104F4000F9D11D685C198C420BD10C682D195819C8
:104F50001D60904214D1116852686C181C605A6030
:104F60000EE08C4202D90C21016009E008680D189E
:104F7000954203D114685268001908604A6059606C
:104F800030BDC0460401002070B50323CD1C9D43F5
:104F90000835061C0C2D01D20C2501E0002D2DDB5F
:104FA0008D422BD31C4A1368111C1C1C002C12D0E0
:104FB0002068421B0CD40B2A02D92260A41815E0E9
:104FC000A34202D166680E601CE065685D6019E06E
:104FD000231C6468EAE7301C291C00F051F8421CCD
:104FE0000CD0C41C03218C43844201D1256009E00C
:104FF000211A301C00F044F80130F7D10C24346041
:10500000002008E0201C0B300722211D9043431A8A
:1050100001D05D42E55070BD0401002000B5C9B269
:105020008218904204D003788B4202D00130F8E716
:10503000002000BDF8B5061C0C1C151C002904D16D
:10504000111CFFF7A1FF041C18E0002A03D1FFF791
:1050500053FF2C1C12E000F02CF8A8420ED2301C9A
:10506000291CFFF791FF071E07D0211C2A1CFFF700
:1050700030FC301C211CFFF73FFF3C1C201CF8BDFE
:1050800038B5074C0023051C081C236000F01CF8F1
:10509000431C03D12168002900D0296038BDC046D7
:1050A000F40100200023C25C0133002AFBD1581E0A
:1050B000704704390B6800B5181F002B02DAC85876
:1050C0001918081F00BD00000A4A00B51368002B1C
:1050D0000CD018186946884202D81060181C00BD10
:1050E000054B0C2201201A604342F7E7034B136083
:1050F000EFE7C04608010020F4010020F80100207D
:1051000000B5FEE7F8B5C046F8BC08BC9E4670473F
:10511000F8B5C046F8BC08BC9E4670470A444554E2
:10512000454354494E4720434F4E4E454354454412
:105130002053454E534F52530A00090953693730E3
:1051400031332064657465637465640A002D2D2D08
:105150000909536937303133204E4F5420444554A8
:10516000454354454409092D2D2D0A000909536969
:10517000313134322064657465637465640A002DCE
:105180002D2D0909536931313432204E4F542044BA
:105190004554454354454409092D2D2D0A0009095C
:1051A000424D503138302064657465637465640A1B
:1051B000002D2D2D0909424D50313830204E4F54CD
:1051C00020444554454354454409092D2D2D0A00DA
:1051D0000909484D43353838334C2064657465639C
:1051E0007465640A002D2D2D0909484D4335383862
:1051F000334C204E4F5420444554454354454409B4
:10520000092D2D2D0A0009094D5055363035302015
:1052100064657465637465640A002D2D2D09094D5C
:10522000505536303530204E4F5420444554454378
:1052300054454409092D2D2D0A000A494E49544967
:10524000414C495A4154494F4E3A20002053493766
:1052500030313300205349313134320020424D5037
:105260003138300020484D43353838334C00204D1C
:10527000505536303530000A50726573733A256CDC
:1052800064200048756D3A256C642054656D703A51
:10529000256C642000414C533A2564200054656D10
:1052A000703A25642000436F6D706173733A205823
:1052B0005B25645D20595B25645D205A5B25645D38
:1052C0000A004163633A20585B25645D20595B25E1
:1052D000645D205A5B25645D00094779726F3A204E
:1052E000585B25645D20595B25645D205A5B25640D
:1052F0005D0A0009095065646F6D6574657220630D
:105300006F756E743A20256C640009095065646FEE
:105310006D657465722074696D653A20256C640052
:105320004572726F72206D6561737572696E672068
:1053300074656D706572617475726520616E64204C
:1053400068756D69646974790A000A53544152544E
:1053500055500A0008091108010001000101000070
:105360000000000034FD0500000000004465746585
:105370006374656420493243206465766963653AE5
:1053800020256420253032780A000A0A095041435A
:105390004B45545F545950455F414E44524F494428
:1053A0005F4F5249454E542025640A0A000A0A09F3
:1053B0005041434B45545F545950455F5441502030
:1053C0006469723A256420636F756E743A25640AC5
:1053D0000A00534931313478204572726F723D258D
:1053E000640A000A4552524F523A204932435F67DD
:1053F00065745F74696D656F75740A0083000000E1
:1054000000080000000100183200050000002041E3
:105410000000D242295C0F3E9A99993E3333733F84
:10542000295C0F3E6900000476005401F7FD00017D
:1054300075191A0C6A231B1C00001F207274433B51
:105440004138393A006B6C376F06246D6E70B8AA1C
:10545000B38DB4980D355D4CCD6C0CC92C36567699
:10546000264666FEF2ABC4AAF1DFDFBBAFDFDFB8D2
:10547000AAAAAAB088C3C5C7D8B1B9F38BA391B6FD
:1054800009B4D9DAB1B9F38BA391B6DAB4DA000072
:10549000700000000024000000020003000000650E
:1054A0000054FFEF0000FA80000B12820001030C91
:1054B00030C30E8C8CE914D5400213710F8E3883E3
:1054C000F8833000F883258EF8833000F883FFFFDF
:1054D000FFFF0FFEA9D6240004001A8279A1000064
:1054E000003CFFFF00000010000038836FA2003E68
:1054F00003304000000002CAE3093E8000002000A3
:105500000000000000004000000060000000000CEF
:105510000000000C186E000006920A16C0DFFFFFA4
:105520000256FD8CD377FFE1C496E0C5BEAA000009
:105530000000FFFF0B2B000016570000035940002E
:10554000000000001DFA00026C1D000000003FFF7B
:10555000DFEB003EB3B6000D227800002F3C0000C8
:105560000000001942B5000039A20000B365D90E51
:105570009FC91DCF4C3430000000500000003BB6E6
:105580007AE80064000000C800000000000010007D
:1055900000001000FA921000225E000D229F000110
:1055A000000000320000FF46000063D4000010003D
:1055B000000004D6000004CC000004CC0000000071
:1055C0001072000000400000000000000000000613
:1055D0000002000500070000000000640000000059
:1055E000000000000005000500640020000000002D
:1055F0000000000000000000400000000300000068
:105600000032F8980000FF650000830F0000FF9B48
:10561000FC0000000000000000000000000000008E
:10562000000000000000000000000000000000007A
:10563000000000000000000000000000100040001A
:105640000000000000060000B26A00020000000135
:10565000FB830068000000D9FC007CF1FF830000A0
:10566000000000650000006403E8006400280000FA
:1056700000250000000016A000000000100000003F
:105680001000002F0000000001F4000010000028AE
:105690000000FFFF4581FFFFFA72000000000000DC
:1056A0000000004400050005BAC6004778A20000CB
:1056B00000010000000000000600000000140000CF
:1056C000254D002F706D000005AE000C02D00000CB
:1056D0000000000000000000000000000000001BAF
:1056E0000000000000000000000000000000006456
:1056F00000000008000000000000000000000000A2
:105700000000000000000000000000000000000099
:105710000000000000000000000000000000000089
:105720000000000000000000000000000000000079
:105730000000000000000000000000000000000069
:105740000000000000000000000000000000001B3E
:1057500000000000000000000000000E000E00002D
:105760000AC70004000000000032FFFFFF9C000099
:105770000B2B000000020000000100000064FFE5A8
:105780000000000000000000000000000000000019
:105790000001000000000001000000000000000106
:1057A00080000001800000018000002426D300005A
:1057B000000000000000000600100096003C000001
:1057C00000000000000000000000000000000C0AC3
:1057D0004E68CDCF770950166759C619CE820000A2
:1057E00000000000000000000000000000000000B9
:1057F00000000000000017D7840003000000000034
:10580000000000000000C7938F9D1E1B1C190000A4
:105810000000000000000000000000000000000088
:105820000000000000000203188500004000000096
:105830000003000000030000000000000000400022
:105840000000000000000000000000000000000058
:105850000000000000000000000000000000000048
:105860000000000000000000000000000000000038
:105870000000677DDF7E72902E554CF6E6880000B2
:105880000000000000000000000000000000D8DC64
:10589000B4B8B0D8B9ABF3F8FAB3B7BB8E9EAEF1DB
:1058A00032F51BF1B4B8B08097F1A9DFDFDFAADFD2
:1058B000DFDFF2AAC5CDC7A90CC92C97F1A98926AB
:1058C0004666B28999A92D557DB0B08AA8963656FC
:1058D00076F1BAA3B4B280C0B8A89711B28398BACF
:1058E000A3F0240844106418B2B9B49883F1A32932
:1058F000557DBAB5B1A38393F0002850F5B2B6AA8E
:10590000839328547CF1B9A3829361BAA2DADEDFD3
:10591000DB819AB9AEF5606870F1DABAA2DFD9BA64
:10592000A2FAB9A38292DB31BAA2D9BAA2F8DF8572
:10593000A4D0C1BBAD83C2C5C7B8A2DFDFDFBAA0A8
:10594000DFDFDFD8D8F1B8AAB38DB4980D355DB2DA
:10595000B6BAAF8C96198F9FA70E161EB49AB8AA26
:10596000872C547CBAA4B08AB691325676B284940D
:10597000A4C808CDD8B8B4B0F19982A82D557D98A7
:10598000A80E161EA22C547C92A4F02C5078F18400
:10599000A898C4CDFCD80DDBA8FC2DF3D9BAA6F885
:1059A000DABAA6DED8BAB2B68696A6D0F3C841DA7D
:1059B000A6C8F8D8B0B4B882A892F52C548898F14B
:1059C00035D9F418D8F1A2D0F8F9A884D9C7DFF8EE
:1059D000F883C5DADF69DF83C1D8F40114F1A88246
:1059E0004EA884F311D182F5D992289788F109F451
:1059F0001C1CD884A8F3C0F9D1D99782F129F40DE1
:105A0000D8F3F9F9D1D982F4C203D8DEDF1AD8F17C
:105A1000A2FAF9A88498D9C7DFF8F8F883C7DADFC3
:105A200069DFF883C3D8F40114F198A8822EA88402
:105A3000F311D182F5D992509788F109F41CD884DA
:105A4000A8F3C0F8F9D1D99782F149F40DD8F3F948
:105A5000F9D1D982F4C403D8DEDFD8F1AD8898CC6F
:105A6000A809F9D98292A8F57CF1883ACF944A6EB8
:105A700098DB6931DAADF2DEF9D88795A8F221D149
:105A8000DAA5F9F417D9F1AE8ED0C0C3AE82C684C0
:105A9000C3A88595C8A588F2C0F1F4010EF18E9EC9
:105AA000A8C63E56F554F18872F40115F198458563
:105AB0006EF58E9E0488F142985A8E9E068869F48F
:105AC000011CF1981E1108D0F504F11E97020298EE
:105AD0003625DBF9D985A5F3C1DA85A5F3DFD885AD
:105AE00095A8F309DAA5FAD88292A8F578F1881A70
:105AF000849F26889821DAF41DF3D8879F39D1AF87
:105B0000D9DFDFFBF9F40CF3D8FAD0F8DAF9F9D0E1
:105B1000DFD9F9D8F40BD8F3879F39D1AFD9DFDFBC
:105B2000F41DF3D8FAFCA869F9F9AFD0DADEFAD996
:105B3000F88F9FA8F1CCF398DB45D9AFDFD0F8D828
:105B4000F18F9FA8CAF38809DAAF8FCBF8D8F2ADEE
:105B5000978D0CD9A5DFF9BAA6F3FAF412F2D8950D
:105B60000DD1D9BAA6F3FADAA5F2C1BAA6F3DFD8F5
:105B7000F1BAB2B68696A6D0CAF349DAA6CBF8D85F
:105B8000B0B4B8D8AD84F2C0DFF18FCBC3A8B2B641
:105B90008696C8C1CBC3F3B0B48898A821DB718DB9
:105BA0009D71859521D9ADF2FAD88597A828D9F4A9
:105BB00008D8F28D29DAF405D9F285A4C2F2D8A862
:105BC0008D9401D1D9F411F2D88721D8F40AD8F2F2
:105BD0008498A8C801D1D9F411D8F3A4C8BBAFD018
:105BE000F2DEF8F8F8F8F8F8F8F8D8F1B8F6B5B940
:105BF000B08A95A3DE3CA3D9F8D85CA3D9F8D87CA9
:105C0000A3D9F8D8F8F9D1A5D9DFDAFAD8B1853017
:105C1000F7D9DED8F830ADDADED8F2B48C99A32DFE
:105C2000557DA083DFDFDFB591A0F629D9FBD8A091
:105C3000FC29D9FAD8A0D051D9F8D8FC51D9F9D833
:105C400079D9FBD8A0D0FC79D9FAD8A1F9F9F9F91A
:105C5000F9A0DADFDFDFD8A1F8F8F8F8F8ACDEF861
:105C6000ADDE8393AC2C547CF1A8DFDFDFF69D2CF6
:105C7000DAA0DFD9FADB2DF8D8A850DAA0D0DED927
:105C8000D0F8F8F8DB55F8D8A878DAA0D0DFD9D06A
:105C9000FAF8F8F8F8DB7DF8D89CA88CF530DB38FA
:105CA000D9D0DEDFA0D0DEDFD8A848DB58D9DFD0DE
:105CB000DEA0DFD0DED8A868DB70D9DFDFA0DFDFB1
:105CC000D8F1A888902C547C98A8D05C38D1DAF20E
:105CD000AE8CDFF9D8B087A8C1C1B188A8C6F9F9E0
:105CE000DA36D8A8F9DA36D8A8F9DA36D8A8F9DA3F
:105CF00036D8A8F9DA36D8F78D9DADF818DAF2AEB5
:105D0000DFD8F7ADFA30D9A4DEF9D8F2AEDEFAF971
:105D100083A7D9C3C5C7F1889BA77AADF7DEDFA4F7
:105D2000F8849408A797F300AEF29819A488C6A344
:105D30009488F632DFF28393DB09D9F2AADFD8D850
:105D4000AEF8F9D1DAF3A4DEA7F1889B7AD8F38410
:105D500094AE19F9DAAAF1DFD8A881C0C3C5C7A3E8
:105D60009283F628ADDED9F8D8A350ADD9F8D8A3E0
:105D700078ADD9F8D8F8F9D1A1DADEC3C5C7D8A172
:105D80008194F818F2B089ACC3C5C7F1D8B8B4B0E3
:105D90009786A8319B069907AB9728889BF00C2023
:105DA0001440B0B4B8F0A88A9A285078B79BA829B4
:105DB0005179247059446938644831F1BBAB88008B
:105DC0002C547CF0B38BB8A804285078F1B088B478
:105DD0009726A85998BBABB38B02264666B0B8F09D
:105DE0008A9CA82951798B2951798A2470598B2052
:105DF00058718A4469388B3940688A6448318B30DD
:105E0000496088F1AC002C547CF08CA804285078B0
:105E1000F1889726A85998AC8C02264666F0899C92
:105E2000A8295179247059446938644831A98809EE
:105E3000205970AB11384069A8193148608CA83CD2
:105E4000415C207C00F187981986A86E767EA9991E
:105E5000882D557DD8B1B5B9A3DFDFDFAED0DFAA7D
:105E6000D0DEF2ABF8F9D9B087C4AAF1DFDFBBAF5F
:105E7000DFDFB9D8B1F1A3978E60DFB084F2C8F844
:105E8000F9D9DED89385F14AB183A308B5839A087E
:105E900010B79F10D8F1B0BAAEB08AC2B2B68E9E1B
:105EA000F1FBD9F41DD8F9D90CF1D8F8F8AD61D9C6
:105EB000AEFBD8F40CF1D8F8F8AD19D9AEFBDFD8A9
:105EC000F416F1D8F8AD8D61D9F4F4ACF59C9C8D45
:105ED000DF2BBAB6AEFAF8F40BD8F1AED0F8AD516C
:105EE000DAAEFAF8F1D8B9B1B6A3839C08B9B18398
:105EF0009AB5AAC0FD3083B79F10B58B93F202020A
:105F0000D1ABDADED8F1B080BAABC0C3B284C1C3C2
:105F1000D8B1B9F38BA391B609B4D9ABDEB0879CE5
:105F2000B9A3DDF1B38B8B8B8B8BB087A3A3A3A31A
:105F3000B28BB69BF2A3A3A3A3A3A3A3A3A3A3F192
:105F4000B087B59AA3F39BA3A3DCBAACDFB9A3A334
:105F5000A3A3A3A3A3A3A3A3A3A3A3A3A3A3D8D8A7
:105F6000D8BBB3B7F1AAF9DAFFD9809AAA28B480CE
:105F700098A720B79787A86688F07951F1902C8769
:105F80000CA781976293F071716085940129517912
:105F900090A5F1284C6C870C95188578A3839028E0
:105FA0004C6C886CD8F3A28200F210A8921980A2DF
:105FB000F2D926D8F188A84DD948D896A83980D9E1
:105FC0003CD89580A839A68698D92CDA87A72CD8F2
:105FD000A8899519A980D938D8A88939A980DA3C27
:105FE000D8A82EA83990D90CD8A8953198D90CD812
:105FF000A809D9FFD801DAFFD89539A9DA26FFD840
:1060000090A80D8999A810809821DA2ED88999A88E
:106010003180DA2ED8A886963180DA2ED8A887313A
:1060200080DA2ED8A88292F34180F1D92ED8A882A6
:10603000F31980F1D92ED882ACF3C0A28022F1A648
:106040002EA72EA92298A829DAACDEFFD8A2F22A20
:10605000F1A92E8292A8F23180A696F1D900AC8CDB
:106060009C0C30ACDED0DEFFD88C9CACD010ACDE0B
:106070008092A2F24C82A8F1CAF235F19688A6D994
:1060800000D8F1FF443D0000EE3D0000963E0000C8
:10609000563E0000963E00004E3E0000963E000038
:1060A000563E0000EE3D0000EE3D00004E3E00007A
:1060B000563E0000B43E0000B43E0000B43E000076
:1060C0009C3E00002041000062420000624200004D
:1060D0005A4200004842000048420000404200008E
:1060E0005A4200004842000040420000484200007E
:1060F0005A420000EC410000EC410000EC4100007D
:10610000664200004300000054000020232D302B85
:106110002000686C4C0065666745464700303132A8
:1061200033343536373839414243444546003031FF
:10613000323334353637383961626364656600005E
:04614000000000005B
:086144001CA8FF7F0100000010
:10614C000080000000366E01451C32FC95C7BF81F3
:10615C006F60AF5C7A153100BDD480090403FF0079
:10616C000000FF0000000100305400002454000027
:10617C000000000000000000000000000000000013
:10618C000000000000000000000000000000000003
:10619C00FC530000000000000000000000000000A4
:1061AC0000000000000000000000000000000000E3
:1061BC00000000000461000000000000000000006E
:1061CC0000000000000000000000000000000000C3
:1061DC0000000000000000000000000000000000B3
:1061EC0000000000000000000000000000000000A3
:1061FC0000000000000000005400002029090000ED
:04620C000109000084
:0400000300001B01DD
:00000001FF
