:100800000010002085230000B7230000B92300005A
:10081000B5230000B5230000B5230000B523000078
:10082000B5230000B5230000B5230000BB23000062
:10083000B5230000B5230000BD230000BF23000046
:10084000C1230000C3230000C5230000C72300000C
:10085000C9230000050C0000CD230000CF230000B9
:10086000D1230000D3230000D5230000D7230000AC
:100870009D140000DB230000DD230000DF230000C7
:10088000E123000000000000000000000000000064
:100890000000000000000000000000000000000058
:1008A0000000000000000000000000000000000048
:1008B0000000000000000000000000000000000038
:1008C0000000000000000000000000000000000028
:1008D0000000000000000000000000000000000018
:1008E0000000000000000000000000000000000008
:1008F00000000000000000000000000000000000F8
:1009000010B5064C2378002B07D10548002802D0EB
:10091000044800E000BF0121217010BD78000020D4
:10092000000000005C36000008B5084B002B03D027
:100930000748084900E000BF07480168002903D0C4
:10094000064A002A00D0904708BDC04600000000BB
:100950005C3600007C0000207800002000000000D1
:10096000164B002B00D1144B9D46402292029A1A3E
:10097000924600218B460F461348144A121A01F082
:1009800000FF0F4B002B00D098470E4B002B00D0E0
:1009900098470020002104460D4600200C49002203
:1009A000002301F085FE01F0BDFE2046294600F03F
:1009B000EBFF01F089FEC046000008000010002097
:1009C000000000000000000078000020EC02002081
:1009D000F926000010B582B001220120012101F0AA
:1009E000CBF91448032101F01FF91348012101F04C
:1009F00011F801AC1148012101F00CF80322201C70
:100A00000F4901F0B5FE01232370A37000200023DD
:100A10000C49637001F096FC0B4B0222D969201C33
:100A20000A43DA61094B802252011A6001F098FCF6
:100A300002B010BD020006003004080000230400CC
:100A4000B82F0000FF3F00000000084000E100E078
:100A5000054B0221DA698A43DA618021034A4901A0
:100A60008023D1507047C0460000084000E100E0FC
:100A7000044B0222D9690A43DA61034B80225201F6
:100A80001A6070470000084000E100E0F0B585B052
:100A90001E4E1F4D301C012100F0BCFF00232B60B7
:100AA0001C4B6A4683CB83C21B681B481360012121
:100AB00000F0B0FF301C012100F0ACFF022001214A
:100AC0000A22012301F0EAF9022000210A2201236F
:100AD00001F0E4F9114B02229A65DA659A65DA654C
:100AE0009A65DA659A65DA659A65DA659A65DA650E
:100AF0009A65DA659A65DA659A65DA65084B281CA5
:100B0000AB63694601F028FA05B0F0BD00B20200FF
:100B100000A00040BC2F00001081020000600040D7
:100B20000304000030B585B01A4B6A46103313CB6E
:100B300013C21B680320136007210322012301F065
:100B4000ADF9032006210A22012301F0A7F9124B77
:100B50000222124C9A65124B201CA363694601F0D5
:100B6000FBF9104A002313700F4A13700F4A1370D9
:100B70000F4B1B78636122681623134323600D4BD0
:100B80002363626B134363630B4B20221A6005B02F
:100B900030BDC046BC2F00000060004000A00040F7
:100BA00003010000E0000020E1000020B800002068
:100BB000520100202400010000E100E0044B054A3E
:100BC0001A63596B0A435A63034B20221A60704719
:100BD00000A000402400010000E100E0054A2021BF
:100BE0008023D150044B054A596B0A405A63044A8A
:100BF0001A63704700E100E000A00040DBFFFEFF49
:100C000024000100F8B55F4656464D464446F0B410
:100C1000FFF71EFF664B996A0A1C884652072AD5C1
:100C2000DB691F2059080840CAB201210C1C84400E
:100C3000201C5209194200D072E092005D495E4EBC
:100C40008C58B1462043885032789A4200D173E0E4
:100C5000327801329A4200D179E0584A0023137069
:100C6000534AD269564A137056490B788A46504AFD
:100C70000421116307E00C1CA40645D4514E4E4AD2
:100C80003378B2469146002B22D04F494F4E086828
:100C9000802501308B4608604D4A454B0824B446F8
:100CA0004C4F6D0202E0013A002A6BD0996A0C4267
:100CB00009D066463178484E0139795C0918715C73
:100CC000013059621C63996A2942ECD05946086088
:100CD00080235B0242461A420AD0354A54461363C7
:100CE000374A00231370354A23701370364A136055
:100CF0004E463378002B01D0FFF7BAFE3CBC90463D
:100D00009946A246AB46F8BD2D4A1278002A0DD06E
:100D10002C490A788A46002A37D0274EB146B4E7D4
:100D20002E4992008C5804438C5087E7254B224E65
:100D30009A46B1461B78A6E7204A012313701C4A45
:100D4000D2691F4A13701F4A924613788FE71B4AD5
:100D500001231370164AD1691E490878632800D907
:100D600082E71948002404601848164C0078A2460F
:100D70000138095C1848415C5162114A23701370B4
:100D8000012374E75A461060A2E7104A1178092936
:100D90000BD81178D8690F4BC0B25854137801336F
:100DA000DBB21370044B994692E7034989468FE7FB
:100DB00000A00040D000002052010020E0000020F0
:100DC000940000209500002098000020B80000202A
:100DD000A086010048010020E4000020BC000020A3
:100DE00030B587B001AC21800421618069460A706A
:100DF00000AA0292012222812282211C049301F086
:100E00006BFA0E4D287001280BD10D4C01E0013C0E
:100E10000ED30C4801F0E2F828700128F7D0013415
:100E200006D0031C0120002B00D058B207B030BD03
:100E3000054800F0EDFD2B78F4E7C046CC0000201B
:100E4000B70B000000A00040DC2F000030B587B0D9
:100E500001AC21800121618069464B7002230A7038
:100E6000238100AA211C029201F036FA0C4D287051
:100E700001280BD10B4C01E0013C0FD30A4801F0D3
:100E8000ADF828700128F7D0002C02D040B207B08E
:100E900030BD064800F0BCFD2878F7E70120F5E7F3
:100EA000CC000020B70B000000A00040F82F00008D
:100EB00010B588B0042203AB19805A80694600221D
:100EC0000A704A7000AA049201221A8101AA0692AD
:100ED00008221A820B48191C01F0FEF9012809D1D9
:100EE000094C02E0013C002C09D0064801F076F8DC
:100EF0000128F7D040B24342584108B010BD00204D
:100F0000FBE7C04600A00040B80B0000F0B55F460C
:100F100056464D46E0B48CB0002399460027042382
:100F200004AD01AE9B46BA464B462B805B466B80B8
:100F300053463370737001232B8102ABEB6014486E
:100F40000823291C6E602B8201F0C6F9012809D103
:100F5000104C02E0013C002C0FD00D4801F03EF88F
:100F60000128F7D0002808D1281C0B494A463B1C11
:100F700001F010FC281C00F04BFD022301379944BE
:100F8000802FD1D10CB01CBC91469A46A346F0BD2F
:100F900000A00040B80B00000C30000070B586B017
:100FA00001AC1E1C042363806B461A7000AB0293D5
:100FB000012323810A9B21802682211C049301F0B6
:100FC0008BF90E4D287001280BD10D4C01E0013C2E
:100FD0000ED30C4801F002F828700128F7D0013434
:100FE00006D0031C301C002B00D058B206B070BDD8
:100FF000054800F00DFD2B78F4E7C046CC0000203A
:10100000B70B000000A00040F82F000010B58AB018
:101010001E486C4600F0FCFC0734002323701C487B
:10102000231CC8210122FFF7DBFE23783C2B21D0B3
:101030001748C82101223C23FFF708FF154800F09C
:10104000E7FCC8210222FF231148FFF7FFFEC82159
:101050000322FF230E48FFF7F9FE0F4BC822520070
:101060009918002204C38B42FCD10C4B00221A7049
:101070000AB010BD0A4800F0CBFC227802A809494A
:1010800001F088FB02A800F0C3FCDAE7AC300000F6
:1010900000A000402C300000540100209D000020E2
:1010A000603000008830000008B50448012100F0DD
:1010B000B1FC0348012100F0ADFC08BD1081020025
:1010C0000072020008B5032007210422012300F06A
:1010D000E5FE032006210122002300F0DFFE0520AB
:1010E00007210422012300F0D9FE08BD70B584B0A9
:1010F00002AC28210B22022300949148FFF74EFFF7
:101100002378904A1375617851755AB2002A00DA33
:10111000E7E0590600D5AAE09A0600D5A2E0D90674
:1011200000D59AE01A0700D592E00722134000D1BB
:1011300089E0012B00D1E1E0022B00D1E3E0032B99
:1011400000D1C5E0042B00D1E2E0052B00D1EDE099
:10115000062B00D1EFE07C4800F05AFC00262378F3
:1011600007221340042B02D0784B00221A706378B8
:101170001F251A1CAA4346D1227807210A40042AB7
:101180005AD007251D422DD1714800F041FC002E98
:1011900026D0704800F03CFC282102220023684839
:1011A000FFF754FE282103228F236548FFF74EFEE8
:1011B0002821042200236248FFF748FE2821052247
:1011C000FF235F48FFF742FE2821112200235C48DD
:1011D000FFF73CFE5A48282107220723FFF736FE77
:1011E00004B070BD5C4800F013FC63782B40012B09
:1011F00073D0022B7AD0032B7CD0042BC4D1574858
:1012000000F006FCC0E7564800F002FC63781A1CA8
:10121000AA43202A53D0402A46D0602A31D0802ABF
:1012200039D0E02AA8D14F4800F0F2FB22780721FC
:1012300063780A40042AA4D11A071DD54A4800F051
:10124000E7FB63789DE7494800F0E2FB00268EE764
:10125000474800F0DDFB237867E7464800F0D8FBFD
:1012600023785FE7444800F0D3FB237857E74348EF
:1012700000F0CEFB23784FE7414800F0C9FB6378CC
:101280007FE7404800F0C4FB63781F22191C91439C
:101290000A1C802AC5D13C4800F0BAFB63781F22A3
:1012A000191C91430A1CBCE7384800F0B1FB637875
:1012B0001F22191C91430A1C602AB0D1E1E734486F
:1012C00000F0A6FB63781A1CAA43402AA5D1EBE7DD
:1012D000304800F09DFB002641E72F4800F098FBC6
:1012E00052E72E4800F094FB237812E72C4800F0D8
:1012F0008FFB49E72B4800F08BFB45E72A4800F0BD
:1013000087FB00262BE7294800F082FB002626E712
:10131000274800F07DFB0D4D00262B78002B00D0D8
:101320001DE7FFF773FE01232B7018E7214800F03B
:101330006FFB012613E7204800F06AFB00260EE74A
:1013400000A00040E4000020703300009E00002058
:10135000C4340000A834000034340000903400008D
:10136000AC330000FC3300000C3400009C33000060
:1013700024320000C83100004C3100001031000060
:1013800020340000DC330000EC330000CC330000DC
:10139000BC330000FC32000048340000EC30000098
:1013A000543400006C340000AC320000D032000035
:1013B000283300003C3300004833000030B58BB0C8
:1013C0002E4C2378DA0713D49A0732D42C492D4DAA
:1013D0002D4A0123C82480208B4200D1285101339B
:1013E0009342F9D1274A8021C423D1500BB030BD9C
:1013F0002821022200232548FFF728FD2821032267
:101400008F232248FFF722FD2821042200231F48B2
:10141000FFF71CFD28210522FF231C48FFF716FDBE
:1014200000231A4828211122FFF710FD23789A077C
:10143000CCD500236A461370144801226B46C8219C
:10144000FFF7CEFC6A4613783C2B09D0C821012255
:101450003C230E48FFF7FAFC0D4800F0D9FAB5E737
:101460000C4800F0D5FA6B461A7802A80A4901F038
:1014700091F902A800F0CCFAA8E7C046A00000202D
:101480005902000000600040B104000000A00040CC
:101490002C3000006030000088300000F0B55F465E
:1014A00056464D464446F0B48FB0BB4D80236B6327
:1014B000FFF794FBFFF7EAFAB849B94A0123C824B9
:1014C00080208B4200D1285101339342F9D1B24A96
:1014D0008021C423D150151CB049B14A0123C8242E
:1014E00080208B4200D1285101339342F9D1AA4A7E
:1014F0008021C423D150151CA849A94A0123C8241E
:1015000080208B4200D1285101339342F9D1A24A65
:101510008021C423D150151CA049A14A0123C8240D
:1015200080208B4200D1285101339342F9D19A4A4D
:101530008021C423D150151C9849994A0123C824FD
:1015400080208B4200D1285101339342F9D1924A35
:101550008021C423D150151C9049914A0123C824ED
:1015600080208B4200D1285101339342F9D18A4A1D
:101570008021C423D150151C8849894A0123C824DD
:1015800080208B4200D1285101339342F9D1824A05
:10159000844C8021C423D150834D162323702B7893
:1015A000824E8349237132780B786271E371013383
:1015B000DBB2FF2B00D1EDE07E4F0B703B780133A7
:1015C000DBB299463B70052B00D1D3E0012B00D153
:1015D00002E102231A4006AB9846002A00D099E0A7
:1015E000754F0026A35D321C391C404601F0D2F82D
:1015F0000136404600F00CFA162EF3D1664B8022DD
:101600009A632B780F2B07D86C4B1A68033203D9D7
:101610005A68013200D13EE1FFF784FA5E4DFFF7D0
:10162000CDFA5E495E4A0123C82480208B4200D156
:10163000285101339342F9D1574A8021C423D15014
:10164000151C5649564A0123C82480208B4200D1DC
:10165000285101339342F9D14F4A8021C423D150FC
:10166000151C4E494E4A0123C82480208B4200D1CC
:10167000285101339342F9D1474A8021C423D150E4
:10168000151C4649464A0123C82480208B4200D1BC
:10169000285101339342F9D13F4A8021C423D150CC
:1016A000151C3E493E4A0123C82480208B4200D1AC
:1016B000285101339342F9D1374A8021C423D150B4
:1016C000151C3649364A0123C82480208B4200D19C
:1016D000285101339342F9D12F4A8021C423D1509C
:1016E000151C2E492E4A0123C82480208B4200D18C
:1016F000285101339342F9D1274A8021C423D15084
:101700002F4B02229A610FB03CBC90469946A246EC
:10171000AB46F0BD05AE0096C8210222022329483F
:10172000FFF73CFC327873781102A273264E274AE9
:10173000F61AE3731378761A580025490133DBB2A1
:101740000E52C82B00D1D3E013705B00CB5A002B94
:1017500000D0B5E0B3009E19300130180A2100F026
:10176000F7FE1C49021C404601F014F8404600F008
:101770004FF935E7930700D59AE000233B70D30774
:1017800000D426E7FFF7B2FC337802221A4006ABFA
:10179000984622E700230FE700600040590200004E
:1017A000B1040000E400002052010020A00000204D
:1017B0009C0000209F000020FC340000D00000208E
:1017C0000000084000A00040FFFF00009D00002036
:1017D00054010020F034000006AB9846930700D473
:1017E000FEE605AFC8210822022300974148FFF713
:1017F000D5FB7B783A78039393461302039A3E48CD
:10180000D3189BB258433D4900F0A2FE5B46A37239
:101810006A460C239A5C0A21E272824600F098FE26
:101820003749021C404600F0B5FF404600F0F0F892
:1018300033784A461A4208D0324B9A4505D92D488A
:10184000282107220623FFF701FBC8210C220223CF
:1018500000972848FFF7A2FB3A787B7822731202A0
:10186000637329489B189BB25843244900F070FECB
:10187000264B2749C218404600F08CFF404600F036
:10188000C7F801227C231B48C821FFF7DFFA337811
:1018900002221A40A1E69A68013200D0BCE6DB6859
:1018A000013300D0B8E614232B702B782371B3E6F4
:1018B00001221048C821BC23FFF7C8FA32785CE740
:1018C0003204120CD31A1802C31A9800C82100F06F
:1018D0008DFE071C3A1C40460E4900F05BFF3B0A98
:1018E000DBB2FFB240462374677400F091F831E731
:1018F000002329E700A0004060EA0000FFFF00008D
:10190000C83400000DA600007017000055F5FFFF59
:10191000D4340000E034000010B5154CFF23154806
:1019200028212370FFF7C4FA002810D0124800F0D5
:101930006FF82278012313430E48C8212370FFF764
:10194000B7FA00280CD10D4800F062F810BD0C4821
:1019500000F05EF80748C821FFF7AAFA0028F2D085
:10196000084800F055F82278022313432370EDE76E
:10197000A000002000A00040043500004C3500000D
:10198000183500003835000070B5FFF78DFBFFF704
:1019900099FB194B02221A70184A00230021D154D6
:1019A0000133642BFBD1162313704C235370422355
:1019B00093704323D370FFF769F81148FFF7A6FA35
:1019C000FFF7AAFF0F4800F023F80F4CFFF7F6FCD3
:1019D000FFF700F8FFF7A6F80C4D04262B78002B34
:1019E00005D1002000F0F6F92B78002BF9D02369FF
:1019F000B343236130BFF1E752010020E40000202F
:101A000000A000406C35000000ED00E0E000002088
:101A10007047C04670B503051B0F062B0ED8124A3F
:101A20009B00D3589F46114AC003C00E136801247F
:101A30008440A3438140181C0843106070BD0C4AC9
:101A4000F2E70C4AF0E70C4AEEE70C4A01240C4D91
:101A5000C0036B6DC00EDE07E8D42B6D2342FCD1B2
:101A6000E4E71024074AF2E77835000078800C405C
:101A700008800C4044800C4040800C4058800C4052
:101A800000800C4060800C4008B5F8239B03184090
:101A9000C023DB02984200D173E00ED990235B0390
:101AA000984249D017D9A0235B03984253D0D02342
:101AB0005B0398422ED000200CE080239B029842CA
:101AC00000D16FE08023DB02984220D00028F2D1C1
:101AD00000F0E0FC08BD80231B039842EBD14C4A88
:101AE0000321936A0B40022B00D183E0032B00D12A
:101AF0007CE0012B6AD0936A00201B0C01D000F01F
:101B00001DFD434B0F229B6E1340D840E2E700F0CF
:101B100069FCDFE73E4BE0215B69C90080220B4096
:101B2000920093426FD045D9C0229200934268D070
:101B30008B42C0D13748CDE7354A936A1B079B0FCC
:101B4000022B4DD0032B47D0012B3CD0936A0020B1
:101B50001B0DBFD023E02E4A936A1B079B0F022B5D
:101B600041D0032B49D0012B33D0936A00201B0DA9
:101B700001D000F0E3FC264B03221B6F1340D8403A
:101B8000A8E7234A0321936A0B40022B28D0032B9A
:101B900022D0012B17D0936A00201B0C9AD000F0A2
:101BA000CDFC97E700F076FC194B0F229B681340A1
:101BB000D8408FE7002B28D080225200934200D0DB
:101BC00079E7154886E700F0B5FC83E700F0B2FC42
:101BD00097E700F0AFFCCEE700F004FC400879E79F
:101BE00000F0B0FC76E700F0ADFCC4E700F0FAFBD3
:101BF000400886E700F0A6FC83E700F0F3FB40080E
:101C0000B9E7064866E7064864E7064862E7C04663
:101C100000800C40406F4001C0D8A70040420F0038
:101C2000C0CF6A00809FD50038B50F240440012C36
:101C30000AD0002C00D138BD032CFCD80929FAD8D1
:101C4000434B89005B589F460929F4D8414B8900D2
:101C50005B589F468022802352035B020021022CA6
:101C60006ED03D4B3D49986A01400A439A62E2E7D3
:101C70003B4B042219680A431A6003210C220023FB
:101C8000EDE7354940230B628022CB6A1A42FCD033
:101C900000F0FAF8042200230121E0E72E49802316
:101CA0005B0080220B629200CB6A1342FCD000F0F2
:101CB000EBF8082200230221D1E7002200230021B3
:101CC000CDE703250123022223490B62CB6A13428D
:101CD000FCD000F0D9F8234B07225B68111C194097
:101CE000012902D89343012213431E4C63601A4B0F
:101CF0005D6200F0C9F800F075FB1B4A636881184B
:101D00001A4A914216D80722934301221343154AD7
:101D1000536090E70125D5E7032540238022D3E7D0
:101D20008023802204255B009200CDE70225042356
:101D30000822C9E70E4A9042E9D807229343E6E712
:101D4000054A0B43906A0B4908400343936272E7CC
:101D500094350000BC35000000800C40F3FFEFFF1D
:101D600040800C4000000C40FFDB0BFFFF23F40021
:101D70000024F400FCFFFEFF08B5042807D8134B2D
:101D800080001B589F46124B186200F07DF808BD7A
:101D9000012302200029F6D00D490B62002AF4D05D
:101DA0000A1CD36A0342FCD000F06EF8EFE7102360
:101DB0002020EFE7802380205B008000EAE74023BB
:101DC0008020E7E704230820E4E7C046E43500006C
:101DD00000800C4038B52849284ACB6A0424138077
:101DE000274A15692C43146130BF002805D15A05D4
:101DF00000D538BD00F0F6FAFBE7842288580124AC
:101E0000044020488850AA2252001A400A62F02258
:101E1000920180201A404001824213D0802080012C
:101E200082421FD080200001824213D0DA0702D400
:101E3000114B02221A62002CDBD00F4A00218423AE
:101E4000D150D6E78020CA6A1042FCD00A4A03214A
:101E50005162EBE70820CA6A1042FCD0064A022110
:101E60005162E3E780208000CA6A0242FCD0024A45
:101E700004215162DAE7C04600800C40A200002035
:101E800000ED00E00E580000024BDA6A024B1A80A7
:101E90007047C04600800C40A2000020F0B54F46BD
:101EA0004646C0B4C400002A09D0C4000126251843
:101EB0008E40AD00002B3DD0244FED192E6125182A
:101EC000AD00072920D8214EAD196F688E00B946A4
:101ED0000F27B740B0464E46BE43B446171C464691
:101EE000B74066463E436E60002A09D1002B25D1DB
:101EF00001238B40191C2018154B8000C01841602D
:101F00000CBC90469946F0BD104FED19AE68B14635
:101F1000104E8F19BF00B8460F273E1C4746BE40E3
:101F20004F46B743BC464646171CB74066463E433D
:101F3000AE60D9E7064FED196E60C0E72018034F79
:101F4000012380008B40C0190361D9E70060004085
:101F500010600040F8FFFF3FF8B5002343631B4BC0
:101F60000D1C0363036802224978934301224A400F
:101F7000520013430360AE68041C2F7B6868002E78
:101F800014D02268124B1340236023683A02134393
:101F90002360002815D0B300C01A0E4BD95D7143E1
:101FA00000F0D6FA23689A0707D42061236801223B
:101FB00093432A7813432360F8BD0028F5D101200C
:101FC000F3E70548FFF760FDE5E7C046CFFF0100F6
:101FD000FFFCFFFF1C36000010810200F0B55F46D9
:101FE00056464D464446F0B483B0B84B984200D0B4
:101FF000FDE0B74BB74C5A88A14694468026402254
:1020000004249F6819781D79B2469046A346826AD7
:10201000C024E400144000D00CE1082911D9FB22AF
:102020005A706146092259801D711A70A74B05200C
:102030005C63404203B03CBC90469946A246AB4626
:10204000F0BD8C004E463659B746072164461970DC
:102050005C801D71960619D5ED007F199B483A8961
:102060005988C4698A4200D8DBE07D686C5401312C
:1020700089B259808A4200D8D3E004234360012A00
:1020800004D0013A914201D1082343600120D1E7F5
:102090000821197080216046490058801D710A424C
:1020A000F4D08A4A1163587809221A7087490022AD
:1020B00040B24A630128BDD15A700020BAE7664693
:1020C0005E801D7179883A88C80600D49AE006209F
:1020D000120A0240F02002434C0701D501210A43B5
:1020E00004211970794B0121596001205A62A1E73E
:1020F0005646164200D0B0E04146114200D1D1E030
:1021000001637A885E4616426FD060460722588087
:102110001D711A7001208DE7EA00BA181489644510
:1021200000D9ABE07A8801355C46EDB214406CD141
:102130000126324000D0C5E0012D78D95A801D71AA
:1021400008221A70614B02225A60012072E756463B
:10215000164200D081E04146114200D19BE0424648
:1021600002637A885949D40600D5A2E094073CD589
:102170001D7166460722ED005E801A707F193B894B
:10218000012B00D082E708234B60012052E7604614
:1021900058801D717A88D1062CD539880622090A03
:1021A0001140F022114301221A70484B012059625C
:1021B0005A603FE7514611425DD14446144228D14E
:1021C000022266461A705E801D71012032E7514678
:1021D000114250D14446144206D1062266461A7076
:1021E0005E801D71012025E7046305210FE70420AF
:1021F00040421FE73988FE2001409407D3D50122D1
:102200001143D0E7FE20024066E70026B4460321D2
:10221000FDE604637A880321940700D5F7E60521DB
:10222000F5E6012A8CD1294A0821516088E700226D
:102230009446ECE664465C801D71960505D5FD224A
:102240005A70FD2009221A7030E7500501D45878E1
:10225000F8E7FE225A70FE20F4E7604658801B4AD9
:1022600080211D711163FF2159700821197002230B
:1022700053600120DEE662465A80F0E7526860460D
:10228000115C124A1D715162624601325A80062267
:102290001A700120CEE601221A7062465A801D7122
:1022A0000120C7E604221A7062465A801D7101207F
:1022B000C0E6664602225E801D711A703B780120DE
:1022C0004B62B7E65C801D713AE7C04600A0004053
:1022D000A4000020F835000008B5174B984229D11A
:1022E0008368DA0701D5202343604B889A0702D51B
:1022F0000A89002A1ED05A0702D50B8A002B19D052
:102300000E4B002201201A711A705A805870996081
:10231000094BC0225A609A6A910609D40648084BB4
:102320000363FC23DB004363FFF758FE40B208BDA4
:10233000DB69F3E7FC20F9E700A00040A4000020DF
:10234000CFFF010000B5002802D1034B196000BD8A
:102350000128FCD1014BF9E7080008400C000840B7
:1023600000B542780378002A01D002221343827814
:10237000002A01D004221343014A136000BDC04665
:1023800000000840064880470649074A074B9B1A49
:1023900003DD043BC858D050FBDC05480047000073
:1023A0003125000068360000000000207800002081
:1023B00061090000FEE7FEE7FEE7FEE7FEE7FEE755
:1023C000FEE7FEE7FEE7FEE7FEE7FEE7FEE7FEE7E5
:1023D000FEE7FEE7FEE7FEE7FEE7FEE7FEE7FEE7D5
:1023E000FEE7C04600B5224AF023D16A9B010B40AC
:1023F000802149018B4226D0802189018B421FD048
:10240000802109018B4210D0D268E023DB00134009
:1024100080229200934223D018D8002B22D0802211
:10242000520093421AD1134A01E0134B1A68104B21
:102430000F205B681840C240104B101C1A6000BD92
:102440000F4B1A68F3E780221202F0E7C0229200D5
:1024500093420BD08022D200934205D00022E6E7BF
:10246000084AE4E7084AE2E7084AE0E7084ADEE704
:1024700000800C4040B5640004000020E40200200D
:1024800000000020C0D8A700804F1200406F40011C
:10249000809FD50000B51E4AF023D16A9B010B40F6
:1024A000802149018B421ED0802189018B4217D0A7
:1024B000802109018B4210D0D268E023DB00134059
:1024C0008022920093421BD010D8002B1AD0802279
:1024D0005200934212D10F4801E00F4B186800BD23
:1024E0000E4B1868FBE780200002F8E7C02292003C
:1024F00093420BD08022D200934205D00020EEE719
:102500000748ECE70748EAE70748E8E70748E6E74F
:1025100000800C4040B56400040000200000002052
:10252000C0D8A700804F1200406F4001809FD500A7
:102530007047C046802000027047C046FA208000E5
:102540007047C046014B18687047C0460000002025
:10255000002934D00123002210B488422CD3012456
:102560002407A14204D2814202D209011B01F8E7EB
:10257000E400A14204D2814202D249005B00F8E7A4
:10258000884201D3401A1A434C08A04202D3001BD0
:102590005C0822438C08A04202D3001B9C08224303
:1025A000CC08A04202D3001BDC082243002803D041
:1025B0001B0901D00909E3E7101C10BC7047002873
:1025C00001D00020C04307B4024802A14018029085
:1025D00003BDC046D90000000029F0D003B5FFF7C5
:1025E000B9FF0EBC4243891A1847C046002941D0A2
:1025F00010B4041C4C40A44601230022002900D53D
:102600004942002800D5404288422CD301242407A7
:10261000A14204D2814202D209011B01F8E7E40081
:10262000A14204D2814202D249005B00F8E788420D
:1026300001D3401A1A434C08A04202D3001B5C0885
:1026400022438C08A04202D3001B9C082243CC08E2
:10265000A04202D3001BDC082243002803D01B0940
:1026600001D00909E3E7101C6446002C00D5404264
:1026700010BC7047002806D003DB0020C043400890
:1026800001E08020000607B4024802A14018029031
:1026900003BDC046190000000029EBD003B5FFF7C9
:1026A000A7FF0EBC4243891A1847C0467047C04670
:1026B00010B5044C002C02D000E000BF00E0201C4C
:1026C00010BDC04600000000094B10B5041C002BD3
:1026D00003D0002100E000BF01E000F00DF8054844
:1026E0000068816A002900D08847201C00F056FC51
:1026F000000000002436000038B5084B084C1D1CB3
:10270000E01A8410002C06D0A1006A18043A13685D
:102710009847013CF6E700F049FC38BD7400002002
:102720007800002070B50E4B0E4D0024E81A85107D
:102730001E1CAC4204D0A100725890470134F8E747
:1027400000F02EFC0849094A0E1C541AA51000245A
:10275000AC4204D0A300F05880470134F8E770BDC4
:102760007000002070000020700000207400002025
:1027700010B50023934203D0CC5CC4540133F9E775
:1027800010BD00B58218031C934202D019700133AA
:10279000FAE700BD0EB400B59CB01DAB02A904CB96
:1027A000822202900861920009488A810122886091
:1027B00048615042074AC88110681D9A019300F091
:1027C00063F8029900230B701CB008BC03B01847D3
:1027D000FFFFFF7F6C000020F7B501919168071C97
:1027E000141C002940D190239289D80002423BD08A
:1027F0002568216963696E1A58000096C61800980A
:10280000F50FAB1901305D10A84201DB009D0235C8
:10281000381C53050FD5291C00F004FB061E13D0ED
:102820002169009AFFF7A4FFA78916498022394041
:102830001143A18111E02A1C00F04AFB061E0CD1B5
:10284000381C216900F0A6FA0C203860A5894026C2
:102850003543A5810124604213E0009B6561F018B7
:10286000ED1A26612060A560A668002E08DD694685
:1028700027680A793A70A3680137013B2760A36093
:102880000020FEBD7FFBFFFFF0B5A1B004900793D1
:102890008B890E1C171C19060FD53269002A0CD122
:1028A000402100F0BFFA30603061002803D1049C61
:1028B0000C262660D6E04020706108AD002120245F
:1028C000302369616C76AB763C1C2278002A04D1F7
:1028D000E01B069019D003970FE0252AF8D00134A9
:1028E000F3E70399321C09780498FFF775FF039A00
:1028F00001320392013000D1AFE003990698CB1B5F
:102900008342EEDB0D9F3A180D922178002900D109
:10291000A3E001206A4600234742633201342B6062
:10292000EB606F60AB601370AB65504F2178381C63
:10293000052200F0C1FA002807D0C71B2B68012030
:10294000B840184328600134EFE72B68D90603D557
:1029500068462021633001701A0703D56A462B2789
:102960006332177021782A2901D00B9B0EE0079A59
:102970001068111D0791002801DB0B9004E0022272
:1029800047421343EF602B60013409E02078303870
:10299000092804D80A277B4301341B18F6E70B9358
:1029A00023782E2B18D161782A2909D1079B02346C
:1029B0001A68191D0791002A0DDA012042420AE027
:1029C0000134002220783038092804D80A277A43B5
:1029D00001341218F6E70992254F2178381C03229A
:1029E00000F06AFA002806D02B68C21B40219140F3
:1029F00019432960013421781E4806222976671C74
:102A000000F05AFA002817D01B4800280BD128687C
:102A1000079C0723C10501D5E41800E007349C4357
:102A20000834079414E007AA00920498291C321C69
:102A3000124B00E000BF07E007AC00940498291C8B
:102A4000321C0E4B00F08CF8059005994A1C04D0FE
:102A50000D99059A8C180D9436E7B589690601D44D
:102A60000D9801E00127784221B0F0BD2836000022
:102A70002E3600003236000000000000D92700008A
:102A8000F7B5151C01930A698B6800900C1C9342E2
:102A900000DA131C201C2B6043300178002901D080
:102AA00001332B602668B00602D52F6802372F60ED
:102AB0002268062616401CD0261C4336377822682A
:102AC0003E1C731E9E4192061CD5A319181C403053
:102AD0003021271CC17045373A784133DA7002360D
:102AE00010E0617E0098019A089FB847013006D037
:102AF0000136E3682868191A8E42F2DBDCE7012010
:102B000040422CE00027B7420ADAE1194331097844
:102B10000098019A089B98470130F0D00137F2E7FE
:102B20002B68256806212940E6680025042903D181
:102B3000F01AC743FD170540A2682669B24201DDBD
:102B4000931BED180027AF4208DAA17E0098019A86
:102B5000089EB0470130D2D00137F4E70020FEBD17
:102B6000F0B50D1C8BB04335079305900692049584
:102B70000A7E0C1C109B6E2A00D1A8E012D8632A92
:102B800024D009D8002A00D1B1E0582A00D0C1E0F1
:102B900045310A707D4D51E0642A1FD0692A00D06A
:102BA000B8E01BE0732A00D1A5E009D86F2A2BD02A
:102BB000702A00D0AEE00A68202616430E6038E086
:102BC000752A21D0782A00D0A4E032E018680E1CC3
:102BD000051D1D600368423633709EE026681F683D
:102BE000300606D4750604D5381D186000203D5EF9
:102BF00002E03D1D1D603D68644B002D3BDA0499E9
:102C00002D226D420A7036E027681E683D0605D405
:102C1000780603D5351D1D60358802E0311D196029
:102C200035685A4B207E039308276F281ED00A2749
:102C30001CE0271C45377820554D38701A682668E7
:102C4000111D03951960300603D4750601D515884A
:102C500000E01568F00702D520231E4326601027E8
:102C6000002D03D12668202086432660261C43368B
:102C70000022327001E003930A276168A1600029F5
:102C800003DB2068042398432060002D02D1049EBA
:102C900000290ED0049E281C391CFFF79DFC039AC6
:102CA000013E515C281C3170391CFFF751FC051E98
:102CB000F1D1049B9A1B2261082F33D12768F807B2
:102CC00030D5606890422DDC013262602AE00868ED
:102CD0001E684969050606D4450604D5351D1D60E4
:102CE0003368198003E0321D1A60376839600020AC
:102CF0002061049E16E01E68311D19603668301C84
:102D000000F01EF965682061A84200D92561236999
:102D1000636004E0261C4236327001212161049F69
:102D200000223A7007990598009109AA211C069B78
:102D3000FFF7A6FE01300CD0351C2269AB1B934275
:102D40000ADA29780598069A079FB84701350130B5
:102D5000F3D10122504217E02668B10705D4099B40
:102D6000E068984210DA181C0EE00025E768099820
:102D7000391A8D42F3DA617E0598069A079EB047AC
:102D80000130E6D00135F1E70BB0F0BD3936000077
:102D90004A36000030B5002940D004390B68002BBA
:102DA00000DAC9181E4A1368141C002B02D14B60AC
:102DB000116033E099420FD20D684A199A4205D149
:102DC00010682B1855680B604D6000E04B60216067
:102DD00024E08A4203D8131C5A68002AF9D11D68DE
:102DE0005C198C420BD10C682D1958191D6090424A
:102DF00014D1116852686C181C605A600EE08C4245
:102E000002D90C21016009E008680D18954203D130
:102E100014685268001908604A60596030BDC046A5
:102E2000B000002070B50323CD1C9D430835061C5F
:102E30000C2D01D20C2501E0002D2DDB8D422BD372
:102E40001C4A1368111C1C1C002C12D02068421B49
:102E50000CD40B2A02D92260A41815E0A34202D197
:102E600066680E601CE065685D6019E0231C64689C
:102E7000EAE7301C291C00F051F8421C0CD0C41C9D
:102E800003218C43844201D1256009E0211A301CC2
:102E900000F044F80130F7D10C243460002008E041
:102EA000201C0B300722211D9043431A01D05D42A4
:102EB000E55070BDB000002000B5C9B28218904244
:102EC00004D003788B4202D00130F8E7002000BD27
:102ED000F8B5061C0C1C151C002904D1111CFFF7A9
:102EE000A1FF041C18E0002A03D1FFF753FF2C1C9C
:102EF00012E000F02CF8A8420ED2301C291CFFF77B
:102F000091FF071E07D0211C2A1CFFF731FC301C43
:102F1000211CFFF73FFF3C1C201CF8BD38B5074CB7
:102F20000023051C081C236000F01CF8431C03D17F
:102F30002168002900D0296038BDC046E802002081
:102F40000023C25C0133002AFBD1581E70470439AC
:102F50000B6800B5181F002B02DAC8581918081F93
:102F600000BD00000A4A00B51368002B0CD01818E9
:102F70006946884202D81060181C00BD054B0C221F
:102F800001201A604342F7E7034B1360EFE7C046A6
:102F9000B4000020E8020020F002002000B5FEE7A7
:102FA000F8B5C046F8BC08BC9E467047F8B5C046A8
:102FB000F8BC08BC9E4670470100010001010000FA
:102FC000000000003C6D0100000000000101000055
:102FD0000000000034FD0500000000000A455252C8
:102FE0004F523A204932435F6765745F74696D657B
:102FF0006F75740A000000004932435F7365745FA7
:1030000074696D656F75740A00000000446574652D
:103010006374656420493243206465766963653A68
:1030200020256420253032780A000000496E69743A
:1030300069616C697A696E67204C54433239343265
:103040003A20436F6E74726F6C2072656769737497
:1030500065722073657420746F20307833430A00E2
:103060004C54433239343220646F65736E7420726D
:1030700065717569726520696E697469616C697AD8
:103080006174696F6E2E2000436F6E74726F6C20D6
:103090007265676973657220697320736574207443
:1030A0006F203078253032780A0000000A0A094380
:1030B000686172676520436F6D706C657465640A42
:1030C000095265736574696E672074686520616371
:1030D00063756D756C6174656420636861726765A2
:1030E00020696E204C54323934320A00566F6C74A9
:1030F0006167652061742056494E78206578636564
:1031000065647320565F56494E5F4F560A000000B3
:10311000566F6C746167652061742056494E782043
:103120006578636565647320565F56494E5F4F4B03
:103130005F5249534520616E6420565F56494E5F89
:103140004F4B5F46414C4C0A0000000043757272C1
:10315000656E7420696E746F2056494E78206973CD
:10316000206C696D697465642062792074686520DB
:103170006869676820766F6C7461676520626C6F40
:10318000636B696E672046455420616E64207468E5
:10319000652063686172676572206973206E6F7461
:1031A0002072756E6E696E67206174207468652088
:1031B00066756C6C2070726F6772616D6D656420EE
:1031C000495F4348470A000043686172676572209F
:1031D0006973206E6F742072756E6E696E67206100
:1031E00074207468652066756C6C2070726F6772ED
:1031F000616D6D656420495F4348472062757420A6
:103200006973206C696D69746564206279207468E3
:1032100065206469652074656D706572617475728E
:10322000650A0000456E64206F6620612063686156
:10323000726765206379636C6520686173206265DD
:10324000656E20726561636865642E2054686973D9
:1032500020626974206C617463686573206F6E2CE2
:1032600020696E207468617420697420646F6573CE
:103270006E206E6F7420726573657420746F206C9D
:103280006F77207768656E2074686520565F5243BB
:1032900048207468726573686F6C6420697320627B
:1032A000726561636865640A0000000043686172CA
:1032B00067657220697320696E20747269636B6C34
:1032C00065206368617267652073746174650A00C4
:1032D0004368617267657220697320696E20666158
:1032E000737420636861726765206D6F6465202860
:1032F0004343206D6F6465290A00000043686172D2
:1033000067657220697320696E206661737420633B
:103310006861726765206D6F646520284356206D73
:103320006F6465290A000000436861726765206365
:103330006F6D706C657465640A0000004C444F202A
:103340006D6F64650A000000747269636B6C6520C0
:103350006F722066617374206368617267652074A0
:10336000696D657220657870697265640A00000095
:103370006368617267657220697320736574206980
:103380006E2062617474657279206465746563741B
:10339000696F6E206D6F64650A000000436861729A
:1033A000676572206973206F66660A005448522070
:1033B0007374617475733A20000000006261747464
:1033C00065727920636F6C640A0000006261747436
:1033D00065727920636F6F6C0A000000626174741B
:1033E000657279207761726D0A0000006261747401
:1033F00065727920686F740A000000007465726D50
:103400006973746F72204F4B0A000000565F42418F
:10341000545F534E53203C20565F525F43480A008E
:10342000565F4241545F534E53203E20565F525FD9
:1034300043480A0042617474657279207374617440
:1034400075733A20000000004E6F2062617474654D
:1034500072790A00565F4241545F534E53203C201C
:10346000565F54524B5F444541440A00565F5452E4
:103470004B5F44454144203C3D20565F4241545FF0
:10348000534E53203C20565F5745414B0A000000E5
:10349000565F4241545F534E53203E3D20565F5786
:1034A00045414B0A000000000A0909537461727417
:1034B000696E6720626174746572792063686172F5
:1034C00067696E670A0A000042415420256C646DEA
:1034D0005609000020256C645B302E31435D0A00E4
:1034E00044533A256C64207541682F6D696E09005C
:1034F000513A256C64207541680A000025643A251C
:1035000064090000090941445035303633206465B0
:103510007465637465640A00092D2D2D09414450BA
:1035200035303633204E4F5420444554454354459E
:1035300044092D2D2D090A0009094C544332393410
:10354000322064657465637465640A00092D2D2D4D
:10355000094C544332393432204E4F5420444554A0
:103560004543544544092D2D2D090A000A53544161
:10357000525455500A0000003C1A00003E1A000048
:10358000421A0000461A00004A1A0000621A00009F
:10359000261A0000361C0000BA1C00009C1C00000B
:1035A000821C0000361C0000361C0000701C00004D
:1035B000361C0000361C0000541C0000361C0000A5
:1035C000361C0000201D0000181D00002C1D0000EE
:1035D000141D0000361C0000361C0000361C0000C4
:1035E000C21C0000B41D0000BE1D0000C41D000070
:1035F000901D0000AE1D00008E2100004E21000035
:10360000B4210000BE200000F020000018210000BE
:10361000CE2100004A200000902000000809110877
:103620004300000008000020232D302B2000686C90
:103630004C006566674546470030313233343536D5
:10364000373839414243444546003031323334350E
:103650003637383961626364656600000000000037
:0836600000D3FF7F0100000010
:103668000080000000366E0100000000000000002D
:103678000000000000000000000000000000000042
:1036880000000000000000002036000000000000DC
:103698000000000000000000000000000000000022
:1036A8000000000000000000000000000000000012
:1036B8000000000000000000000000000000000002
:1036C80000000000000000000000000008000020CA
:0836D8002909000001090000AE
:040000030000238551
:00000001FF
