:10080000001000204D1800007F1800008118000023
:100810007D1800007D1800007D1800007D18000084
:100820007D1800007D1800007D180000831800006E
:100830007D1800007D180000851800008718000052
:10084000891800008B1800008D1800008F18000018
:10085000911800004D0B000095180000971800003B
:10086000410E00009B1800009D1800009F1800001A
:10087000ED0B0000A3180000A5180000A718000049
:10088000A9180000000000000000000000000000A7
:100890000000000000000000000000000000000058
:1008A0000000000000000000000000000000000048
:1008B0000000000000000000000000000000000038
:1008C0000000000000000000000000000000000028
:1008D0000000000000000000000000000000000018
:1008E0000000000000000000000000000000000008
:1008F00000000000000000000000000000000000F8
:1009000010B5064C2378002B07D10548002802D0EB
:10091000044800E000BF0121217010BD78000020D4
:10092000000000001C26000008B5084B002B03D077
:100930000748084900E000BF07480168002903D0C4
:10094000064A002A00D0904708BDC04600000000BB
:100950001C2600007C000020780000200000000021
:10096000164B002B00D1144B9D46402292029A1A3E
:10097000924600218B460F461348144A121A01F082
:1009800004F90F4B002B00D098470E4B002B00D0E2
:1009900098470020002104460D4600200C49002203
:1009A000002301F089F801F0C1F82046294600F043
:1009B000BBF901F08DF8C0460000080000100020CF
:1009C000000000000000000078000020240100204A
:1009D000011B000000B583B000F058FA124800F087
:1009E0001DFA12494B6E012B07D8114B02E0013B57
:1009F000002B02D04A6E012AF9D90222684601F082
:100A0000BBF800236A4668460A49937001F0E8F88B
:100A1000002804D100F03AFA002003B000BD0648D7
:100A200000F0FCF90120F8E7D4230000AC0000201E
:100A3000A0860100D8230000DC23000010B50122AD
:100A400082B00120012100F0DDFB1448032100F0F9
:100A500031FB1348012100F023FA01AC11480121B8
:100A600000F01EFA0322201C0F4901F085F8012333
:100A70002370A370002000230C49637000F04EFE29
:100A80000B4B0222D969201C0A43DA61094B8022F0
:100A900052011A6000F050FE02B010BD02000600C4
:100AA00030040800002304009C240000FF3F0000E5
:100AB0000000084000E100E070B51E4D84B0281C25
:100AC000012100F0EDF91C4B6A4643CB43C21B6881
:100AD0001A481360012100F0E3F9281C012100F0FD
:100AE000DFF9022001210A22012300F0C3FB0220CA
:100AF00000210A22012300F0BDFB114B02229A655E
:100B00001048DA659A65DA659A65DA659A65DA6594
:100B10009A65DA659A65DA659A65DA659A65DA65DD
:100B20009A65DA65084B6946836300F001FC04B0FE
:100B300070BDC04600B20200A02400001081020077
:100B40000060004000A000400304000008B5034816
:100B500000F030FC024B187008BDC04600A00040F9
:100B60001801002030B587B001AC218004216180DC
:100B700069460A7000AA0292012222812282211C67
:100B8000049300F095FD0E4D287001280BD10D4CFB
:100B900001E0013C0ED30C4800F00CFC2870012849
:100BA000F7D0013406D0031C0120002B00D058B22E
:100BB00007B030BD054800F031F92B78F4E7C046A6
:100BC00018010020DF93040000A00040B0240000C2
:100BD00008B50448012100F063F90348012100F041
:100BE0005FF908BD1081020000720200F0B5474CA9
:100BF000FA2223888FB001339BB2D201934200D9ED
:100C00000023434904A8238000F0C8FF2088052161
:100C100000F046FF89B200291AD0012933D00229F9
:100C20004DD004A800F0FAF82088052100F038FF24
:100C300089B2032904D0374B02229A610FB0F0BD6C
:100C40000024E0B2013400F0DDF8642CF9D1F2E7C1
:100C50006E46B1736D460E36E973331C0F351021A5
:100C60000E222D48FFF77EFF2B1C10210F222A4851
:100C7000FFF778FF218832782B7804A80091274964
:100C800000F08CFFCDE76E460023B3736D460E3641
:100C9000EB7310210F35331C11221F48FFF762FF41
:100CA0002B1C102112221C48FFF75CFF2188327890
:100CB0002B7804A800911A4900F070FFB1E70023D7
:100CC0006F467B736E460D376D46B373EB730E360E
:100CD0003B1C102113221048FFF744FF0F35331C33
:100CE000102114220C48FFF73DFF2B1C1021152268
:100CF0000948FFF737FF29783A783378009121883F
:100D000004A80191074900F049FF8AE794000020F8
:100D1000C82400000000084000A000400825000092
:100D2000182500002825000008B5FFF751FFFFF740
:100D3000C3FEE120400200F01BF8FFF74BFE0A2241
:100D4000094BC046013B002BFBD1013A002AF7D1E9
:100D50000028F2D1FFF772FE044B04211A698A437E
:100D60001A6130BFFAE7C04640420F0000ED00E0D4
:100D700010B5012186B0041C1D4800F091F8032035
:100D800007210422012300F075FA03200621012225
:100D9000002300F06FFA694600230294154C0B7093
:100DA00001930B73CB81052280234A735B010022E0
:100DB000201C0B828A74CA740A7500F0D5FC0E4B95
:100DC000C02063650D4B8021A364E26C04231343B0
:100DD000E36480220A4B92004000490019501A50E7
:100DE0001960201C1A60052100F0B8FC06B010BD87
:100DF0000032020000C4004003020000FF1F000098
:100E000000E100E000B5044940220B691A42FCD021
:100E1000014B586300BDC04600C40040074930B5CF
:100E200040220024055D002D07D00B691A42FCD03A
:100E3000024B01345D63962CF4D130BD00C40040F8
:100E4000104808B503691A0600D408BD00F0F6FC86
:100E50000D4B68229A5C002A0FD15A6E98545A6E34
:100E600001325A66002802D10121692299545A6E32
:100E7000632A02D9012168229954024B04229A6400
:100E8000E3E7C04600C40040AC000020034B002252
:100E900069215A665A5468215A547047AC000020A0
:100EA000030570B51B0F062B0ED8124A9B00D358B2
:100EB0009F46114AC003C00E136801248440A34317
:100EC0008140181C0843106070BD0C4AF2E70C4AC0
:100ED000F0E70C4AEEE70C4A01240C4DC0036B6DA1
:100EE000C00EDE07E8D42B6D2342FCD1E4E71024CA
:100EF000074AF2E73825000078800C4008800C4053
:100F000044800C4040800C4058800C4000800C40D5
:100F100060800C4008B5F8239B031840C023DB0217
:100F2000984200D173E00ED990235B03984249D0D8
:100F300017D9A0235B03984253D0D0235B03984278
:100F40002ED000200CE080239B02984200D16FE05D
:100F50008023DB02984220D00028F2D100F0FEFC72
:100F600008BD80231B039842EBD14C4A0321936AAE
:100F70000B40022B00D183E0032B00D17CE0012B3E
:100F80006AD0936A00201B0C01D000F03BFD434B5C
:100F90000F229B6E1340D840E2E700F087FCDFE7AA
:100FA0003E4BE0215B69C90080220B4092009342D6
:100FB0006FD045D9C0229200934268D08B42C0D1F5
:100FC0003748CDE7354A936A1B079B0F022B4DD05C
:100FD000032B47D0012B3CD0936A00201B0DBFD0C0
:100FE00023E02E4A936A1B079B0F022B41D0032B51
:100FF00049D0012B33D0936A00201B0D01D000F0A3
:1010000001FD264B03221B6F1340D840A8E7234A5B
:101010000321936A0B40022B28D0032B22D0012BF3
:1010200017D0936A00201B0C9AD000F0EBFC97E7D6
:1010300000F094FC194B0F229B681340D8408FE7B7
:10104000002B28D080225200934200D079E7154827
:1010500086E700F0D3FC83E700F0D0FC97E700F0D0
:10106000CDFCCEE700F022FC400879E700F0CEFC92
:1010700076E700F0CBFCC4E700F018FC400886E7F8
:1010800000F0C4FC83E700F011FC4008B9E7064813
:1010900066E7064864E7064862E7C04600800C4001
:1010A000406F4001C0D8A70040420F00C0CF6A0087
:1010B000809FD50038B50F240440012C0AD0002CA5
:1010C00000D138BD032CFCD80929FAD8434B89003C
:1010D0005B589F460929F4D8414B89005B589F46CD
:1010E0008022802352035B020021022C6ED03D4BF4
:1010F0003D49986A01400A439A62E2E73B4B042269
:1011000019680A431A6003210C220023EDE73549D0
:1011100040230B628022CB6A1A42FCD000F0A0F878
:10112000042200230121E0E72E4980235B00802276
:101130000B629200CB6A1342FCD000F091F80822B7
:1011400000230221D1E7002200230021CDE703255F
:101150000123022223490B62CB6A1342FCD000F028
:101160007FF8234B07225B68111C1940012902D824
:101170009343012213431E4C63601A4B5D6200F0DF
:101180006FF800F093FB1B4A636881181A4A91427A
:1011900016D80722934301221343154A536090E760
:1011A0000125D5E7032540238022D3E78023802231
:1011B00004255B009200CDE7022504230822C9E73D
:1011C0000E4A9042E9D807229343E6E7054A0B43CB
:1011D000906A0B4908400343936272E7542500006C
:1011E0007C25000000800C40F3FFEFFF40800C40A6
:1011F00000000C40FFDB0BFFFF23F4000024F40091
:10120000FCFFFEFF08B5042807D8134B80001B58CD
:101210009F46124B186200F023F808BD01230220FC
:101220000029F6D00D490B62002AF4D00A1CD36ABB
:101230000342FCD000F014F8EFE710232020EFE782
:10124000802380205B008000EAE740238020E7E7DE
:1012500004230820E4E7C046A425000000800C40D9
:10126000024BDA6A024B1A807047C04600800C407D
:1012700096000020F0B54F464646C0B4C400002A90
:1012800009D0C400012625188E40AD00002B3DD0AA
:10129000244FED192E612518AD00072920D8214EC5
:1012A000AD196F688E00B9460F27B740B0464E465D
:1012B000BE43B446171C4646B74066463E436E6082
:1012C000002A09D1002B25D101238B40191C20189D
:1012D000154B8000C01841600CBC90469946F0BD8B
:1012E000104FED19AE68B146104E8F19BF00B846C9
:1012F0000F273E1C4746BE404F46B743BC464646B6
:10130000171CB74066463E43AE60D9E7064FED195D
:101310006E60C0E72018034F012380008B40C01986
:101320000361D9E70060004010600040F8FFFF3F14
:10133000F8B5002343631B4B0D1C036303680222B3
:101340004978934301224A40520013430360AE6838
:10135000041C2F7B6868002E14D02268124B1340A7
:10136000236023683A0213432360002815D0B3009A
:10137000C01A0E4BD95D714300F04EFB23689A07EB
:1013800007D420612368012293432A781343236002
:10139000F8BD0028F5D10120F3E70548FFF7BAFDB5
:1013A000E5E7C046CFFF0100FFFCFFFFDC250000A2
:1013B00010810200F0B55F4656464D464446F0B4F3
:1013C000B84B83B0984200D0FDE0B74BB74C5A8879
:1013D000A14694468026402204249F6819781D79EE
:1013E000B2469046A346826AC024E400144000D06E
:1013F0000CE1082911D9FB225A7061460922598053
:101400001D711A70A74B05205C63404203B03CBCC1
:1014100090469946A246AB46F0BD8C004E463659E2
:10142000B7460721644619705C801D71960619D570
:10143000ED007F199B483A895988C4698A4200D8CF
:10144000DBE07D686C54013189B259808A4200D852
:10145000D3E004234360012A04D0013A914201D130
:10146000082343600120D1E70821197080216046DC
:10147000490058801D710A42F4D08A4A1163587895
:1014800009221A708749002240B24A630128BDD15F
:101490005A700020BAE766465E801D7179883A88E6
:1014A000C80600D49AE00620120A0240F020024347
:1014B0004C0701D501210A4304211970794B012100
:1014C000596001205A62A1E75646164200D0B0E0AA
:1014D0004146114200D1D1E001637A885E4616424E
:1014E0006FD06046072258801D711A7001208DE769
:1014F000EA00BA181489644500D9ABE07A8801354E
:101500005C46EDB214406CD10126324000D0C5E0FB
:10151000012D78D95A801D7108221A70614B022260
:101520005A60012072E75646164200D081E04146DB
:10153000114200D19BE0424602637A885949D406A1
:1015400000D5A2E094073CD51D7166460722ED0048
:101550005E801A707F193B89012B00D082E7082337
:101560004B60012052E7604658801D717A88D10691
:101570002CD539880622090A1140F0221143012294
:101580001A70484B012059625A603FE75146114298
:101590005DD14446144228D1022266461A705E800C
:1015A0001D71012032E75146114250D14446144288
:1015B00006D1062266461A705E801D71012025E75D
:1015C000046305210FE7042040421FE73988FE200D
:1015D00001409407D3D501221143D0E7FE200240F9
:1015E00066E70026B4460321FDE604637A880321FA
:1015F000940700D5F7E60521F5E6012A8CD1294AA2
:101600000821516088E700229446ECE664465C803D
:101610001D71960505D5FD225A70FD2009221A700C
:1016200030E7500501D45878F8E7FE225A70FE20C2
:10163000F4E7604658801B4A80211D711163FF2129
:10164000597008211970022353600120DEE66246BA
:101650005A80F0E752686046115C124A1D7151626F
:10166000624601325A8006221A700120CEE601221B
:101670001A7062465A801D710120C7E604221A7052
:1016800062465A801D710120C0E6664602225E80D5
:101690001D711A703B7801204B62B7E65C801D71AA
:1016A0003AE7C04600A0004098000020B82500009E
:1016B00008B5174B984229D18368DA0701D5202352
:1016C00043604B889A0702D50A89002A1ED05A0720
:1016D00002D50B8A002B19D00E4B002201201A7163
:1016E0001A705A8058709960094BC0225A609A6AE1
:1016F000910609D40648084B0363FC23DB004363CF
:10170000FFF758FE40B208BDDB69F3E7FC20F9E7BC
:1017100000A0004098000020CFFF010000B5002885
:1017200002D1034B196000BD0128FCD1014BF9E740
:10173000080008400C000840427800B50378002AF1
:1017400001D0022213438278002A01D004221343DD
:10175000014A136000BDC0460000084005238B43CA
:101760005B00C360C1607047F8B52E4B2E4AC36062
:101770000023036042602D4A83604361C364826436
:101780002B4A041C0D1C4365904246D08365AB7CFC
:10179000002B04D022688023DB0513432360EB7CFD
:1017A000002B03D02A7D10231343A3652A8A6B7B69
:1017B00068681343EA89AF68134363602E7B00288F
:1017C0001ED0402E21D0402E04D9602E1FD02B7861
:1017D000E360F8BD002E1CD11021794380004B0836
:1017E000181800F019F9134B0438800118402368C9
:1017F00060229343236023681E4326606061E6E70E
:101800000D48FFF787FB402EDDD10621E5E70421D7
:10181000E3E7202EDBD10821DFE703658365C3659D
:10182000B5E7C046AA0E000005100000F91F000031
:1018300000C40040C0FF1F001081020000B58022DC
:1018400003691A42FCD0C069C0B200BD0648804797
:101850000649074A074B9B1A03DD043BC858D05082
:10186000FBDC054800470000F919000028260000AD
:10187000000000207800002061090000FEE7FEE77C
:10188000FEE7FEE7FEE7FEE7FEE7FEE7FEE7FEE730
:10189000FEE7FEE7FEE7FEE7FEE7FEE7FEE7FEE720
:1018A000FEE7FEE7FEE7FEE7FEE7C046224AF0233A
:1018B000D16A9B010B40802100B549018B4226D0A3
:1018C000802189018B421FD0802109018B4210D0D9
:1018D000D268E023DB00134080229200934223D0A1
:1018E00018D8002B22D08022520093421AD1134ADA
:1018F00001E0134B1A68104B0F205B681840114B26
:10190000C240101C1A6000BD0F4B1A68F3E780221A
:101910001202F0E7C022920093420BD08022D20044
:10192000934205D00022E6E7084AE4E7084AE2E7E6
:10193000084AE0E7084ADEE700800C4040B5640052
:10194000040000201C01002000000020C0D8A700D7
:10195000804F1200406F4001809FD5001E4AF02347
:10196000D16A9B010B40802100B549018B421ED0FA
:10197000802189018B4217D0802109018B4210D030
:10198000D268E023DB0013408022920093421BD0F8
:1019900010D8002B1AD080225200934212D10F4847
:1019A00001E00F4B186800BD0E4B1868FBE7802064
:1019B0000002F8E7C022920093420BD08022D200AE
:1019C000934205D00020EEE70748ECE70748EAE736
:1019D0000748E8E70748E6E700800C4040B56400A8
:1019E0000400002000000020C0D8A700804F120093
:1019F000406F4001809FD5007047C04680200002A4
:101A00007047C046FA2080007047C046014B1868F6
:101A10007047C04600000020002934D00123002276
:101A200010B488422CD301242407A14204D281425D
:101A300002D209011B01F8E7E400A14204D281426D
:101A400002D249005B00F8E7884201D3401A1A43EA
:101A50004C08A04202D3001B5C0822438C08A04221
:101A600002D3001B9C082243CC08A04202D3001BD7
:101A7000DC082243002803D01B0901D00909E3E751
:101A8000101C10BC7047002801D00020C04307B4D0
:101A9000024802A14018029003BDC0461900000090
:101AA0000029F0D003B5FFF7B9FF0EBC4243891AF5
:101AB0001847C0467047C04610B5044C002C02D0F1
:101AC00000E000BF00E0201C10BDC0460000000088
:101AD000094B10B5041C002B03D0002100E000BF0F
:101AE00001E000F00DF805480068816A002900D087
:101AF0008847201C00F060FC00000000E425000086
:101B000038B5084B084C1D1CE01A8410002C06D078
:101B1000A1006A18043A13689847013CF6E700F000
:101B200053FC38BD740000207800002070B50E4BC7
:101B30000E4D0024E81A85101E1CAC4204D0A100F2
:101B4000725890470134F8E700F038FC0849094A18
:101B50000E1C541AA5100024AC4204D0A300F05867
:101B600080470134F8E770BD70000020700000204D
:101B7000700000207400002010B50023934203D0B1
:101B8000CC5CC4540133F9E710BD00B58218031CC6
:101B9000934202D019700133FAE700BD0EB400B5CC
:101BA0009CB01DAB02A904CB822202900861920076
:101BB00009488A810122886048615042074AC881E9
:101BC00010681D9A019300F075F8029900230B70BC
:101BD0001CB008BC03B01847FFFFFF7F6C0000205B
:101BE00002780B7801300131002A01D09A42F7D0F7
:101BF000D01A70470023C25C0133002AFBD1581E63
:101C000070470000F7B501919168071C141C00296A
:101C100040D190239289D80002423BD025682169A7
:101C200063696E1A58000096C6180098F50FAB1934
:101C300001305D10A84201DB009D0235381C5305C0
:101C40000FD5291C00F004FB061E13D02169009A51
:101C5000FFF792FFA7891649802239401143A181DD
:101C600011E02A1C00F04AFB061E0CD1381C216929
:101C700000F0A6FA0C203860A58940263543A581DE
:101C80000124604213E0009B6561F018ED1A2661A3
:101C90002060A560A668002E08DD694627680A79DD
:101CA0003A70A3680137013B2760A3600020FEBDA6
:101CB0007FFBFFFFF0B5A1B0049007938B890E1C4A
:101CC000171C19060FD53269002A0CD1402100F0EB
:101CD000BFFA30603061002803D1049C0C262660D6
:101CE000D6E04020706108AD0021202430236961D6
:101CF0006C76AB763C1C2278002A04D1E01B06905F
:101D000019D003970FE0252AF8D00134F3E703999F
:101D1000321C09780498FFF775FF039A0132039289
:101D2000013000D1AFE003990698CB1B8342EEDB74
:101D30000D9F3A180D922178002900D1A3E00120CF
:101D40006A4600234742633201342B60EB606F60C8
:101D5000AB601370AB65504F2178381C052200F042
:101D6000C1FA002807D0C71B2B680120B8401843D0
:101D700028600134EFE72B68D90603D56846202197
:101D8000633001701A0703D56A462B276332177038
:101D900021782A2901D00B9B0EE0079A1068111DAB
:101DA0000791002801DB0B9004E002224742134315
:101DB000EF602B60013409E020783038092804D81E
:101DC0000A277B4301341B18F6E70B9323782E2B4D
:101DD00018D161782A2909D1079B02341A68191D84
:101DE0000791002A0DDA012042420AE00134002264
:101DF00020783038092804D80A277A430134121889
:101E0000F6E70992254F2178381C032200F06AFA80
:101E1000002806D02B68C21B40219140194329603D
:101E2000013421781E4806222976671C00F05AFAF0
:101E3000002817D01B4800280BD12868079C0723CF
:101E4000C10501D5E41800E007349C430834079429
:101E500014E007AA00920498291C321C124B00E0DF
:101E600000BF07E007AC00940498291C321C0E4BFD
:101E700000F08CF8059005994A1C04D00D99059A3C
:101E80008C180D9436E7B589690601D40D9801E0E8
:101E90000127784221B0F0BDE8250000EE250000C2
:101EA000F225000000000000051C0000F7B5151C1D
:101EB00001930A698B6800900C1C934200DA131C92
:101EC000201C2B6043300178002901D001332B60A6
:101ED0002668B00602D52F6802372F6022680626D2
:101EE00016401CD0261C4336377822683E1C731ED1
:101EF0009E4192061CD5A319181C40303021271C86
:101F0000C17045373A784133DA70023610E0617EAD
:101F10000098019A089FB847013006D00136E3685F
:101F20002868191A8E42F2DBDCE7012040422CE0DF
:101F30000027B7420ADAE119433109780098019A7B
:101F4000089B98470130F0D00137F2E72B682568ED
:101F500006212940E6680025042903D1F01AC74369
:101F6000FD170540A2682669B24201DD931BED18FA
:101F70000027AF4208DAA17E0098019A089EB04778
:101F80000130D2D00137F4E70020FEBDF0B50D1CC2
:101F90008BB0433507930590069204950A7E0C1C7E
:101FA000109B6E2A00D1A8E012D8632A24D009D849
:101FB000002A00D1B1E0582A00D0C1E045310A70B2
:101FC0007D4D51E0642A1FD0692A00D0B8E01BE0A3
:101FD000732A00D1A5E009D86F2A2BD0702A00D02F
:101FE000AEE00A68202616430E6038E0752A21D03C
:101FF000782A00D0A4E032E018680E1C051D1D6090
:102000000368423633709EE026681F68300606D4A7
:10201000750604D5381D186000203D5E02E03D1DA8
:102020001D603D68644B002D3BDA04992D226D4202
:102030000A7036E027681E683D0605D4780603D589
:10204000351D1D60358802E0311D196035685A4B19
:10205000207E039308276F281ED00A271CE0271C28
:1020600045377820554D38701A682668111D03953C
:102070001960300603D4750601D5158800E015688F
:10208000F00702D520231E4326601027002D03D120
:102090002668202086432660261C433600223270A4
:1020A00001E003930A276168A160002903DB20682F
:1020B000042398432060002D02D1049E00290ED0F5
:1020C000049E281C391CFFF7EBFC039A013E515C6F
:1020D000281C3170391CFFF79FFC051EF1D1049BB1
:1020E0009A1B2261082F33D12768F80730D5606822
:1020F00090422DDC013262602AE008681E6849695E
:10210000050606D4450604D5351D1D6033681980C3
:1021100003E0321D1A603768396000202061049E98
:1021200016E01E68311D19603668301CFFF762FD2D
:1021300065682061A84200D925612369636004E0D5
:10214000261C4236327001212161049F00223A7020
:1021500007990598009109AA211C069BFFF7A6FE86
:1021600001300CD0351C2269AB1B93420ADA297866
:102170000598069A079FB84701350130F3D101222F
:10218000504217E02668B10705D4099BE0689842E1
:1021900010DA181C0EE00025E7680998391A8D42FC
:1021A000F3DA617E0598069A079EB0470130E6D0C3
:1021B0000135F1E70BB0F0BDF92500000A2600005B
:1021C00030B5002940D004390B68002B00DAC9185B
:1021D0001E4A1368141C002B02D14B60116033E0BF
:1021E00099420FD20D684A199A4205D110682B18EE
:1021F00055680B604D6000E04B60216024E08A422E
:1022000003D8131C5A68002AF9D11D685C198C4246
:102210000BD10C682D1958191D60904214D111680A
:1022200052686C181C605A600EE08C4202D90C2176
:10223000016009E008680D18954203D114685268DE
:10224000001908604A60596030BDC046A4000020F3
:1022500070B50323CD1C9D430835061C0C2D01D2FF
:102260000C2501E0002D2DDB8D422BD31C4A136879
:10227000111C1C1C002C12D02068421B0CD40B2AF1
:1022800002D92260A41815E0A34202D166680E604C
:102290001CE065685D6019E0231C6468EAE7301C97
:1022A000291C00F051F8421C0CD0C41C03218C43A3
:1022B000844201D1256009E0211A301C00F044F865
:1022C0000130F7D10C243460002008E0201C0B30D2
:1022D0000722211D9043431A01D05D42E55070BD95
:1022E000A400002000B5C9B28218904204D003783F
:1022F0008B4202D00130F8E7002000BDF8B5061C83
:102300000C1C151C002904D1111CFFF7A1FF041C93
:1023100018E0002A03D1FFF753FF2C1C12E000F055
:1023200025F8A8420ED2301C291CFFF791FF071E8A
:1023300007D0211C2A1CFFF71FFC301C211CFFF7B3
:102340003FFF3C1C201CF8BD38B5074C0023051C82
:10235000081C236000F014F8431C03D121680029F5
:1023600000D0296038BDC0462001002004390B6828
:1023700000B5181F002B02DAC8581918081F00BD35
:102380000A4A00B51368002B0CD018186946884219
:1023900002D81060181C00BD054B0C2201201A60E9
:1023A0004342F7E7034B1360EFE7C046A800002065
:1023B000200100202801002000B5FEE7F8B5C04646
:1023C000F8BC08BC9E467047F8B5C046F8BC08BCCF
:1023D0009E467047415400004F4B00000A546573FD
:1023E000744641494C0A000041542B41445649254A
:1023F000630000004F4B2B5365743A2563000000C7
:102400000A4164764641494C0A00000041542B526F
:1024100045534554000000004F4B2B524553455443
:10242000000000000A52657365744641494C0A0079
:1024300041542B4E414D4525730000004F4B2B530B
:1024400065743A25730000000A4E616D6546414986
:102450004C0A000041542B504F57452563000000A3
:102460000A506F774641494C0A00000041542B53F3
:1024700054415254000000004F4B2B5354415254CE
:10248000000000000A53746172744641494C0A000E
:1024900041542B42415544256300000001000100D6
:1024A00001010000000000003C6D01000000000080
:1024B0000A4552524F523A204932435F6765745F72
:1024C00074696D656F75740A000000004932435FDE
:1024D0007365745F74696D656F75740A0000000040
:1024E0006932635343414E004465746563746564A7
:1024F00020493243206465766963653A202564206B
:10250000253032780A0000004C3A2025642E2564DC
:10251000205B25645D000000543A25642E2564206C
:102520005B25645D00000000503A25642564256445
:10253000205B25645D000000C80E0000CA0E00008C
:10254000CE0E0000D20E0000D60E0000EE0E0000EF
:10255000B20E0000C2100000461100002811000059
:102560000E110000C2100000C2100000FC1000009C
:10257000C2100000C2100000E0100000C2100000F5
:10258000C2100000AC110000A4110000B81100003E
:10259000A0110000C2100000C2100000C210000014
:1025A0004E110000401200004A12000050120000BC
:1025B0001C1200003A1200006615000026150000EB
:1025C0008C15000096140000C8140000F0140000E0
:1025D000A615000022140000681400000809110864
:1025E0004300000008000020232D302B2000686CE1
:1025F0004C00656667454647003031323334353626
:10260000373839414243444546003031323334355E
:102610003637383961626364656600000000000087
:0826200040E3FF7F0100000010
:102628000080000000366E0100000000000000007D
:102638000000000000000000000000000000000092
:102648000000000000000000E0250000000000007D
:102658000000000000000000000000000000000072
:102668000000000000000000000000000000000062
:102678000000000000000000000000000000000052
:10268800000000000000000000000000080000201A
:082698002909000001090000FE
:040000030000184D94
:00000001FF
