:1008000000100020351A0000671A0000691A000065
:10081000651A0000651A0000651A0000651A0000DC
:10082000651A0000651A0000651A00006B1A0000C6
:10083000651A0000651A00006D1A00006F1A0000AA
:10084000711A0000731A0000751A0000771A000070
:10085000791A00004D0B00007D1A00007F1A00007D
:1008600029100000831A0000851A0000871A000072
:10087000A50C00008B1A00008D1A00008F1A0000D2
:10088000911A0000000000000000000000000000BD
:100890000000000000000000000000000000000058
:1008A0000000000000000000000000000000000048
:1008B0000000000000000000000000000000000038
:1008C0000000000000000000000000000000000028
:1008D0000000000000000000000000000000000018
:1008E0000000000000000000000000000000000008
:1008F00000000000000000000000000000000000F8
:1009000010B5064C2378002B07D10548002802D0EB
:10091000044800E000BF0121217010BD78000020D4
:1009200000000000981F000008B5084B002B03D002
:100930000748084900E000BF07480168002903D0C4
:10094000064A002A00D0904708BDC04600000000BB
:10095000981F00007C0000207800002000000000AC
:10096000164B002B00D1144B9D46402292029A1A3E
:10097000924600218B460F461348144A121A01F082
:10098000F8F90F4B002B00D098470E4B002B00D0EE
:1009900098470020002104460D4600200C49002203
:1009A000002301F07DF901F0B5F92046294600F059
:1009B0009DFA01F081F9C0460000080000100020F7
:1009C0000000000000000000780000203801002036
:1009D000E91C000000B583B000F04CFB124800F0A9
:1009E00011FB12494B6E012B07D8114B02E0013B62
:1009F000002B02D04A6E012AF9D90222684601F082
:100A0000AFF900236A4668460A49937001F0BAF9C3
:100A1000002804D100F02EFB002003B000BD0648E2
:100A200000F0F0FA0120F8E7B41D0000A800002053
:100A3000A0860100B81D0000BC1D000010B50122F9
:100A400082B00120012100F0D1FC1448032100F004
:100A500025FC1348012100F017FB01AC11480121CE
:100A600000F012FB0322201C0F4901F079F9012349
:100A70002370A370002000230C49637000F042FF34
:100A80000B4B0222D969201C0A43DA61094B8022F0
:100A900052011A6000F044FF02B010BD02000600CF
:100AA00030040800002304007C1E0000CB0C000072
:100AB0000000084000E100E070B51E4D84B0281C25
:100AC000012100F0E1FA1C4B6A4643CB43C21B688C
:100AD0001A481360012100F0D7FA281C012100F008
:100AE000D3FA022001210A22012300F0B7FC0220E0
:100AF00000210A22012300F0B1FC114B02229A6569
:100B00001048DA659A65DA659A65DA659A65DA6594
:100B10009A65DA659A65DA659A65DA659A65DA65DD
:100B20009A65DA65084B6946836300F0F5FC04B00A
:100B300070BDC04600B20200801E0000108102009D
:100B40000060004000A000400304000008B5034816
:100B500000F024FD024B187008BDC04600A0004004
:100B60001401002030B587B001AC218001216180E3
:100B700069464B7002230A70238100AA211C02924D
:100B800000F08AFE0C4D287001280BD10B4C01E0BF
:100B9000013C0FD30A4800F001FD28700128F7D06E
:100BA000002C02D040B207B030BD064800F02AFA4F
:100BB0002878F7E70120F5E714010020DF9304000F
:100BC00000A00040AC1E000010B588B003AB0422AA
:100BD00019805A80694600220A704A7000AA04925D
:100BE00001221A8101AA069208221A820B48191CB6
:100BF00000F052FE012809D1094C02E0013C002C12
:100C000009D0064800F0CAFC0128F7D040B24342A0
:100C1000584108B010BD0020FBE7C04600A00040CE
:100C2000E093040070B586B001AC1E1C0423638001
:100C30006B461A7000AB0293012323810A9B21802B
:100C40002682211C049300F027FE0B4D28700128FA
:100C50000BD10A4C01E0013C0AD3094800F09EFC8C
:100C600028700128F7D0013402D0301C06B070BDC6
:100C7000044800F0C7F9F8E714010020DF930400EE
:100C800000A00040AC1E000008B50448012100F09F
:100C9000FBF90348012100F0F7F908BD10810200BB
:100CA00000720200F0B54D465F4656464446F0B429
:100CB000854DB5B02B68002B15D1844B5A6E002A98
:100CC0003BD12B6801332B602B68092B01DD0023FE
:100CD0002B607F4B02229A6135B03CBC904699460E
:100CE000A246AB46F0BD2B68062B30D02B68022BFA
:100CF000E7D1784C23780F2BE3D97C2000F076F9EC
:100D0000754F02AE21783B78744800960022FFF7B9
:100D100089FF3B780024002B06D0305D00F066F997
:100D20003B780134A342F8DC7C2000F05FF9337893
:100D3000002B00D10A233B70C3E75A6E042A03D963
:100D40005A78572A00D1B7E000F094F9B9E764491E
:100D5000604B0C78894667001F21624EFFB29846AF
:100D60008A46391C5D48FFF72FFF5246224063092F
:100D7000012191409B000A1CF158002800D195E008
:100D80000A43F250584A6100137893469C46002B60
:100D90000ED0424613788B4216D04346404601336C
:100DA000604403E01A7801338A420DD08342F9D1BE
:100DB0000F2909DD434663441F7063460133DBB2EC
:100DC00059460B700A2B74D04A4613780134023707
:100DD000E4B2DA1CFFB2A242C3DA00227B2B01D8B4
:100DE0000433DAB24B467C201A7000F0FFF83078FA
:100DF00000F0FCF8707800F0F9F8B07800F0F6F840
:100E0000F07800F0F3F8307900F0F0F8707900F045
:100E1000EDF8B07900F0EAF8F07900F0E7F8307A10
:100E200000F0E4F8707A00F0E1F8B07A00F0DEF853
:100E3000F07A00F0DBF8307B00F0D8F8707B00F03F
:100E4000D5F8B07B00F0D2F8F07B00F0CFF85D2051
:100E500000F0CCF84146087800F0C8F842465078D7
:100E600000F0C4F84346987800F0C0F84146C878CE
:100E700000F0BCF84246107900F0B8F843465879C3
:100E800000F0B4F84146887900F0B0F84246D079D5
:100E900000F0ACF84346187A00F0A8F84146487ACA
:100EA00000F0A4F87C2000F0A1F80AE79143F1508B
:100EB0008AE709230B7087E7197808489A78DB7866
:100EC000FFF750FE40E7C04694000020A800002035
:100ED00000000840280100200000002000A0004081
:100EE00099000020180100209800002008B5FFF7A5
:100EF000CBFE144A0023136093605360D360124A00
:100F00001360536013725372104A1370FFF7D4FDCD
:100F1000E120400200F020F8FFF75CFD0A220C4BB4
:100F2000C046013B002BFBD1013A002AF7D1002833
:100F3000F2D1FFF783FD074B04211A698A431A6136
:100F400030BFFAE718010020280100209800002097
:100F500040420F0000ED00E010B5012186B0041CF6
:100F60001D4800F091F8032007210422012300F01E
:100F700075FA032006210122002300F06FFA69466A
:100F800000230294154C0B7001930B73CB81052247
:100F900080234A735B010022201C0B828A74CA746E
:100FA0000A7500F0D5FC0E4BC02063650D4B802107
:100FB000A364E26C04231343E36480220A4B92008F
:100FC0004000490019501A501960201C1A60052170
:100FD00000F0B8FC06B010BD0032020000C40040B2
:100FE00003020000FF1F000000E100E000B504491B
:100FF00040220B691A42FCD0014B586300BDC04629
:1010000000C40040074930B540220024055D002D92
:1010100007D00B691A42FCD0024B01345D63962C59
:10102000F4D130BD00C40040104808B503691A0669
:1010300000D408BD00F0F6FC0D4B68229A5C002A33
:101040000FD15A6E98545A6E01325A66002802D156
:101050000121692299545A6E632A02D9012168221A
:101060009954024B04229A64E3E7C04600C400404E
:10107000A8000020034B002269215A665A546821B7
:101080005A547047A8000020030570B51B0F062BAB
:101090000ED8124A9B00D3589F46114AC003C00E77
:1010A000136801248440A3438140181C0843106046
:1010B00070BD0C4AF2E70C4AF0E70C4AEEE70C4A26
:1010C00001240C4DC0036B6DC00EDE07E8D42B6D00
:1010D0002342FCD1E4E71024074AF2E7E81E0000AF
:1010E00078800C4008800C4044800C4040800C40CC
:1010F00058800C4000800C4060800C4008B5F823FC
:101100009B031840C023DB02984200D173E00ED944
:1011100090235B03984249D017D9A0235B039842E0
:1011200053D0D0235B0398422ED000200CE08023C4
:101130009B02984200D16FE08023DB02984220D0CE
:101140000028F2D100F0FEFC08BD80231B0398426A
:10115000EBD14C4A0321936A0B40022B00D183E070
:10116000032B00D17CE0012B6AD0936A00201B0C7A
:1011700001D000F03BFD434B0F229B6E1340D84043
:10118000E2E700F087FCDFE73E4BE0215B69C90046
:1011900080220B40920093426FD045D9C02292002A
:1011A000934268D08B42C0D13748CDE7354A936A25
:1011B0001B079B0F022B4DD0032B47D0012B3CD09C
:1011C000936A00201B0DBFD023E02E4A936A1B07B1
:1011D0009B0F022B41D0032B49D0012B33D0936AB4
:1011E00000201B0D01D000F001FD264B03221B6FD8
:1011F0001340D840A8E7234A0321936A0B40022BEF
:1012000028D0032B22D0012B17D0936A00201B0C6F
:101210009AD000F0EBFC97E700F094FC194B0F22FA
:101220009B681340D8408FE7002B28D080225200C3
:10123000934200D079E7154886E700F0D3FC83E7B6
:1012400000F0D0FC97E700F0CDFCCEE700F022FCE8
:10125000400879E700F0CEFC76E700F0CBFCC4E76D
:1012600000F018FC400886E700F0C4FC83E700F0BB
:1012700011FC4008B9E7064866E7064864E70648F7
:1012800062E7C04600800C40406F4001C0D8A70014
:1012900040420F00C0CF6A00809FD50038B50F24B0
:1012A0000440012C0AD0002C00D138BD032CFCD8FE
:1012B0000929FAD8434B89005B589F460929F4D87D
:1012C000414B89005B589F468022802352035B027A
:1012D0000021022C6ED03D4B3D49986A01400A43E3
:1012E0009A62E2E73B4B042219680A431A60032121
:1012F0000C220023EDE7354940230B628022CB6AA4
:101300001A42FCD000F0A0F8042200230121E0E7FB
:101310002E4980235B0080220B629200CB6A13422D
:10132000FCD000F091F8082200230221D1E700222E
:1013300000230021CDE703250123022223490B626C
:10134000CB6A1342FCD000F07FF8234B07225B6886
:10135000111C1940012902D89343012213431E4C4A
:1013600063601A4B5D6200F06FF800F093FB1B4A5C
:10137000636881181A4A914216D8072293430122C2
:101380001343154A536090E70125D5E70325402311
:101390008022D3E78023802204255B009200CDE7E2
:1013A000022504230822C9E70E4A9042E9D8072201
:1013B0009343E6E7054A0B43906A0B490840034311
:1013C000936272E7041F00002C1F000000800C4095
:1013D000F3FFEFFF40800C4000000C40FFDB0BFFF1
:1013E000FF23F4000024F400FCFFFEFF08B50428EE
:1013F00007D8134B80001B589F46124B186200F011
:1014000023F808BD012302200029F6D00D490B6204
:10141000002AF4D00A1CD36A0342FCD000F014F86E
:10142000EFE710232020EFE7802380205B0080007F
:10143000EAE740238020E7E704230820E4E7C046EA
:10144000541F000000800C40024BDA6A024B1A80E5
:101450007047C04600800C409A000020F0B54F460F
:101460004646C0B4C400002A09D0C400012625188D
:101470008E40AD00002B3DD0244FED192E61251874
:10148000AD00072920D8214EAD196F688E00B946EE
:101490000F27B740B0464E46BE43B446171C4646DB
:1014A000B74066463E436E60002A09D1002B25D125
:1014B00001238B40191C2018154B8000C018416077
:1014C0000CBC90469946F0BD104FED19AE68B14680
:1014D000104E8F19BF00B8460F273E1C4746BE402E
:1014E0004F46B743BC464646171CB74066463E4388
:1014F000AE60D9E7064FED196E60C0E72018034FC4
:10150000012380008B40C0190361D9E700600040CF
:1015100010600040F8FFFF3FF8B5002343631B4B0A
:101520000D1C0363036802224978934301224A4059
:10153000520013430360AE68041C2F7B6868002EC2
:1015400014D02268124B1340236023683A021343DD
:101550002360002815D0B300C01A0E4BD95D71432B
:1015600000F04EFB23689A0707D42061236801220C
:1015700093432A7813432360F8BD0028F5D1012056
:10158000F3E70548FFF7BAFDE5E7C046CFFF0100E6
:10159000FFFCFFFF8C1F000010810200F0B55F46CA
:1015A00056464D464446F0B4B84B83B0984200D0FE
:1015B000FDE0B74BB74C5A88A1469446802640229E
:1015C00004249F6819781D79B2469046A346826A22
:1015D000C024E400144000D00CE1082911D9FB22FA
:1015E0005A706146092259801D711A70A74B052057
:1015F0005C63404203B03CBC90469946A246AB4671
:10160000F0BD8C004E463659B74607216446197026
:101610005C801D71960619D5ED007F199B483A89AB
:101620005988C4698A4200D8DBE07D686C54013176
:1016300089B259808A4200D8D3E004234360012A4A
:1016400004D0013A914201D1082343600120D1E73F
:101650000821197080216046490058801D710A4296
:10166000F4D08A4A1163587809221A7087490022F7
:1016700040B24A630128BDD15A700020BAE76646DD
:101680005E801D7179883A88C80600D49AE00620E9
:10169000120A0240F02002434C0701D501210A43FF
:1016A00004211970794B0121596001205A62A1E788
:1016B0005646164200D0B0E04146114200D1D1E07A
:1016C00001637A885E4616426FD0604607225880D2
:1016D0001D711A7001208DE7EA00BA18148964455B
:1016E00000D9ABE07A8801355C46EDB214406CD18C
:1016F0000126324000D0C5E0012D78D95A801D71F5
:1017000008221A70614B02225A60012072E7564685
:10171000164200D081E04146114200D19BE0424692
:1017200002637A885949D40600D5A2E094073CD5D3
:101730001D7166460722ED005E801A707F193B8995
:10174000012B00D082E708234B60012052E760465E
:1017500058801D717A88D1062CD539880622090A4D
:101760001140F022114301221A70484B01205962A6
:101770005A603FE7514611425DD14446144228D198
:10178000022266461A705E801D71012032E75146C2
:10179000114250D14446144206D1062266461A70C0
:1017A0005E801D71012025E7046305210FE70420F9
:1017B00040421FE73988FE2001409407D3D501221B
:1017C0001143D0E7FE20024066E70026B44603211D
:1017D000FDE604637A880321940700D5F7E6052126
:1017E000F5E6012A8CD1294A0821516088E70022B8
:1017F0009446ECE664465C801D71960505D5FD2295
:101800005A70FD2009221A7030E7500501D458782B
:10181000F8E7FE225A70FE20F4E7604658801B4A23
:1018200080211D711163FF21597008211970022355
:1018300053600120DEE662465A80F0E75268604657
:10184000115C124A1D715162624601325A800622B1
:101850001A700120CEE601221A7062465A801D716C
:101860000120C7E604221A7062465A801D710120C9
:10187000C0E6664602225E801D711A703B78012028
:101880004B62B7E65C801D713AE7C04600A000409D
:101890009C000020681F000008B5174B984229D112
:1018A0008368DA0701D5202343604B889A0702D565
:1018B0000A89002A1ED05A0702D50B8A002B19D09C
:1018C0000E4B002201201A711A705A8058709960CC
:1018D000094BC0225A609A6A910609D40648084BFF
:1018E0000363FC23DB004363FFF758FE40B208BDEF
:1018F000DB69F3E7FC20F9E700A000409C00002032
:10190000CFFF010000B5002802D1034B196000BDD4
:101910000128FCD1014BF9E7080008400C00084001
:10192000427800B50378002A01D00222134382785E
:10193000002A01D004221343014A136000BDC046AF
:101940000000084005238B435B00C360C160704703
:10195000F8B52E4B2E4AC3600023036042602D4A27
:1019600083604361C36482642B4A041C0D1C43657D
:10197000904246D08365AB7C002B04D02268802344
:10198000DB0513432360EB7C002B03D02A7D10235F
:101990001343A3652A8A6B7B68681343EA89AF689F
:1019A000134363602E7B00281ED0402E21D0402E92
:1019B00004D9602E1FD02B78E360F8BD002E1CD117
:1019C0001021794380004B08181800F019F9134BC7
:1019D0000438800118402368602293432360236801
:1019E0001E4326606061E6E70D48FFF787FB402E47
:1019F000DDD10621E5E70421E3E7202EDBD1082134
:101A0000DFE703658365C365B5E7C046AA0E00003E
:101A100005100000F91F000000C40040C0FF1F00B7
:101A20001081020000B5802203691A42FCD0C0690F
:101A3000C0B200BD064880470649074A074B9B1ABB
:101A400003DD043BC858D050FBDC054800470000CC
:101A5000E11B0000A41F000000000020780000200F
:101A600061090000FEE7FEE7FEE7FEE7FEE7FEE7AE
:101A7000FEE7FEE7FEE7FEE7FEE7FEE7FEE7FEE73E
:101A8000FEE7FEE7FEE7FEE7FEE7FEE7FEE7FEE72E
:101A9000FEE7C046224AF023D16A9B010B40802119
:101AA00000B549018B4226D0802189018B421FD08D
:101AB000802109018B4210D0D268E023DB00134063
:101AC00080229200934223D018D8002B22D080226B
:101AD000520093421AD1134A01E0134B1A68104B7B
:101AE0000F205B681840114BC240101C1A6000BDEB
:101AF0000F4B1A68F3E780221202F0E7C02292002F
:101B000093420BD08022D200934205D00022E6E718
:101B1000084AE4E7084AE2E7084AE0E7084ADEE75D
:101B200000800C4040B56400080000203401002013
:101B300004000020C0D8A700804F1200406F400171
:101B4000809FD5001E4AF023D16A9B010B40802163
:101B500000B549018B421ED0802189018B4217D0EC
:101B6000802109018B4210D0D268E023DB001340B2
:101B70008022920093421BD010D8002B1AD08022D2
:101B80005200934212D10F4801E00F4B186800BD7C
:101B90000E4B1868FBE780200002F8E7C022920095
:101BA00093420BD08022D200934205D00020EEE772
:101BB0000748ECE70748EAE70748E8E70748E6E7A9
:101BC00000800C4040B564000800002004000020A4
:101BD000C0D8A700804F1200406F4001809FD50001
:101BE0007047C046802000027047C046FA2080003F
:101BF0007047C046014B18687047C046040000207B
:101C0000002934D00123002210B488422CD30124AF
:101C10002407A14204D2814202D209011B01F8E744
:101C2000E400A14204D2814202D249005B00F8E7FD
:101C3000884201D3401A1A434C08A04202D3001B29
:101C40005C0822438C08A04202D3001B9C0822435C
:101C5000CC08A04202D3001BDC082243002803D09A
:101C60001B0901D00909E3E7101C10BC70470028CC
:101C700001D00020C04307B4024802A140180290DE
:101C800003BDC046190000000029F0D003B5FFF7DE
:101C9000B9FF0EBC4243891A1847C0467047C04678
:101CA00010B5044C002C02D000E000BF00E0201C66
:101CB00010BDC04600000000094B10B5041C002BED
:101CC00003D0002100E000BF01E000F00DF805485E
:101CD0000068816A002900D08847201C00F05CF869
:101CE00000000000941F000038B5084B084C1D1C74
:101CF000E01A8410002C06D0A1006A18043A136878
:101D00009847013CF6E700F04FF838BD740000201A
:101D10007800002070B50E4B0E4D0024E81A851097
:101D20001E1CAC4204D0A100725890470134F8E761
:101D300000F034F80849094A0E1C541AA510002472
:101D4000AC4204D0A300F05880470134F8E770BDDE
:101D5000700000207000002070000020740000203F
:101D600010B50023934203D0CC5CC4540133F9E78F
:101D700010BD00B58218031C934202D019700133C4
:101D8000FAE700BD02780B7801300131002A01D05A
:101D90009A42F7D0D01A704700B5FEE7F8B5C046B2
:101DA000F8BC08BC9E467047F8B5C046F8BC08BCF5
:101DB0009E467047415400004F4B00000A54657323
:101DC000744641494C0A000041542B414456492570
:101DD000630000004F4B2B5365743A2563000000ED
:101DE0000A4164764641494C0A00000041542B5296
:101DF00045534554000000004F4B2B52455345546A
:101E0000000000000A52657365744641494C0A009F
:101E100041542B4E414D4525730000004F4B2B5331
:101E200065743A25730000000A4E616D65464149AC
:101E30004C0A000041542B504F57452563000000C9
:101E40000A506F774641494C0A00000041542B5319
:101E500054415254000000004F4B2B5354415254F4
:101E6000000000000A53746172744641494C0A0034
:101E700041542B42415544256300000001000100FC
:101E800001010000000000003C6D010000000000A6
:101E90000A4552524F523A204932435F6765745F98
:101EA00074696D656F75740A000000004932435F04
:101EB0007365745F74696D656F75740A0000000066
:101EC0006932635343414E004465746563746564CD
:101ED00020493243206465766963653A2025642091
:101EE000253032780A000000B0100000B210000067
:101EF000B6100000BA100000BE100000D61000009E
:101F00009A100000AA1200002E1300001013000007
:101F1000F6120000AA120000AA120000E41200004B
:101F2000AA120000AA120000C8120000AA120000A3
:101F3000AA120000941300008C130000A0130000EC
:101F400088130000AA120000AA120000AA120000C2
:101F5000361300002814000032140000381400006A
:101F600004140000221400004E1700000E17000099
:101F7000741700007E160000B0160000D81600008E
:101F80008E1700000A1600005016000008091108FC
:0C1F9000430000000C00002000000000D6
:081F9C00C4E9FF7F0100000011
:101FA4000A0000000080000000366E0100000000FE
:101FB400000000000000000000000000000000001D
:101FC400000000000000000000000000901F00005E
:101FD40000000000000000000000000000000000FD
:101FE40000000000000000000000000000000000ED
:101FF40000000000000000000000000000000000DD
:1020040000000000000000000000000000000000CC
:08201400290900000109000088
:0400000300001A35AA
:00000001FF
