:100800000010002089180000BB180000BD1800006F
:10081000B9180000B9180000B9180000B918000094
:10082000B9180000B9180000B9180000BF1800007E
:10083000B9180000B9180000C1180000C318000062
:1008400055120000C7180000C9180000CB1800009E
:10085000CD1800006D0A0000D1180000D318000068
:10086000350C0000210B0000D9180000DB18000037
:10087000F90C0000DF180000E1180000E318000088
:10088000E51800000000000000000000000000006B
:100890000000000000000000000000000000000058
:1008A0000000000000000000000000000000000048
:1008B0000000000000000000000000000000000038
:1008C0000000000000000000000000000000000028
:1008D0000000000000000000000000000000000018
:1008E0000000000000000000000000000000000008
:1008F00000000000000000000000000000000000F8
:1009000010B5064C2378002B07D10548002802D0EB
:10091000044800E000BF0121217010BD74000020D8
:1009200000000000C01C000008B5084B002B03D0DD
:100930000748084900E000BF07480168002903D0C4
:10094000064A002A00D0904708BDC04600000000BB
:10095000C01C00007800002074000020000000008F
:10096000164B002B00D1144B9D46402292029A1A3E
:10097000924600218B460F461348144A121A01F082
:1009800022F90F4B002B00D098470E4B002B00D0C4
:1009900098470020002104460D4600200C49002203
:1009A000002301F0A7F801F0DFF82046294600F007
:1009B0003BFA01F0ABF8C046000008000010002030
:1009C000000000000000000074000020CC020020A5
:1009D0003D1B000010B5012282B00120012100F072
:1009E0000BFC0E48032100F05FFB0D48012100F0D5
:1009F00051FA01AC0B48012100F04CFA0A490322DC
:100A0000201C01F0D7F801232370A370201C0023C1
:100A1000637000F0AFFE02B010BDC04602000600D9
:100A20003004080000230400F41B0000FA2108B57C
:100A30008900C00301F00EF8411E002000F08CFE7A
:100A400008BDC046044B0222D9690A43DA61034B50
:100A5000802252011A6070470000084000E100E067
:100A6000014B02229A61704700000840044808B513
:100A7000836A036300F0A2FC024B187008BDC046F5
:100A800000A00040A000002084B030B585B0C4B202
:100A900008900991144801210A920B9300F0FAF989
:100AA000201C09990422012300F02AFC201C0A9929
:100AB0000122002300F024FC0C4B6A4631CB31C2EA
:100AC0001B68694613600C9808AB02901B7B0222DE
:100AD00007481B021343436500F0EEFD05B030BC30
:100AE00008BC04B01847C04640051400F81B0000BD
:100AF0000040084038B5051C002405E007480134D3
:100B000000F01CFE962C02D0295D0029F6D1034985
:100B100010228B681A42FCD038BDC0460040084005
:100B20000D4B10B51A6951060FD50C480168002904
:100B30000FD00B4A1468095D5963136801331360C1
:100B4000084B12681B689A4200D010BD0023036056
:100B5000FBE75963F9E7C04600C4004024010020C8
:100B6000280100201C010020044BC82252009A5882
:100B7000013A985C0A384342584170472C010020E2
:100B800084B030B587B0C4B20A900B9124480121DB
:100B90000C920D9300F07EF9201C0B990422012386
:100BA00000F0AEFB201C0C990122002300F0A8FBF2
:100BB0000E9A69461B4C00230B70019302920B7333
:100BC000CB81052280234A735B010022201C0B820B
:100BD0008A74CA740A7500F0E5FD0AAB1B7B032218
:100BE0001B0213436365104BC020A36480210F4B8D
:100BF000802292004000490019500F9D1A500C4865
:100C00000560E56C04202843E0641960201C1A602C
:100C1000052100F0C1FD07B030BC08BC04B0184786
:100C20000032020000C40040FF1F000000E100E0AD
:100C3000C4020020164838B503691A0600D438BD2E
:100C400000F01AFE134CCA235B00E35C002B19D1A1
:100C5000114D635D002B15D1C8235B00E258A054F1
:100C6000E2580132E2500D4B1B68984701280DD025
:100C7000C8235B00E2580A4B9A4203D9CA230122D7
:100C80005B00E254024B04229A64D8E76055EFE718
:100C900000C400402C01002095010000C402002087
:100CA0008F010000054BC821002249005A50044919
:100CB0005A54CA2149005A547047C0462C0100209A
:100CC0009501000008B50848062100F0EDF9074835
:100CD000012100F0DFF80648012100F0DBF80548AB
:100CE000012100F0D7F808BD030012000023040022
:100CF000108102000072020008B537480123C821A4
:100D0000042202E00133792B04D03D2BFAD142506A
:100D10003E23FAE7304AC4230421D150C8200123DE
:100D200002E00133792B04D03D2BFAD111503E2340
:100D3000FAE7294AC4230421D150C820012302E044
:100D40000133792B04D03D2BFAD111503E23FAE721
:100D5000214AC4230421D150C820012302E00133D9
:100D6000792B04D03D2BFAD111503E23FAE71A4AD1
:100D7000C4230421D150C820012302E00133792B80
:100D800004D03D2BFAD111503E23FAE7124AC42376
:100D90000421D150C820012302E00133792B04D073
:100DA0003D2BFAD111503E23FAE70B4AC42304210C
:100DB000D150C820012302E00133792B04D03D2B10
:100DC000FAD111503E23FAE7034A0421C423D1503B
:100DD000FFF746FE08BDC0460060004030B58DB04C
:100DE00002AB03250522E1241A701D736402059BE2
:100DF0000298002101220094FFF746FE0848FFF701
:100E000079FE07AB02221A73064A1D7007980192F9
:100E10000094072106220A9BFFF7B2FE0DB030BDF9
:100E2000081C0000690B000070B5FFF74BFFFFF7CF
:100E3000D5FFFFF7CFFDFA204000FFF7F7FDFFF7E2
:100E400001FE0D4C0D4D00F01FF80D4A0123C82680
:100E50000421A34200D1A95101339342F9D10422C4
:100E6000C423EA500028EED1064B04211A698A43B4
:100E70001A6130BFFAE7C04661EA00000060004036
:100E8000C1D4010000ED00E008B5FFF70BFF002022
:100E900008BDC046030570B51B0F062B0ED8124ABD
:100EA0009B00D3589F46114AC003C00E136801240B
:100EB0008440A3438140181C0843106070BD0C4A55
:100EC000F2E70C4AF0E70C4AEEE70C4A01240C4D1D
:100ED000C0036B6DC00EDE07E8D42B6D2342FCD13E
:100EE000E4E71024074AF2E7141C000078800C4065
:100EF00008800C4044800C4040800C4058800C40DE
:100F000000800C4060800C4008B5F8239B0318401B
:100F1000C023DB02984200D173E00ED990235B031B
:100F2000984249D017D9A0235B03984253D0D023CD
:100F30005B0398422ED000200CE080239B02984255
:100F400000D16FE08023DB02984220D00028F2D14C
:100F500000F022FD08BD80231B039842EBD14C4AD0
:100F60000321936A0B40022B00D183E0032B00D1B5
:100F70007CE0012B6AD0936A00201B0C01D000F0AA
:100F80005FFD434B0F229B6E1340D840E2E700F019
:100F9000ABFCDFE73E4BE0215B69C90080220B40E0
:100FA000920093426FD045D9C0229200934268D0FC
:100FB0008B42C0D13748CDE7354A936A1B079B0F58
:100FC000022B4DD0032B47D0012B3CD0936A00203D
:100FD0001B0DBFD023E02E4A936A1B079B0F022BE9
:100FE00041D0032B49D0012B33D0936A00201B0D35
:100FF00001D000F025FD264B03221B6F1340D84083
:10100000A8E7234A0321936A0B40022B28D0032B25
:1010100022D0012B17D0936A00201B0C9AD000F02D
:101020000FFD97E700F0B8FC194B0F229B681340A7
:10103000D8408FE7002B28D080225200934200D066
:1010400079E7154886E700F0F7FC83E700F0F4FC49
:1010500097E700F0F1FCCEE700F046FC400879E7A6
:1010600000F0F2FC76E700F0EFFCC4E700F03CFC97
:10107000400886E700F0E8FC83E700F035FC400814
:10108000B9E7064866E7064864E7064862E7C046EF
:1010900000800C40406F4001C0D8A70040420F00C4
:1010A000C0CF6A00809FD50038B50F240440012CC2
:1010B0000AD0002C00D138BD032CFCD80929FAD85D
:1010C000434B89005B589F460929F4D8414B89005E
:1010D0005B589F468022802352035B020021022C32
:1010E0006ED03D4B3D49986A01400A439A62E2E75F
:1010F0003B4B042219680A431A6003210C22002387
:10110000EDE7354940230B628022CB6A1A42FCD0BE
:1011100000F0ECF8042200230121E0E72E498023AF
:101120005B0080220B629200CB6A1342FCD000F07D
:10113000DDF8082200230221D1E70022002300214C
:10114000CDE703250123022223490B62CB6A134218
:10115000FCD000F0CBF8234B07225B68111C194030
:10116000012902D89343012213431E4C63601A4B9A
:101170005D6200F0BBF800F0B7FB1B4A63688118A2
:101180001A4A914216D80722934301221343154A63
:10119000536090E70125D5E7032540238022D3E75C
:1011A0008023802204255B009200CDE702250423E2
:1011B0000822C9E70E4A9042E9D807229343E6E79E
:1011C000054A0B43906A0B4908400343936272E758
:1011D000301C0000581C000000800C40F3FFEFFFA3
:1011E00040800C4000000C40FFDB0BFFFF23F400AD
:1011F0000024F400FCFFFEFF08B5042807D8134BB9
:1012000080001B589F46124B186200F06FF808BD13
:10121000012302200029F6D00D490B62002AF4D0E8
:101220000A1CD36A0342FCD000F060F8EFE71023F9
:101230002020EFE7802380205B008000EAE7402346
:101240008020E7E704230820E4E7C046801C000074
:1012500000800C40F0B557464E464546E0B480232A
:101260001F4F5B01FA581F4BFB58134034D4BA6B25
:101270000221141C1C4093439A46884601260025EF
:10128000002C1ED0184A9146264216D0331CBA684C
:10129000AB4049467B502B01D318DB68002B0CD0A8
:1012A000197A01224A401A721A689446002A04D018
:1012B0004A1E9141281C5A68E04764080135002CF9
:1012C000E2D101235B4298444146002905D11CBC70
:1012D00090469946A246F0BDFEE75446CFE7C04689
:1012E00000200C400C10000008100000024BDA6ACD
:1012F000024B1A807047C04600800C4090000020CE
:10130000F0B54F464646C0B4C400002A09D0C40018
:10131000012625188E40AD00002B3DD0244FED193D
:101320002E612518AD00072920D8214EAD196F6810
:101330008E00B9460F27B740B0464E46BE43B4466E
:10134000171C4646B74066463E436E60002A09D1E8
:10135000002B25D101238B40191C2018154B800030
:10136000C01841600CBC90469946F0BD104FED1975
:10137000AE68B146104E8F19BF00B8460F273E1C0D
:101380004746BE404F46B743BC464646171CB7408B
:1013900066463E43AE60D9E7064FED196E60C0E782
:1013A0002018034F012380008B40C0190361D9E747
:1013B0000060004010600040F8FFFF3FF0B55F465E
:1013C00056464D464446F0B4B84B83B0984200D0E0
:1013D000FDE0B74BB74C5A88A14694468026402280
:1013E00004249F6819781D79B2469046A346826A04
:1013F000C024E400144000D00CE1082911D9FB22DC
:101400005A706146092259801D711A70A74B052038
:101410005C63404203B03CBC90469946A246AB4652
:10142000F0BD8C004E463659B74607216446197008
:101430005C801D71960619D5ED007F199B483A898D
:101440005988C4698A4200D8DBE07D686C54013158
:1014500089B259808A4200D8D3E004234360012A2C
:1014600004D0013A914201D1082343600120D1E721
:101470000821197080216046490058801D710A4278
:10148000F4D08A4A1163587809221A7087490022D9
:1014900040B24A630128BDD15A700020BAE76646BF
:1014A0005E801D7179883A88C80600D49AE00620CB
:1014B000120A0240F02002434C0701D501210A43E1
:1014C00004211970794B0121596001205A62A1E76A
:1014D0005646164200D0B0E04146114200D1D1E05C
:1014E00001637A885E4616426FD0604607225880B4
:1014F0001D711A7001208DE7EA00BA18148964453D
:1015000000D9ABE07A8801355C46EDB214406CD16D
:101510000126324000D0C5E0012D78D95A801D71D6
:1015200008221A70614B02225A60012072E7564667
:10153000164200D081E04146114200D19BE0424674
:1015400002637A885949D40600D5A2E094073CD5B5
:101550001D7166460722ED005E801A707F193B8977
:10156000012B00D082E708234B60012052E7604640
:1015700058801D717A88D1062CD539880622090A2F
:101580001140F022114301221A70484B0120596288
:101590005A603FE7514611425DD14446144228D17A
:1015A000022266461A705E801D71012032E75146A4
:1015B000114250D14446144206D1062266461A70A2
:1015C0005E801D71012025E7046305210FE70420DB
:1015D00040421FE73988FE2001409407D3D50122FD
:1015E0001143D0E7FE20024066E70026B4460321FF
:1015F000FDE604637A880321940700D5F7E6052108
:10160000F5E6012A8CD1294A0821516088E7002299
:101610009446ECE664465C801D71960505D5FD2276
:101620005A70FD2009221A7030E7500501D458780D
:10163000F8E7FE225A70FE20F4E7604658801B4A05
:1016400080211D711163FF21597008211970022337
:1016500053600120DEE662465A80F0E75268604639
:10166000115C124A1D715162624601325A80062293
:101670001A700120CEE601221A7062465A801D714E
:101680000120C7E604221A7062465A801D710120AB
:10169000C0E6664602225E801D711A703B7801200A
:1016A0004B62B7E65C801D713AE7C04600A000407F
:1016B00094000020941C0000036C70B5041C0D1CE9
:1016C000DA0703D40222636C1A42FCD10A23636056
:1016D000636C002BFCD10123236423682A7B1C212B
:1016E0008B4313436A7B68681343AA7BAE6813433A
:1016F000236000280AD10E4B9C4204D02B786360F3
:101700000023236470BD0B48FFF7FEFB311C400132
:1017100000F0A0F9011C084B2039C9001940236CC6
:10172000DA0703D40422636C1A42FCD1E160E5E7D6
:101730000040084040051400F87F000000B510226A
:1017400083681A42FCD0036CDA0703D44022436C4E
:101750001A42FCD1816200BD00B5002802D1034BC2
:10176000196000BD0128FCD1014BF9E708000840D1
:101770000C000840427800B50378002A01D002220C
:1017800013438278002A01D004221343014A1360D4
:1017900000BDC0460000084005238B435B00C360CA
:1017A000C1607047F8B52E4B2E4AC360002303601A
:1017B00042602D4A83604361C36482642B4A041CE7
:1017C0000D1C4365904246D08365AB7C002B04D052
:1017D00022688023DB0513432360EB7C002B03D0BE
:1017E0002A7D10231343A3652A8A6B7B6868134301
:1017F000EA89AF68134363602E7B00281ED0402E19
:1018000021D0402E04D9602E1FD02B78E360F8BD84
:10181000002E1CD11021794380004B08181800F0CD
:1018200019F9134B04388001184023686022934350
:10183000236023681E4326606061E6E70D48FFF7DA
:1018400063FB402EDDD10621E5E70421E3E7202EEE
:10185000DBD10821DFE703658365C365B5E7C046D3
:10186000AA0E000005100000F91F000000C400408F
:10187000C0FF1F001081020000B5802203691A42D8
:10188000FCD0C069C0B200BD064880470649074A7F
:10189000074B9B1A03DD043BC858D050FBDC0548BE
:1018A00000470000351A0000CC1C0000000000209A
:1018B0007400002061090000FEE7FEE7FEE7FEE796
:1018C000FEE7FEE7FEE7FEE7FEE7FEE7FEE7FEE7F0
:1018D000FEE7FEE7FEE7FEE7FEE7FEE7FEE7FEE7E0
:1018E000FEE7FEE7FEE7C046224AF023D16A9B01ED
:1018F0000B40802100B549018B4226D0802189010F
:101900008B421FD0802109018B4210D0D268E02386
:10191000DB00134080229200934223D018D8002B82
:1019200022D08022520093421AD1134A01E0134B75
:101930001A68104B0F205B681840114BC240101CF6
:101940001A6000BD0F4B1A68F3E780221202F0E71D
:10195000C022920093420BD08022D200934205D045
:101960000022E6E7084AE4E7084AE2E7084AE0E737
:10197000084ADEE700800C4040B564000400002007
:10198000C802002000000020C0D8A700804F12002D
:10199000406F4001809FD5001E4AF023D16A9B0111
:1019A0000B40802100B549018B421ED08021890166
:1019B0008B4217D0802109018B4210D0D268E023DE
:1019C000DB0013408022920093421BD010D8002BE2
:1019D0001AD080225200934212D10F4801E00F4BDF
:1019E000186800BD0E4B1868FBE780200002F8E77E
:1019F000C022920093420BD08022D200934205D0A5
:101A00000020EEE70748ECE70748EAE70748E8E781
:101A10000748E6E700800C4040B564000400002061
:101A200000000020C0D8A700804F1200406F400186
:101A3000809FD5007047C046802000027047C04696
:101A4000FA2080007047C046014B18687047C046B6
:101A500000000020002934D00123002210B4884265
:101A60002CD301242407A14204D2814202D20901CD
:101A70001B01F8E7E400A14204D2814202D24900EE
:101A80005B00F8E7884201D3401A1A434C08A04291
:101A900002D3001B5C0822438C08A04202D3001B27
:101AA0009C082243CC08A04202D3001BDC0822433E
:101AB000002803D01B0901D00909E3E7101C10BC62
:101AC0007047002801D00020C04307B4024802A19B
:101AD0004018029003BDC046190000000029F0D054
:101AE00003B5FFF7B9FF0EBC4243891A1847C04639
:101AF0007047C04610B5044C002C02D000E000BF77
:101B000000E0201C10BDC04600000000094B10B5CD
:101B1000041C002B03D0002100E000BF01E000F016
:101B20000DF805480068816A002900D08847201C0C
:101B300000F052F800000000BC1C000038B5084B53
:101B4000084C1D1CE01A8410002C06D0A1006A1855
:101B5000043A13689847013CF6E700F045F838BDB1
:101B6000700000207400002070B50E4B0E4D002454
:101B7000E81A85101E1CAC4204D0A1007258904790
:101B80000134F8E700F02AF80849094A0E1C541AF3
:101B9000A5100024AC4204D0A300F05880470134C3
:101BA000F8E770BD6C0000206C0000206C00002085
:101BB0007000002010B50023934203D0CC5CC454C5
:101BC0000133F9E710BD00B58218031C934202D01F
:101BD00019700133FAE700BD00B5FEE7F8B5C0465D
:101BE000F8BC08BC9E467047F8B5C046F8BC08BCB7
:101BF0009E46704701000100050000000000000043
:101C00008025000000000000537461727475700A32
:101C100000000000BC0E0000BE0E0000C20E00005E
:101C2000C60E0000CA0E0000E20E0000A60E000064
:101C3000B61000003A1100001C1100000211000053
:101C4000B6100000B6100000F0100000B610000042
:101C5000B6100000D4100000B6100000B61000004E
:101C6000A011000098110000AC11000094110000B8
:101C7000B6100000B6100000B610000042110000BF
:101C8000341200003E120000441200001012000046
:101C90002E1200006E1500002E1500009415000095
:101CA0009E140000D0140000F8140000AE150000CF
:101CB0002A140000701400004300000008000020F7
:041CC0000000000020
:081CC4009CECFF7F0100000011
:101CCC000080000000366E010000000000000000E3
:101CDC0000000000000000000000000000000000F8
:101CEC000000000000000000B81C00000000000014
:101CFC0000000000000000000000000000000000D8
:101D0C0000000000000000000000000000000000C7
:101D1C0000000000000000000000000000000000B7
:101D2C000000000000000000000000002909000075
:041D3C000109000099
:040000030000188958
:00000001FF
