:100800000010002085160000B7160000B916000081
:10081000B5160000B5160000B5160000B5160000AC
:10082000B5160000B5160000B5160000BB16000096
:10083000B5160000B5160000BD160000BF1600007A
:10084000C1160000C3160000C5160000C716000040
:10085000C9160000D90B0000CD160000CF1600000D
:10086000690D0000D3160000D5160000D716000051
:100870000D0C0000DB160000DD160000DF16000086
:10088000E116000000000000000000000000000071
:100890000000000000000000000000000000000058
:1008A0000000000000000000000000000000000048
:1008B0000000000000000000000000000000000038
:1008C0000000000000000000000000000000000028
:1008D0000000000000000000000000000000000018
:1008E0000000000000000000000000000000000008
:1008F00000000000000000000000000000000000F8
:1009000010B5064C2378002B07D10548002802D0EB
:10091000044800E000BF0121217010BD78000020D4
:1009200000000000D423000008B5084B002B03D0C2
:100930000748084900E000BF07480168002903D0C4
:10094000064A002A00D0904708BDC04600000000BB
:10095000D42300007C00002078000020000000006C
:10096000164B002B00D1144B9D46402292029A1A3E
:10097000924600218B460F461348144A121A01F082
:1009800020F80F4B002B00D098470E4B002B00D0C7
:1009900098470020002104460D4600200C49002203
:1009A000002300F0A5FF00F0DDFF2046294600F0FF
:1009B0004BF900F0A9FFC04600000800001000201D
:1009C000000000000000000078000020240100204A
:1009D0003919000008B5022000210422002300F08C
:1009E000DDFB022001210422002300F0D7FB08BD1B
:1009F000F0B5474680B4022090B0002104220023C5
:100A000000F0CCFB002302200121042200F0C6FBF1
:100A100000F0D0F9474800F095F9474C636E012B80
:100A200007D8464B02E0013B002B02D0626E012A40
:100A3000F9D90BAF211C381C022200F0B9FF0023AA
:100A4000381C3F49BB7000F0E7FF002867D100F079
:100A5000B1F93C49382201A800F0BCFF01A800F020
:100A600071F901A800F0E2FF636EFF2606409E4286
:100A700007D9324B02E0013B002B02D0656EAE423B
:100A8000F9D8211C321C06A800F092FF002306AA08
:100A900093552D4B381C191C3822984600F09AFFAC
:100AA00006A8391C00F0B8FF002833D100F082F905
:100AB0002649302201A800F08DFF01A800F042F97C
:100AC00001A800F0B3FF636EFF2606409E4207D9DF
:100AD0001A4B02E0013B002B02D0656EB542F9D300
:100AE000211C321C06A800F063FF002306AA9355C0
:100AF0004146381C302200F06DFF06A8391C00F07A
:100B00008BFF002810D100F055F9002010B004BC74
:100B10009046F0BD0E4800F015F90120F6E70D48AB
:100B200000F010F90120F1E70B4800F00BF901206B
:100B3000ECE7C0460C220000AC000020A0860100BB
:100B400010220000202200002C2200008C22000035
:100B500038220000142200009822000010B5012263
:100B600082B00120012100F0E1FA1448032100F0D5
:100B700035FA1348012100F027F901AC1148012191
:100B800000F022F90322201C0F4900F011FF01237D
:100B90002370A370002000230C49637000F0DAFC7E
:100BA0000B4B0222D969201C0A43DA61094B8022CF
:100BB00052011A6000F0DCFC02B010BD0200060019
:100BC0003004080000230400C8220000FF3F00009A
:100BD0000000084000E100E008B5034800F03CFBDD
:100BE000024B187008BDC04600A00040180100204C
:100BF00008B50448012100F0E7F80348012100F09E
:100C0000E3F808BD10810200007202000B4B00B532
:100C10001A88FA21013292B289B0C9018A4200D9F8
:100C20000022074968461A8000F0D4FE684600F0AA
:100C300089F8044B02229A6109B000BD940000209B
:100C4000CC2200000000084070B5FFF7D1FF00F093
:100C500037F8FFF7BFFE164B01229A65154D0222A9
:100C6000DA651C1CFFF7C4FE0A22061C124BC046A4
:100C7000013B002BFBD1013A002AF7D1281C00F0E0
:100C800061F80A220C4BC046013B002BFBD1013A14
:100C9000002AF7D102232366002EE3D1FFF75EFF7F
:100CA000064B04211A698A431A6130BFFAE7C0462D
:100CB00000600040D022000040420F0000ED00E044
:100CC00030B51A4887B0012100F07EF803200721D3
:100CD0000422012300F062FA0320062101220023EE
:100CE00000F05CFA124A6B4631CA31C331CA31C3D3
:100CF000104C6946201C00F053FC0F4BC02063656C
:100D00000E4B8021A364E26C04231343E36480222E
:100D10000B4B92004000490019501A501960201CDA
:100D20001A60052100F036FC07B030BD0032020029
:100D3000DC22000000C4004003020000FF1F00008E
:100D400000E100E0074930B540220024055D002D98
:100D500007D00B691A42FCD0024B01345D63962C1C
:100D6000F4D130BD00C40040104808B503691A062C
:100D700000D408BD00F07EFC0D4B68229A5C002A6E
:100D80000FD15A6E98545A6E01325A66002802D119
:100D90000121692299545A6E632A02D901216822DD
:100DA0009954024B04229A64E3E7C04600C4004011
:100DB000AC000020034B002269215A665A54682176
:100DC0005A547047AC000020030570B51B0F062B6A
:100DD0000ED8124A9B00D3589F46114AC003C00E3A
:100DE000136801248440A3438140181C0843106009
:100DF00070BD0C4AF2E70C4AF0E70C4AEEE70C4AE9
:100E000001240C4DC0036B6DC00EDE07E8D42B6DC2
:100E10002342FCD1E4E71024074AF2E7F422000061
:100E200078800C4008800C4044800C4040800C408E
:100E300058800C4000800C4060800C4008B5F823BE
:100E40009B031840C023DB02984200D173E00ED907
:100E500090235B03984249D017D9A0235B039842A3
:100E600053D0D0235B0398422ED000200CE0802387
:100E70009B02984200D16FE08023DB02984220D091
:100E80000028F2D100F086FC08BD80231B039842A5
:100E9000EBD14C4A0321936A0B40022B00D183E033
:100EA000032B00D17CE0012B6AD0936A00201B0C3D
:100EB00001D000F0C3FC434B0F229B6E1340D8407F
:100EC000E2E700F00FFCDFE73E4BE0215B69C90081
:100ED00080220B40920093426FD045D9C0229200ED
:100EE000934268D08B42C0D13748CDE7354A936AE8
:100EF0001B079B0F022B4DD0032B47D0012B3CD05F
:100F0000936A00201B0DBFD023E02E4A936A1B0773
:100F10009B0F022B41D0032B49D0012B33D0936A76
:100F200000201B0D01D000F089FC264B03221B6F13
:100F30001340D840A8E7234A0321936A0B40022BB1
:100F400028D0032B22D0012B17D0936A00201B0C32
:100F50009AD000F073FC97E700F01CFC194B0F22AD
:100F60009B681340D8408FE7002B28D08022520086
:100F7000934200D079E7154886E700F05BFC83E7F1
:100F800000F058FC97E700F055FCCEE700F0AAFB14
:100F9000400879E700F056FC76E700F053FCC4E720
:100FA00000F0A0FB400886E700F04CFC83E700F06F
:100FB00099FB4008B9E7064866E7064864E7064833
:100FC00062E7C04600800C40406F4001C0D8A700D7
:100FD00040420F00C0CF6A00809FD50038B50F2473
:100FE0000440012C0AD0002C00D138BD032CFCD8C1
:100FF0000929FAD8434B89005B589F460929F4D840
:10100000414B89005B589F468022802352035B023C
:101010000021022C6ED03D4B3D49986A01400A43A5
:101020009A62E2E73B4B042219680A431A600321E3
:101030000C220023EDE7354940230B628022CB6A66
:101040001A42FCD000F0A0F8042200230121E0E7BE
:101050002E4980235B0080220B629200CB6A1342F0
:10106000FCD000F091F8082200230221D1E70022F1
:1010700000230021CDE703250123022223490B622F
:10108000CB6A1342FCD000F07FF8234B07225B6849
:10109000111C1940012902D89343012213431E4C0D
:1010A00063601A4B5D6200F06FF800F01BFB1B4A97
:1010B000636881181A4A914216D807229343012285
:1010C0001343154A536090E70125D5E703254023D4
:1010D0008022D3E78023802204255B009200CDE7A5
:1010E000022504230822C9E70E4A9042E9D80722C4
:1010F0009343E6E7054A0B43906A0B4908400343D4
:10110000936272E7102300003823000000800C4037
:10111000F3FFEFFF40800C4000000C40FFDB0BFFB3
:10112000FF23F4000024F400FCFFFEFF08B50428B0
:1011300007D8134B80001B589F46124B186200F0D3
:1011400023F808BD012302200029F6D00D490B62C7
:10115000002AF4D00A1CD36A0342FCD000F014F831
:10116000EFE710232020EFE7802380205B00800042
:10117000EAE740238020E7E704230820E4E7C046AD
:101180006023000000800C40024BDA6A024B1A8098
:101190007047C04600800C4096000020F0B54F46D6
:1011A0004646C0B4C400002A09D0C4000126251850
:1011B0008E40AD00002B3DD0244FED192E61251837
:1011C000AD00072920D8214EAD196F688E00B946B1
:1011D0000F27B740B0464E46BE43B446171C46469E
:1011E000B74066463E436E60002A09D1002B25D1E8
:1011F00001238B40191C2018154B8000C01841603A
:101200000CBC90469946F0BD104FED19AE68B14642
:10121000104E8F19BF00B8460F273E1C4746BE40F0
:101220004F46B743BC464646171CB74066463E434A
:10123000AE60D9E7064FED196E60C0E72018034F86
:10124000012380008B40C0190361D9E70060004092
:1012500010600040F8FFFF3FF0B55F4656464D4630
:101260004446F0B4B84B83B0984200D0FDE0B74B91
:10127000B74C5A88A14694468026402204249F6891
:1012800019781D79B2469046A346826AC024E400CC
:10129000144000D00CE1082911D9FB225A70614694
:1012A000092259801D711A70A74B05205C634042CA
:1012B00003B03CBC90469946A246AB46F0BD8C00BC
:1012C0004E463659B7460721644619705C801D7139
:1012D000960619D5ED007F199B483A895988C4694B
:1012E0008A4200D8DBE07D686C54013189B25980B4
:1012F0008A4200D8D3E004234360012A04D0013A93
:10130000914201D1082343600120D1E708211970DF
:1013100080216046490058801D710A42F4D08A4AF3
:101320001163587809221A708749002240B24A6333
:101330000128BDD15A700020BAE766465E801D7153
:1013400079883A88C80600D49AE00620120A02403A
:10135000F02002434C0701D501210A4304211970F2
:10136000794B0121596001205A62A1E75646164285
:1013700000D0B0E04146114200D1D1E001637A884B
:101380005E4616426FD06046072258801D711A7063
:1013900001208DE7EA00BA181489644500D9ABE052
:1013A0007A8801355C46EDB214406CD1012632409A
:1013B00000D0C5E0012D78D95A801D7108221A701D
:1013C000614B02225A60012072E75646164200D055
:1013D00081E04146114200D19BE0424602637A8897
:1013E0005949D40600D5A2E094073CD51D71664644
:1013F0000722ED005E801A707F193B89012B00D017
:1014000082E708234B60012052E7604658801D7137
:101410007A88D1062CD539880622090A1140F02293
:10142000114301221A70484B012059625A603FE76C
:10143000514611425DD14446144228D102226646EB
:101440001A705E801D71012032E75146114250D161
:101450004446144206D1062266461A705E801D710B
:10146000012025E7046305210FE7042040421FE720
:101470003988FE2001409407D3D501221143D0E7DB
:10148000FE20024066E70026B4460321FDE6046321
:101490007A880321940700D5F7E60521F5E6012AAD
:1014A0008CD1294A0821516088E700229446ECE655
:1014B00064465C801D71960505D5FD225A70FD209D
:1014C00009221A7030E7500501D45878F8E7FE2257
:1014D0005A70FE20F4E7604658801B4A80211D7137
:1014E0001163FF21597008211970022353600120F4
:1014F000DEE662465A80F0E752686046115C124AA6
:101500001D715162624601325A8006221A70012012
:10151000CEE601221A7062465A801D710120C7E68C
:1015200004221A7062465A801D710120C0E6664688
:1015300002225E801D711A703B7801204B62B7E673
:101540005C801D713AE7C04600A000409800002072
:101550007423000000B5002802D1034B196000BDC0
:101560000128FCD1014BF9E7080008400C000840B5
:10157000427800B50378002A01D002221343827812
:10158000002A01D004221343014A136000BDC04663
:101590000000084005238B435B00C360C1607047B7
:1015A000F8B52E4B2E4AC3600023036042602D4ADB
:1015B00083604361C36482642B4A041C0D1C436531
:1015C000904246D08365AB7C002B04D022688023F8
:1015D000DB0513432360EB7C002B03D02A7D102313
:1015E0001343A3652A8A6B7B68681343EA89AF6853
:1015F000134363602E7B00281ED0402E21D0402E46
:1016000004D9602E1FD02B78E360F8BD002E1CD1CA
:101610001021794380004B08181800F019F9134B7A
:1016200004388001184023686022934323602368B4
:101630001E4326606061E6E70D48FFF7FFFB402E82
:10164000DDD10621E5E70421E3E7202EDBD10821E7
:10165000DFE703658365C365B5E7C046AA0E0000F2
:1016600005100000F91F000000C40040C0FF1F006B
:101670001081020000B5802203691A42FCD0C069C3
:10168000C0B200BD064880470649074A074B9B1A6F
:1016900003DD043BC858D050FBDC05480047000080
:1016A00031180000E0230000000000207800002036
:1016B00061090000FEE7FEE7FEE7FEE7FEE7FEE762
:1016C000FEE7FEE7FEE7FEE7FEE7FEE7FEE7FEE7F2
:1016D000FEE7FEE7FEE7FEE7FEE7FEE7FEE7FEE7E2
:1016E000FEE7C046224AF023D16A9B010B408021CD
:1016F00000B549018B4226D0802189018B421FD041
:10170000802109018B4210D0D268E023DB00134016
:1017100080229200934223D018D8002B22D080221E
:10172000520093421AD1134A01E0134B1A68104B2E
:101730000F205B681840114BC240101C1A6000BD9E
:101740000F4B1A68F3E780221202F0E7C0229200E2
:1017500093420BD08022D200934205D00022E6E7CC
:10176000084AE4E7084AE2E7084AE0E7084ADEE711
:1017700000800C4040B56400040000201C010020E3
:1017800000000020C0D8A700804F1200406F400129
:10179000809FD5001E4AF023D16A9B010B40802117
:1017A00000B549018B421ED0802189018B4217D0A0
:1017B000802109018B4210D0D268E023DB00134066
:1017C0008022920093421BD010D8002B1AD0802286
:1017D0005200934212D10F4801E00F4B186800BD30
:1017E0000E4B1868FBE780200002F8E7C022920049
:1017F00093420BD08022D200934205D00020EEE726
:101800000748ECE70748EAE70748E8E70748E6E75C
:1018100000800C4040B5640004000020000000205F
:10182000C0D8A700804F1200406F4001809FD500B4
:101830007047C046802000027047C046FA208000F2
:101840007047C046014B18687047C0460000002032
:10185000002934D00123002210B488422CD3012463
:101860002407A14204D2814202D209011B01F8E7F8
:10187000E400A14204D2814202D249005B00F8E7B1
:10188000884201D3401A1A434C08A04202D3001BDD
:101890005C0822438C08A04202D3001B9C08224310
:1018A000CC08A04202D3001BDC082243002803D04E
:1018B0001B0901D00909E3E7101C10BC7047002880
:1018C00001D00020C04307B4024802A14018029092
:1018D00003BDC046190000000029F0D003B5FFF792
:1018E000B9FF0EBC4243891A1847C0467047C0462C
:1018F00010B5044C002C02D000E000BF00E0201C1A
:1019000010BDC04600000000094B10B5041C002BA0
:1019100003D0002100E000BF01E000F00DF8054811
:101920000068816A002900D08847201C00F060FC14
:10193000000000009C23000038B5084B084C1D1C1B
:10194000E01A8410002C06D0A1006A18043A13682B
:101950009847013CF6E700F053FC38BD74000020C6
:101960007800002070B50E4B0E4D0024E81A85104B
:101970001E1CAC4204D0A100725890470134F8E715
:1019800000F038FC0849094A0E1C541AA51000241E
:10199000AC4204D0A300F05880470134F8E770BD92
:1019A00070000020700000207000002074000020F3
:1019B00010B50023934203D0CC5CC4540133F9E743
:1019C00010BD00B58218031C934202D01970013378
:1019D000FAE700BD0EB400B59CB01DAB02A904CB64
:1019E000822202900861920009488A81012288605F
:1019F00048615042074AC88110681D9A019300F05F
:101A000075F8029900230B701CB008BC03B018478E
:101A1000FFFFFF7F6C00002002780B78013001315E
:101A2000002A01D09A42F7D0D01A70470023C25C36
:101A30000133002AFBD1581E70470000F7B5019111
:101A40009168071C141C002940D190239289D8006A
:101A500002423BD02568216963696E1A58000096DE
:101A6000C6180098F50FAB1901305D10A84201DBD4
:101A7000009D0235381C53050FD5291C00F004FBCE
:101A8000061E13D02169009AFFF792FFA789164915
:101A9000802239401143A18111E02A1C00F04AFB49
:101AA000061E0CD1381C216900F0A6FA0C20386003
:101AB000A58940263543A5810124604213E0009B9F
:101AC0006561F018ED1A26612060A560A668002EF9
:101AD00008DD694627680A793A70A3680137013B37
:101AE0002760A3600020FEBD7FFBFFFFF0B5A1B023
:101AF000049007938B890E1C171C19060FD53269A9
:101B0000002A0CD1402100F0BFFA3060306100287B
:101B100003D1049C0C262660D6E04020706108ADFD
:101B200000212024302369616C76AB763C1C22783E
:101B3000002A04D1E01B069019D003970FE0252A54
:101B4000F8D00134F3E70399321C09780498FFF7C1
:101B500075FF039A01320392013000D1AFE003997F
:101B60000698CB1B8342EEDB0D9F3A180D9221782D
:101B7000002900D1A3E001206A46002347426332D6
:101B800001342B60EB606F60AB601370AB65504F3E
:101B90002178381C052200F0C1FA002807D0C71BA5
:101BA0002B680120B840184328600134EFE72B6808
:101BB000D90603D568462021633001701A0703D582
:101BC0006A462B276332177021782A2901D00B9B94
:101BD0000EE0079A1068111D0791002801DB0B9099
:101BE00004E0022247421343EF602B60013409E016
:101BF00020783038092804D80A277B4301341B1881
:101C0000F6E70B9323782E2B18D161782A2909D176
:101C1000079B02341A68191D0791002A0DDA01206A
:101C200042420AE00134002220783038092804D8E2
:101C30000A277A4301341218F6E70992254F2178D2
:101C4000381C032200F06AFA002806D02B68C21B59
:101C50004021914019432960013421781E48062211
:101C60002976671C00F05AFA002817D01B48002874
:101C70000BD12868079C0723C10501D5E41800E0B3
:101C800007349C430834079414E007AA0092049890
:101C9000291C321C124B00E000BF07E007AC009487
:101CA0000498291C321C0E4B00F08CF80590059905
:101CB0004A1C04D00D99059A8C180D9436E7B58905
:101CC000690601D40D9801E00127784221B0F0BDEA
:101CD000A0230000A6230000AA23000000000000AB
:101CE0003D1A0000F7B5151C01930A698B68009036
:101CF0000C1C934200DA131C201C2B60433001782B
:101D0000002901D001332B602668B00602D52F6868
:101D100002372F602268062616401CD0261C433648
:101D2000377822683E1C731E9E4192061CD5A3196B
:101D3000181C40303021271CC17045373A78413398
:101D4000DA70023610E0617E0098019A089FB84769
:101D5000013006D00136E3682868191A8E42F2DB9A
:101D6000DCE7012040422CE00027B7420ADAE11903
:101D7000433109780098019A089B98470130F0D0C8
:101D80000137F2E72B68256806212940E66800251F
:101D9000042903D1F01AC743FD170540A26826693C
:101DA000B24201DD931BED180027AF4208DAA17E95
:101DB0000098019A089EB0470130D2D00137F4E76D
:101DC0000020FEBDF0B50D1C8BB043350793059088
:101DD000069204950A7E0C1C109B6E2A00D1A8E086
:101DE00012D8632A24D009D8002A00D1B1E0582A99
:101DF00000D0C1E045310A707D4D51E0642A1FD00A
:101E0000692A00D0B8E01BE0732A00D1A5E009D808
:101E10006F2A2BD0702A00D0AEE00A682026164325
:101E20000E6038E0752A21D0782A00D0A4E032E094
:101E300018680E1C051D1D600368423633709EE055
:101E400026681F68300606D4750604D5381D18604C
:101E500000203D5E02E03D1D1D603D68644B002D8D
:101E60003BDA04992D226D420A7036E027681E681D
:101E70003D0605D4780603D5351D1D60358802E082
:101E8000311D196035685A4B207E039308276F284F
:101E90001ED00A271CE0271C45377820554D387086
:101EA0001A682668111D03951960300603D475065B
:101EB00001D5158800E01568F00702D520231E43E0
:101EC00026601027002D03D1266820208643266037
:101ED000261C43360022327001E003930A27616812
:101EE000A160002903DB2068042398432060002DB3
:101EF00002D1049E00290ED0049E281C391CFFF735
:101F0000EBFC039A013E515C281C3170391CFFF731
:101F10009FFC051EF1D1049B9A1B2261082F33D12F
:101F20002768F80730D5606890422DDC0132626086
:101F30002AE008681E684969050606D4450604D5E6
:101F4000351D1D603368198003E0321D1A60376843
:101F5000396000202061049E16E01E68311D196062
:101F60003668301CFFF762FD65682061A84200D921
:101F700025612369636004E0261C4236327001212A
:101F80002161049F00223A7007990598009109AADF
:101F9000211C069BFFF7A6FE01300CD0351C2269E0
:101FA000AB1B93420ADA29780598069A079FB8472F
:101FB00001350130F3D10122504217E02668B10704
:101FC00005D4099BE068984210DA181C0EE0002541
:101FD000E7680998391A8D42F3DA617E0598069A06
:101FE000079EB0470130E6D00135F1E70BB0F0BDF8
:101FF000B1230000C223000030B5002940D00439CD
:102000000B68002B00DAC9181E4A1368141C002B39
:1020100002D14B60116033E099420FD20D684A192A
:102020009A4205D110682B1855680B604D6000E08E
:102030004B60216024E08A4203D8131C5A68002AAE
:10204000F9D11D685C198C420BD10C682D195819F7
:102050001D60904214D1116852686C181C605A605F
:102060000EE08C4202D90C21016009E008680D18CD
:10207000954203D114685268001908604A6059609B
:1020800030BDC046A400002070B50323CD1C9D4385
:102090000835061C0C2D01D20C2501E0002D2DDB8E
:1020A0008D422BD31C4A1368111C1C1C002C12D00F
:1020B0002068421B0CD40B2A02D92260A41815E018
:1020C000A34202D166680E601CE065685D6019E09D
:1020D000231C6468EAE7301C291C00F051F8421CFC
:1020E0000CD0C41C03218C43844201D1256009E03B
:1020F000211A301C00F044F80130F7D10C24346070
:10210000002008E0201C0B300722211D9043431AB9
:1021100001D05D42E55070BDA400002000B5C9B2F9
:102120008218904204D003788B4202D00130F8E745
:10213000002000BDF8B5061C0C1C151C002904D19C
:10214000111CFFF7A1FF041C18E0002A03D1FFF7C0
:1021500053FF2C1C12E000F025F8A8420ED2301CD0
:10216000291CFFF791FF071E07D0211C2A1CFFF72F
:102170001FFC301C211CFFF73FFF3C1C201CF8BD3E
:1021800038B5074C0023051C081C236000F014F828
:10219000431C03D12168002900D0296038BDC04606
:1021A0002001002004390B6800B5181F002B02DA4B
:1021B000C8581918081F00BD0A4A00B51368002B3B
:1021C0000CD018186946884202D81060181C00BD4F
:1021D000054B0C2201201A604342F7E7034B1360C2
:1021E000EFE7C046A80000202001002028010020C1
:1021F00000B5FEE7F8B5C046F8BC08BC9E4670477F
:10220000F8B5C046F8BC08BC9E4670474154000073
:102210004F4B00000A546573744641494C0A000054
:1022200041542B4144564925630000004F4B2B532A
:1022300065743A25630000000A4164764641494CC2
:102240000A00000041542B52455345540000000041
:102250004F4B2B5245534554000000000A52657302
:1022600065744641494C0A0041542B4E414D452569
:10227000730000004F4B2B5365743A257300000028
:102280000A4E616D654641494C0A000041542B508D
:102290004F574525630000000A506F774641494C6F
:1022A0000A00000041542B535441525400000000D6
:1022B0004F4B2B5354415254000000000A53746199
:1022C00072744641494C0A00010001002564000077
:1022D00041542B53544152543F0000000000000071
:1022E0000000000080250000000500000010000034
:1022F00000000000F00D0000F20D0000F60D0000DF
:10230000FA0D0000FE0D0000160E0000DA0D0000B0
:10231000EA0F00006E1000005010000036100000A0
:10232000EA0F0000EA0F000024100000EA0F00008E
:10233000EA0F000008100000EA0F0000EA0F00009A
:10234000D4100000CC100000E0100000C810000005
:10235000EA0F0000EA0F0000EA0F0000761000000C
:102360006811000072110000781100004411000093
:10237000621100000A140000CA13000030140000AB
:102380003A1300006C130000941300004A1400007C
:10239000C61200000C1300004300000008000020DB
:1023A000232D302B2000686C4C006566674546473E
:1023B00000303132333435363738394142434445C1
:1023C0004600303132333435363738396162636430
:0823D00065660000000000003A
:0823D80088E5FF7F0100000011
:1023E0000080000000366E010000000000000000C8
:1023F00000000000000000000000000000000000DD
:102400000000000000000000982300000000000011
:1024100000000000000000000000000000000000BC
:1024200000000000000000000000000000000000AC
:10243000000000000000000000000000000000009C
:102440000000000000000000000000000800002064
:08245000290900000109000048
:04000003000016855E
:00000001FF
