:1008000000100020491C00007B1C00007D1C000023
:10081000791C0000791C0000791C0000791C000084
:10082000791C0000791C0000791C00007F1C00006E
:10083000791C0000791C0000811C0000831C000052
:1008400099150000850E0000891C00008B1C00001B
:100850008D1C00006D0A00008D0E0000A50F000029
:10086000AD0C0000310B0000991C00009B1C000027
:10087000710D00009F1C0000A11C0000A31C0000C3
:10088000A51C0000000000000000000000000000A7
:100890000000000000000000000000000000000058
:1008A0000000000000000000000000000000000048
:1008B0000000000000000000000000000000000038
:1008C0000000000000000000000000000000000028
:1008D0000000000000000000000000000000000018
:1008E0000000000000000000000000000000000008
:1008F00000000000000000000000000000000000F8
:1009000010B5064C2378002B07D10548002802D0EB
:10091000044800E000BF0121217010BD74000020D8
:1009200000000000BC20000008B5084B002B03D0DD
:100930000748084900E000BF07480168002903D0C4
:10094000064A002A00D0904708BDC04600000000BB
:10095000BC2000007800002074000020000000008F
:10096000164B002B00D1144B9D46402292029A1A3E
:10097000924600218B460F461348144A121A01F082
:1009800002FB0F4B002B00D098470E4B002B00D0E2
:1009900098470020002104460D4600200C49002203
:1009A000002301F087FA01F0BFFA2046294600F043
:1009B00097FA01F08BFAC0460000080000100020F2
:1009C000000000000000000074000020040300206C
:1009D000FD1E000010B5012282B00120012100F0AF
:1009E000ADFD0E48032100F001FD0D48012100F08E
:1009F000F3FB01AC0B48012100F0EEFB0A49032296
:100A0000201C01F0B7FA01232370A370201C0023DF
:100A1000637001F051F802B010BDC046020006003C
:100A20003004080000230400B41F0000FA2108B5B8
:100A30008900C00301F0EEF9411E002001F02EF8FC
:100A400008BDC046044B0222D9690A43DA61034B50
:100A5000802252011A6070470000084000E100E067
:100A6000014B02229A61704700000840044808B513
:100A7000836A036300F044FE024B187008BDC04651
:100A800000A00040A000002084B030B585B0C4B202
:100A900008900991144801210A920B9300F09CFBE5
:100AA000201C09990422012300F0CCFD201C0A9986
:100AB0000122002300F0C6FD0C4B6A4631CB31C247
:100AC0001B68694613600C9808AB02901B7B0222DE
:100AD00007481B021343436500F090FF05B030BC8C
:100AE00008BC04B01847C04640051400B81F0000F9
:100AF0000040084008B5011C014800F0C1FF08BDD6
:100B00000040084038B5051C002405E007480134C2
:100B100000F0B6FF962C02D0295D0029F6D10349DA
:100B200010228B681A42FCD038BDC04600400840F5
:100B30000D4B10B51A6951060FD50C4801680029F4
:100B40000FD00B4A1468095D5963136801331360B1
:100B5000084B12681B689A4200D010BD0023036046
:100B6000FBE75963F9E7C04600C4004024010020B8
:100B7000280100201C01002000B50E4885B001218D
:100B800000F02AFB002303AA13700B4869460122D8
:100B900000930A704A70642101930293C161436219
:100BA00032234363C36869461A43C26000F096FF6C
:100BB00005B000BD0012020000040140014B80227C
:100BC0001A60704700E100E0014A8023D35070476B
:100BD00000E100E0014B01229A61704700040140EE
:100BE000044BC82252009A58013A985C0A38434292
:100BF000584170472C01002084B030B587B0C4B292
:100C00000A900B91244801210C920D9300F0E4FA14
:100C1000201C0B990422012300F014FD201C0C99C8
:100C20000122002300F00EFD0E9A69461B4C0023A2
:100C30000B70019302920B73CB81052280234A73C0
:100C40005B010022201C0B828A74CA740A7500F0B2
:100C500089FF0AAB1B7B03221B0213436365104B06
:100C6000C020A36480210F4B8022920040004900E5
:100C700019500F9D1A500C480560E56C042028435C
:100C8000E0641960201C1A60052100F065FF07B0C0
:100C900030BC08BC04B018470032020000C4004059
:100CA000FF1F000000E100E0C4020020164838B534
:100CB00003691A0600D438BD00F0BEFF134CCA23E6
:100CC0005B00E35C002B19D1114D635D002B15D146
:100CD000C8235B00E258A054E2580132E2500D4BA9
:100CE0001B68984701280DD0C8235B00E2580A4BC7
:100CF0009A4203D9CA2301225B00E254024B042228
:100D00009A64D8E76055EFE700C400402C0100204A
:100D100095010000C40200208F010000054BC8218E
:100D2000002249005A5004495A54CA2149005A54D1
:100D30007047C0462C0100209501000008B5084806
:100D4000062100F053FB0748012100F045FA064850
:100D5000012100F041FA0548012100F03DFA08BDEB
:100D60000300120000230400108102000072020040
:100D700010B5722084B0FFF7BDFE404C0722211C45
:100D800002A801F0F7F8211C0831042201A801F0A3
:100D9000F1F8AA2002A9072201AB00F0AFF9012364
:100DA0003748C821042202E00133792B04D03D2BBF
:100DB000FAD142503E23FAE7314AC4230421D150EC
:100DC000C820012302E00133792B04D03D2BFAD156
:100DD00011503E23FAE72A4AC4230421D150C820E7
:100DE000012302E00133792B04D03D2BFAD11150BD
:100DF0003E23FAE7224AC4230421D150C82001230C
:100E000002E00133792B04D03D2BFAD111503E235F
:100E1000FAE71B4AC4230421D150C820012302E071
:100E20000133792B04D03D2BFAD111503E23FAE740
:100E3000134AC4230421D150C820012302E0013306
:100E4000792B04D03D2BFAD111503E23FAE70C4AFE
:100E5000C4230421D150C820012302E00133792B9F
:100E600004D03D2BFAD111503E23FAE7044A042165
:100E7000C423D150FFF7F4FD04B010BDC81F00001B
:100E80000060004008B500F08BF808BD08B500F020
:100E900087F808BD30B58DB002AB03250522E124EB
:100EA0001A701D736402059B0298002101220094B0
:100EB000FFF7EAFD0848FFF725FE07AB02221A7389
:100EC000064A1D70079801920094072106220A9B8A
:100ED000FFF792FE0DB030BDD41F0000E10B000003
:100EE00070B588B0FFF72AFFFFF7D4FF194C1A4DF1
:100EF00000F03AF8194A0123C8260421A34200D180
:100F0000A95101339342F9D10422C423EA500028A5
:100F1000EED11348FFF7F6FD02AB02221A701A72E7
:100F20000722079201221A74694606AA11CA11C142
:100F300001230021049A029800F01CF80948FFF7E9
:100F4000E1FDFFF747FDFA208000FFF76FFDFFF797
:100F500079FDFEE761EA000000600040C1D40100B5
:100F6000E01F0000F81F000008B5FFF7D7FE0020C3
:100F700008BDC04684B038B505910849069207936C
:100F800004900B1C04AA31CA31C313CA13C3FFF760
:100F9000F3FD38BC08BC04B01847C046E802002086
:100FA0007047C046F0B5474680B44F4B5A7E002A82
:100FB00040D04E4C2278002A13D14D4A0121137A99
:100FC000D2684C4891400A1CD900CB189B001B18D2
:100FD0001A61237801232370FFF7FCFD04BC9046BF
:100FE000F0BD434D444F2A7AEE68D00082180121AB
:100FF0009200D219B14051601A7C012A6BD0002AAC
:101000001BD05969032A6AD028786F680126BE4030
:10101000C7003818384F8000C01901314660596147
:10102000012A22D0002A27D10829D2D101211974FE
:101030005A61CEE7FFF7C8FDCEE7187859698046B8
:10104000072601200E40071CB74046463E42DBD033
:101050002E786F680131B840F700BE19254FB600F1
:10106000F61930615961012ADCD10429B1D103227A
:101070001A7400225A61ACE7032AAAD11A7AD20064
:101080009142A6D1002201261E765A765A6128780E
:1010900069680122012300F0D5FA287AE968012263
:1010A000012300F0CFFA287C69690122012300F0B6
:1010B000C9FAFFF789FD287C01220123696900F044
:1010C000C1FA2B7AEA680B489640DA00D3189B00E5
:1010D0001B181E617DE75F785969B846B0E75E6806
:1010E000C808305C8046ABE7C8020020E40200205C
:1010F000E80200200060004010600040F0B5574654
:101100004E464546E0B42F4C8246894690461F1C09
:10111000207C61690422012300F094FA257A0126DB
:10112000EA00E1685519284A331CAD008B40AD1820
:101130006B60264D534642462B702A724946002268
:1011400002236B7069606A61EF602A742A766E769A
:10115000207861680422012300F074FA207AE168A3
:101160000422012300F06EFA207C6169042201232D
:1011700000F068FA23786168321C8A40D900CB18E5
:1011800013499B005B181A61237AE168321C8A407C
:10119000D900CB180E499B005B181A616269237C49
:1011A000311C91400A1CD900CB1809499B005B18DF
:1011B0001A61084B1E70FFF701FD1CBC9046994652
:1011C000A246F0BDE802002010600040C8020020E6
:1011D00000600040E4020020030570B51B0F062BE1
:1011E0000ED8124A9B00D3589F46114AC003C00E26
:1011F000136801248440A3438140181C08431060F5
:1012000070BD0C4AF2E70C4AF0E70C4AEEE70C4AD4
:1012100001240C4DC0036B6DC00EDE07E8D42B6DAE
:101220002342FCD1E4E71024074AF2E71020000033
:1012300078800C4008800C4044800C4040800C407A
:1012400058800C4000800C4060800C4008B5F823AA
:101250009B031840C023DB02984200D173E00ED9F3
:1012600090235B03984249D017D9A0235B0398428F
:1012700053D0D0235B0398422ED000200CE0802373
:101280009B02984200D16FE08023DB02984220D07D
:101290000028F2D100F060FD08BD80231B039842B6
:1012A000EBD14C4A0321936A0B40022B00D183E01F
:1012B000032B00D17CE0012B6AD0936A00201B0C29
:1012C00001D000F09DFD434B0F229B6E1340D84090
:1012D000E2E700F0E9FCDFE73E4BE0215B69C90093
:1012E00080220B40920093426FD045D9C0229200D9
:1012F000934268D08B42C0D13748CDE7354A936AD4
:101300001B079B0F022B4DD0032B47D0012B3CD04A
:10131000936A00201B0DBFD023E02E4A936A1B075F
:101320009B0F022B41D0032B49D0012B33D0936A62
:1013300000201B0D01D000F063FD264B03221B6F24
:101340001340D840A8E7234A0321936A0B40022B9D
:1013500028D0032B22D0012B17D0936A00201B0C1E
:101360009AD000F04DFD97E700F0F6FC194B0F22E4
:101370009B681340D8408FE7002B28D08022520072
:10138000934200D079E7154886E700F035FD83E702
:1013900000F032FD97E700F02FFDCEE700F084FC6F
:1013A000400879E700F030FD76E700F02DFDC4E756
:1013B00000F07AFC400886E700F026FD83E700F0A5
:1013C00073FC4008B9E7064866E7064864E7064844
:1013D00062E7C04600800C40406F4001C0D8A700C3
:1013E00040420F00C0CF6A00809FD50038B50F245F
:1013F0000440012C0AD0002C00D138BD032CFCD8AD
:101400000929FAD8434B89005B589F460929F4D82B
:10141000414B89005B589F468022802352035B0228
:101420000021022C6ED03D4B3D49986A01400A4391
:101430009A62E2E73B4B042219680A431A600321CF
:101440000C220023EDE7354940230B628022CB6A52
:101450001A42FCD000F0ECF8042200230121E0E75E
:101460002E4980235B0080220B629200CB6A1342DC
:10147000FCD000F0DDF8082200230221D1E7002291
:1014800000230021CDE703250123022223490B621B
:10149000CB6A1342FCD000F0CBF8234B07225B68E9
:1014A000111C1940012902D89343012213431E4CF9
:1014B00063601A4B5D6200F0BBF800F0F5FB1B4A5D
:1014C000636881181A4A914216D807229343012271
:1014D0001343154A536090E70125D5E703254023C0
:1014E0008022D3E78023802204255B009200CDE791
:1014F000022504230822C9E70E4A9042E9D80722B0
:101500009343E6E7054A0B43906A0B4908400343BF
:10151000936272E72C2000005420000000800C40F1
:10152000F3FFEFFF40800C4000000C40FFDB0BFF9F
:10153000FF23F4000024F400FCFFFEFF08B504289C
:1015400007D8134B80001B589F46124B186200F0BF
:101550006FF808BD012302200029F6D00D490B6267
:10156000002AF4D00A1CD36A0342FCD000F060F8D1
:10157000EFE710232020EFE7802380205B0080002E
:10158000EAE740238020E7E704230820E4E7C04699
:101590007C20000000800C40F0B557464E46454682
:1015A000E0B480231F4F5B01FA581F4BFB581340D8
:1015B00034D4BA6B0221141C1C4093439A468846CB
:1015C00001260025002C1ED0184A9146264216D02E
:1015D000331CBA68AB4049467B502B01D318DB68FB
:1015E000002B0CD0197A01224A401A721A689446CC
:1015F000002A04D04A1E9141281C5A68E04764081A
:101600000135002CE2D101235B4298444146002978
:1016100005D11CBC90469946A246F0BDFEE7544653
:10162000CFE7C04600200C400C100000081000005E
:10163000024BDA6A024B1A807047C04600800C40A9
:1016400090000020F0B54F464646C0B4C400002AC2
:1016500009D0C400012625188E40AD00002B3DD0D6
:10166000244FED192E612518AD00072920D8214EF1
:10167000AD196F688E00B9460F27B740B0464E4689
:10168000BE43B446171C4646B74066463E436E60AE
:10169000002A09D1002B25D101238B40191C2018C9
:1016A000154B8000C01841600CBC90469946F0BDB7
:1016B000104FED19AE68B146104E8F19BF00B846F5
:1016C0000F273E1C4746BE404F46B743BC464646E2
:1016D000171CB74066463E43AE60D9E7064FED198A
:1016E0006E60C0E72018034F012380008B40C019B3
:1016F0000361D9E70060004010600040F8FFFF3F41
:10170000F0B55F4656464D464446F0B4B84B83B0FC
:10171000984200D0FDE0B74BB74C5A88A14694469A
:101720008026402204249F6819781D79B24690468D
:10173000A346826AC024E400144000D00CE10829CA
:1017400011D9FB225A706146092259801D711A7005
:10175000A74B05205C63404203B03CBC90469946D1
:10176000A246AB46F0BD8C004E463659B74607211F
:10177000644619705C801D71960619D5ED007F19BD
:101780009B483A895988C4698A4200D8DBE07D6861
:101790006C54013189B259808A4200D8D3E00423C5
:1017A0004360012A04D0013A914201D108234360E9
:1017B0000120D1E708211970802160464900588036
:1017C0001D710A42F4D08A4A1163587809221A70AE
:1017D0008749002240B24A630128BDD15A700020D7
:1017E000BAE766465E801D7179883A88C80600D4DB
:1017F0009AE00620120A0240F02002434C0701D56D
:1018000001210A4304211970794B012159600120FB
:101810005A62A1E75646164200D0B0E04146114256
:1018200000D1D1E001637A885E4616426FD06046EF
:10183000072258801D711A7001208DE7EA00BA183E
:101840001489644500D9ABE07A8801355C46EDB275
:1018500014406CD10126324000D0C5E0012D78D96A
:101860005A801D7108221A70614B02225A600120B1
:1018700072E75646164200D081E04146114200D13F
:101880009BE0424602637A885949D40600D5A2E01B
:1018900094073CD51D7166460722ED005E801A70E4
:1018A0007F193B89012B00D082E708234B60012080
:1018B00052E7604658801D717A88D1062CD5398848
:1018C0000622090A1140F022114301221A70484BE6
:1018D000012059625A603FE7514611425DD14446AA
:1018E000144228D1022266461A705E801D710120C2
:1018F00032E75146114250D14446144206D10622E5
:1019000066461A705E801D71012025E7046305217B
:101910000FE7042040421FE73988FE20014094076A
:10192000D3D501221143D0E7FE20024066E700260E
:10193000B4460321FDE604637A880321940700D5A9
:10194000F7E60521F5E6012A8CD1294A08215160E4
:1019500088E700229446ECE664465C801D7196059B
:1019600005D5FD225A70FD2009221A7030E7500576
:1019700001D45878F8E7FE225A70FE20F4E760465A
:1019800058801B4A80211D711163FF215970082165
:101990001970022353600120DEE662465A80F0E7A8
:1019A00052686046115C124A1D71516262460132F2
:1019B0005A8006221A700120CEE601221A70624671
:1019C0005A801D710120C7E604221A7062465A80AF
:1019D0001D710120C0E6664602225E801D711A70EC
:1019E0003B7801204B62B7E65C801D713AE7C04648
:1019F00000A000409400002090200000036C70B50F
:101A0000041C0D1CDA0703D40222636C1A42FCD1B9
:101A10000A236360636C002BFCD1012323642368D9
:101A20002A7B1C218B4313436A7B68681343AA7B80
:101A3000AE681343236000280AD10E4B9C4204D0A9
:101A40002B7863600023236470BD0B48FFF7FEFB17
:101A5000311C400100F0DEF9011C084B2039C9009F
:101A60001940236CDA0703D40422636C1A42FCD1B8
:101A7000E160E5E70040084040051400F87F000001
:101A800000B5102283681A42FCD0036CDA0703D435
:101A90004022436C1A42FCD1816200BD00B500288F
:101AA00002D1034B196000BD0128FCD1014BF9E7BD
:101AB000080008400C000840427800B50378002A6E
:101AC00001D0022213438278002A01D0042213435A
:101AD000014A136000BDC0460000084030B50B78D5
:101AE000002B01D102224260002242628C78CA7827
:101AF0002406120422430C7A22438C79A402224346
:101B0000CC79240222434C78651EAC41A4012243C7
:101B10004C7A651EAC41E40122438C7A651EAC41CF
:101B200064012243CC7A651EAC41240122430C7926
:101B3000651EAC41640322434C79097B651EAC41B0
:101B4000240722434C1EA141C9000A430260002B16
:101B500001D00123436030BD05238B435B00C3608C
:101B6000C1607047F8B52E4B2E4AC3600023036056
:101B700042602D4A83604361C36482642B4A041C23
:101B80000D1C4365904246D08365AB7C002B04D08E
:101B900022688023DB0513432360EB7C002B03D0FA
:101BA0002A7D10231343A3652A8A6B7B686813433D
:101BB000EA89AF68134363602E7B00281ED0402E55
:101BC00021D0402E04D9602E1FD02B78E360F8BDC1
:101BD000002E1CD11021794380004B08181800F00A
:101BE00019F9134B0438800118402368602293438D
:101BF000236023681E4326606061E6E70D48FFF717
:101C000025FB402EDDD10621E5E70421E3E7202E68
:101C1000DBD10821DFE703658365C365B5E7C0460F
:101C2000AA0E000005100000F91F000000C40040CB
:101C3000C0FF1F001081020000B5802203691A4214
:101C4000FCD0C069C0B200BD064880470649074ABB
:101C5000074B9B1A03DD043BC858D050FBDC0548FA
:101C600000470000F51D0000C82000000000002013
:101C70007400002061090000FEE7FEE7FEE7FEE7D2
:101C8000FEE7FEE7FEE7FEE7FEE7FEE7FEE7FEE72C
:101C9000FEE7FEE7FEE7FEE7FEE7FEE7FEE7FEE71C
:101CA000FEE7FEE7FEE7C046224AF023D16A9B0129
:101CB0000B40802100B549018B4226D0802189014B
:101CC0008B421FD0802109018B4210D0D268E023C3
:101CD000DB00134080229200934223D018D8002BBF
:101CE00022D08022520093421AD1134A01E0134BB2
:101CF0001A68104B0F205B681840114BC240101C33
:101D00001A6000BD0F4B1A68F3E780221202F0E759
:101D1000C022920093420BD08022D200934205D081
:101D20000022E6E7084AE4E7084AE2E7084AE0E773
:101D3000084ADEE700800C4040B564000400002043
:101D40000003002000000020C0D8A700804F120030
:101D5000406F4001809FD5001E4AF023D16A9B014D
:101D60000B40802100B549018B421ED080218901A2
:101D70008B4217D0802109018B4210D0D268E0231A
:101D8000DB0013408022920093421BD010D8002B1E
:101D90001AD080225200934212D10F4801E00F4B1B
:101DA000186800BD0E4B1868FBE780200002F8E7BA
:101DB000C022920093420BD08022D200934205D0E1
:101DC0000020EEE70748ECE70748EAE70748E8E7BE
:101DD0000748E6E700800C4040B56400040000209E
:101DE00000000020C0D8A700804F1200406F4001C3
:101DF000809FD5007047C046802000027047C046D3
:101E0000FA2080007047C046014B18687047C046F2
:101E100000000020002934D00123002210B48842A1
:101E20002CD301242407A14204D2814202D2090109
:101E30001B01F8E7E400A14204D2814202D249002A
:101E40005B00F8E7884201D3401A1A434C08A042CD
:101E500002D3001B5C0822438C08A04202D3001B63
:101E60009C082243CC08A04202D3001BDC0822437A
:101E7000002803D01B0901D00909E3E7101C10BC9E
:101E80007047002801D00020C04307B4024802A1D7
:101E90004018029003BDC046190000000029F0D090
:101EA00003B5FFF7B9FF0EBC4243891A1847C04675
:101EB0007047C04610B5044C002C02D000E000BFB3
:101EC00000E0201C10BDC04600000000094B10B50A
:101ED000041C002B03D0002100E000BF01E000F053
:101EE0000DF805480068816A002900D08847201C49
:101EF00000F052F800000000B820000038B5084B90
:101F0000084C1D1CE01A8410002C06D0A1006A1891
:101F1000043A13689847013CF6E700F045F838BDED
:101F2000700000207400002070B50E4B0E4D002490
:101F3000E81A85101E1CAC4204D0A10072589047CC
:101F40000134F8E700F02AF80849094A0E1C541A2F
:101F5000A5100024AC4204D0A300F05880470134FF
:101F6000F8E770BD6C0000206C0000206C000020C1
:101F70007000002010B50023934203D0CC5CC45401
:101F80000133F9E710BD00B58218031C934202D05B
:101F900019700133FAE700BD00B5FEE7F8B5C04699
:101FA000F8BC08BC9E467047F8B5C046F8BC08BCF3
:101FB0009E4670470100010005000000000000007F
:101FC0008025000000000000AA55C2112233440001
:101FD000FF556677537461727475700A00000000D3
:101FE000484D313120496E697469616C697A617458
:101FF000696F6E0A000000004D6F64436F6D6D20C5
:10200000496E697469616C697A6174696F6E0A00FE
:102010000012000002120000061200000A12000066
:102020000E12000026120000EA110000FA13000050
:102030007E1400006014000046140000FA13000033
:10204000FA13000034140000FA130000FA13000021
:1020500018140000FA130000FA130000E414000042
:10206000DC140000F0140000D8140000FA13000083
:10207000FA130000FA13000086140000781500001F
:10208000821500008815000054150000721500002C
:10209000B218000072180000D8180000E217000003
:1020A000141800003C180000F21800006E17000021
:1020B000B4170000430000000800002000000000EA
:0820C000A0E8FF7F0100000011
:1020C8000080000000366E010000000000000000E3
:1020D80000000000000000000000000000000000F8
:1020E8000000000000000000B42000000000000014
:1020F80000000000000000000000000000000000D8
:1021080000000000000000000000000000000000C7
:1021180000000000000000000000000000000000B7
:102128000000000000000000000000002909000075
:042138000109000099
:0400000300001C4994
:00000001FF
