:1008000000100020091900003B1900003D190000EC
:100810003919000039190000391900003919000090
:100820003919000039190000391900003F1900007A
:10083000391900003919000041190000431900005E
:100840004519000047190000491900004B19000024
:100850004D1900004D0B0000511900005319000004
:10086000490E000057190000591900005B190000DB
:10087000510C00005F1900006119000063190000AD
:1008800065190000000000000000000000000000EA
:100890000000000000000000000000000000000058
:1008A0000000000000000000000000000000000048
:1008B0000000000000000000000000000000000038
:1008C0000000000000000000000000000000000028
:1008D0000000000000000000000000000000000018
:1008E0000000000000000000000000000000000008
:1008F00000000000000000000000000000000000F8
:1009000010B5064C2378002B07D10548002802D0EB
:10091000044800E000BF0121217010BD74000020D8
:1009200000000000701E000008B5084B002B03D02B
:100930000748084900E000BF07480168002903D0C4
:10094000064A002A00D0904708BDC04600000000BB
:10095000701E0000780000207400002000000000DD
:10096000164B002B00D1144B9D46402292029A1A3E
:10097000924600218B460F461348144A121A01F082
:1009800062F90F4B002B00D098470E4B002B00D084
:1009900098470020002104460D4600200C49002203
:1009A000002301F0E7F801F01FF92046294600F086
:1009B000B3F901F0EBF8C046000008000010002079
:1009C000000000000000000074000020180100205A
:1009D000BD1B000000B583B000F05CFA124800F0C7
:1009E00021FA12494B6E012B07D8114B02E0013B53
:1009F000002B02D04A6E012AF9D90222684601F082
:100A000019F900236A4668460A49937001F024F9EF
:100A1000002804D100F03EFA002003B000BD0648D3
:100A200000F000FA0120F8E7881C0000A400002074
:100A3000A08601008C1C0000901C000010B5012253
:100A400082B00120012100F0E1FB1448032100F0F5
:100A500035FB1348012100F027FA01AC11480121B0
:100A600000F022FA0322201C0F4901F0E3F80123D1
:100A70002370A370002000230C49637000F0ACFECB
:100A80000B4B0222D969201C0A43DA61094B8022F0
:100A900052011A6000F0AEFE02B010BD0200060066
:100AA0003004080000230400501D0000B73E000081
:100AB0000000084000E100E070B51E4D84B0281C25
:100AC000012100F0F1F91C4B6A4643CB43C21B687D
:100AD0001A481360012100F0E7F9281C012100F0F9
:100AE000E3F9022001210A22012300F021FC022067
:100AF00000210A22012300F01BFC114B02229A65FF
:100B00001048DA659A65DA659A65DA659A65DA6594
:100B10009A65DA659A65DA659A65DA659A65DA65DD
:100B20009A65DA65084B6946836300F05FFC04B0A0
:100B300070BDC04600B20200541D000010810200CA
:100B40000060004000A000400304000008B5034816
:100B500000F08EFC024B187008BDC04600A000409B
:100B60001001002030B587B001AC218004216180E4
:100B700069460A7000AA0292012222812282211C67
:100B8000049300F0F3FD0E4D287001280BD10D4C9D
:100B900001E0013C0ED30C4800F06AFC28700128EB
:100BA000F7D0013406D0031C0120002B00D058B22E
:100BB00007B030BD054800F035F92B78F4E7C046A2
:100BC00010010020DF93040000A00040641D00001D
:100BD00070B586B001AC1E1C042363806B461A708E
:100BE00000AB0293012323810A9B21802682211CD2
:100BF000049300F0BBFD0B4D287001280BD10A4C6B
:100C000001E0013C0AD3094800F032FC28700128B9
:100C1000F7D0013402D0301C06B070BD044800F09B
:100C200001F9F8E710010020DF93040000A0004064
:100C3000801D000008B50448012100F035F9034883
:100C4000012100F031F908BD10810200007202009C
:100C5000F0B5474680B4294EB6B03368002B21D09A
:100C6000274D6B6E002B0AD06B6E002B07D0002433
:100C7000285D00F0CBF86B6E01349C42F8D300F095
:100C800009F96423C046013B002BFBD100201D491C
:100C9000336000F0A1FD1C4B02229A6136B004BC07
:100CA0009046F0BD6D460F352B70102100222B1C95
:100CB0001648FFF757FF04AF57232B70102100226F
:100CC00000971248FFF784FF114B0024181C984628
:100CD00000F0A8F82B78002B06D0385D00F096F8CD
:100CE0002B780134A342F8DC404600F09BF8012346
:100CF00000200849336000F06FFDCCE79000002031
:100D0000A4000020B73E00000000084000A0004002
:100D1000BC1D00006506000070B5FFF78BFFFFF7F4
:100D2000CBFEE120400200F027F8FFF753FE0A2235
:100D30000E4BC046013B002BFBD1013A002AF7D1F4
:100D40000028F2D1FFF77AFE094C0A4D04262B68E1
:100D5000002B06D02369B343236130BF2B68002BDF
:100D6000F8D1002000F080FAF1E7C04640420F00C1
:100D700000ED00E09000002010B5012186B0041CB9
:100D80001D4800F091F8032007210422012300F000
:100D9000CFFA032006210122002300F0C9FA694698
:100DA00000230294154C0B7001930B73CB81052229
:100DB00080234A735B010022201C0B828A74CA7450
:100DC0000A7500F02FFD0E4BC02063650D4B80218E
:100DD000A364E26C04231343E36480220A4B920071
:100DE0004000490019501A501960201C1A60052152
:100DF00000F012FD06B010BD0032020000C4004039
:100E000003020000FF1F000000E100E000B50449FC
:100E100040220B691A42FCD0014B586300BDC0460A
:100E200000C40040074930B540220024055D002D74
:100E300007D00B691A42FCD0024B01345D63962C3B
:100E4000F4D130BD00C40040104808B503691A064B
:100E500000D408BD00F050FD0D4B68229A5C002ABA
:100E60000FD15A6E98545A6E01325A66002802D138
:100E70000121692299545A6E632A02D901216822FC
:100E80009954024B04229A64E3E7C04600C4004030
:100E9000A4000020034B002269215A665A5468219D
:100EA0005A547047A4000020030570B51B0F062B91
:100EB0000ED8124A9B00D3589F46114AC003C00E59
:100EC000136801248440A3438140181C0843106028
:100ED00070BD0C4AF2E70C4AF0E70C4AEEE70C4A08
:100EE00001240C4DC0036B6DC00EDE07E8D42B6DE2
:100EF0002342FCD1E4E71024074AF2E7C01D0000BA
:100F000078800C4008800C4044800C4040800C40AD
:100F100058800C4000800C4060800C4008B5F823DD
:100F20009B031840C023DB02984200D173E00ED926
:100F300090235B03984249D017D9A0235B039842C2
:100F400053D0D0235B0398422ED000200CE08023A6
:100F50009B02984200D16FE08023DB02984220D0B0
:100F60000028F2D100F058FD08BD80231B039842F1
:100F7000EBD14C4A0321936A0B40022B00D183E052
:100F8000032B00D17CE0012B6AD0936A00201B0C5C
:100F900001D000F095FD434B0F229B6E1340D840CB
:100FA000E2E700F0E1FCDFE73E4BE0215B69C900CE
:100FB00080220B40920093426FD045D9C02292000C
:100FC000934268D08B42C0D13748CDE7354A936A07
:100FD0001B079B0F022B4DD0032B47D0012B3CD07E
:100FE000936A00201B0DBFD023E02E4A936A1B0793
:100FF0009B0F022B41D0032B49D0012B33D0936A96
:1010000000201B0D01D000F05BFD264B03221B6F5F
:101010001340D840A8E7234A0321936A0B40022BD0
:1010200028D0032B22D0012B17D0936A00201B0C51
:101030009AD000F045FD97E700F0EEFC194B0F2227
:101040009B681340D8408FE7002B28D080225200A5
:10105000934200D079E7154886E700F02DFD83E73D
:1010600000F02AFD97E700F027FDCEE700F07CFCBA
:10107000400879E700F028FD76E700F025FDC4E799
:1010800000F072FC400886E700F01EFD83E700F0E8
:101090006BFC4008B9E7064866E7064864E706487F
:1010A00062E7C04600800C40406F4001C0D8A700F6
:1010B00040420F00C0CF6A00809FD50038B50F2492
:1010C0000440012C0AD0002C00D138BD032CFCD8E0
:1010D0000929FAD8434B89005B589F460929F4D85F
:1010E000414B89005B589F468022802352035B025C
:1010F0000021022C6ED03D4B3D49986A01400A43C5
:101100009A62E2E73B4B042219680A431A60032102
:101110000C220023EDE7354940230B628022CB6A85
:101120001A42FCD000F0FAF8042200230121E0E783
:101130002E4980235B0080220B629200CB6A13420F
:10114000FCD000F0EBF8082200230221D1E70022B6
:1011500000230021CDE703250123022223490B624E
:10116000CB6A1342FCD000F0D9F8234B07225B680E
:10117000111C1940012902D89343012213431E4C2C
:1011800063601A4B5D6200F0C9F800F0EDFB1B4A8A
:10119000636881181A4A914216D8072293430122A4
:1011A0001343154A536090E70125D5E703254023F3
:1011B0008022D3E78023802204255B009200CDE7C4
:1011C000022504230822C9E70E4A9042E9D80722E3
:1011D0009343E6E7054A0B43906A0B4908400343F3
:1011E000936272E7DC1D0000041E000000800C40CA
:1011F000F3FFEFFF40800C4000000C40FFDB0BFFD3
:10120000FF23F4000024F400FCFFFEFF08B50428CF
:1012100007D8134B80001B589F46124B186200F0F2
:101220007DF808BD012302200029F6D00D490B628C
:10123000002AF4D00A1CD36A0342FCD000F06EF8F6
:10124000EFE710232020EFE7802380205B00800061
:10125000EAE740238020E7E704230820E4E7C046CC
:101260002C1E000000800C40284938B5284ACB6A63
:1012700004241380274A15692C43146130BF0028C9
:1012800005D15A0500D538BD00F06EFBFBE784227E
:1012900088580124044020488850AA2252001A404D
:1012A0000A62F022920180201A404001824213D04B
:1012B0008020800182421FD080200001824213D012
:1012C000DA0702D4114B02221A62002CDBD00F4A3B
:1012D00000218423D150D6E78020CA6A1042FCD076
:1012E0000A4A03215162EBE70820CA6A1042FCD087
:1012F000064A02215162E3E780208000CA6A024266
:10130000FCD0024A04215162DAE7C04600800C405A
:101310009400002000ED00E00E580000024BDA6A55
:10132000024B1A807047C04600800C409400002099
:10133000F0B54F464646C0B4C400002A09D0C400E8
:10134000012625188E40AD00002B3DD0244FED190D
:101350002E612518AD00072920D8214EAD196F68E0
:101360008E00B9460F27B740B0464E46BE43B4463E
:10137000171C4646B74066463E436E60002A09D1B8
:10138000002B25D101238B40191C2018154B800000
:10139000C01841600CBC90469946F0BD104FED1945
:1013A000AE68B146104E8F19BF00B8460F273E1CDD
:1013B0004746BE404F46B743BC464646171CB7405B
:1013C00066463E43AE60D9E7064FED196E60C0E752
:1013D0002018034F012380008B40C0190361D9E717
:1013E0000060004010600040F8FFFF3FF8B50023A8
:1013F00043631B4B0D1C036303680222497893432C
:1014000001224A40520013430360AE68041C2F7B44
:101410006868002E14D02268124B134023602368A2
:101420003A0213432360002815D0B300C01A0E4BB4
:10143000D95D714300F04EFB23689A0707D4206101
:101440002368012293432A7813432360F8BD0028C0
:10145000F5D10120F3E70548FFF760FDE5E7C04659
:10146000CFFF0100FFFCFFFF641E0000108102009F
:10147000F0B55F4656464D464446F0B4B84B83B08F
:10148000984200D0FDE0B74BB74C5A88A14694462D
:101490008026402204249F6819781D79B246904620
:1014A000A346826AC024E400144000D00CE108295D
:1014B00011D9FB225A706146092259801D711A7098
:1014C000A74B05205C63404203B03CBC9046994664
:1014D000A246AB46F0BD8C004E463659B7460721B2
:1014E000644619705C801D71960619D5ED007F1950
:1014F0009B483A895988C4698A4200D8DBE07D68F4
:101500006C54013189B259808A4200D8D3E0042357
:101510004360012A04D0013A914201D1082343607B
:101520000120D1E7082119708021604649005880C8
:101530001D710A42F4D08A4A1163587809221A7040
:101540008749002240B24A630128BDD15A70002069
:10155000BAE766465E801D7179883A88C80600D46D
:101560009AE00620120A0240F02002434C0701D5FF
:1015700001210A4304211970794B0121596001208E
:101580005A62A1E75646164200D0B0E041461142E9
:1015900000D1D1E001637A885E4616426FD0604682
:1015A000072258801D711A7001208DE7EA00BA18D1
:1015B0001489644500D9ABE07A8801355C46EDB208
:1015C00014406CD10126324000D0C5E0012D78D9FD
:1015D0005A801D7108221A70614B02225A60012044
:1015E00072E75646164200D081E04146114200D1D2
:1015F0009BE0424602637A885949D40600D5A2E0AE
:1016000094073CD51D7166460722ED005E801A7076
:101610007F193B89012B00D082E708234B60012012
:1016200052E7604658801D717A88D1062CD53988DA
:101630000622090A1140F022114301221A70484B78
:10164000012059625A603FE7514611425DD144463C
:10165000144228D1022266461A705E801D71012054
:1016600032E75146114250D14446144206D1062277
:1016700066461A705E801D71012025E7046305210E
:101680000FE7042040421FE73988FE2001409407FD
:10169000D3D501221143D0E7FE20024066E70026A1
:1016A000B4460321FDE604637A880321940700D53C
:1016B000F7E60521F5E6012A8CD1294A0821516077
:1016C00088E700229446ECE664465C801D7196052E
:1016D00005D5FD225A70FD2009221A7030E7500509
:1016E00001D45878F8E7FE225A70FE20F4E76046ED
:1016F00058801B4A80211D711163FF2159700821F8
:101700001970022353600120DEE662465A80F0E73A
:1017100052686046115C124A1D7151626246013284
:101720005A8006221A700120CEE601221A70624603
:101730005A801D710120C7E604221A7062465A8041
:101740001D710120C0E6664602225E801D711A707E
:101750003B7801204B62B7E65C801D713AE7C046DA
:1017600000A0004098000020401E000008B5174B64
:10177000984229D18368DA0701D5202343604B883A
:101780009A0702D50A89002A1ED05A0702D50B8A69
:10179000002B19D00E4B002201201A711A705A80AA
:1017A00058709960094BC0225A609A6A910609D410
:1017B0000648084B0363FC23DB004363FFF758FE36
:1017C00040B208BDDB69F3E7FC20F9E700A0004068
:1017D00098000020CFFF010000B5002802D1034B84
:1017E000196000BD0128FCD1014BF9E70800084051
:1017F0000C000840427800B50378002A01D002228C
:1018000013438278002A01D004221343014A136053
:1018100000BDC0460000084005238B435B00C36049
:10182000C1607047F8B52E4B2E4AC3600023036099
:1018300042602D4A83604361C36482642B4A041C66
:101840000D1C4365904246D08365AB7C002B04D0D1
:1018500022688023DB0513432360EB7C002B03D03D
:101860002A7D10231343A3652A8A6B7B6868134380
:10187000EA89AF68134363602E7B00281ED0402E98
:1018800021D0402E04D9602E1FD02B78E360F8BD04
:10189000002E1CD11021794380004B08181800F04D
:1018A00019F9134B043880011840236860229343D0
:1018B000236023681E4326606061E6E70D48FFF75A
:1018C0002DFB402EDDD10621E5E70421E3E7202EA4
:1018D000DBD10821DFE703658365C365B5E7C04653
:1018E000AA0E000005100000F91F000000C400400F
:1018F000C0FF1F001081020000B5802203691A4258
:10190000FCD0C069C0B200BD064880470649074AFE
:10191000074B9B1A03DD043BC858D050FBDC05483D
:1019200000470000B51A00007C1E000000000020E7
:101930007400002061090000FEE7FEE7FEE7FEE715
:10194000FEE7FEE7FEE7FEE7FEE7FEE7FEE7FEE76F
:10195000FEE7FEE7FEE7FEE7FEE7FEE7FEE7FEE75F
:10196000FEE7FEE7FEE7C046224AF023D16A9B016C
:101970000B40802100B549018B4226D0802189018E
:101980008B421FD0802109018B4210D0D268E02306
:10199000DB00134080229200934223D018D8002B02
:1019A00022D08022520093421AD1134A01E0134BF5
:1019B0001A68104B0F205B681840114BC240101C76
:1019C0001A6000BD0F4B1A68F3E780221202F0E79D
:1019D000C022920093420BD08022D200934205D0C5
:1019E0000022E6E7084AE4E7084AE2E7084AE0E7B7
:1019F000084ADEE700800C4040B564000400002087
:101A00001401002000000020C0D8A700804F120061
:101A1000406F4001809FD5001E4AF023D16A9B0190
:101A20000B40802100B549018B421ED080218901E5
:101A30008B4217D0802109018B4210D0D268E0235D
:101A4000DB0013408022920093421BD010D8002B61
:101A50001AD080225200934212D10F4801E00F4B5E
:101A6000186800BD0E4B1868FBE780200002F8E7FD
:101A7000C022920093420BD08022D200934205D024
:101A80000020EEE70748ECE70748EAE70748E8E701
:101A90000748E6E700800C4040B5640004000020E1
:101AA00000000020C0D8A700804F1200406F400106
:101AB000809FD5007047C046802000027047C04616
:101AC000FA2080007047C046014B18687047C04636
:101AD00000000020002934D00123002210B48842E5
:101AE0002CD301242407A14204D2814202D209014D
:101AF0001B01F8E7E400A14204D2814202D249006E
:101B00005B00F8E7884201D3401A1A434C08A04210
:101B100002D3001B5C0822438C08A04202D3001BA6
:101B20009C082243CC08A04202D3001BDC082243BD
:101B3000002803D01B0901D00909E3E7101C10BCE1
:101B40007047002801D00020C04307B4024802A11A
:101B50004018029003BDC046190000000029F0D0D3
:101B600003B5FFF7B9FF0EBC4243891A1847C046B8
:101B70007047C04610B5044C002C02D000E000BFF6
:101B800000E0201C10BDC04600000000094B10B54D
:101B9000041C002B03D0002100E000BF01E000F096
:101BA0000DF805480068816A002900D08847201C8C
:101BB00000F05CF8000000006C1E000038B5084B17
:101BC000084C1D1CE01A8410002C06D0A1006A18D5
:101BD000043A13689847013CF6E700F04FF838BD27
:101BE000700000207400002070B50E4B0E4D0024D4
:101BF000E81A85101E1CAC4204D0A1007258904710
:101C00000134F8E700F034F80849094A0E1C541A68
:101C1000A5100024AC4204D0A300F0588047013442
:101C2000F8E770BD6C0000206C0000206C00002004
:101C30007000002010B50023934203D0CC5CC45444
:101C40000133F9E710BD00B58218031C934202D09E
:101C500019700133FAE700BD02780B7801300131C9
:101C6000002A01D09A42F7D0D01A704700B5FEE79B
:101C7000F8B5C046F8BC08BC9E467047F8B5C046EB
:101C8000F8BC08BC9E467047415400004F4B000012
:101C90000A546573744641494C0A000041542B4173
:101CA00044564925630000004F4B2B5365743A2579
:101CB000630000000A4164764641494C0A00000076
:101CC00041542B5245534554000000004F4B2B52BA
:101CD00045534554000000000A526573657446413F
:101CE000494C0A0041542B4E414D452573000000DC
:101CF0004F4B2B5365743A25730000000A4E616DFB
:101D0000654641494C0A000041542B504F57452528
:101D1000630000000A506F774641494C0A000000FA
:101D200041542B5354415254000000004F4B2B534D
:101D300054415254000000000A53746172744641C9
:101D4000494C0A0041542B42415544256300000090
:101D50000100010001010000000000003C6D0100D5
:101D6000000000000A4552524F523A204932435F68
:101D70006765745F74696D656F75740A00000000B3
:101D80004932435F7365745F74696D656F75740A7A
:101D9000000000006932635343414E00446574659E
:101DA0006374656420493243206465766963653AEB
:101DB00020256420253032780A0000007C000000D5
:101DC000D00E0000D20E0000D60E0000DA0E000089
:101DD000DE0E0000F60E0000BA0E0000CA10000071
:101DE0004E1100003011000016110000CA10000052
:101DF000CA10000004110000CA100000CA10000040
:101E0000E8100000CA100000CA100000B411000061
:101E1000AC110000C0110000A8110000CA100000A1
:101E2000CA100000CA10000056110000481200003D
:101E3000521200005812000024120000421200004A
:101E400022160000E215000048160000521500009E
:101E500084150000AC15000062160000DE140000BE
:101E600024150000080911084300000008000020A4
:041E7000000000006E
:081E7400ECEAFF7F0100000011
:101E7C000080000000366E01000000000000000031
:101E8C000000000000000000000000000000000046
:101E9C000000000000000000681E000000000000B0
:101EAC000000000000000000000000000000000026
:101EBC000000000000000000000000000000000016
:101ECC000000000000000000000000000000000006
:101EDC0000000000000000000000000029090000C4
:041EEC0001090000E8
:0400000300001909D7
:00000001FF
