:10080000001000207D120000AF120000B1120000A5
:10081000AD120000AD120000AD120000AD120000DC
:10082000AD120000AD120000AD120000B3120000C6
:10083000AD120000AD120000B5120000B7120000AA
:10084000B9120000BB120000BD120000BF12000070
:10085000C1120000C3120000C5120000C712000040
:100860007D0B0000B50B0000CD120000CF12000080
:10087000D1120000D3120000D5120000D7120000E0
:10088000D91200000000000000000000000000007D
:100890000000000000000000000000000000000058
:1008A0000000000000000000000000000000000048
:1008B0000000000000000000000000000000000038
:1008C0000000000000000000000000000000000028
:1008D0000000000000000000000000000000000018
:1008E0000000000000000000000000000000000008
:1008F00000000000000000000000000000000000F8
:1009000010B5064C2378002B07D10548002802D0EB
:10091000044800E000BF0121217010BD78000020D4
:1009200000000000C01E000008B5084B002B03D0DB
:100930000748084900E000BF07480168002903D0C4
:10094000064A002A00D0904708BDC04600000000BB
:10095000C01E00007C000020780000200000000085
:10096000164B002B00D1144B9D46402292029A1A3E
:10097000924600218B460F461348144A121A00F083
:1009800013FE0F4B002B00D098470E4B002B00D0CE
:1009900098470020002104460D4600200C49002203
:1009A000002300F0A1FD00F0D9FD2046294600F00B
:1009B00011F800F0A5FDC04600000800001000205E
:1009C000000000000000000078000020D00000209F
:1009D00031150000F0B5444656465F464D46F0B42A
:1009E000594B91B00024594806211C705C7000F0EE
:1009F0005DFA5748012100F04FF95648012100F0F7
:100A00004BF95548012100F047F95448012100F005
:100A100043F9022001210122002300F0F9FA02200B
:100A200000210422012300F0F3FA0120082104220E
:100A3000012300F0EDFA042200230120072100F039
:100A4000E7FA05236A4602941372454A0594049214
:100A50006A46137501235375937500230193414A28
:100A6000414B039406940794924698463F4A434666
:100A70009A643D4802A900F099FB0B2243465A654F
:100A80003948052100F022FB394B802252009A633D
:100A90000021354800F0E4FB0021334800F0E0FB82
:100AA0000121314800F0DCFB00212F4800F0D8FB89
:100AB000019A1F21114020312B4800F0D1FB2A4818
:100AC000AA2100F0CDFB019C81460134E4B20194DF
:100AD000122C33D0A346264880235B004363254D68
:100AE000254B0A26C8270422C4240121994200D19B
:100AF000C2510131A942F9D1013E0251002EF4D177
:100B000000F07CF851465A464B4608A800F056FDC6
:100B100008A800F0AFF8164E1748164A0A21C82454
:100B20000425C4270123834200D135510133934268
:100B3000F9D10139F5510029F4D197E700220023BA
:100B400093460193C7E7C046A000002003001200AF
:100B50000023040010810200007202000032020033
:100B600040420F00F41D000000C40040F91F0000C7
:100B700000600040C1D4010061EA0000094B00B5EB
:100B80001A6911060DD5D869074A084B1268196809
:100B9000914206DA06491A68096888541A680132CF
:100BA0001A6000BD00C40040B0000020A400002076
:100BB000AC0000200D4B10B51A6951060FD50C483A
:100BC000016800290FD00B4A1468095D5963136846
:100BD00001331360084B12681B689A4200D010BDA5
:100BE00000230360FBE75963F9E7C04600C40040F7
:100BF000C0000020C4000020B800002030B5174815
:100C000087B0012100F048F80320072104220123C6
:100C100000F0FEF9032006210122002300F0F8F97C
:100C20000F4A6B4631CA31C331CA31C30D4C6946D4
:100C3000201C00F051FA0C4B0C4A63650C4B8021D0
:100C4000A364C0235B004900D15080218900D150AA
:100C5000201C052100F03AFA07B030BD0032020036
:100C6000001E000000C400400302000000E100E09C
:100C7000FF1F0000074930B540220024055D002D0C
:100C800007D00B691A42FCD0024B01345D63962CED
:100C9000F4D130BD00C40040030570B51B0F062B16
:100CA0000ED8124A9B00D3589F46114AC003C00E6B
:100CB000136801248440A3438140181C084310603A
:100CC00070BD0C4AF2E70C4AF0E70C4AEEE70C4A1A
:100CD00001240C4DC0036B6DC00EDE07E8D42B6DF4
:100CE0002342FCD1E4E71024074AF2E7181E000073
:100CF00078800C4008800C4044800C4040800C40C0
:100D000058800C4000800C4060800C4008B5F823EF
:100D10009B031840C023DB02984200D173E00ED938
:100D200090235B03984249D017D9A0235B039842D4
:100D300053D0D0235B0398422ED000200CE08023B8
:100D40009B02984200D16FE08023DB02984220D0C2
:100D50000028F2D100F01AFB08BD80231B03984243
:100D6000EBD14C4A0321936A0B40022B00D183E064
:100D7000032B00D17CE0012B6AD0936A00201B0C6E
:100D800001D000F057FB434B0F229B6E1340D8401D
:100D9000E2E700F0A3FADFE73E4BE0215B69C90020
:100DA00080220B40920093426FD045D9C02292001E
:100DB000934268D08B42C0D13748CDE7354A936A19
:100DC0001B079B0F022B4DD0032B47D0012B3CD090
:100DD000936A00201B0DBFD023E02E4A936A1B07A5
:100DE0009B0F022B41D0032B49D0012B33D0936AA8
:100DF00000201B0D01D000F01DFB264B03221B6FB2
:100E00001340D840A8E7234A0321936A0B40022BE2
:100E100028D0032B22D0012B17D0936A00201B0C63
:100E20009AD000F007FB97E700F0B0FA194B0F22B9
:100E30009B681340D8408FE7002B28D080225200B7
:100E4000934200D079E7154886E700F0EFFA83E790
:100E500000F0ECFA97E700F0E9FACEE700F03EFA8E
:100E6000400879E700F0EAFA76E700F0E7FAC4E72D
:100E700000F034FA400886E700F0E0FA83E700F07B
:100E80002DFA4008B9E7064866E7064864E70648D1
:100E900062E7C04600800C40406F4001C0D8A70008
:100EA00040420F00C0CF6A00809FD50038B50F24A4
:100EB0000440012C0AD0002C00D138BD032CFCD8F2
:100EC0000929FAD8434B89005B589F460929F4D871
:100ED000414B89005B589F468022802352035B026E
:100EE0000021022C6ED03D4B3D49986A01400A43D7
:100EF0009A62E2E73B4B042219680A431A60032115
:100F00000C220023EDE7354940230B628022CB6A97
:100F10001A42FCD000F072F8042200230121E0E71D
:100F20002E4980235B0080220B629200CB6A134221
:100F3000FCD000F063F8082200230221D1E7002250
:100F400000230021CDE703250123022223490B6260
:100F5000CB6A1342FCD000F051F8234B07225B68A8
:100F6000111C1940012902D89343012213431E4C3E
:100F700063601A4B5D6200F041F800F0AFF91B4A64
:100F8000636881181A4A914216D8072293430122B6
:100F90001343154A536090E70125D5E70325402305
:100FA0008022D3E78023802204255B009200CDE7D6
:100FB000022504230822C9E70E4A9042E9D80722F5
:100FC0009343E6E7054A0B43906A0B490840034305
:100FD000936272E7341E00005C1E000000800C402B
:100FE000F3FFEFFF40800C4000000C40FFDB0BFFE5
:100FF000FF23F4000024F400FCFFFEFF024BDA6A3A
:10100000024B1A807047C04600800C4094000020BC
:10101000F0B54F464646C0B4C400002A09D0C4000B
:10102000012625188E40AD00002B3DD0244FED1930
:101030002E612518AD00072920D8214EAD196F6803
:101040008E00B9460F27B740B0464E46BE43B44661
:10105000171C4646B74066463E436E60002A09D1DB
:10106000002B25D101238B40191C2018154B800023
:10107000C01841600CBC90469946F0BD104FED1968
:10108000AE68B146104E8F19BF00B8460F273E1C00
:101090004746BE404F46B743BC464646171CB7407E
:1010A00066463E43AE60D9E7064FED196E60C0E775
:1010B0002018034F012380008B40C0190361D9E73A
:1010C0000060004010600040F8FFFF3F05238B43A5
:1010D0005B00C360C1607047F8B52E4B2E4AC360F9
:1010E0000023036042602D4A83604361C3648264CD
:1010F0002B4A041C0D1C4365904246D08365AB7C93
:10110000002B04D022688023DB0513432360EB7C93
:10111000002B03D02A7D10231343A3652A8A6B7BFF
:1011200068681343EA89AF68134363602E7B002825
:101130001ED0402E21D0402E04D9602E1FD02B78F7
:10114000E360F8BD002E1CD11021794380004B08CC
:10115000181800F079F9134B0438800118402368FF
:1011600060229343236023681E4326606061E6E7A4
:101170000D48FFF7CBFD402EDDD10621E5E7042128
:10118000E3E7202EDBD10821DFE703658365C36534
:10119000B5E7C046AA0E000005100000F91F0000C8
:1011A00000C40040C0FF1F0010810200264B274AE8
:1011B00070B5C360002303604260254A83604361C9
:1011C000C3648264234A041C0D1C4365904236D0DC
:1011D00083652A8A01231343AA7B2168501E82411A
:1011E00092020B4313432360AB7C21685A1E934148
:1011F0002A7D1B01501E824152070B43134323607B
:101200002A7B80235B01686813436360AE68002813
:1012100002D11148FFF77AFD731E40001818311CE7
:1012200000F012F90D4B80014038184060616B7B73
:10123000002B01D01023E3602B78E36070BD0365C1
:101240008365C365C5E7C046AA0E0000051000000F
:10125000F91F000000C400401081020000FF1F00C1
:1012600000B5402203691A42FCD041632022036981
:101270001A42FCD0C069C0B200BDC04606488047D3
:101280000649074A074B9B1A03DD043BC858D05058
:10129000FBDC05480047000029140000CC1E0000BC
:1012A000000000207800002061090000FEE7FEE752
:1012B000FEE7FEE7FEE7FEE7FEE7FEE7FEE7FEE706
:1012C000FEE7FEE7FEE7FEE7FEE7FEE7FEE7FEE7F6
:1012D000FEE7FEE7FEE7FEE7FEE7C046224AF02310
:1012E000D16A9B010B40802100B549018B4226D079
:1012F000802189018B421FD0802109018B4210D0AF
:10130000D268E023DB00134080229200934223D076
:1013100018D8002B22D08022520093421AD1134AAF
:1013200001E0134B1A68104B0F205B681840114BFB
:10133000C240101C1A6000BD0F4B1A68F3E78022F0
:101340001202F0E7C022920093420BD08022D2001A
:10135000934205D00022E6E7084AE4E7084AE2E7BC
:10136000084AE0E7084ADEE700800C4040B5640028
:1013700004000020C800002000000020C0D8A70002
:10138000804F1200406F4001809FD5001E4AF0231D
:10139000D16A9B010B40802100B549018B421ED0D0
:1013A000802189018B4217D0802109018B4210D006
:1013B000D268E023DB0013408022920093421BD0CE
:1013C00010D8002B1AD080225200934212D10F481D
:1013D00001E00F4B186800BD0E4B1868FBE780203A
:1013E0000002F8E7C022920093420BD08022D20084
:1013F000934205D00020EEE70748ECE70748EAE70C
:101400000748E8E70748E6E700800C4040B564007D
:101410000400002000000020C0D8A700804F120068
:10142000406F4001809FD5007047C0468020000279
:101430007047C046FA2080007047C046014B1868CC
:101440007047C04600000020002934D0012300224C
:1014500010B488422CD301242407A14204D2814233
:1014600002D209011B01F8E7E400A14204D2814243
:1014700002D249005B00F8E7884201D3401A1A43C0
:101480004C08A04202D3001B5C0822438C08A042F7
:1014900002D3001B9C082243CC08A04202D3001BAD
:1014A000DC082243002803D01B0901D00909E3E727
:1014B000101C10BC7047002801D00020C04307B4A6
:1014C000024802A14018029003BDC0461900000066
:1014D0000029F0D003B5FFF7B9FF0EBC4243891ACB
:1014E0001847C0467047C04610B5044C002C02D0C7
:1014F00000E000BF00E0201C10BDC046000000005E
:10150000094B10B5041C002B03D0002100E000BFE4
:1015100001E000F00DF805480068816A002900D05C
:101520008847201C00F058FC00000000881E0000C6
:1015300038B5084B084C1D1CE01A8410002C06D04E
:10154000A1006A18043A13689847013CF6E700F0D6
:101550004BFC38BD740000207800002070B50E4BA5
:101560000E4D0024E81A85101E1CAC4204D0A100C8
:10157000725890470134F8E700F030FC0849094AF6
:101580000E1C541AA5100024AC4204D0A300F0583D
:1015900080470134F8E770BD700000207000002023
:1015A000700000207400002000B58218031C9342D4
:1015B00002D019700133FAE700BD00000EB400B587
:1015C0009CB01DAB02A904CB82220290086192005C
:1015D00009488A810122886048615042074AC881CF
:1015E00010681D9A019300F063F8029900230B70B4
:1015F0001CB008BC03B01847FFFFFF7F6C00002041
:10160000F7B501919168071C141C002940D1902363
:101610009289D80002423BD02568216963696E1A1D
:1016200058000096C6180098F50FAB1901305D10F0
:10163000A84201DB009D0235381C53050FD5291C3B
:1016400000F004FB061E13D02169009A00F054FB41
:10165000A7891649802239401143A18111E02A1C33
:1016600000F053FB061E0CD1381C216900F0A6FACD
:101670000C203860A58940263543A58101246042AD
:1016800013E0009B6561F018ED1A26612060A560EB
:10169000A668002E08DD694627680A793A70A368B3
:1016A0000137013B2760A3600020FEBD7FFBFFFFE9
:1016B000F0B5A1B0049007938B890E1C171C190676
:1016C0000FD53269002A0CD1402100F0BFFA3060FA
:1016D0003061002803D1049C0C262660D6E040200F
:1016E000706108AD00212024302369616C76AB76EF
:1016F0003C1C2278002A04D1E01B069019D00397E5
:101700000FE0252AF8D00134F3E70399321C097859
:101710000498FFF775FF039A01320392013000D15C
:10172000AFE003990698CB1B8342EEDB0D9F3A187E
:101730000D922178002900D1A3E001206A46002300
:101740004742633201342B60EB606F60AB60137013
:10175000AB65504F2178381C052200F0C1FA0028F3
:1017600007D0C71B2B680120B840184328600134FC
:10177000EFE72B68D90603D5684620216330017056
:101780001A0703D56A462B276332177021782A2956
:1017900001D00B9B0EE0079A1068111D07910028DD
:1017A00001DB0B9004E0022247421343EF602B6001
:1017B000013409E020783038092804D80A277B430F
:1017C00001341B18F6E70B9323782E2B18D1617880
:1017D0002A2909D1079B02341A68191D0791002A8A
:1017E0000DDA012042420AE001340022207830382C
:1017F000092804D80A277A4301341218F6E7099217
:10180000254F2178381C032200F06AFA002806D000
:101810002B68C21B40219140194329600134217873
:101820001E4806222976671C00F05AFA002817D0B5
:101830001B4800280BD12868079C0723C10501D548
:10184000E41800E007349C430834079414E007AA26
:1018500000920498291C321C124B00E000BF07E0E4
:1018600007AC00940498291C321C0E4B00F08CF835
:10187000059005994A1C04D00D99059A8C180D9471
:1018800036E7B589690601D40D9801E00127784251
:1018900021B0F0BD8C1E0000921E0000961E0000BC
:1018A0000000000001160000F7B5151C01930A693D
:1018B0008B6800900C1C934200DA131C201C2B60D8
:1018C00043300178002901D001332B602668B0062F
:1018D00002D52F6802372F602268062616401CD0DA
:1018E000261C4336377822683E1C731E9E419206A2
:1018F0001CD5A319181C40303021271CC170453756
:101900003A784133DA70023610E0617E0098019A2D
:10191000089FB847013006D00136E3682868191AD5
:101920008E42F2DBDCE7012040422CE00027B74288
:101930000ADAE119433109780098019A089B98471F
:101940000130F0D00137F2E72B68256806212940E5
:10195000E6680025042903D1F01AC743FD170540A6
:10196000A2682669B24201DD931BED180027AF4241
:1019700008DAA17E0098019A089EB0470130D2D0C3
:101980000137F4E70020FEBDF0B50D1C8BB04335E8
:1019900007930590069204950A7E0C1C109B6E2AF4
:1019A00000D1A8E012D8632A24D009D8002A00D197
:1019B000B1E0582A00D0C1E045310A707D4D51E0B8
:1019C000642A1FD0692A00D0B8E01BE0732A00D136
:1019D000A5E009D86F2A2BD0702A00D0AEE00A68A3
:1019E000202616430E6038E0752A21D0782A00D0D0
:1019F000A4E032E018680E1C051D1D600368423625
:101A000033709EE026681F68300606D4750604D53C
:101A1000381D186000203D5E02E03D1D1D603D68E0
:101A2000644B002D3BDA04992D226D420A7036E09A
:101A300027681E683D0605D4780603D5351D1D6050
:101A4000358802E0311D196035685A4B207E0393BA
:101A500008276F281ED00A271CE0271C453778204E
:101A6000554D38701A682668111D039519603006A7
:101A700003D4750601D5158800E01568F00702D576
:101A800020231E4326601027002D03D12668202026
:101A900086432660261C43360022327001E0039301
:101AA0000A276168A160002903DB206804239843AA
:101AB0002060002D02D1049E00290ED0049E281C17
:101AC000391CFFF705FD039A013E515C281C31705B
:101AD000391CFFF7B9FC051EF1D1049B9A1B22614A
:101AE000082F33D12768F80730D5606890422DDC85
:101AF000013262602AE008681E684969050606D45A
:101B0000450604D5351D1D603368198003E0321D7C
:101B10001A603768396000202061049E16E01E6854
:101B2000311D19603668301C00F028F965682061A5
:101B3000A84200D925612369636004E0261C42366F
:101B4000327001212161049F00223A7007990598A3
:101B5000009109AA211C069BFFF7A6FE01300CD0BC
:101B6000351C2269AB1B93420ADA29780598069A3C
:101B7000079FB84701350130F3D10122504217E0E9
:101B80002668B10705D4099BE068984210DA181C52
:101B90000EE00025E7680998391A8D42F3DA617E74
:101BA0000598069A079EB0470130E6D00135F1E767
:101BB0000BB0F0BD9D1E0000AE1E000030B5002928
:101BC00040D004390B68002B00DAC9181E4A13688C
:101BD000141C002B02D14B60116033E099420FD2EC
:101BE0000D684A199A4205D110682B1855680B6088
:101BF0004D6000E04B60216024E08A4203D8131C52
:101C00005A68002AF9D11D685C198C420BD10C6806
:101C10002D1958191D60904214D1116852686C1822
:101C20001C605A600EE08C4202D90C21016009E070
:101C300008680D18954203D11468526800190860AD
:101C40004A60596030BDC0469800002070B503233B
:101C5000CD1C9D430835061C0C2D01D20C2501E03E
:101C6000002D2DDB8D422BD31C4A1368111C1C1C2C
:101C7000002C12D02068421B0CD40B2A02D92260FF
:101C8000A41815E0A34202D166680E601CE06568E6
:101C90005D6019E0231C6468EAE7301C291C00F031
:101CA0005BF8421C0CD0C41C03218C43844201D13C
:101CB000256009E0211A301C00F04EF80130F7D100
:101CC0000C243460002008E0201C0B300722211D6A
:101CD0009043431A01D05D42E55070BD980000204A
:101CE00000B5C9B28218904204D003788B4202D06A
:101CF0000130F8E7002000BD10B50023934203D067
:101D0000CC5CC4540133F9E710BDF8B5061C0C1CBB
:101D1000151C002904D1111CFFF798FF041C18E0C2
:101D2000002A03D1FFF74AFF2C1C12E000F02DF827
:101D3000A8420ED2301C291CFFF788FF071E07D0CF
:101D4000211C2A1CFFF7D8FF301C211CFFF736FF8F
:101D50003C1C201CF8BD000038B5074C0023051CB6
:101D6000081C236000F01CF8431C03D121680029E3
:101D700000D0296038BDC046CC0000200023C25CE2
:101D80000133002AFBD1581E704704390B6800B597
:101D9000181F002B02DAC8581918081F00BD0000D0
:101DA0000A4A00B51368002B0CD0181869468842FF
:101DB00002D81060181C00BD054B0C2201201A60CF
:101DC0004342F7E7034B1360EFE7C0469C00002057
:101DD000CC000020D000002000B5FEE7F8B5C046DA
:101DE000F8BC08BC9E467047F8B5C046F8BC08BCB5
:101DF0009E4670475225643A2025640A0000000080
:101E0000000000000000000000C20100000500000A
:101E10000010000000000000C00C0000C20C000018
:101E2000C60C0000CA0C0000CE0C0000E60C00003E
:101E3000AA0C0000BA0E00003E0F0000200F0000A8
:101E4000060F0000BA0E0000BA0E0000F40E0000EB
:101E5000BA0E0000BA0E0000D80E0000BA0E000044
:101E6000BA0E0000A40F00009C0F0000B00F00008D
:101E7000980F0000BA0E0000BA0E0000BA0E000063
:101E8000460F00004300000008000020232D302BE7
:101E90002000686C4C00656667454647003031326B
:101EA00033343536373839414243444546003031C2
:101EB0003233343536373839616263646566000021
:041EC000000000001E
:081EC4009CEAFF7F0100000011
:101ECC000080000000366E010000000000000000E1
:101EDC0000000000000000000000000000000000F6
:101EEC000000000000000000841E00000000000044
:101EFC0000000000000000000000000000000000D6
:101F0C0000000000000000000000000000000000C5
:101F1C0000000000000000000000000000000000B5
:101F2C00000000000000000000000000080000207D
:081F3C00290900000109000061
:040000030000127D6A
:00000001FF
