:1008000000100020491800007B1800007D1800002F
:100810007918000079180000791800007918000094
:100820007918000079180000791800007F1800007E
:100830007918000079180000811800008318000062
:100840008518000087180000891800008B18000028
:100850008D1800008F1800009118000093180000F8
:100860003111000069110000991800009B18000068
:100870009D1800009F180000A1180000A318000098
:10088000A5180000000000000000000000000000AB
:100890000000000000000000000000000000000058
:1008A0000000000000000000000000000000000048
:1008B0000000000000000000000000000000000038
:1008C0000000000000000000000000000000000028
:1008D0000000000000000000000000000000000018
:1008E0000000000000000000000000000000000008
:1008F00000000000000000000000000000000000F8
:1009000010B5064C2378002B07D10548002802D0EB
:10091000044800E000BF0121217010BD78000020D4
:10092000000000004025000008B5084B002B03D054
:100930000748084900E000BF07480168002903D0C4
:10094000064A002A00D0904708BDC04600000000BB
:10095000402500007C0000207800002000000000FE
:10096000164B002B00D1144B9D46402292029A1A3E
:10097000924600218B460F461348144A121A01F082
:1009800002F90F4B002B00D098470E4B002B00D0E4
:1009900098470020002104460D4600200C49002203
:1009A000002301F087F801F0BFF82046294600F047
:1009B0003DFB01F08BF8C04600000800001000204D
:1009C000000000000000000078000020E40000208B
:1009D000FD1A000010B5074B074C0849A364201C02
:1009E00000F0CAFE0B236365201C052100F054FEB5
:1009F00010BDC046F91F000000C40040A000002048
:100A0000F0B54D4644465F465646F0B4E34BE44CE1
:100A10009FB0A364201CE34900F0AEFE0B23636586
:100A2000201C052100F038FEDF4D2B78002B00D074
:100A300021E216AFDD490422381C01F09BF8DC4DA1
:100A400080235B00DB49DC4AAB63B8460123C82442
:100A500004208B4200D1285101339342F9D1D44C68
:100A60000422C423E2507F21CD4800F0DFFE0021A4
:100A7000CB4800F0DBFE0021C94800F0D7FE06ABF2
:100A800018700021C64800F0D1FE6B465876002150
:100A9000C34800F0CBFE6B4698760021C04800F0BA
:100AA000C5FE6B46D87680235B00C249C24A6363A9
:100AB000C825A363042001238B4200D16051013378
:100AC0009342F9D1BA4C0422C423E2507F21B448A6
:100AD00000F0ACFE0621B24800F0A8FE0021B048AC
:100AE00000F0A4FE07AB18700021AD4800F09EFE98
:100AF0006B4658770021AA4800F098FE6B4698771D
:100B00000021A74800F092FE6B46D87780235B0057
:100B1000A849A94A6363C825A363042001238B4223
:100B200000D1605101339342F9D1A1480422C4237A
:100B3000C25081467F219A4800F078FE04219848EF
:100B400000F074FE0021964800F070FE04AC2070A6
:100B50000021934800F06AFE6F461137387000217B
:100B60008F4800F063FE6E461236307000218C48CC
:100B700000F05CFE80236A465B004D46D0746B63D8
:100B80004046227803789A4200D179E1884A80234E
:100B90005B0093639146C82294460420854D864AA3
:100BA00001238246AB4203D1494650466144086066
:100BB00001339342F6D17E490422C423CA500D1C4E
:100BC00089467748402100F031FE0421744800F046
:100BD0002DFE40460178724800F028FE6B465933DE
:100BE00019786F4800F022FE6B465A3319786C482A
:100BF00000F01CFE6B465B331978694800F016FE66
:100C000080235B00C8226B639446042569496A4AC5
:100C10000123AA468B4203D14D46504665442860C5
:100C200001339342F6D1624A0421C423D150802378
:100C30005B0093639146C822944604255D495E4A51
:100C40000123AA468B4203D14D4650466544286095
:100C500001339342F6D156480422C423C250814640
:100C60007F214F4800F0E2FD04214D4800F0DEFDF9
:100C700000214B4800F0DAFD00212070484800F0C8
:100C8000D5FD00213870464800F0D0FD00213070BD
:100C9000434800F0CBFD80236A465B004D460127A8
:100CA000D074BB466B63424D80235B004149424A8E
:100CB000AB63C824012304208B4200D128510133A7
:100CC0009342F9D13A4CC4230422E2502121344802
:100CD00000F0ACFD3248002100F0A8FD80235B004D
:100CE00003906363324D80235B003249324AAB6329
:100CF000C824012304208B4200D1285101339342A0
:100D0000F9D12B4A0421C423D1502548BF2100F03A
:100D10008DFD1EAA444691462148002100F086FD23
:100D2000207001344C45F7D1214D80277F006F633F
:100D3000002408AEBA46C82057461E491E4A8446BB
:100D4000AF63012304208B4201D16746E851013390
:100D50009342F8D1211C0422C4232031EA50C9B2A5
:100D60000F4800F063FD00210D4800F05FFD802179
:100D70003055490001346963122CDCD1C8229446F5
:100D8000C4230E480A4D0E4A022104249A46012328
:100D9000834217D16746EC5114E0C046F91F0000AA
:100DA00000C40040A000002094000020BC230000EC
:100DB0000060004071170000E12E000061EA0000B1
:100DC000C1D4010001339342E2D153460139EC50C2
:100DD0000029DCD100F0ECF9884D2B78002B61D094
:100DE0000024874F874D09E0221C291C00F0D4FE07
:100DF00001340EA800F024FA122C0DD0335D0EA899
:100E0000002BF1D1221C391C00F0C6FE01340EA8C3
:100E100000F016FA122CF1D10A2000F005FA7A4DF2
:100E200044462278291C0EA800F0B6FE01340EA814
:100E300000F006FA4C45F4D10A2000F0F5F90A203A
:100E400000F0F2F9714D7248724A1421C827042447
:100E5000C4260123834200D1EC5101339342F9D1DE
:100E60000139AC510029F4D11FB03CBC90469946E1
:100E7000A246AB46F0BD002016A98346884631E75E
:100E8000627843789A4200D080E6A27883789A42CA
:100E900000D07BE6E278C3789A4200D076E600275D
:100EA000BB4600E706A988780A784B780090C97895
:100EB0000EA80191584900F06FFE0EA800F0C0F98D
:100EC000C827C4235248514D524A0221BC4604242B
:100ED0009A460123834201D16746EC510133934284
:100EE000F8D157460139EC510029F2D104A988788C
:100EF0000A784B780090C9780EA80191474900F014
:100F00004BFE0EA800F09CF9C8229446C42340482A
:100F10003E4D404A022104249A460123834201D1D6
:100F20006746EC5101339342F8D157460139EC51F1
:100F30000029F2D107A988780A784B780090C978FF
:100F40000EA80191364900F027FE0EA800F078F9AE
:100F5000C8229446C4232E482C4D2E4A0221042434
:100F60009A460123834201D16746EC5101339342F3
:100F7000F8D157460139EC510029F2D158460128E1
:100F800022D02849039A0EA800F006FE0EA800F011
:100F900057F9C8229446C4231D481C4D1D4A0221FE
:100FA00004249A460123834201D16746EC51013360
:100FB0009342F8D157460139EC510029F2D10F4D37
:100FC0002B7801332B700BE7174800F039F9C82252
:100FD0009446C4230E4D0D4C0E4A022104209A461D
:100FE0000123AB4201D16746E05101339342F8D16E
:100FF00057460139E0510029F2D1C2E794000020A0
:1010000068240000542400007824000000600040A0
:1010100061EA0000C1D40100C0230000E423000005
:1010200008240000442400002C240000F8B53648B1
:10103000062100F021FA3548012100F013F9344867
:10104000012100F00FF93348012100F00BF932487B
:10105000012100F007F9022001210122012300F003
:10106000BDFA022000210422012300F0B7FA01207A
:1010700008210422012300F0B1FA012007210422F3
:10108000002300F0ABFA254B05221A701A730021D9
:10109000012259605A7322499A7380229200996002
:1010A0001A82FFF797FC1F4880235B001E4F1F4DDD
:1010B00043630A22C8260421C424012302E0013329
:1010C000AB4205D0BB42FAD101338151AB42F9D1D9
:1010D000013A0151002AF0D1FFF792FC124CFFF7C0
:1010E0008FFC104D114A0A21C8270420C426012371
:1010F000A34200D1E85101339342F9D10139A851FB
:101100000029F4D1EBE7C0460300120000230400DD
:10111000108102000072020000320200A0000020D4
:10112000A08601000060004061EA0000C1D4010017
:10113000094B00B51A6911060DD5D869074A084B45
:1011400012681968914206DA06491A6809688854D3
:101150001A6801321A6000BD00C40040C4000020BB
:10116000B8000020C00000200D4B10B51A695106D0
:101170000FD50C48016800290FD00B4A1468095D8F
:101180005963136801331360084B12681B689A4255
:1011900000D010BD00230360FBE75963F9E7C046A8
:1011A00000C40040D4000020D8000020CC00002063
:1011B00030B5174887B0012100F054F8032007210B
:1011C0000422012300F00AFA032006210122002351
:1011D00000F004FA0F4A6B4631CA31C331CA31C339
:1011E0000D4C6946201C00F05DFA0C4B0C4A6365FF
:1011F0000C4B8021A364C0235B004900D1508021A7
:101200008900D150201C052100F046FA07B030BDFE
:10121000003202008024000000C4004003020000ED
:1012200000E100E0FF1F000000B5044940220B6907
:101230001A42FCD0014B586300BDC04600C40040B8
:10124000074930B540220024055D002D07D00B6909
:101250001A42FCD0024B01345D63962CF4D130BDB0
:1012600000C40040030570B51B0F062B0ED8124AB0
:101270009B00D3589F46114AC003C00E1368012437
:101280008440A3438140181C0843106070BD0C4A81
:10129000F2E70C4AF0E70C4AEEE70C4A01240C4D49
:1012A000C0036B6DC00EDE07E8D42B6D2342FCD16A
:1012B000E4E71024074AF2E79824000078800C4005
:1012C00008800C4044800C4040800C4058800C400A
:1012D00000800C4060800C4008B5F8239B03184048
:1012E000C023DB02984200D173E00ED990235B0348
:1012F000984249D017D9A0235B03984253D0D023FA
:101300005B0398422ED000200CE080239B02984281
:1013100000D16FE08023DB02984220D00028F2D178
:1013200000F01AFB08BD80231B039842EBD14C4A06
:101330000321936A0B40022B00D183E0032B00D1E1
:101340007CE0012B6AD0936A00201B0C01D000F0D6
:1013500057FB434B0F229B6E1340D840E2E700F04F
:10136000A3FADFE73E4BE0215B69C90080220B4016
:10137000920093426FD045D9C0229200934268D028
:101380008B42C0D13748CDE7354A936A1B079B0F84
:10139000022B4DD0032B47D0012B3CD0936A002069
:1013A0001B0DBFD023E02E4A936A1B079B0F022B15
:1013B00041D0032B49D0012B33D0936A00201B0D61
:1013C00001D000F01DFB264B03221B6F1340D840B9
:1013D000A8E7234A0321936A0B40022B28D0032B52
:1013E00022D0012B17D0936A00201B0C9AD000F05A
:1013F00007FB97E700F0B0FA194B0F229B681340E8
:10140000D8408FE7002B28D080225200934200D092
:1014100079E7154886E700F0EFFA83E700F0ECFA89
:1014200097E700F0E9FACEE700F03EFA400879E7E6
:1014300000F0EAFA76E700F0E7FAC4E700F034FAE1
:10144000400886E700F0E0FA83E700F02DFA400854
:10145000B9E7064866E7064864E7064862E7C0461B
:1014600000800C40406F4001C0D8A70040420F00F0
:10147000C0CF6A00809FD50038B50F240440012CEE
:101480000AD0002C00D138BD032CFCD80929FAD889
:10149000434B89005B589F460929F4D8414B89008A
:1014A0005B589F468022802352035B020021022C5E
:1014B0006ED03D4B3D49986A01400A439A62E2E78B
:1014C0003B4B042219680A431A6003210C220023B3
:1014D000EDE7354940230B628022CB6A1A42FCD0EB
:1014E00000F072F8042200230121E0E72E49802356
:1014F0005B0080220B629200CB6A1342FCD000F0AA
:1015000063F8082200230221D1E7002200230021F2
:10151000CDE703250123022223490B62CB6A134244
:10152000FCD000F051F8234B07225B68111C1940D6
:10153000012902D89343012213431E4C63601A4BC6
:101540005D6200F041F800F0AFF91B4A6368811852
:101550001A4A914216D80722934301221343154A8F
:10156000536090E70125D5E7032540238022D3E788
:101570008023802204255B009200CDE7022504230E
:101580000822C9E70E4A9042E9D807229343E6E7CA
:10159000054A0B43906A0B4908400343936272E784
:1015A000B4240000DC24000000800C40F3FFEFFFB7
:1015B00040800C4000000C40FFDB0BFFFF23F400D9
:1015C0000024F400FCFFFEFF024BDA6A024B1A8093
:1015D0007047C04600800C4096000020F0B54F4692
:1015E0004646C0B4C400002A09D0C400012625180C
:1015F0008E40AD00002B3DD0244FED192E612518F3
:10160000AD00072920D8214EAD196F688E00B9466C
:101610000F27B740B0464E46BE43B446171C464659
:10162000B74066463E436E60002A09D1002B25D1A3
:1016300001238B40191C2018154B8000C0184160F5
:101640000CBC90469946F0BD104FED19AE68B146FE
:10165000104E8F19BF00B8460F273E1C4746BE40AC
:101660004F46B743BC464646171CB74066463E4306
:10167000AE60D9E7064FED196E60C0E72018034F42
:10168000012380008B40C0190361D9E7006000404E
:1016900010600040F8FFFF3F05238B435B00C360F1
:1016A000C1607047F8B52E4B2E4AC360002303601B
:1016B00042602D4A83604361C36482642B4A041CE8
:1016C0000D1C4365904246D08365AB7C002B04D053
:1016D00022688023DB0513432360EB7C002B03D0BF
:1016E0002A7D10231343A3652A8A6B7B6868134302
:1016F000EA89AF68134363602E7B00281ED0402E1A
:1017000021D0402E04D9602E1FD02B78E360F8BD85
:10171000002E1CD11021794380004B08181800F0CE
:1017200079F9134B043880011840236860229343F1
:10173000236023681E4326606061E6E70D48FFF7DB
:10174000CBFD402EDDD10621E5E70421E3E7202E85
:10175000DBD10821DFE703658365C365B5E7C046D4
:10176000AA0E000005100000F91F000000C4004090
:10177000C0FF1F0010810200264B274A70B5C360CE
:10178000002303604260254A83604361C36482642E
:10179000234A041C0D1C4365904236D083652A8A77
:1017A00001231343AA7B2168501E824192020B43FE
:1017B00013432360AB7C21685A1E93412A7D1B0191
:1017C000501E824152070B43134323602A7B802320
:1017D0005B01686813436360AE68002802D111485A
:1017E000FFF77AFD731E40001818311C00F012F943
:1017F0000D4B80014038184060616B7B002B01D09D
:101800001023E3602B78E36070BD03658365C365D7
:10181000C5E7C046AA0E000005100000F91F000031
:1018200000C400401081020000FF1F0000B54022EC
:1018300003691A42FCD04163202203691A42FCD09A
:10184000C069C0B200BDC046064880470649074A85
:10185000074B9B1A03DD043BC858D050FBDC0548FE
:1018600000470000F51900004C2500000000002092
:101870007800002061090000FEE7FEE7FEE7FEE7D2
:10188000FEE7FEE7FEE7FEE7FEE7FEE7FEE7FEE730
:10189000FEE7FEE7FEE7FEE7FEE7FEE7FEE7FEE720
:1018A000FEE7FEE7FEE7C046224AF023D16A9B012D
:1018B0000B40802100B549018B4226D0802189014F
:1018C0008B421FD0802109018B4210D0D268E023C7
:1018D000DB00134080229200934223D018D8002BC3
:1018E00022D08022520093421AD1134A01E0134BB6
:1018F0001A68104B0F205B681840114BC240101C37
:101900001A6000BD0F4B1A68F3E780221202F0E75D
:10191000C022920093420BD08022D200934205D085
:101920000022E6E7084AE4E7084AE2E7084AE0E777
:10193000084ADEE700800C4040B564000400002047
:10194000DC00002000000020C0D8A700804F12005B
:10195000406F4001809FD5001E4AF023D16A9B0151
:101960000B40802100B549018B421ED080218901A6
:101970008B4217D0802109018B4210D0D268E0231E
:10198000DB0013408022920093421BD010D8002B22
:101990001AD080225200934212D10F4801E00F4B1F
:1019A000186800BD0E4B1868FBE780200002F8E7BE
:1019B000C022920093420BD08022D200934205D0E5
:1019C0000020EEE70748ECE70748EAE70748E8E7C2
:1019D0000748E6E700800C4040B5640004000020A2
:1019E00000000020C0D8A700804F1200406F4001C7
:1019F000809FD5007047C046802000027047C046D7
:101A0000FA2080007047C046014B18687047C046F6
:101A100000000020002934D00123002210B48842A5
:101A20002CD301242407A14204D2814202D209010D
:101A30001B01F8E7E400A14204D2814202D249002E
:101A40005B00F8E7884201D3401A1A434C08A042D1
:101A500002D3001B5C0822438C08A04202D3001B67
:101A60009C082243CC08A04202D3001BDC0822437E
:101A7000002803D01B0901D00909E3E7101C10BCA2
:101A80007047002801D00020C04307B4024802A1DB
:101A90004018029003BDC046190000000029F0D094
:101AA00003B5FFF7B9FF0EBC4243891A1847C04679
:101AB0007047C04610B5044C002C02D000E000BFB7
:101AC00000E0201C10BDC04600000000094B10B50E
:101AD000041C002B03D0002100E000BF01E000F057
:101AE0000DF805480068816A002900D08847201C4D
:101AF00000F056FC000000000825000038B5084B37
:101B0000084C1D1CE01A8410002C06D0A1006A1895
:101B1000043A13689847013CF6E700F049FC38BDE9
:101B2000740000207800002070B50E4B0E4D00248C
:101B3000E81A85101E1CAC4204D0A10072589047D0
:101B40000134F8E700F02EFC0849094A0E1C541A2B
:101B5000A5100024AC4204D0A300F0588047013403
:101B6000F8E770BD700000207000002070000020B9
:101B70007400002010B50023934203D0CC5CC45401
:101B80000133F9E710BD00B58218031C934202D05F
:101B900019700133FAE700BD0EB400B59CB01DAB5F
:101BA00002A904CB822202900861920009488A812E
:101BB0000122886048615042074AC88110681D9A16
:101BC000019300F063F8029900230B701CB008BC6D
:101BD00003B01847FFFFFF7F6C000020F7B50191AD
:101BE0009168071C141C002940D190239289D800C9
:101BF00002423BD02568216963696E1A580000963D
:101C0000C6180098F50FAB1901305D10A84201DB32
:101C1000009D0235381C53050FD5291C00F004FB2C
:101C2000061E13D02169009AFFF7A4FFA789164961
:101C3000802239401143A18111E02A1C00F04AFBA7
:101C4000061E0CD1381C216900F0A6FA0C20386061
:101C5000A58940263543A5810124604213E0009BFD
:101C60006561F018ED1A26612060A560A668002E57
:101C700008DD694627680A793A70A3680137013B95
:101C80002760A3600020FEBD7FFBFFFFF0B5A1B081
:101C9000049007938B890E1C171C19060FD5326907
:101CA000002A0CD1402100F0BFFA306030610028DA
:101CB00003D1049C0C262660D6E04020706108AD5C
:101CC00000212024302369616C76AB763C1C22789D
:101CD000002A04D1E01B069019D003970FE0252AB3
:101CE000F8D00134F3E70399321C09780498FFF720
:101CF00075FF039A01320392013000D1AFE00399DE
:101D00000698CB1B8342EEDB0D9F3A180D9221788B
:101D1000002900D1A3E001206A4600234742633234
:101D200001342B60EB606F60AB601370AB65504F9C
:101D30002178381C052200F0C1FA002807D0C71B03
:101D40002B680120B840184328600134EFE72B6866
:101D5000D90603D568462021633001701A0703D5E0
:101D60006A462B276332177021782A2901D00B9BF2
:101D70000EE0079A1068111D0791002801DB0B90F7
:101D800004E0022247421343EF602B60013409E074
:101D900020783038092804D80A277B4301341B18DF
:101DA000F6E70B9323782E2B18D161782A2909D1D5
:101DB000079B02341A68191D0791002A0DDA0120C9
:101DC00042420AE00134002220783038092804D841
:101DD0000A277A4301341218F6E70992254F217831
:101DE000381C032200F06AFA002806D02B68C21BB8
:101DF0004021914019432960013421781E48062270
:101E00002976671C00F05AFA002817D01B480028D2
:101E10000BD12868079C0723C10501D5E41800E011
:101E200007349C430834079414E007AA00920498EE
:101E3000291C321C124B00E000BF07E007AC0094E5
:101E40000498291C321C0E4B00F08CF80590059963
:101E50004A1C04D00D99059A8C180D9436E7B58963
:101E6000690601D40D9801E00127784221B0F0BD48
:101E70000C250000122500001625000000000000BF
:101E8000DD1B0000F7B5151C01930A698B680090F3
:101E90000C1C934200DA131C201C2B604330017889
:101EA000002901D001332B602668B00602D52F68C7
:101EB00002372F602268062616401CD0261C4336A7
:101EC000377822683E1C731E9E4192061CD5A319CA
:101ED000181C40303021271CC17045373A784133F7
:101EE000DA70023610E0617E0098019A089FB847C8
:101EF000013006D00136E3682868191A8E42F2DBF9
:101F0000DCE7012040422CE00027B7420ADAE11961
:101F1000433109780098019A089B98470130F0D026
:101F20000137F2E72B68256806212940E66800257D
:101F3000042903D1F01AC743FD170540A26826699A
:101F4000B24201DD931BED180027AF4208DAA17EF3
:101F50000098019A089EB0470130D2D00137F4E7CB
:101F60000020FEBDF0B50D1C8BB0433507930590E6
:101F7000069204950A7E0C1C109B6E2A00D1A8E0E4
:101F800012D8632A24D009D8002A00D1B1E0582AF7
:101F900000D0C1E045310A707D4D51E0642A1FD068
:101FA000692A00D0B8E01BE0732A00D1A5E009D867
:101FB0006F2A2BD0702A00D0AEE00A682026164384
:101FC0000E6038E0752A21D0782A00D0A4E032E0F3
:101FD00018680E1C051D1D600368423633709EE0B4
:101FE00026681F68300606D4750604D5381D1860AB
:101FF00000203D5E02E03D1D1D603D68644B002DEC
:102000003BDA04992D226D420A7036E027681E687B
:102010003D0605D4780603D5351D1D60358802E0E0
:10202000311D196035685A4B207E039308276F28AD
:102030001ED00A271CE0271C45377820554D3870E4
:102040001A682668111D03951960300603D47506B9
:1020500001D5158800E01568F00702D520231E433E
:1020600026601027002D03D1266820208643266095
:10207000261C43360022327001E003930A27616870
:10208000A160002903DB2068042398432060002D11
:1020900002D1049E00290ED0049E281C391CFFF793
:1020A000FDFC039A013E515C281C3170391CFFF77E
:1020B000B1FC051EF1D1049B9A1B2261082F33D17C
:1020C0002768F80730D5606890422DDC01326260E5
:1020D0002AE008681E684969050606D4450604D545
:1020E000351D1D603368198003E0321D1A603768A2
:1020F000396000202061049E16E01E68311D1960C1
:102100003668301C00F01EF965682061A84200D9CD
:1021100025612369636004E0261C42363270012188
:102120002161049F00223A7007990598009109AA3D
:10213000211C069BFFF7A6FE01300CD0351C22693E
:10214000AB1B93420ADA29780598069A079FB8478D
:1021500001350130F3D10122504217E02668B10762
:1021600005D4099BE068984210DA181C0EE000259F
:10217000E7680998391A8D42F3DA617E0598069A64
:10218000079EB0470130E6D00135F1E70BB0F0BD56
:102190001D2500002E25000030B5002940D004394F
:1021A0000B68002B00DAC9181E4A1368141C002B98
:1021B00002D14B60116033E099420FD20D684A1989
:1021C0009A4205D110682B1855680B604D6000E0ED
:1021D0004B60216024E08A4203D8131C5A68002A0D
:1021E000F9D11D685C198C420BD10C682D19581956
:1021F0001D60904214D1116852686C181C605A60BE
:102200000EE08C4202D90C21016009E008680D182B
:10221000954203D114685268001908604A605960F9
:1022200030BDC0469800002070B50323CD1C9D43EF
:102230000835061C0C2D01D20C2501E0002D2DDBEC
:102240008D422BD31C4A1368111C1C1C002C12D06D
:102250002068421B0CD40B2A02D92260A41815E076
:10226000A34202D166680E601CE065685D6019E0FB
:10227000231C6468EAE7301C291C00F051F8421C5A
:102280000CD0C41C03218C43844201D1256009E099
:10229000211A301C00F044F80130F7D10C243460CE
:1022A000002008E0201C0B300722211D9043431A18
:1022B00001D05D42E55070BD9800002000B5C9B264
:1022C0008218904204D003788B4202D00130F8E7A4
:1022D000002000BDF8B5061C0C1C151C002904D1FB
:1022E000111CFFF7A1FF041C18E0002A03D1FFF71F
:1022F00053FF2C1C12E000F02CF8A8420ED2301C28
:10230000291CFFF791FF071E07D0211C2A1CFFF78D
:1023100031FC301C211CFFF73FFF3C1C201CF8BD8A
:1023200038B5074C0023051C081C236000F01CF87E
:10233000431C03D12168002900D0296038BDC04664
:10234000E00000200023C25C0133002AFBD1581EAC
:10235000704704390B6800B5181F002B02DAC85803
:102360001918081F00BD00000A4A00B51368002BA9
:102370000CD018186946884202D81060181C00BD9D
:10238000054B0C2201201A604342F7E7034B136010
:10239000EFE7C0469C000020E0000020E80000209D
:1023A00000B5FEE7F8B5C046F8BC08BC9E467047CD
:1023B000F8B5C046F8BC08BC9E467047267E8F80A4
:1023C0005549443A2030782530327820307825300D
:1023D00032782030782530327820307825303278C5
:1023E0000A000000436F6E663A203078253032785C
:1023F00020307825303278203078253032782030FF
:1024000078253032780A00004C6F636B3A203078C0
:1024100025303278203078253032782030782530D9
:102420003278203078253032780A00006461746197
:102430002077726F746520746F20454550524F4D60
:102440000A0000004D6F6465523A307825303278CA
:102450000A0000005B3078253032785D2030782526
:1024600030327809000000005B3078253032785D2A
:10247000205F5F5F5F0900003078253032782000F0
:10248000000000000000000000C201000005000084
:1024900000100000000000008C1200008E120000EE
:1024A00092120000961200009A120000B212000070
:1024B00076120000861400000A150000EC140000DB
:1024C000D21400008614000086140000C01400001E
:1024D0008614000086140000A41400008614000076
:1024E0008614000070150000681500007C150000BF
:1024F0006415000086140000861400008614000095
:10250000121500004300000008000020232D302B8E
:102510002000686C4C0065666745464700303132E4
:10252000333435363738394142434445460030313B
:10253000323334353637383961626364656600009A
:042540000000000097
:082544001CE4FF7F0100000010
:10254C000080000000366E0100000000000000005A
:10255C00000000000000000000000000000000006F
:10256C000000000000000000042500000000000036
:10257C00000000000000000000000000000000004F
:10258C00000000000000000000000000000000003F
:10259C00000000000000000000000000000000002F
:1025AC0000000000000000000000000008000020F7
:0825BC002909000001090000DB
:040000030000184998
:00000001FF
